{"project/contracts/CryptoLockerDeFi.sol":{"CryptoLockerDeFi":{"abi":[{"inputs":[{"internalType":"address","name":"_profitWallet","type":"address"},{"internalType":"uint256","name":"_profitRate","type":"uint256"},{"internalType":"address","name":"_uniswapRouter","type":"address"},{"internalType":"address","name":"_aavePool","type":"address"}],"stateMutability":"nonpayable","type":"constructor"},{"inputs":[{"internalType":"address","name":"sender","type":"address"},{"internalType":"uint256","name":"tokenId","type":"uint256"},{"internalType":"address","name":"owner","type":"address"}],"name":"ERC721IncorrectOwner","type":"error"},{"inputs":[{"internalType":"address","name":"operator","type":"address"},{"internalType":"uint256","name":"tokenId","type":"uint256"}],"name":"ERC721InsufficientApproval","type":"error"},{"inputs":[{"internalType":"address","name":"approver","type":"address"}],"name":"ERC721InvalidApprover","type":"error"},{"inputs":[{"internalType":"address","name":"operator","type":"address"}],"name":"ERC721InvalidOperator","type":"error"},{"inputs":[{"internalType":"address","name":"owner","type":"address"}],"name":"ERC721InvalidOwner","type":"error"},{"inputs":[{"internalType":"address","name":"receiver","type":"address"}],"name":"ERC721InvalidReceiver","type":"error"},{"inputs":[{"internalType":"address","name":"sender","type":"address"}],"name":"ERC721InvalidSender","type":"error"},{"inputs":[{"internalType":"uint256","name":"tokenId","type":"uint256"}],"name":"ERC721NonexistentToken","type":"error"},{"inputs":[],"name":"EnforcedPause","type":"error"},{"inputs":[],"name":"ExpectedPause","type":"error"},{"inputs":[{"internalType":"address","name":"owner","type":"address"}],"name":"OwnableInvalidOwner","type":"error"},{"inputs":[{"internalType":"address","name":"account","type":"address"}],"name":"OwnableUnauthorizedAccount","type":"error"},{"inputs":[],"name":"ReentrancyGuardReentrantCall","type":"error"},{"anonymous":false,"inputs":[{"indexed":true,"internalType":"address","name":"owner","type":"address"},{"indexed":true,"internalType":"address","name":"approved","type":"address"},{"indexed":true,"internalType":"uint256","name":"tokenId","type":"uint256"}],"name":"Approval","type":"event"},{"anonymous":false,"inputs":[{"indexed":true,"internalType":"address","name":"owner","type":"address"},{"indexed":true,"internalType":"address","name":"operator","type":"address"},{"indexed":false,"internalType":"bool","name":"approved","type":"bool"}],"name":"ApprovalForAll","type":"event"},{"anonymous":false,"inputs":[{"indexed":false,"internalType":"uint256","name":"_fromTokenId","type":"uint256"},{"indexed":false,"internalType":"uint256","name":"_toTokenId","type":"uint256"}],"name":"BatchMetadataUpdate","type":"event"},{"anonymous":false,"inputs":[{"indexed":true,"internalType":"uint256","name":"collectionId","type":"uint256"},{"indexed":false,"internalType":"string","name":"name","type":"string"},{"indexed":true,"internalType":"address","name":"creator","type":"address"}],"name":"CollectionCreated","type":"event"},{"anonymous":false,"inputs":[{"indexed":true,"internalType":"address","name":"user","type":"address"},{"indexed":false,"internalType":"uint256","name":"lockId","type":"uint256"},{"indexed":false,"internalType":"uint256","name":"penalty","type":"uint256"}],"name":"EmergencyUnlocked","type":"event"},{"anonymous":false,"inputs":[{"indexed":true,"internalType":"address","name":"user","type":"address"},{"indexed":true,"internalType":"address","name":"token","type":"address"},{"indexed":false,"internalType":"uint256","name":"amount","type":"uint256"},{"indexed":false,"internalType":"uint256","name":"duration","type":"uint256"},{"indexed":false,"internalType":"uint256","name":"lockId","type":"uint256"}],"name":"Locked","type":"event"},{"anonymous":false,"inputs":[{"indexed":false,"internalType":"uint256","name":"_tokenId","type":"uint256"}],"name":"MetadataUpdate","type":"event"},{"anonymous":false,"inputs":[{"indexed":true,"internalType":"uint256","name":"tokenId","type":"uint256"},{"indexed":true,"internalType":"address","name":"creator","type":"address"},{"indexed":true,"internalType":"uint256","name":"collectionId","type":"uint256"},{"indexed":false,"internalType":"string","name":"metadataURI","type":"string"}],"name":"NFTMinted","type":"event"},{"anonymous":false,"inputs":[{"indexed":true,"internalType":"address","name":"previousOwner","type":"address"},{"indexed":true,"internalType":"address","name":"newOwner","type":"address"}],"name":"OwnershipTransferred","type":"event"},{"anonymous":false,"inputs":[{"indexed":false,"internalType":"address","name":"account","type":"address"}],"name":"Paused","type":"event"},{"anonymous":false,"inputs":[{"indexed":true,"internalType":"address","name":"from","type":"address"},{"indexed":true,"internalType":"address","name":"to","type":"address"},{"indexed":true,"internalType":"uint256","name":"tokenId","type":"uint256"}],"name":"Transfer","type":"event"},{"anonymous":false,"inputs":[{"indexed":true,"internalType":"address","name":"user","type":"address"},{"indexed":true,"internalType":"address","name":"token","type":"address"},{"indexed":false,"internalType":"uint256","name":"amount","type":"uint256"},{"indexed":false,"internalType":"uint256","name":"profit","type":"uint256"},{"indexed":false,"internalType":"uint256","name":"lockId","type":"uint256"}],"name":"Unlocked","type":"event"},{"anonymous":false,"inputs":[{"indexed":false,"internalType":"address","name":"account","type":"address"}],"name":"Unpaused","type":"event"},{"anonymous":false,"inputs":[{"indexed":true,"internalType":"address","name":"user","type":"address"},{"indexed":false,"internalType":"uint256","name":"lockId","type":"uint256"},{"indexed":false,"internalType":"uint256","name":"yield","type":"uint256"}],"name":"YieldClaimed","type":"event"},{"inputs":[],"name":"aavePool","outputs":[{"internalType":"contract IAavePool","name":"","type":"address"}],"stateMutability":"view","type":"function"},{"inputs":[{"internalType":"address","name":"to","type":"address"},{"internalType":"uint256","name":"tokenId","type":"uint256"}],"name":"approve","outputs":[],"stateMutability":"nonpayable","type":"function"},{"inputs":[{"internalType":"address","name":"owner","type":"address"}],"name":"balanceOf","outputs":[{"internalType":"uint256","name":"","type":"uint256"}],"stateMutability":"view","type":"function"},{"inputs":[{"internalType":"uint256","name":"_amount","type":"uint256"},{"internalType":"uint256","name":"_duration","type":"uint256"}],"name":"calculateProfit","outputs":[{"internalType":"uint256","name":"","type":"uint256"}],"stateMutability":"pure","type":"function"},{"inputs":[{"internalType":"uint256","name":"","type":"uint256"}],"name":"collections","outputs":[{"internalType":"uint256","name":"id","type":"uint256"},{"internalType":"string","name":"name","type":"string"},{"internalType":"string","name":"description","type":"string"},{"internalType":"address","name":"creator","type":"address"},{"internalType":"uint256","name":"createdAt","type":"uint256"}],"stateMutability":"view","type":"function"},{"inputs":[{"internalType":"string","name":"name","type":"string"},{"internalType":"string","name":"description","type":"string"}],"name":"createCollection","outputs":[{"internalType":"uint256","name":"","type":"uint256"}],"stateMutability":"nonpayable","type":"function"},{"inputs":[{"internalType":"uint256","name":"_lockId","type":"uint256"}],"name":"emergencyUnlock","outputs":[],"stateMutability":"nonpayable","type":"function"},{"inputs":[{"internalType":"uint256","name":"_duration","type":"uint256"}],"name":"getAPY","outputs":[{"internalType":"uint256","name":"","type":"uint256"}],"stateMutability":"pure","type":"function"},{"inputs":[{"internalType":"uint256","name":"tokenId","type":"uint256"}],"name":"getApproved","outputs":[{"internalType":"address","name":"","type":"address"}],"stateMutability":"view","type":"function"},{"inputs":[{"internalType":"address","name":"owner","type":"address"},{"internalType":"address","name":"operator","type":"address"}],"name":"isApprovedForAll","outputs":[{"internalType":"bool","name":"","type":"bool"}],"stateMutability":"view","type":"function"},{"inputs":[{"internalType":"address","name":"_token","type":"address"},{"internalType":"uint256","name":"_amount","type":"uint256"},{"internalType":"uint256","name":"_duration","type":"uint256"},{"internalType":"bool","name":"_useYield","type":"bool"}],"name":"lockTokens","outputs":[],"stateMutability":"nonpayable","type":"function"},{"inputs":[{"internalType":"address","name":"","type":"address"},{"internalType":"uint256","name":"","type":"uint256"}],"name":"locks","outputs":[{"internalType":"address","name":"token","type":"address"},{"internalType":"uint256","name":"amount","type":"uint256"},{"internalType":"uint256","name":"start","type":"uint256"},{"internalType":"uint256","name":"duration","type":"uint256"},{"internalType":"bool","name":"claimed","type":"bool"},{"internalType":"uint256","name":"profit","type":"uint256"},{"internalType":"bool","name":"usingYield","type":"bool"},{"internalType":"uint256","name":"yieldEarned","type":"uint256"}],"stateMutability":"view","type":"function"},{"inputs":[{"internalType":"string","name":"_name","type":"string"},{"internalType":"string","name":"_description","type":"string"},{"internalType":"string","name":"_contentType","type":"string"},{"internalType":"string","name":"_ipfsHash","type":"string"},{"internalType":"uint256","name":"_collectionId","type":"uint256"},{"internalType":"string","name":"_tokenURI","type":"string"}],"name":"mintNFT","outputs":[{"internalType":"uint256","name":"","type":"uint256"}],"stateMutability":"nonpayable","type":"function"},{"inputs":[],"name":"name","outputs":[{"internalType":"string","name":"","type":"string"}],"stateMutability":"view","type":"function"},{"inputs":[{"internalType":"uint256","name":"","type":"uint256"}],"name":"nftMetadata","outputs":[{"internalType":"string","name":"name","type":"string"},{"internalType":"string","name":"description","type":"string"},{"internalType":"string","name":"contentType","type":"string"},{"internalType":"string","name":"ipfsHash","type":"string"},{"internalType":"uint256","name":"collectionId","type":"uint256"},{"internalType":"address","name":"creator","type":"address"},{"internalType":"uint256","name":"mintedAt","type":"uint256"}],"stateMutability":"view","type":"function"},{"inputs":[],"name":"owner","outputs":[{"internalType":"address","name":"","type":"address"}],"stateMutability":"view","type":"function"},{"inputs":[{"internalType":"uint256","name":"tokenId","type":"uint256"}],"name":"ownerOf","outputs":[{"internalType":"address","name":"","type":"address"}],"stateMutability":"view","type":"function"},{"inputs":[],"name":"pause","outputs":[],"stateMutability":"nonpayable","type":"function"},{"inputs":[],"name":"paused","outputs":[{"internalType":"bool","name":"","type":"bool"}],"stateMutability":"view","type":"function"},{"inputs":[],"name":"profitRate","outputs":[{"internalType":"uint256","name":"","type":"uint256"}],"stateMutability":"view","type":"function"},{"inputs":[],"name":"profitWallet","outputs":[{"internalType":"address","name":"","type":"address"}],"stateMutability":"view","type":"function"},{"inputs":[],"name":"renounceOwnership","outputs":[],"stateMutability":"nonpayable","type":"function"},{"inputs":[{"internalType":"address","name":"from","type":"address"},{"internalType":"address","name":"to","type":"address"},{"internalType":"uint256","name":"tokenId","type":"uint256"}],"name":"safeTransferFrom","outputs":[],"stateMutability":"nonpayable","type":"function"},{"inputs":[{"internalType":"address","name":"from","type":"address"},{"internalType":"address","name":"to","type":"address"},{"internalType":"uint256","name":"tokenId","type":"uint256"},{"internalType":"bytes","name":"data","type":"bytes"}],"name":"safeTransferFrom","outputs":[],"stateMutability":"nonpayable","type":"function"},{"inputs":[{"internalType":"address","name":"_pool","type":"address"}],"name":"setAavePool","outputs":[],"stateMutability":"nonpayable","type":"function"},{"inputs":[{"internalType":"address","name":"operator","type":"address"},{"internalType":"bool","name":"approved","type":"bool"}],"name":"setApprovalForAll","outputs":[],"stateMutability":"nonpayable","type":"function"},{"inputs":[{"internalType":"uint256","name":"_profitRate","type":"uint256"}],"name":"setProfitRate","outputs":[],"stateMutability":"nonpayable","type":"function"},{"inputs":[{"internalType":"address","name":"_profitWallet","type":"address"}],"name":"setProfitWallet","outputs":[],"stateMutability":"nonpayable","type":"function"},{"inputs":[{"internalType":"address","name":"_router","type":"address"}],"name":"setUniswapRouter","outputs":[],"stateMutability":"nonpayable","type":"function"},{"inputs":[{"internalType":"bytes4","name":"interfaceId","type":"bytes4"}],"name":"supportsInterface","outputs":[{"internalType":"bool","name":"","type":"bool"}],"stateMutability":"view","type":"function"},{"inputs":[],"name":"symbol","outputs":[{"internalType":"string","name":"","type":"string"}],"stateMutability":"view","type":"function"},{"inputs":[{"internalType":"uint256","name":"tokenId","type":"uint256"}],"name":"tokenURI","outputs":[{"internalType":"string","name":"","type":"string"}],"stateMutability":"view","type":"function"},{"inputs":[{"internalType":"address","name":"from","type":"address"},{"internalType":"address","name":"to","type":"address"},{"internalType":"uint256","name":"tokenId","type":"uint256"}],"name":"transferFrom","outputs":[],"stateMutability":"nonpayable","type":"function"},{"inputs":[{"internalType":"address","name":"newOwner","type":"address"}],"name":"transferOwnership","outputs":[],"stateMutability":"nonpayable","type":"function"},{"inputs":[],"name":"uniswapRouter","outputs":[{"internalType":"contract IUniswapV2Router02","name":"","type":"address"}],"stateMutability":"view","type":"function"},{"inputs":[{"internalType":"uint256","name":"_lockId","type":"uint256"}],"name":"unlockTokens","outputs":[],"stateMutability":"nonpayable","type":"function"},{"inputs":[],"name":"unpause","outputs":[],"stateMutability":"nonpayable","type":"function"},{"inputs":[{"internalType":"address","name":"","type":"address"},{"internalType":"uint256","name":"","type":"uint256"}],"name":"userCollections","outputs":[{"internalType":"uint256","name":"","type":"uint256"}],"stateMutability":"view","type":"function"},{"inputs":[{"internalType":"address","name":"_token","type":"address"},{"internalType":"uint256","name":"_amount","type":"uint256"}],"name":"withdrawEmergency","outputs":[],"stateMutability":"nonpayable","type":"function"}],"evm":{"bytecode":{"linkReferences":{},"object":"608060405234801561000f575f5ffd5b506040516131c63803806131c683398101604081905261002e91610184565b336040518060400160405280601081526020016f10dc9e5c1d1bd31bd8dad95c8813919560821b8152506040518060400160405280600581526020016410d313919560da1b815250815f90816100849190610266565b5060016100918282610266565b5050506001600160a01b0381166100c157604051631e4fbdf760e01b81525f600482015260240160405180910390fd5b6100ca81610118565b506001600855601080546001600160a01b039586166001600160a01b031991821617909155601193909355601280549285169284169290921790915560138054919093169116179055610320565b600780546001600160a01b038381166001600160a01b0319831681179093556040519116919082907f8be0079c531659141344cd1fd0a4f28419497f9722a3daafe3b4186f6b6457e0905f90a35050565b80516001600160a01b038116811461017f575f5ffd5b919050565b5f5f5f5f60808587031215610197575f5ffd5b6101a085610169565b9350602085015192506101b560408601610169565b91506101c360608601610169565b905092959194509250565b634e487b7160e01b5f52604160045260245ffd5b600181811c908216806101f657607f821691505b60208210810361021457634e487b7160e01b5f52602260045260245ffd5b50919050565b601f82111561026157805f5260205f20601f840160051c8101602085101561023f5750805b601f840160051c820191505b8181101561025e575f815560010161024b565b50505b505050565b81516001600160401b0381111561027f5761027f6101ce565b6102938161028d84546101e2565b8461021a565b6020601f8211600181146102c5575f83156102ae5750848201515b5f19600385901b1c1916600184901b17845561025e565b5f84815260208120601f198516915b828110156102f457878501518255602094850194600190920191016102d4565b508482101561031157868401515f19600387901b60f8161c191681555b50505050600190811b01905550565b612e998061032d5f395ff3fe608060405234801561000f575f5ffd5b5060043610610233575f3560e01c8063735de9f711610135578063bea9849e116100b4578063e985e9c511610079578063e985e9c514610518578063eda426041461052b578063eeee849b1461053e578063f2fde38b14610551578063fdbda0ec14610564575f5ffd5b8063bea9849e146104b9578063c87b56dd146104cc578063da2ca9b5146104df578063e6a478b3146104f2578063e972261d14610505575f5ffd5b8063a03e4bc3116100fa578063a03e4bc314610411578063a22cb46514610424578063b079331314610437578063b425f8021461044a578063b88d4fde146104a6575f5ffd5b8063735de9f7146103ca5780637c405325146103dd5780638456cb59146103f05780638da5cb5b146103f857806395d89b4114610409575f5ffd5b80633f4ba83a116101c15780636352211e116101865780636352211e146103805780636388749c146103935780636c3d7e1d1461039c57806370a08231146103af578063715018a6146103c2575f5ffd5b80633f4ba83a1461032157806342842e0e14610329578063428a61711461033c578063495410151461034f5780635c975abb14610375575f5ffd5b8063095ea7b311610207578063095ea7b3146102c0578063176b9b75146102d55780632301d775146102e857806323b872dd146102fb578063349f937c1461030e575f5ffd5b80621212131461023757806301ffc9a71461025d57806306fdde0314610280578063081812fc14610295575b5f5ffd5b61024a61024536600461273a565b610588565b6040519081526020015b60405180910390f35b61027061026b36600461283a565b6106d1565b6040519015158152602001610254565b6102886106fb565b6040516102549190612883565b6102a86102a3366004612895565b61078a565b6040516001600160a01b039091168152602001610254565b6102d36102ce3660046128c7565b6107b1565b005b61024a6102e33660046128ef565b6107c0565b6010546102a8906001600160a01b031681565b6102d3610309366004612954565b6108ce565b6102d361031c36600461298e565b61095c565b6102d36109ac565b6102d3610337366004612954565b6109be565b61024a61034a3660046128c7565b6109dd565b61036261035d366004612895565b610a08565b60405161025497969594939291906129a7565b60095460ff16610270565b6102a861038e366004612895565b610c65565b61024a60115481565b6102d36103aa3660046128c7565b610c6f565b61024a6103bd36600461298e565b610ce5565b6102d3610d2a565b6012546102a8906001600160a01b031681565b6102d36103eb366004612895565b610d3b565b6102d3611100565b6007546001600160a01b03166102a8565b610288611110565b6013546102a8906001600160a01b031681565b6102d3610432366004612a29565b61111f565b6102d3610445366004612895565b61112a565b61045d6104583660046128c7565b61146e565b604080516001600160a01b03909916895260208901979097529587019490945260608601929092521515608085015260a0840152151560c083015260e082015261010001610254565b6102d36104b4366004612a5e565b6114de565b6102d36104c736600461298e565b6114f6565b6102886104da366004612895565b611546565b6102d36104ed36600461298e565b611651565b6102d3610500366004612ad5565b6116a1565b61024a610513366004612b1a565b611ac3565b610270610526366004612b3a565b611af5565b6102d3610539366004612895565b611b22565b61024a61054c366004612895565b611b71565b6102d361055f36600461298e565b611bc8565b610577610572366004612895565b611c02565b604051610254959493929190612b6b565b5f610591611d46565b600a8054905f6105a083612bc7565b9091555050600a546105b23382611d6a565b6105bc8184611d83565b6040805160e08101825289815260208082018a905281830189905260608201889052608082018790523360a08301524260c08301525f848152600b909152919091208151819061060c9082612c5b565b50602082015160018201906106219082612c5b565b50604082015160028201906106369082612c5b565b506060820151600382019061064b9082612c5b565b506080820151600482015560a08201516005820180546001600160a01b0319166001600160a01b0390921691909117905560c0909101516006909101556040518490339083907f463d85ceb93cc4d7ddf6727f8a3206619e95f36edb2a7851afccd49445dc9027906106be908890612883565b60405180910390a4979650505050505050565b5f6001600160e01b03198216632483248360e11b14806106f557506106f582611dd2565b92915050565b60605f805461070990612bdf565b80601f016020809104026020016040519081016040528092919081815260200182805461073590612bdf565b80156107805780601f1061075757610100808354040283529160200191610780565b820191905f5260205f20905b81548152906001019060200180831161076357829003601f168201915b5050505050905090565b5f61079482611e21565b505f828152600460205260409020546001600160a01b03166106f5565b6107bc828233611e59565b5050565b600c80545f91826107d083612bc7565b9091555050600c546040805160a08101825282815260208082018781528284018790523360608401524260808401525f858152600d90925292902081518155915190919060018201906108239082612c5b565b50604082015160028201906108389082612c5b565b5060608201516003820180546001600160a01b0319166001600160a01b03909216919091179055608090910151600490910155335f818152600e60209081526040808320805460018101825590845291909220018390555182907f28264f4036324f7af9abd02761740048265f0c980737a3f97365dad3162cbe65906108bf908890612883565b60405180910390a39392505050565b6001600160a01b0382166108fc57604051633250574960e11b81525f60048201526024015b60405180910390fd5b5f610908838333611e66565b9050836001600160a01b0316816001600160a01b031614610956576040516364283d7b60e01b81526001600160a01b03808616600483015260248201849052821660448201526064016108f3565b50505050565b610964611f58565b6001600160a01b03811661098a5760405162461bcd60e51b81526004016108f390612d16565b601380546001600160a01b0319166001600160a01b0392909216919091179055565b6109b4611f58565b6109bc611f85565b565b6109d883838360405180602001604052805f8152506114de565b505050565b600e602052815f5260405f2081815481106109f6575f80fd5b905f5260205f20015f91509150505481565b600b6020525f9081526040902080548190610a2290612bdf565b80601f0160208091040260200160405190810160405280929190818152602001828054610a4e90612bdf565b8015610a995780601f10610a7057610100808354040283529160200191610a99565b820191905f5260205f20905b815481529060010190602001808311610a7c57829003601f168201915b505050505090806001018054610aae90612bdf565b80601f0160208091040260200160405190810160405280929190818152602001828054610ada90612bdf565b8015610b255780601f10610afc57610100808354040283529160200191610b25565b820191905f5260205f20905b815481529060010190602001808311610b0857829003601f168201915b505050505090806002018054610b3a90612bdf565b80601f0160208091040260200160405190810160405280929190818152602001828054610b6690612bdf565b8015610bb15780601f10610b8857610100808354040283529160200191610bb1565b820191905f5260205f20905b815481529060010190602001808311610b9457829003601f168201915b505050505090806003018054610bc690612bdf565b80601f0160208091040260200160405190810160405280929190818152602001828054610bf290612bdf565b8015610c3d5780601f10610c1457610100808354040283529160200191610c3d565b820191905f5260205f20905b815481529060010190602001808311610c2057829003601f168201915b5050505060048301546005840154600690940154929390926001600160a01b03909116915087565b5f6106f582611e21565b610c77611f58565b60405163a9059cbb60e01b8152336004820152602481018290526001600160a01b0383169063a9059cbb906044016020604051808303815f875af1158015610cc1573d5f5f3e3d5ffd5b505050506040513d601f19601f820116820180604052508101906109d89190612d3f565b5f6001600160a01b038216610d0f576040516322718ad960e21b81525f60048201526024016108f3565b506001600160a01b03165f9081526003602052604090205490565b610d32611f58565b6109bc5f611fd7565b610d43612028565b335f908152600f60205260409020548110610d925760405162461bcd60e51b815260206004820152600f60248201526e125b9d985b1a59081b1bd8dac81251608a1b60448201526064016108f3565b335f908152600f60205260408120805483908110610db257610db2612d5a565b5f9182526020909120600890910201600481015490915060ff1615610e0b5760405162461bcd60e51b815260206004820152600f60248201526e105b1c9958591e4818db185a5b5959608a1b60448201526064016108f3565b80600301548160020154610e1f9190612d6e565b421015610e6e5760405162461bcd60e51b815260206004820152601860248201527f4c6f636b20706572696f64206e6f742066696e6973686564000000000000000060448201526064016108f3565b5f610e8182600101548360030154611ac3565b6005830181905560048301805460ff19166001179055600683015490915060ff1615610f555760135482546001840154604051631a4ca37b60e21b81526001600160a01b03928316600482015260248101919091523060448201525f9291909116906369328dec906064016020604051808303815f875af1158015610f08573d5f5f3e3d5ffd5b505050506040513d601f19601f82011682018060405250810190610f2c9190612d81565b905082600101548111610f3f575f610f4e565b6001830154610f4e9082612d98565b6007840155505b5f8260070154828460010154610f6b9190612d6e565b610f759190612d6e565b90505f61271060115484610f899190612dab565b610f939190612dc2565b9050801561101257835460105460405163a9059cbb60e01b81526001600160a01b0391821660048201526024810184905291169063a9059cbb906044016020604051808303815f875af1158015610fec573d5f5f3e3d5ffd5b505050506040513d601f19601f820116820180604052508101906110109190612d3f565b505b83546001600160a01b031663a9059cbb3361102d8486612d98565b6040516001600160e01b031960e085901b1681526001600160a01b03909216600483015260248201526044016020604051808303815f875af1158015611075573d5f5f3e3d5ffd5b505050506040513d601f19601f820116820180604052508101906110999190612d3f565b5083546001850154604080519182526020820186905281018790526001600160a01b039091169033907f469ba0ddfe932cfd8febe378bcf0ba91f65c0b6f9d60e893047555dd453752169060600160405180910390a3505050506110fd6001600855565b50565b611108611f58565b6109bc612052565b60606001805461070990612bdf565b6107bc33838361208f565b611132612028565b335f908152600f602052604090205481106111815760405162461bcd60e51b815260206004820152600f60248201526e125b9d985b1a59081b1bd8dac81251608a1b60448201526064016108f3565b335f908152600f602052604081208054839081106111a1576111a1612d5a565b5f9182526020909120600890910201600481015490915060ff16156111fa5760405162461bcd60e51b815260206004820152600f60248201526e105b1c9958591e4818db185a5b5959608a1b60448201526064016108f3565b8060030154816002015461120e9190612d6e565b421061126c5760405162461bcd60e51b815260206004820152602760248201527f4c6f636b20706572696f642066696e69736865642c20757365206e6f726d616c60448201526620756e6c6f636b60c81b60648201526084016108f3565b60048101805460ff19166001179055600681015460ff161561130b5760135481546001830154604051631a4ca37b60e21b81526001600160a01b03928316600482015260248101919091523060448201529116906369328dec906064016020604051808303815f875af11580156112e5573d5f5f3e3d5ffd5b505050506040513d601f19601f820116820180604052508101906113099190612d81565b505b5f60648260010154600a61131f9190612dab565b6113299190612dc2565b90505f81836001015461133c9190612d98565b835460105460405163a9059cbb60e01b81526001600160a01b03918216600482015260248101869052929350169063a9059cbb906044016020604051808303815f875af115801561138f573d5f5f3e3d5ffd5b505050506040513d601f19601f820116820180604052508101906113b39190612d3f565b50825460405163a9059cbb60e01b8152336004820152602481018390526001600160a01b039091169063a9059cbb906044016020604051808303815f875af1158015611401573d5f5f3e3d5ffd5b505050506040513d601f19601f820116820180604052508101906114259190612d3f565b50604080518581526020810184905233917f73f0644cd8afa7ad22314a5cead22c249f333e40fa1fe21a6b282ae3f5fd5df4910160405180910390a25050506110fd6001600855565b600f602052815f5260405f208181548110611487575f80fd5b5f918252602090912060089091020180546001820154600283015460038401546004850154600586015460068701546007909701546001600160a01b0390961698509396509194909360ff92831693929091169088565b6114e98484846108ce565b610956338585858561212d565b6114fe611f58565b6001600160a01b0381166115245760405162461bcd60e51b81526004016108f390612d16565b601280546001600160a01b0319166001600160a01b0392909216919091179055565b606061155182611e21565b505f828152600660205260408120805461156a90612bdf565b80601f016020809104026020016040519081016040528092919081815260200182805461159690612bdf565b80156115e15780601f106115b8576101008083540402835291602001916115e1565b820191905f5260205f20905b8154815290600101906020018083116115c457829003601f168201915b505050505090505f6115fd60408051602081019091525f815290565b905080515f0361160e575092915050565b815115611640578082604051602001611628929190612df8565b60405160208183030381529060405292505050919050565b61164984612255565b949350505050565b611659611f58565b6001600160a01b03811661167f5760405162461bcd60e51b81526004016108f390612d16565b601080546001600160a01b0319166001600160a01b0392909216919091179055565b6116a9612028565b6116b1611d46565b5f83116117005760405162461bcd60e51b815260206004820152601d60248201527f416d6f756e74206d7573742062652067726561746572207468616e203000000060448201526064016108f3565b62093a808210156117535760405162461bcd60e51b815260206004820152601d60248201527f4d696e696d756d206c6f636b20706572696f642069732037206461797300000060448201526064016108f3565b6301e133808211156117a75760405162461bcd60e51b815260206004820152601f60248201527f4d6178696d756d206c6f636b20706572696f642069732033363520646179730060448201526064016108f3565b6040516323b872dd60e01b8152336004820152306024820152604481018490526001600160a01b038516906323b872dd906064016020604051808303815f875af11580156117f7573d5f5f3e3d5ffd5b505050506040513d601f19601f8201168201806040525081019061181b9190612d3f565b5080156119055760135460405163095ea7b360e01b81526001600160a01b039182166004820152602481018590529085169063095ea7b3906044016020604051808303815f875af1158015611872573d5f5f3e3d5ffd5b505050506040513d601f19601f820116820180604052508101906118969190612d3f565b5060135460405163617ba03760e01b81526001600160a01b038681166004830152602482018690523060448301525f60648301529091169063617ba037906084015f604051808303815f87803b1580156118ee575f5ffd5b505af1158015611900573d5f5f3e3d5ffd5b505050505b600f5f336001600160a01b03166001600160a01b031681526020019081526020015f20604051806101000160405280866001600160a01b031681526020018581526020014281526020018481526020015f151581526020015f815260200183151581526020015f815250908060018154018082558091505060019003905f5260205f2090600802015f909190919091505f820151815f015f6101000a8154816001600160a01b0302191690836001600160a01b031602179055506020820151816001015560408201518160020155606082015181600301556080820151816004015f6101000a81548160ff02191690831515021790555060a0820151816005015560c0820151816006015f6101000a81548160ff02191690831515021790555060e082015181600701555050836001600160a01b0316336001600160a01b03167fc392e99d431032ac14a872985e1784cd90533e27608253c002a198d8e6358ed985856001600f5f336001600160a01b03166001600160a01b031681526020019081526020015f2080549050611a9b9190612d98565b6040805193845260208401929092529082015260600160405180910390a36109566001600855565b5f5f611ace83611b71565b905064496cebb80083611ae18387612dab565b611aeb9190612dab565b6116499190612dc2565b6001600160a01b039182165f90815260056020908152604080832093909416825291909152205460ff1690565b611b2a611f58565b612710811115611b6c5760405162461bcd60e51b815260206004820152600d60248201526c0a4c2e8ca40e8dede40d0d2ced609b1b60448201526064016108f3565b601155565b5f6301e133808210611b8657506107d0919050565b62ed4e008210611b9957506105dc919050565b6276a7008210611bac57506104b0919050565b62278d008210611bbf5750610320919050565b506101f4919050565b611bd0611f58565b6001600160a01b038116611bf957604051631e4fbdf760e01b81525f60048201526024016108f3565b6110fd81611fd7565b600d6020525f908152604090208054600182018054919291611c2390612bdf565b80601f0160208091040260200160405190810160405280929190818152602001828054611c4f90612bdf565b8015611c9a5780601f10611c7157610100808354040283529160200191611c9a565b820191905f5260205f20905b815481529060010190602001808311611c7d57829003601f168201915b505050505090806002018054611caf90612bdf565b80601f0160208091040260200160405190810160405280929190818152602001828054611cdb90612bdf565b8015611d265780601f10611cfd57610100808354040283529160200191611d26565b820191905f5260205f20905b815481529060010190602001808311611d0957829003601f168201915b50505050600383015460049093015491926001600160a01b031691905085565b60095460ff16156109bc5760405163d93c066560e01b815260040160405180910390fd5b6107bc828260405180602001604052805f8152506122c6565b5f828152600660205260409020611d9a8282612c5b565b506040518281527ff8e1a15aba9398e019f0b49df1a4fde98ee17ae345cb5f6b5e2c27f5033e8ce79060200160405180910390a15050565b5f6001600160e01b031982166380ac58cd60e01b1480611e0257506001600160e01b03198216635b5e139f60e01b145b806106f557506301ffc9a760e01b6001600160e01b03198316146106f5565b5f818152600260205260408120546001600160a01b0316806106f557604051637e27328960e01b8152600481018490526024016108f3565b6109d883838360016122dd565b5f828152600260205260408120546001600160a01b0390811690831615611e9257611e928184866123e1565b6001600160a01b03811615611ecc57611ead5f855f5f6122dd565b6001600160a01b0381165f90815260036020526040902080545f190190555b6001600160a01b03851615611efa576001600160a01b0385165f908152600360205260409020805460010190555b5f8481526002602052604080822080546001600160a01b0319166001600160a01b0389811691821790925591518793918516917fddf252ad1be2c89b69c2b068fc378daa952ba7f163c4a11628f55a4df523b3ef91a4949350505050565b6007546001600160a01b031633146109bc5760405163118cdaa760e01b81523360048201526024016108f3565b611f8d612445565b6009805460ff191690557f5db9ee0a495bf2e6ff9c91a7834c1ba4fdd244a5e8aa4e537bd38aeae4b073aa335b6040516001600160a01b03909116815260200160405180910390a1565b600780546001600160a01b038381166001600160a01b0319831681179093556040519116919082907f8be0079c531659141344cd1fd0a4f28419497f9722a3daafe3b4186f6b6457e0905f90a35050565b60026008540361204b57604051633ee5aeb560e01b815260040160405180910390fd5b6002600855565b61205a611d46565b6009805460ff191660011790557f62e78cea01bee320cd4e420270b5ea74000d11b0c9f74754ebdbfc544b05a258611fba3390565b6001600160a01b0382166120c157604051630b61174360e31b81526001600160a01b03831660048201526024016108f3565b6001600160a01b038381165f81815260056020908152604080832094871680845294825291829020805460ff191686151590811790915591519182527f17307eab39ab6107e8899845ad3d59bd9653f200f220920489ca2b5937696c31910160405180910390a3505050565b6001600160a01b0383163b1561224e57604051630a85bd0160e11b81526001600160a01b0384169063150b7a029061216f908890889087908790600401612e0c565b6020604051808303815f875af19250505080156121a9575060408051601f3d908101601f191682019092526121a691810190612e48565b60015b612210573d8080156121d6576040519150601f19603f3d011682016040523d82523d5f602084013e6121db565b606091505b5080515f0361220857604051633250574960e11b81526001600160a01b03851660048201526024016108f3565b805160208201fd5b6001600160e01b03198116630a85bd0160e11b1461224c57604051633250574960e11b81526001600160a01b03851660048201526024016108f3565b505b5050505050565b606061226082611e21565b505f61227660408051602081019091525f815290565b90505f8151116122945760405180602001604052805f8152506122bf565b8061229e84612468565b6040516020016122af929190612df8565b6040516020818303038152906040525b9392505050565b6122d083836124f8565b6109d8335f85858561212d565b80806122f157506001600160a01b03821615155b156123b2575f61230084611e21565b90506001600160a01b0383161580159061232c5750826001600160a01b0316816001600160a01b031614155b801561233f575061233d8184611af5565b155b156123685760405163a9fbf51f60e01b81526001600160a01b03841660048201526024016108f3565b81156123b05783856001600160a01b0316826001600160a01b03167f8c5be1e5ebec7d5bd14f71427d1e84f3dd0314c0f7b2291e5b200ac8c7c3b92560405160405180910390a45b505b50505f90815260046020526040902080546001600160a01b0319166001600160a01b0392909216919091179055565b6123ec838383612559565b6109d8576001600160a01b03831661241a57604051637e27328960e01b8152600481018290526024016108f3565b60405163177e802f60e01b81526001600160a01b0383166004820152602481018290526044016108f3565b60095460ff166109bc57604051638dfc202b60e01b815260040160405180910390fd5b60605f612474836125ba565b60010190505f8167ffffffffffffffff81111561249357612493612691565b6040519080825280601f01601f1916602001820160405280156124bd576020820181803683370190505b5090508181016020015b5f19016f181899199a1a9b1b9c1cb0b131b232b360811b600a86061a8153600a85049450846124c757509392505050565b6001600160a01b03821661252157604051633250574960e11b81525f60048201526024016108f3565b5f61252d83835f611e66565b90506001600160a01b038116156109d8576040516339e3563760e11b81525f60048201526024016108f3565b5f6001600160a01b038316158015906116495750826001600160a01b0316846001600160a01b0316148061259257506125928484611af5565b806116495750505f908152600460205260409020546001600160a01b03908116911614919050565b5f8072184f03e93ff9f4daa797ed6e38ed64bf6a1f0160401b83106125f85772184f03e93ff9f4daa797ed6e38ed64bf6a1f0160401b830492506040015b6d04ee2d6d415b85acef81000000008310612624576d04ee2d6d415b85acef8100000000830492506020015b662386f26fc10000831061264257662386f26fc10000830492506010015b6305f5e100831061265a576305f5e100830492506008015b612710831061266e57612710830492506004015b60648310612680576064830492506002015b600a83106106f55760010192915050565b634e487b7160e01b5f52604160045260245ffd5b5f5f67ffffffffffffffff8411156126bf576126bf612691565b50604051601f19601f85018116603f0116810181811067ffffffffffffffff821117156126ee576126ee612691565b604052838152905080828401851015612705575f5ffd5b838360208301375f60208583010152509392505050565b5f82601f83011261272b575f5ffd5b6122bf838335602085016126a5565b5f5f5f5f5f5f60c0878903121561274f575f5ffd5b863567ffffffffffffffff811115612765575f5ffd5b61277189828a0161271c565b965050602087013567ffffffffffffffff81111561278d575f5ffd5b61279989828a0161271c565b955050604087013567ffffffffffffffff8111156127b5575f5ffd5b6127c189828a0161271c565b945050606087013567ffffffffffffffff8111156127dd575f5ffd5b6127e989828a0161271c565b9350506080870135915060a087013567ffffffffffffffff81111561280c575f5ffd5b61281889828a0161271c565b9150509295509295509295565b6001600160e01b0319811681146110fd575f5ffd5b5f6020828403121561284a575f5ffd5b81356122bf81612825565b5f81518084528060208401602086015e5f602082860101526020601f19601f83011685010191505092915050565b602081525f6122bf6020830184612855565b5f602082840312156128a5575f5ffd5b5035919050565b80356001600160a01b03811681146128c2575f5ffd5b919050565b5f5f604083850312156128d8575f5ffd5b6128e1836128ac565b946020939093013593505050565b5f5f60408385031215612900575f5ffd5b823567ffffffffffffffff811115612916575f5ffd5b6129228582860161271c565b925050602083013567ffffffffffffffff81111561293e575f5ffd5b61294a8582860161271c565b9150509250929050565b5f5f5f60608486031215612966575f5ffd5b61296f846128ac565b925061297d602085016128ac565b929592945050506040919091013590565b5f6020828403121561299e575f5ffd5b6122bf826128ac565b60e081525f6129b960e083018a612855565b82810360208401526129cb818a612855565b905082810360408401526129df8189612855565b905082810360608401526129f38188612855565b608084019690965250506001600160a01b039290921660a083015260c090910152949350505050565b80151581146110fd575f5ffd5b5f5f60408385031215612a3a575f5ffd5b612a43836128ac565b91506020830135612a5381612a1c565b809150509250929050565b5f5f5f5f60808587031215612a71575f5ffd5b612a7a856128ac565b9350612a88602086016128ac565b925060408501359150606085013567ffffffffffffffff811115612aaa575f5ffd5b8501601f81018713612aba575f5ffd5b612ac9878235602084016126a5565b91505092959194509250565b5f5f5f5f60808587031215612ae8575f5ffd5b612af1856128ac565b935060208501359250604085013591506060850135612b0f81612a1c565b939692955090935050565b5f5f60408385031215612b2b575f5ffd5b50508035926020909101359150565b5f5f60408385031215612b4b575f5ffd5b612b54836128ac565b9150612b62602084016128ac565b90509250929050565b85815260a060208201525f612b8360a0830187612855565b8281036040840152612b958187612855565b6001600160a01b039590951660608401525050608001529392505050565b634e487b7160e01b5f52601160045260245ffd5b5f60018201612bd857612bd8612bb3565b5060010190565b600181811c90821680612bf357607f821691505b602082108103612c1157634e487b7160e01b5f52602260045260245ffd5b50919050565b601f8211156109d857805f5260205f20601f840160051c81016020851015612c3c5750805b601f840160051c820191505b8181101561224e575f8155600101612c48565b815167ffffffffffffffff811115612c7557612c75612691565b612c8981612c838454612bdf565b84612c17565b6020601f821160018114612cbb575f8315612ca45750848201515b5f19600385901b1c1916600184901b17845561224e565b5f84815260208120601f198516915b82811015612cea5787850151825560209485019460019092019101612cca565b5084821015612d0757868401515f19600387901b60f8161c191681555b50505050600190811b01905550565b6020808252600f908201526e496e76616c6964206164647265737360881b604082015260600190565b5f60208284031215612d4f575f5ffd5b81516122bf81612a1c565b634e487b7160e01b5f52603260045260245ffd5b808201808211156106f5576106f5612bb3565b5f60208284031215612d91575f5ffd5b5051919050565b818103818111156106f5576106f5612bb3565b80820281158282048414176106f5576106f5612bb3565b5f82612ddc57634e487b7160e01b5f52601260045260245ffd5b500490565b5f81518060208401855e5f93019283525090919050565b5f611649612e068386612de1565b84612de1565b6001600160a01b03858116825284166020820152604081018390526080606082018190525f90612e3e90830184612855565b9695505050505050565b5f60208284031215612e58575f5ffd5b81516122bf8161282556fea2646970667358221220f95556e370d67c48bc99e59a02f9d7f19bf18ea9d26f243bfb1b8f5dfc4d83e164736f6c634300081c0033","opcodes":"PUSH1 0x80 PUSH1 0x40 MSTORE CALLVALUE DUP1 ISZERO PUSH2 0xF JUMPI PUSH0 PUSH0 REVERT JUMPDEST POP PUSH1 0x40 MLOAD PUSH2 0x31C6 CODESIZE SUB DUP1 PUSH2 0x31C6 DUP4 CODECOPY DUP2 ADD PUSH1 0x40 DUP2 SWAP1 MSTORE PUSH2 0x2E SWAP2 PUSH2 0x184 JUMP JUMPDEST CALLER PUSH1 0x40 MLOAD DUP1 PUSH1 0x40 ADD PUSH1 0x40 MSTORE DUP1 PUSH1 0x10 DUP2 MSTORE PUSH1 0x20 ADD PUSH16 0x10DC9E5C1D1BD31BD8DAD95C88139195 PUSH1 0x82 SHL DUP2 MSTORE POP PUSH1 0x40 MLOAD DUP1 PUSH1 0x40 ADD PUSH1 0x40 MSTORE DUP1 PUSH1 0x5 DUP2 MSTORE PUSH1 0x20 ADD PUSH5 0x10D3139195 PUSH1 0xDA SHL DUP2 MSTORE POP DUP2 PUSH0 SWAP1 DUP2 PUSH2 0x84 SWAP2 SWAP1 PUSH2 0x266 JUMP JUMPDEST POP PUSH1 0x1 PUSH2 0x91 DUP3 DUP3 PUSH2 0x266 JUMP JUMPDEST POP POP POP PUSH1 0x1 PUSH1 0x1 PUSH1 0xA0 SHL SUB DUP2 AND PUSH2 0xC1 JUMPI PUSH1 0x40 MLOAD PUSH4 0x1E4FBDF7 PUSH1 0xE0 SHL DUP2 MSTORE PUSH0 PUSH1 0x4 DUP3 ADD MSTORE PUSH1 0x24 ADD PUSH1 0x40 MLOAD DUP1 SWAP2 SUB SWAP1 REVERT JUMPDEST PUSH2 0xCA DUP2 PUSH2 0x118 JUMP JUMPDEST POP PUSH1 0x1 PUSH1 0x8 SSTORE PUSH1 0x10 DUP1 SLOAD PUSH1 0x1 PUSH1 0x1 PUSH1 0xA0 SHL SUB SWAP6 DUP7 AND PUSH1 0x1 PUSH1 0x1 PUSH1 0xA0 SHL SUB NOT SWAP2 DUP3 AND OR SWAP1 SWAP2 SSTORE PUSH1 0x11 SWAP4 SWAP1 SWAP4 SSTORE PUSH1 0x12 DUP1 SLOAD SWAP3 DUP6 AND SWAP3 DUP5 AND SWAP3 SWAP1 SWAP3 OR SWAP1 SWAP2 SSTORE PUSH1 0x13 DUP1 SLOAD SWAP2 SWAP1 SWAP4 AND SWAP2 AND OR SWAP1 SSTORE PUSH2 0x320 JUMP JUMPDEST PUSH1 0x7 DUP1 SLOAD PUSH1 0x1 PUSH1 0x1 PUSH1 0xA0 SHL SUB DUP4 DUP2 AND PUSH1 0x1 PUSH1 0x1 PUSH1 0xA0 SHL SUB NOT DUP4 AND DUP2 OR SWAP1 SWAP4 SSTORE PUSH1 0x40 MLOAD SWAP2 AND SWAP2 SWAP1 DUP3 SWAP1 PUSH32 0x8BE0079C531659141344CD1FD0A4F28419497F9722A3DAAFE3B4186F6B6457E0 SWAP1 PUSH0 SWAP1 LOG3 POP POP JUMP JUMPDEST DUP1 MLOAD PUSH1 0x1 PUSH1 0x1 PUSH1 0xA0 SHL SUB DUP2 AND DUP2 EQ PUSH2 0x17F JUMPI PUSH0 PUSH0 REVERT JUMPDEST SWAP2 SWAP1 POP JUMP JUMPDEST PUSH0 PUSH0 PUSH0 PUSH0 PUSH1 0x80 DUP6 DUP8 SUB SLT ISZERO PUSH2 0x197 JUMPI PUSH0 PUSH0 REVERT JUMPDEST PUSH2 0x1A0 DUP6 PUSH2 0x169 JUMP JUMPDEST SWAP4 POP PUSH1 0x20 DUP6 ADD MLOAD SWAP3 POP PUSH2 0x1B5 PUSH1 0x40 DUP7 ADD PUSH2 0x169 JUMP JUMPDEST SWAP2 POP PUSH2 0x1C3 PUSH1 0x60 DUP7 ADD PUSH2 0x169 JUMP JUMPDEST SWAP1 POP SWAP3 SWAP6 SWAP2 SWAP5 POP SWAP3 POP JUMP JUMPDEST PUSH4 0x4E487B71 PUSH1 0xE0 SHL PUSH0 MSTORE PUSH1 0x41 PUSH1 0x4 MSTORE PUSH1 0x24 PUSH0 REVERT JUMPDEST PUSH1 0x1 DUP2 DUP2 SHR SWAP1 DUP3 AND DUP1 PUSH2 0x1F6 JUMPI PUSH1 0x7F DUP3 AND SWAP2 POP JUMPDEST PUSH1 0x20 DUP3 LT DUP2 SUB PUSH2 0x214 JUMPI PUSH4 0x4E487B71 PUSH1 0xE0 SHL PUSH0 MSTORE PUSH1 0x22 PUSH1 0x4 MSTORE PUSH1 0x24 PUSH0 REVERT JUMPDEST POP SWAP2 SWAP1 POP JUMP JUMPDEST PUSH1 0x1F DUP3 GT ISZERO PUSH2 0x261 JUMPI DUP1 PUSH0 MSTORE PUSH1 0x20 PUSH0 KECCAK256 PUSH1 0x1F DUP5 ADD PUSH1 0x5 SHR DUP2 ADD PUSH1 0x20 DUP6 LT ISZERO PUSH2 0x23F JUMPI POP DUP1 JUMPDEST PUSH1 0x1F DUP5 ADD PUSH1 0x5 SHR DUP3 ADD SWAP2 POP JUMPDEST DUP2 DUP2 LT ISZERO PUSH2 0x25E JUMPI PUSH0 DUP2 SSTORE PUSH1 0x1 ADD PUSH2 0x24B JUMP JUMPDEST POP POP JUMPDEST POP POP POP JUMP JUMPDEST DUP2 MLOAD PUSH1 0x1 PUSH1 0x1 PUSH1 0x40 SHL SUB DUP2 GT ISZERO PUSH2 0x27F JUMPI PUSH2 0x27F PUSH2 0x1CE JUMP JUMPDEST PUSH2 0x293 DUP2 PUSH2 0x28D DUP5 SLOAD PUSH2 0x1E2 JUMP JUMPDEST DUP5 PUSH2 0x21A JUMP JUMPDEST PUSH1 0x20 PUSH1 0x1F DUP3 GT PUSH1 0x1 DUP2 EQ PUSH2 0x2C5 JUMPI PUSH0 DUP4 ISZERO PUSH2 0x2AE JUMPI POP DUP5 DUP3 ADD MLOAD JUMPDEST PUSH0 NOT PUSH1 0x3 DUP6 SWAP1 SHL SHR NOT AND PUSH1 0x1 DUP5 SWAP1 SHL OR DUP5 SSTORE PUSH2 0x25E JUMP JUMPDEST PUSH0 DUP5 DUP2 MSTORE PUSH1 0x20 DUP2 KECCAK256 PUSH1 0x1F NOT DUP6 AND SWAP2 JUMPDEST DUP3 DUP2 LT ISZERO PUSH2 0x2F4 JUMPI DUP8 DUP6 ADD MLOAD DUP3 SSTORE PUSH1 0x20 SWAP5 DUP6 ADD SWAP5 PUSH1 0x1 SWAP1 SWAP3 ADD SWAP2 ADD PUSH2 0x2D4 JUMP JUMPDEST POP DUP5 DUP3 LT ISZERO PUSH2 0x311 JUMPI DUP7 DUP5 ADD MLOAD PUSH0 NOT PUSH1 0x3 DUP8 SWAP1 SHL PUSH1 0xF8 AND SHR NOT AND DUP2 SSTORE JUMPDEST POP POP POP POP PUSH1 0x1 SWAP1 DUP2 SHL ADD SWAP1 SSTORE POP JUMP JUMPDEST PUSH2 0x2E99 DUP1 PUSH2 0x32D PUSH0 CODECOPY PUSH0 RETURN INVALID PUSH1 0x80 PUSH1 0x40 MSTORE CALLVALUE DUP1 ISZERO PUSH2 0xF JUMPI PUSH0 PUSH0 REVERT JUMPDEST POP PUSH1 0x4 CALLDATASIZE LT PUSH2 0x233 JUMPI PUSH0 CALLDATALOAD PUSH1 0xE0 SHR DUP1 PUSH4 0x735DE9F7 GT PUSH2 0x135 JUMPI DUP1 PUSH4 0xBEA9849E GT PUSH2 0xB4 JUMPI DUP1 PUSH4 0xE985E9C5 GT PUSH2 0x79 JUMPI DUP1 PUSH4 0xE985E9C5 EQ PUSH2 0x518 JUMPI DUP1 PUSH4 0xEDA42604 EQ PUSH2 0x52B JUMPI DUP1 PUSH4 0xEEEE849B EQ PUSH2 0x53E JUMPI DUP1 PUSH4 0xF2FDE38B EQ PUSH2 0x551 JUMPI DUP1 PUSH4 0xFDBDA0EC EQ PUSH2 0x564 JUMPI PUSH0 PUSH0 REVERT JUMPDEST DUP1 PUSH4 0xBEA9849E EQ PUSH2 0x4B9 JUMPI DUP1 PUSH4 0xC87B56DD EQ PUSH2 0x4CC JUMPI DUP1 PUSH4 0xDA2CA9B5 EQ PUSH2 0x4DF JUMPI DUP1 PUSH4 0xE6A478B3 EQ PUSH2 0x4F2 JUMPI DUP1 PUSH4 0xE972261D EQ PUSH2 0x505 JUMPI PUSH0 PUSH0 REVERT JUMPDEST DUP1 PUSH4 0xA03E4BC3 GT PUSH2 0xFA JUMPI DUP1 PUSH4 0xA03E4BC3 EQ PUSH2 0x411 JUMPI DUP1 PUSH4 0xA22CB465 EQ PUSH2 0x424 JUMPI DUP1 PUSH4 0xB0793313 EQ PUSH2 0x437 JUMPI DUP1 PUSH4 0xB425F802 EQ PUSH2 0x44A JUMPI DUP1 PUSH4 0xB88D4FDE EQ PUSH2 0x4A6 JUMPI PUSH0 PUSH0 REVERT JUMPDEST DUP1 PUSH4 0x735DE9F7 EQ PUSH2 0x3CA JUMPI DUP1 PUSH4 0x7C405325 EQ PUSH2 0x3DD JUMPI DUP1 PUSH4 0x8456CB59 EQ PUSH2 0x3F0 JUMPI DUP1 PUSH4 0x8DA5CB5B EQ PUSH2 0x3F8 JUMPI DUP1 PUSH4 0x95D89B41 EQ PUSH2 0x409 JUMPI PUSH0 PUSH0 REVERT JUMPDEST DUP1 PUSH4 0x3F4BA83A GT PUSH2 0x1C1 JUMPI DUP1 PUSH4 0x6352211E GT PUSH2 0x186 JUMPI DUP1 PUSH4 0x6352211E EQ PUSH2 0x380 JUMPI DUP1 PUSH4 0x6388749C EQ PUSH2 0x393 JUMPI DUP1 PUSH4 0x6C3D7E1D EQ PUSH2 0x39C JUMPI DUP1 PUSH4 0x70A08231 EQ PUSH2 0x3AF JUMPI DUP1 PUSH4 0x715018A6 EQ PUSH2 0x3C2 JUMPI PUSH0 PUSH0 REVERT JUMPDEST DUP1 PUSH4 0x3F4BA83A EQ PUSH2 0x321 JUMPI DUP1 PUSH4 0x42842E0E EQ PUSH2 0x329 JUMPI DUP1 PUSH4 0x428A6171 EQ PUSH2 0x33C JUMPI DUP1 PUSH4 0x49541015 EQ PUSH2 0x34F JUMPI DUP1 PUSH4 0x5C975ABB EQ PUSH2 0x375 JUMPI PUSH0 PUSH0 REVERT JUMPDEST DUP1 PUSH4 0x95EA7B3 GT PUSH2 0x207 JUMPI DUP1 PUSH4 0x95EA7B3 EQ PUSH2 0x2C0 JUMPI DUP1 PUSH4 0x176B9B75 EQ PUSH2 0x2D5 JUMPI DUP1 PUSH4 0x2301D775 EQ PUSH2 0x2E8 JUMPI DUP1 PUSH4 0x23B872DD EQ PUSH2 0x2FB JUMPI DUP1 PUSH4 0x349F937C EQ PUSH2 0x30E JUMPI PUSH0 PUSH0 REVERT JUMPDEST DUP1 PUSH3 0x121213 EQ PUSH2 0x237 JUMPI DUP1 PUSH4 0x1FFC9A7 EQ PUSH2 0x25D JUMPI DUP1 PUSH4 0x6FDDE03 EQ PUSH2 0x280 JUMPI DUP1 PUSH4 0x81812FC EQ PUSH2 0x295 JUMPI JUMPDEST PUSH0 PUSH0 REVERT JUMPDEST PUSH2 0x24A PUSH2 0x245 CALLDATASIZE PUSH1 0x4 PUSH2 0x273A JUMP JUMPDEST PUSH2 0x588 JUMP JUMPDEST PUSH1 0x40 MLOAD SWAP1 DUP2 MSTORE PUSH1 0x20 ADD JUMPDEST PUSH1 0x40 MLOAD DUP1 SWAP2 SUB SWAP1 RETURN JUMPDEST PUSH2 0x270 PUSH2 0x26B CALLDATASIZE PUSH1 0x4 PUSH2 0x283A JUMP JUMPDEST PUSH2 0x6D1 JUMP JUMPDEST PUSH1 0x40 MLOAD SWAP1 ISZERO ISZERO DUP2 MSTORE PUSH1 0x20 ADD PUSH2 0x254 JUMP JUMPDEST PUSH2 0x288 PUSH2 0x6FB JUMP JUMPDEST PUSH1 0x40 MLOAD PUSH2 0x254 SWAP2 SWAP1 PUSH2 0x2883 JUMP JUMPDEST PUSH2 0x2A8 PUSH2 0x2A3 CALLDATASIZE PUSH1 0x4 PUSH2 0x2895 JUMP JUMPDEST PUSH2 0x78A JUMP JUMPDEST PUSH1 0x40 MLOAD PUSH1 0x1 PUSH1 0x1 PUSH1 0xA0 SHL SUB SWAP1 SWAP2 AND DUP2 MSTORE PUSH1 0x20 ADD PUSH2 0x254 JUMP JUMPDEST PUSH2 0x2D3 PUSH2 0x2CE CALLDATASIZE PUSH1 0x4 PUSH2 0x28C7 JUMP JUMPDEST PUSH2 0x7B1 JUMP JUMPDEST STOP JUMPDEST PUSH2 0x24A PUSH2 0x2E3 CALLDATASIZE PUSH1 0x4 PUSH2 0x28EF JUMP JUMPDEST PUSH2 0x7C0 JUMP JUMPDEST PUSH1 0x10 SLOAD PUSH2 0x2A8 SWAP1 PUSH1 0x1 PUSH1 0x1 PUSH1 0xA0 SHL SUB AND DUP2 JUMP JUMPDEST PUSH2 0x2D3 PUSH2 0x309 CALLDATASIZE PUSH1 0x4 PUSH2 0x2954 JUMP JUMPDEST PUSH2 0x8CE JUMP JUMPDEST PUSH2 0x2D3 PUSH2 0x31C CALLDATASIZE PUSH1 0x4 PUSH2 0x298E JUMP JUMPDEST PUSH2 0x95C JUMP JUMPDEST PUSH2 0x2D3 PUSH2 0x9AC JUMP JUMPDEST PUSH2 0x2D3 PUSH2 0x337 CALLDATASIZE PUSH1 0x4 PUSH2 0x2954 JUMP JUMPDEST PUSH2 0x9BE JUMP JUMPDEST PUSH2 0x24A PUSH2 0x34A CALLDATASIZE PUSH1 0x4 PUSH2 0x28C7 JUMP JUMPDEST PUSH2 0x9DD JUMP JUMPDEST PUSH2 0x362 PUSH2 0x35D CALLDATASIZE PUSH1 0x4 PUSH2 0x2895 JUMP JUMPDEST PUSH2 0xA08 JUMP JUMPDEST PUSH1 0x40 MLOAD PUSH2 0x254 SWAP8 SWAP7 SWAP6 SWAP5 SWAP4 SWAP3 SWAP2 SWAP1 PUSH2 0x29A7 JUMP JUMPDEST PUSH1 0x9 SLOAD PUSH1 0xFF AND PUSH2 0x270 JUMP JUMPDEST PUSH2 0x2A8 PUSH2 0x38E CALLDATASIZE PUSH1 0x4 PUSH2 0x2895 JUMP JUMPDEST PUSH2 0xC65 JUMP JUMPDEST PUSH2 0x24A PUSH1 0x11 SLOAD DUP2 JUMP JUMPDEST PUSH2 0x2D3 PUSH2 0x3AA CALLDATASIZE PUSH1 0x4 PUSH2 0x28C7 JUMP JUMPDEST PUSH2 0xC6F JUMP JUMPDEST PUSH2 0x24A PUSH2 0x3BD CALLDATASIZE PUSH1 0x4 PUSH2 0x298E JUMP JUMPDEST PUSH2 0xCE5 JUMP JUMPDEST PUSH2 0x2D3 PUSH2 0xD2A JUMP JUMPDEST PUSH1 0x12 SLOAD PUSH2 0x2A8 SWAP1 PUSH1 0x1 PUSH1 0x1 PUSH1 0xA0 SHL SUB AND DUP2 JUMP JUMPDEST PUSH2 0x2D3 PUSH2 0x3EB CALLDATASIZE PUSH1 0x4 PUSH2 0x2895 JUMP JUMPDEST PUSH2 0xD3B JUMP JUMPDEST PUSH2 0x2D3 PUSH2 0x1100 JUMP JUMPDEST PUSH1 0x7 SLOAD PUSH1 0x1 PUSH1 0x1 PUSH1 0xA0 SHL SUB AND PUSH2 0x2A8 JUMP JUMPDEST PUSH2 0x288 PUSH2 0x1110 JUMP JUMPDEST PUSH1 0x13 SLOAD PUSH2 0x2A8 SWAP1 PUSH1 0x1 PUSH1 0x1 PUSH1 0xA0 SHL SUB AND DUP2 JUMP JUMPDEST PUSH2 0x2D3 PUSH2 0x432 CALLDATASIZE PUSH1 0x4 PUSH2 0x2A29 JUMP JUMPDEST PUSH2 0x111F JUMP JUMPDEST PUSH2 0x2D3 PUSH2 0x445 CALLDATASIZE PUSH1 0x4 PUSH2 0x2895 JUMP JUMPDEST PUSH2 0x112A JUMP JUMPDEST PUSH2 0x45D PUSH2 0x458 CALLDATASIZE PUSH1 0x4 PUSH2 0x28C7 JUMP JUMPDEST PUSH2 0x146E JUMP JUMPDEST PUSH1 0x40 DUP1 MLOAD PUSH1 0x1 PUSH1 0x1 PUSH1 0xA0 SHL SUB SWAP1 SWAP10 AND DUP10 MSTORE PUSH1 0x20 DUP10 ADD SWAP8 SWAP1 SWAP8 MSTORE SWAP6 DUP8 ADD SWAP5 SWAP1 SWAP5 MSTORE PUSH1 0x60 DUP7 ADD SWAP3 SWAP1 SWAP3 MSTORE ISZERO ISZERO PUSH1 0x80 DUP6 ADD MSTORE PUSH1 0xA0 DUP5 ADD MSTORE ISZERO ISZERO PUSH1 0xC0 DUP4 ADD MSTORE PUSH1 0xE0 DUP3 ADD MSTORE PUSH2 0x100 ADD PUSH2 0x254 JUMP JUMPDEST PUSH2 0x2D3 PUSH2 0x4B4 CALLDATASIZE PUSH1 0x4 PUSH2 0x2A5E JUMP JUMPDEST PUSH2 0x14DE JUMP JUMPDEST PUSH2 0x2D3 PUSH2 0x4C7 CALLDATASIZE PUSH1 0x4 PUSH2 0x298E JUMP JUMPDEST PUSH2 0x14F6 JUMP JUMPDEST PUSH2 0x288 PUSH2 0x4DA CALLDATASIZE PUSH1 0x4 PUSH2 0x2895 JUMP JUMPDEST PUSH2 0x1546 JUMP JUMPDEST PUSH2 0x2D3 PUSH2 0x4ED CALLDATASIZE PUSH1 0x4 PUSH2 0x298E JUMP JUMPDEST PUSH2 0x1651 JUMP JUMPDEST PUSH2 0x2D3 PUSH2 0x500 CALLDATASIZE PUSH1 0x4 PUSH2 0x2AD5 JUMP JUMPDEST PUSH2 0x16A1 JUMP JUMPDEST PUSH2 0x24A PUSH2 0x513 CALLDATASIZE PUSH1 0x4 PUSH2 0x2B1A JUMP JUMPDEST PUSH2 0x1AC3 JUMP JUMPDEST PUSH2 0x270 PUSH2 0x526 CALLDATASIZE PUSH1 0x4 PUSH2 0x2B3A JUMP JUMPDEST PUSH2 0x1AF5 JUMP JUMPDEST PUSH2 0x2D3 PUSH2 0x539 CALLDATASIZE PUSH1 0x4 PUSH2 0x2895 JUMP JUMPDEST PUSH2 0x1B22 JUMP JUMPDEST PUSH2 0x24A PUSH2 0x54C CALLDATASIZE PUSH1 0x4 PUSH2 0x2895 JUMP JUMPDEST PUSH2 0x1B71 JUMP JUMPDEST PUSH2 0x2D3 PUSH2 0x55F CALLDATASIZE PUSH1 0x4 PUSH2 0x298E JUMP JUMPDEST PUSH2 0x1BC8 JUMP JUMPDEST PUSH2 0x577 PUSH2 0x572 CALLDATASIZE PUSH1 0x4 PUSH2 0x2895 JUMP JUMPDEST PUSH2 0x1C02 JUMP JUMPDEST PUSH1 0x40 MLOAD PUSH2 0x254 SWAP6 SWAP5 SWAP4 SWAP3 SWAP2 SWAP1 PUSH2 0x2B6B JUMP JUMPDEST PUSH0 PUSH2 0x591 PUSH2 0x1D46 JUMP JUMPDEST PUSH1 0xA DUP1 SLOAD SWAP1 PUSH0 PUSH2 0x5A0 DUP4 PUSH2 0x2BC7 JUMP JUMPDEST SWAP1 SWAP2 SSTORE POP POP PUSH1 0xA SLOAD PUSH2 0x5B2 CALLER DUP3 PUSH2 0x1D6A JUMP JUMPDEST PUSH2 0x5BC DUP2 DUP5 PUSH2 0x1D83 JUMP JUMPDEST PUSH1 0x40 DUP1 MLOAD PUSH1 0xE0 DUP2 ADD DUP3 MSTORE DUP10 DUP2 MSTORE PUSH1 0x20 DUP1 DUP3 ADD DUP11 SWAP1 MSTORE DUP2 DUP4 ADD DUP10 SWAP1 MSTORE PUSH1 0x60 DUP3 ADD DUP9 SWAP1 MSTORE PUSH1 0x80 DUP3 ADD DUP8 SWAP1 MSTORE CALLER PUSH1 0xA0 DUP4 ADD MSTORE TIMESTAMP PUSH1 0xC0 DUP4 ADD MSTORE PUSH0 DUP5 DUP2 MSTORE PUSH1 0xB SWAP1 SWAP2 MSTORE SWAP2 SWAP1 SWAP2 KECCAK256 DUP2 MLOAD DUP2 SWAP1 PUSH2 0x60C SWAP1 DUP3 PUSH2 0x2C5B JUMP JUMPDEST POP PUSH1 0x20 DUP3 ADD MLOAD PUSH1 0x1 DUP3 ADD SWAP1 PUSH2 0x621 SWAP1 DUP3 PUSH2 0x2C5B JUMP JUMPDEST POP PUSH1 0x40 DUP3 ADD MLOAD PUSH1 0x2 DUP3 ADD SWAP1 PUSH2 0x636 SWAP1 DUP3 PUSH2 0x2C5B JUMP JUMPDEST POP PUSH1 0x60 DUP3 ADD MLOAD PUSH1 0x3 DUP3 ADD SWAP1 PUSH2 0x64B SWAP1 DUP3 PUSH2 0x2C5B JUMP JUMPDEST POP PUSH1 0x80 DUP3 ADD MLOAD PUSH1 0x4 DUP3 ADD SSTORE PUSH1 0xA0 DUP3 ADD MLOAD PUSH1 0x5 DUP3 ADD DUP1 SLOAD PUSH1 0x1 PUSH1 0x1 PUSH1 0xA0 SHL SUB NOT AND PUSH1 0x1 PUSH1 0x1 PUSH1 0xA0 SHL SUB SWAP1 SWAP3 AND SWAP2 SWAP1 SWAP2 OR SWAP1 SSTORE PUSH1 0xC0 SWAP1 SWAP2 ADD MLOAD PUSH1 0x6 SWAP1 SWAP2 ADD SSTORE PUSH1 0x40 MLOAD DUP5 SWAP1 CALLER SWAP1 DUP4 SWAP1 PUSH32 0x463D85CEB93CC4D7DDF6727F8A3206619E95F36EDB2A7851AFCCD49445DC9027 SWAP1 PUSH2 0x6BE SWAP1 DUP9 SWAP1 PUSH2 0x2883 JUMP JUMPDEST PUSH1 0x40 MLOAD DUP1 SWAP2 SUB SWAP1 LOG4 SWAP8 SWAP7 POP POP POP POP POP POP POP JUMP JUMPDEST PUSH0 PUSH1 0x1 PUSH1 0x1 PUSH1 0xE0 SHL SUB NOT DUP3 AND PUSH4 0x24832483 PUSH1 0xE1 SHL EQ DUP1 PUSH2 0x6F5 JUMPI POP PUSH2 0x6F5 DUP3 PUSH2 0x1DD2 JUMP JUMPDEST SWAP3 SWAP2 POP POP JUMP JUMPDEST PUSH1 0x60 PUSH0 DUP1 SLOAD PUSH2 0x709 SWAP1 PUSH2 0x2BDF JUMP JUMPDEST DUP1 PUSH1 0x1F ADD PUSH1 0x20 DUP1 SWAP2 DIV MUL PUSH1 0x20 ADD PUSH1 0x40 MLOAD SWAP1 DUP2 ADD PUSH1 0x40 MSTORE DUP1 SWAP3 SWAP2 SWAP1 DUP2 DUP2 MSTORE PUSH1 0x20 ADD DUP3 DUP1 SLOAD PUSH2 0x735 SWAP1 PUSH2 0x2BDF JUMP JUMPDEST DUP1 ISZERO PUSH2 0x780 JUMPI DUP1 PUSH1 0x1F LT PUSH2 0x757 JUMPI PUSH2 0x100 DUP1 DUP4 SLOAD DIV MUL DUP4 MSTORE SWAP2 PUSH1 0x20 ADD SWAP2 PUSH2 0x780 JUMP JUMPDEST DUP3 ADD SWAP2 SWAP1 PUSH0 MSTORE PUSH1 0x20 PUSH0 KECCAK256 SWAP1 JUMPDEST DUP2 SLOAD DUP2 MSTORE SWAP1 PUSH1 0x1 ADD SWAP1 PUSH1 0x20 ADD DUP1 DUP4 GT PUSH2 0x763 JUMPI DUP3 SWAP1 SUB PUSH1 0x1F AND DUP3 ADD SWAP2 JUMPDEST POP POP POP POP POP SWAP1 POP SWAP1 JUMP JUMPDEST PUSH0 PUSH2 0x794 DUP3 PUSH2 0x1E21 JUMP JUMPDEST POP PUSH0 DUP3 DUP2 MSTORE PUSH1 0x4 PUSH1 0x20 MSTORE PUSH1 0x40 SWAP1 KECCAK256 SLOAD PUSH1 0x1 PUSH1 0x1 PUSH1 0xA0 SHL SUB AND PUSH2 0x6F5 JUMP JUMPDEST PUSH2 0x7BC DUP3 DUP3 CALLER PUSH2 0x1E59 JUMP JUMPDEST POP POP JUMP JUMPDEST PUSH1 0xC DUP1 SLOAD PUSH0 SWAP2 DUP3 PUSH2 0x7D0 DUP4 PUSH2 0x2BC7 JUMP JUMPDEST SWAP1 SWAP2 SSTORE POP POP PUSH1 0xC SLOAD PUSH1 0x40 DUP1 MLOAD PUSH1 0xA0 DUP2 ADD DUP3 MSTORE DUP3 DUP2 MSTORE PUSH1 0x20 DUP1 DUP3 ADD DUP8 DUP2 MSTORE DUP3 DUP5 ADD DUP8 SWAP1 MSTORE CALLER PUSH1 0x60 DUP5 ADD MSTORE TIMESTAMP PUSH1 0x80 DUP5 ADD MSTORE PUSH0 DUP6 DUP2 MSTORE PUSH1 0xD SWAP1 SWAP3 MSTORE SWAP3 SWAP1 KECCAK256 DUP2 MLOAD DUP2 SSTORE SWAP2 MLOAD SWAP1 SWAP2 SWAP1 PUSH1 0x1 DUP3 ADD SWAP1 PUSH2 0x823 SWAP1 DUP3 PUSH2 0x2C5B JUMP JUMPDEST POP PUSH1 0x40 DUP3 ADD MLOAD PUSH1 0x2 DUP3 ADD SWAP1 PUSH2 0x838 SWAP1 DUP3 PUSH2 0x2C5B JUMP JUMPDEST POP PUSH1 0x60 DUP3 ADD MLOAD PUSH1 0x3 DUP3 ADD DUP1 SLOAD PUSH1 0x1 PUSH1 0x1 PUSH1 0xA0 SHL SUB NOT AND PUSH1 0x1 PUSH1 0x1 PUSH1 0xA0 SHL SUB SWAP1 SWAP3 AND SWAP2 SWAP1 SWAP2 OR SWAP1 SSTORE PUSH1 0x80 SWAP1 SWAP2 ADD MLOAD PUSH1 0x4 SWAP1 SWAP2 ADD SSTORE CALLER PUSH0 DUP2 DUP2 MSTORE PUSH1 0xE PUSH1 0x20 SWAP1 DUP2 MSTORE PUSH1 0x40 DUP1 DUP4 KECCAK256 DUP1 SLOAD PUSH1 0x1 DUP2 ADD DUP3 SSTORE SWAP1 DUP5 MSTORE SWAP2 SWAP1 SWAP3 KECCAK256 ADD DUP4 SWAP1 SSTORE MLOAD DUP3 SWAP1 PUSH32 0x28264F4036324F7AF9ABD02761740048265F0C980737A3F97365DAD3162CBE65 SWAP1 PUSH2 0x8BF SWAP1 DUP9 SWAP1 PUSH2 0x2883 JUMP JUMPDEST PUSH1 0x40 MLOAD DUP1 SWAP2 SUB SWAP1 LOG3 SWAP4 SWAP3 POP POP POP JUMP JUMPDEST PUSH1 0x1 PUSH1 0x1 PUSH1 0xA0 SHL SUB DUP3 AND PUSH2 0x8FC JUMPI PUSH1 0x40 MLOAD PUSH4 0x32505749 PUSH1 0xE1 SHL DUP2 MSTORE PUSH0 PUSH1 0x4 DUP3 ADD MSTORE PUSH1 0x24 ADD JUMPDEST PUSH1 0x40 MLOAD DUP1 SWAP2 SUB SWAP1 REVERT JUMPDEST PUSH0 PUSH2 0x908 DUP4 DUP4 CALLER PUSH2 0x1E66 JUMP JUMPDEST SWAP1 POP DUP4 PUSH1 0x1 PUSH1 0x1 PUSH1 0xA0 SHL SUB AND DUP2 PUSH1 0x1 PUSH1 0x1 PUSH1 0xA0 SHL SUB AND EQ PUSH2 0x956 JUMPI PUSH1 0x40 MLOAD PUSH4 0x64283D7B PUSH1 0xE0 SHL DUP2 MSTORE PUSH1 0x1 PUSH1 0x1 PUSH1 0xA0 SHL SUB DUP1 DUP7 AND PUSH1 0x4 DUP4 ADD MSTORE PUSH1 0x24 DUP3 ADD DUP5 SWAP1 MSTORE DUP3 AND PUSH1 0x44 DUP3 ADD MSTORE PUSH1 0x64 ADD PUSH2 0x8F3 JUMP JUMPDEST POP POP POP POP JUMP JUMPDEST PUSH2 0x964 PUSH2 0x1F58 JUMP JUMPDEST PUSH1 0x1 PUSH1 0x1 PUSH1 0xA0 SHL SUB DUP2 AND PUSH2 0x98A JUMPI PUSH1 0x40 MLOAD PUSH3 0x461BCD PUSH1 0xE5 SHL DUP2 MSTORE PUSH1 0x4 ADD PUSH2 0x8F3 SWAP1 PUSH2 0x2D16 JUMP JUMPDEST PUSH1 0x13 DUP1 SLOAD PUSH1 0x1 PUSH1 0x1 PUSH1 0xA0 SHL SUB NOT AND PUSH1 0x1 PUSH1 0x1 PUSH1 0xA0 SHL SUB SWAP3 SWAP1 SWAP3 AND SWAP2 SWAP1 SWAP2 OR SWAP1 SSTORE JUMP JUMPDEST PUSH2 0x9B4 PUSH2 0x1F58 JUMP JUMPDEST PUSH2 0x9BC PUSH2 0x1F85 JUMP JUMPDEST JUMP JUMPDEST PUSH2 0x9D8 DUP4 DUP4 DUP4 PUSH1 0x40 MLOAD DUP1 PUSH1 0x20 ADD PUSH1 0x40 MSTORE DUP1 PUSH0 DUP2 MSTORE POP PUSH2 0x14DE JUMP JUMPDEST POP POP POP JUMP JUMPDEST PUSH1 0xE PUSH1 0x20 MSTORE DUP2 PUSH0 MSTORE PUSH1 0x40 PUSH0 KECCAK256 DUP2 DUP2 SLOAD DUP2 LT PUSH2 0x9F6 JUMPI PUSH0 DUP1 REVERT JUMPDEST SWAP1 PUSH0 MSTORE PUSH1 0x20 PUSH0 KECCAK256 ADD PUSH0 SWAP2 POP SWAP2 POP POP SLOAD DUP2 JUMP JUMPDEST PUSH1 0xB PUSH1 0x20 MSTORE PUSH0 SWAP1 DUP2 MSTORE PUSH1 0x40 SWAP1 KECCAK256 DUP1 SLOAD DUP2 SWAP1 PUSH2 0xA22 SWAP1 PUSH2 0x2BDF JUMP JUMPDEST DUP1 PUSH1 0x1F ADD PUSH1 0x20 DUP1 SWAP2 DIV MUL PUSH1 0x20 ADD PUSH1 0x40 MLOAD SWAP1 DUP2 ADD PUSH1 0x40 MSTORE DUP1 SWAP3 SWAP2 SWAP1 DUP2 DUP2 MSTORE PUSH1 0x20 ADD DUP3 DUP1 SLOAD PUSH2 0xA4E SWAP1 PUSH2 0x2BDF JUMP JUMPDEST DUP1 ISZERO PUSH2 0xA99 JUMPI DUP1 PUSH1 0x1F LT PUSH2 0xA70 JUMPI PUSH2 0x100 DUP1 DUP4 SLOAD DIV MUL DUP4 MSTORE SWAP2 PUSH1 0x20 ADD SWAP2 PUSH2 0xA99 JUMP JUMPDEST DUP3 ADD SWAP2 SWAP1 PUSH0 MSTORE PUSH1 0x20 PUSH0 KECCAK256 SWAP1 JUMPDEST DUP2 SLOAD DUP2 MSTORE SWAP1 PUSH1 0x1 ADD SWAP1 PUSH1 0x20 ADD DUP1 DUP4 GT PUSH2 0xA7C JUMPI DUP3 SWAP1 SUB PUSH1 0x1F AND DUP3 ADD SWAP2 JUMPDEST POP POP POP POP POP SWAP1 DUP1 PUSH1 0x1 ADD DUP1 SLOAD PUSH2 0xAAE SWAP1 PUSH2 0x2BDF JUMP JUMPDEST DUP1 PUSH1 0x1F ADD PUSH1 0x20 DUP1 SWAP2 DIV MUL PUSH1 0x20 ADD PUSH1 0x40 MLOAD SWAP1 DUP2 ADD PUSH1 0x40 MSTORE DUP1 SWAP3 SWAP2 SWAP1 DUP2 DUP2 MSTORE PUSH1 0x20 ADD DUP3 DUP1 SLOAD PUSH2 0xADA SWAP1 PUSH2 0x2BDF JUMP JUMPDEST DUP1 ISZERO PUSH2 0xB25 JUMPI DUP1 PUSH1 0x1F LT PUSH2 0xAFC JUMPI PUSH2 0x100 DUP1 DUP4 SLOAD DIV MUL DUP4 MSTORE SWAP2 PUSH1 0x20 ADD SWAP2 PUSH2 0xB25 JUMP JUMPDEST DUP3 ADD SWAP2 SWAP1 PUSH0 MSTORE PUSH1 0x20 PUSH0 KECCAK256 SWAP1 JUMPDEST DUP2 SLOAD DUP2 MSTORE SWAP1 PUSH1 0x1 ADD SWAP1 PUSH1 0x20 ADD DUP1 DUP4 GT PUSH2 0xB08 JUMPI DUP3 SWAP1 SUB PUSH1 0x1F AND DUP3 ADD SWAP2 JUMPDEST POP POP POP POP POP SWAP1 DUP1 PUSH1 0x2 ADD DUP1 SLOAD PUSH2 0xB3A SWAP1 PUSH2 0x2BDF JUMP JUMPDEST DUP1 PUSH1 0x1F ADD PUSH1 0x20 DUP1 SWAP2 DIV MUL PUSH1 0x20 ADD PUSH1 0x40 MLOAD SWAP1 DUP2 ADD PUSH1 0x40 MSTORE DUP1 SWAP3 SWAP2 SWAP1 DUP2 DUP2 MSTORE PUSH1 0x20 ADD DUP3 DUP1 SLOAD PUSH2 0xB66 SWAP1 PUSH2 0x2BDF JUMP JUMPDEST DUP1 ISZERO PUSH2 0xBB1 JUMPI DUP1 PUSH1 0x1F LT PUSH2 0xB88 JUMPI PUSH2 0x100 DUP1 DUP4 SLOAD DIV MUL DUP4 MSTORE SWAP2 PUSH1 0x20 ADD SWAP2 PUSH2 0xBB1 JUMP JUMPDEST DUP3 ADD SWAP2 SWAP1 PUSH0 MSTORE PUSH1 0x20 PUSH0 KECCAK256 SWAP1 JUMPDEST DUP2 SLOAD DUP2 MSTORE SWAP1 PUSH1 0x1 ADD SWAP1 PUSH1 0x20 ADD DUP1 DUP4 GT PUSH2 0xB94 JUMPI DUP3 SWAP1 SUB PUSH1 0x1F AND DUP3 ADD SWAP2 JUMPDEST POP POP POP POP POP SWAP1 DUP1 PUSH1 0x3 ADD DUP1 SLOAD PUSH2 0xBC6 SWAP1 PUSH2 0x2BDF JUMP JUMPDEST DUP1 PUSH1 0x1F ADD PUSH1 0x20 DUP1 SWAP2 DIV MUL PUSH1 0x20 ADD PUSH1 0x40 MLOAD SWAP1 DUP2 ADD PUSH1 0x40 MSTORE DUP1 SWAP3 SWAP2 SWAP1 DUP2 DUP2 MSTORE PUSH1 0x20 ADD DUP3 DUP1 SLOAD PUSH2 0xBF2 SWAP1 PUSH2 0x2BDF JUMP JUMPDEST DUP1 ISZERO PUSH2 0xC3D JUMPI DUP1 PUSH1 0x1F LT PUSH2 0xC14 JUMPI PUSH2 0x100 DUP1 DUP4 SLOAD DIV MUL DUP4 MSTORE SWAP2 PUSH1 0x20 ADD SWAP2 PUSH2 0xC3D JUMP JUMPDEST DUP3 ADD SWAP2 SWAP1 PUSH0 MSTORE PUSH1 0x20 PUSH0 KECCAK256 SWAP1 JUMPDEST DUP2 SLOAD DUP2 MSTORE SWAP1 PUSH1 0x1 ADD SWAP1 PUSH1 0x20 ADD DUP1 DUP4 GT PUSH2 0xC20 JUMPI DUP3 SWAP1 SUB PUSH1 0x1F AND DUP3 ADD SWAP2 JUMPDEST POP POP POP POP PUSH1 0x4 DUP4 ADD SLOAD PUSH1 0x5 DUP5 ADD SLOAD PUSH1 0x6 SWAP1 SWAP5 ADD SLOAD SWAP3 SWAP4 SWAP1 SWAP3 PUSH1 0x1 PUSH1 0x1 PUSH1 0xA0 SHL SUB SWAP1 SWAP2 AND SWAP2 POP DUP8 JUMP JUMPDEST PUSH0 PUSH2 0x6F5 DUP3 PUSH2 0x1E21 JUMP JUMPDEST PUSH2 0xC77 PUSH2 0x1F58 JUMP JUMPDEST PUSH1 0x40 MLOAD PUSH4 0xA9059CBB PUSH1 0xE0 SHL DUP2 MSTORE CALLER PUSH1 0x4 DUP3 ADD MSTORE PUSH1 0x24 DUP2 ADD DUP3 SWAP1 MSTORE PUSH1 0x1 PUSH1 0x1 PUSH1 0xA0 SHL SUB DUP4 AND SWAP1 PUSH4 0xA9059CBB SWAP1 PUSH1 0x44 ADD PUSH1 0x20 PUSH1 0x40 MLOAD DUP1 DUP4 SUB DUP2 PUSH0 DUP8 GAS CALL ISZERO DUP1 ISZERO PUSH2 0xCC1 JUMPI RETURNDATASIZE PUSH0 PUSH0 RETURNDATACOPY RETURNDATASIZE PUSH0 REVERT JUMPDEST POP POP POP POP PUSH1 0x40 MLOAD RETURNDATASIZE PUSH1 0x1F NOT PUSH1 0x1F DUP3 ADD AND DUP3 ADD DUP1 PUSH1 0x40 MSTORE POP DUP2 ADD SWAP1 PUSH2 0x9D8 SWAP2 SWAP1 PUSH2 0x2D3F JUMP JUMPDEST PUSH0 PUSH1 0x1 PUSH1 0x1 PUSH1 0xA0 SHL SUB DUP3 AND PUSH2 0xD0F JUMPI PUSH1 0x40 MLOAD PUSH4 0x22718AD9 PUSH1 0xE2 SHL DUP2 MSTORE PUSH0 PUSH1 0x4 DUP3 ADD MSTORE PUSH1 0x24 ADD PUSH2 0x8F3 JUMP JUMPDEST POP PUSH1 0x1 PUSH1 0x1 PUSH1 0xA0 SHL SUB AND PUSH0 SWAP1 DUP2 MSTORE PUSH1 0x3 PUSH1 0x20 MSTORE PUSH1 0x40 SWAP1 KECCAK256 SLOAD SWAP1 JUMP JUMPDEST PUSH2 0xD32 PUSH2 0x1F58 JUMP JUMPDEST PUSH2 0x9BC PUSH0 PUSH2 0x1FD7 JUMP JUMPDEST PUSH2 0xD43 PUSH2 0x2028 JUMP JUMPDEST CALLER PUSH0 SWAP1 DUP2 MSTORE PUSH1 0xF PUSH1 0x20 MSTORE PUSH1 0x40 SWAP1 KECCAK256 SLOAD DUP2 LT PUSH2 0xD92 JUMPI PUSH1 0x40 MLOAD PUSH3 0x461BCD PUSH1 0xE5 SHL DUP2 MSTORE PUSH1 0x20 PUSH1 0x4 DUP3 ADD MSTORE PUSH1 0xF PUSH1 0x24 DUP3 ADD MSTORE PUSH15 0x125B9D985B1A59081B1BD8DAC81251 PUSH1 0x8A SHL PUSH1 0x44 DUP3 ADD MSTORE PUSH1 0x64 ADD PUSH2 0x8F3 JUMP JUMPDEST CALLER PUSH0 SWAP1 DUP2 MSTORE PUSH1 0xF PUSH1 0x20 MSTORE PUSH1 0x40 DUP2 KECCAK256 DUP1 SLOAD DUP4 SWAP1 DUP2 LT PUSH2 0xDB2 JUMPI PUSH2 0xDB2 PUSH2 0x2D5A JUMP JUMPDEST PUSH0 SWAP2 DUP3 MSTORE PUSH1 0x20 SWAP1 SWAP2 KECCAK256 PUSH1 0x8 SWAP1 SWAP2 MUL ADD PUSH1 0x4 DUP2 ADD SLOAD SWAP1 SWAP2 POP PUSH1 0xFF AND ISZERO PUSH2 0xE0B JUMPI PUSH1 0x40 MLOAD PUSH3 0x461BCD PUSH1 0xE5 SHL DUP2 MSTORE PUSH1 0x20 PUSH1 0x4 DUP3 ADD MSTORE PUSH1 0xF PUSH1 0x24 DUP3 ADD MSTORE PUSH15 0x105B1C9958591E4818DB185A5B5959 PUSH1 0x8A SHL PUSH1 0x44 DUP3 ADD MSTORE PUSH1 0x64 ADD PUSH2 0x8F3 JUMP JUMPDEST DUP1 PUSH1 0x3 ADD SLOAD DUP2 PUSH1 0x2 ADD SLOAD PUSH2 0xE1F SWAP2 SWAP1 PUSH2 0x2D6E JUMP JUMPDEST TIMESTAMP LT ISZERO PUSH2 0xE6E JUMPI PUSH1 0x40 MLOAD PUSH3 0x461BCD PUSH1 0xE5 SHL DUP2 MSTORE PUSH1 0x20 PUSH1 0x4 DUP3 ADD MSTORE PUSH1 0x18 PUSH1 0x24 DUP3 ADD MSTORE PUSH32 0x4C6F636B20706572696F64206E6F742066696E69736865640000000000000000 PUSH1 0x44 DUP3 ADD MSTORE PUSH1 0x64 ADD PUSH2 0x8F3 JUMP JUMPDEST PUSH0 PUSH2 0xE81 DUP3 PUSH1 0x1 ADD SLOAD DUP4 PUSH1 0x3 ADD SLOAD PUSH2 0x1AC3 JUMP JUMPDEST PUSH1 0x5 DUP4 ADD DUP2 SWAP1 SSTORE PUSH1 0x4 DUP4 ADD DUP1 SLOAD PUSH1 0xFF NOT AND PUSH1 0x1 OR SWAP1 SSTORE PUSH1 0x6 DUP4 ADD SLOAD SWAP1 SWAP2 POP PUSH1 0xFF AND ISZERO PUSH2 0xF55 JUMPI PUSH1 0x13 SLOAD DUP3 SLOAD PUSH1 0x1 DUP5 ADD SLOAD PUSH1 0x40 MLOAD PUSH4 0x1A4CA37B PUSH1 0xE2 SHL DUP2 MSTORE PUSH1 0x1 PUSH1 0x1 PUSH1 0xA0 SHL SUB SWAP3 DUP4 AND PUSH1 0x4 DUP3 ADD MSTORE PUSH1 0x24 DUP2 ADD SWAP2 SWAP1 SWAP2 MSTORE ADDRESS PUSH1 0x44 DUP3 ADD MSTORE PUSH0 SWAP3 SWAP2 SWAP1 SWAP2 AND SWAP1 PUSH4 0x69328DEC SWAP1 PUSH1 0x64 ADD PUSH1 0x20 PUSH1 0x40 MLOAD DUP1 DUP4 SUB DUP2 PUSH0 DUP8 GAS CALL ISZERO DUP1 ISZERO PUSH2 0xF08 JUMPI RETURNDATASIZE PUSH0 PUSH0 RETURNDATACOPY RETURNDATASIZE PUSH0 REVERT JUMPDEST POP POP POP POP PUSH1 0x40 MLOAD RETURNDATASIZE PUSH1 0x1F NOT PUSH1 0x1F DUP3 ADD AND DUP3 ADD DUP1 PUSH1 0x40 MSTORE POP DUP2 ADD SWAP1 PUSH2 0xF2C SWAP2 SWAP1 PUSH2 0x2D81 JUMP JUMPDEST SWAP1 POP DUP3 PUSH1 0x1 ADD SLOAD DUP2 GT PUSH2 0xF3F JUMPI PUSH0 PUSH2 0xF4E JUMP JUMPDEST PUSH1 0x1 DUP4 ADD SLOAD PUSH2 0xF4E SWAP1 DUP3 PUSH2 0x2D98 JUMP JUMPDEST PUSH1 0x7 DUP5 ADD SSTORE POP JUMPDEST PUSH0 DUP3 PUSH1 0x7 ADD SLOAD DUP3 DUP5 PUSH1 0x1 ADD SLOAD PUSH2 0xF6B SWAP2 SWAP1 PUSH2 0x2D6E JUMP JUMPDEST PUSH2 0xF75 SWAP2 SWAP1 PUSH2 0x2D6E JUMP JUMPDEST SWAP1 POP PUSH0 PUSH2 0x2710 PUSH1 0x11 SLOAD DUP5 PUSH2 0xF89 SWAP2 SWAP1 PUSH2 0x2DAB JUMP JUMPDEST PUSH2 0xF93 SWAP2 SWAP1 PUSH2 0x2DC2 JUMP JUMPDEST SWAP1 POP DUP1 ISZERO PUSH2 0x1012 JUMPI DUP4 SLOAD PUSH1 0x10 SLOAD PUSH1 0x40 MLOAD PUSH4 0xA9059CBB PUSH1 0xE0 SHL DUP2 MSTORE PUSH1 0x1 PUSH1 0x1 PUSH1 0xA0 SHL SUB SWAP2 DUP3 AND PUSH1 0x4 DUP3 ADD MSTORE PUSH1 0x24 DUP2 ADD DUP5 SWAP1 MSTORE SWAP2 AND SWAP1 PUSH4 0xA9059CBB SWAP1 PUSH1 0x44 ADD PUSH1 0x20 PUSH1 0x40 MLOAD DUP1 DUP4 SUB DUP2 PUSH0 DUP8 GAS CALL ISZERO DUP1 ISZERO PUSH2 0xFEC JUMPI RETURNDATASIZE PUSH0 PUSH0 RETURNDATACOPY RETURNDATASIZE PUSH0 REVERT JUMPDEST POP POP POP POP PUSH1 0x40 MLOAD RETURNDATASIZE PUSH1 0x1F NOT PUSH1 0x1F DUP3 ADD AND DUP3 ADD DUP1 PUSH1 0x40 MSTORE POP DUP2 ADD SWAP1 PUSH2 0x1010 SWAP2 SWAP1 PUSH2 0x2D3F JUMP JUMPDEST POP JUMPDEST DUP4 SLOAD PUSH1 0x1 PUSH1 0x1 PUSH1 0xA0 SHL SUB AND PUSH4 0xA9059CBB CALLER PUSH2 0x102D DUP5 DUP7 PUSH2 0x2D98 JUMP JUMPDEST PUSH1 0x40 MLOAD PUSH1 0x1 PUSH1 0x1 PUSH1 0xE0 SHL SUB NOT PUSH1 0xE0 DUP6 SWAP1 SHL AND DUP2 MSTORE PUSH1 0x1 PUSH1 0x1 PUSH1 0xA0 SHL SUB SWAP1 SWAP3 AND PUSH1 0x4 DUP4 ADD MSTORE PUSH1 0x24 DUP3 ADD MSTORE PUSH1 0x44 ADD PUSH1 0x20 PUSH1 0x40 MLOAD DUP1 DUP4 SUB DUP2 PUSH0 DUP8 GAS CALL ISZERO DUP1 ISZERO PUSH2 0x1075 JUMPI RETURNDATASIZE PUSH0 PUSH0 RETURNDATACOPY RETURNDATASIZE PUSH0 REVERT JUMPDEST POP POP POP POP PUSH1 0x40 MLOAD RETURNDATASIZE PUSH1 0x1F NOT PUSH1 0x1F DUP3 ADD AND DUP3 ADD DUP1 PUSH1 0x40 MSTORE POP DUP2 ADD SWAP1 PUSH2 0x1099 SWAP2 SWAP1 PUSH2 0x2D3F JUMP JUMPDEST POP DUP4 SLOAD PUSH1 0x1 DUP6 ADD SLOAD PUSH1 0x40 DUP1 MLOAD SWAP2 DUP3 MSTORE PUSH1 0x20 DUP3 ADD DUP7 SWAP1 MSTORE DUP2 ADD DUP8 SWAP1 MSTORE PUSH1 0x1 PUSH1 0x1 PUSH1 0xA0 SHL SUB SWAP1 SWAP2 AND SWAP1 CALLER SWAP1 PUSH32 0x469BA0DDFE932CFD8FEBE378BCF0BA91F65C0B6F9D60E893047555DD45375216 SWAP1 PUSH1 0x60 ADD PUSH1 0x40 MLOAD DUP1 SWAP2 SUB SWAP1 LOG3 POP POP POP POP PUSH2 0x10FD PUSH1 0x1 PUSH1 0x8 SSTORE JUMP JUMPDEST POP JUMP JUMPDEST PUSH2 0x1108 PUSH2 0x1F58 JUMP JUMPDEST PUSH2 0x9BC PUSH2 0x2052 JUMP JUMPDEST PUSH1 0x60 PUSH1 0x1 DUP1 SLOAD PUSH2 0x709 SWAP1 PUSH2 0x2BDF JUMP JUMPDEST PUSH2 0x7BC CALLER DUP4 DUP4 PUSH2 0x208F JUMP JUMPDEST PUSH2 0x1132 PUSH2 0x2028 JUMP JUMPDEST CALLER PUSH0 SWAP1 DUP2 MSTORE PUSH1 0xF PUSH1 0x20 MSTORE PUSH1 0x40 SWAP1 KECCAK256 SLOAD DUP2 LT PUSH2 0x1181 JUMPI PUSH1 0x40 MLOAD PUSH3 0x461BCD PUSH1 0xE5 SHL DUP2 MSTORE PUSH1 0x20 PUSH1 0x4 DUP3 ADD MSTORE PUSH1 0xF PUSH1 0x24 DUP3 ADD MSTORE PUSH15 0x125B9D985B1A59081B1BD8DAC81251 PUSH1 0x8A SHL PUSH1 0x44 DUP3 ADD MSTORE PUSH1 0x64 ADD PUSH2 0x8F3 JUMP JUMPDEST CALLER PUSH0 SWAP1 DUP2 MSTORE PUSH1 0xF PUSH1 0x20 MSTORE PUSH1 0x40 DUP2 KECCAK256 DUP1 SLOAD DUP4 SWAP1 DUP2 LT PUSH2 0x11A1 JUMPI PUSH2 0x11A1 PUSH2 0x2D5A JUMP JUMPDEST PUSH0 SWAP2 DUP3 MSTORE PUSH1 0x20 SWAP1 SWAP2 KECCAK256 PUSH1 0x8 SWAP1 SWAP2 MUL ADD PUSH1 0x4 DUP2 ADD SLOAD SWAP1 SWAP2 POP PUSH1 0xFF AND ISZERO PUSH2 0x11FA JUMPI PUSH1 0x40 MLOAD PUSH3 0x461BCD PUSH1 0xE5 SHL DUP2 MSTORE PUSH1 0x20 PUSH1 0x4 DUP3 ADD MSTORE PUSH1 0xF PUSH1 0x24 DUP3 ADD MSTORE PUSH15 0x105B1C9958591E4818DB185A5B5959 PUSH1 0x8A SHL PUSH1 0x44 DUP3 ADD MSTORE PUSH1 0x64 ADD PUSH2 0x8F3 JUMP JUMPDEST DUP1 PUSH1 0x3 ADD SLOAD DUP2 PUSH1 0x2 ADD SLOAD PUSH2 0x120E SWAP2 SWAP1 PUSH2 0x2D6E JUMP JUMPDEST TIMESTAMP LT PUSH2 0x126C JUMPI PUSH1 0x40 MLOAD PUSH3 0x461BCD PUSH1 0xE5 SHL DUP2 MSTORE PUSH1 0x20 PUSH1 0x4 DUP3 ADD MSTORE PUSH1 0x27 PUSH1 0x24 DUP3 ADD MSTORE PUSH32 0x4C6F636B20706572696F642066696E69736865642C20757365206E6F726D616C PUSH1 0x44 DUP3 ADD MSTORE PUSH7 0x20756E6C6F636B PUSH1 0xC8 SHL PUSH1 0x64 DUP3 ADD MSTORE PUSH1 0x84 ADD PUSH2 0x8F3 JUMP JUMPDEST PUSH1 0x4 DUP2 ADD DUP1 SLOAD PUSH1 0xFF NOT AND PUSH1 0x1 OR SWAP1 SSTORE PUSH1 0x6 DUP2 ADD SLOAD PUSH1 0xFF AND ISZERO PUSH2 0x130B JUMPI PUSH1 0x13 SLOAD DUP2 SLOAD PUSH1 0x1 DUP4 ADD SLOAD PUSH1 0x40 MLOAD PUSH4 0x1A4CA37B PUSH1 0xE2 SHL DUP2 MSTORE PUSH1 0x1 PUSH1 0x1 PUSH1 0xA0 SHL SUB SWAP3 DUP4 AND PUSH1 0x4 DUP3 ADD MSTORE PUSH1 0x24 DUP2 ADD SWAP2 SWAP1 SWAP2 MSTORE ADDRESS PUSH1 0x44 DUP3 ADD MSTORE SWAP2 AND SWAP1 PUSH4 0x69328DEC SWAP1 PUSH1 0x64 ADD PUSH1 0x20 PUSH1 0x40 MLOAD DUP1 DUP4 SUB DUP2 PUSH0 DUP8 GAS CALL ISZERO DUP1 ISZERO PUSH2 0x12E5 JUMPI RETURNDATASIZE PUSH0 PUSH0 RETURNDATACOPY RETURNDATASIZE PUSH0 REVERT JUMPDEST POP POP POP POP PUSH1 0x40 MLOAD RETURNDATASIZE PUSH1 0x1F NOT PUSH1 0x1F DUP3 ADD AND DUP3 ADD DUP1 PUSH1 0x40 MSTORE POP DUP2 ADD SWAP1 PUSH2 0x1309 SWAP2 SWAP1 PUSH2 0x2D81 JUMP JUMPDEST POP JUMPDEST PUSH0 PUSH1 0x64 DUP3 PUSH1 0x1 ADD SLOAD PUSH1 0xA PUSH2 0x131F SWAP2 SWAP1 PUSH2 0x2DAB JUMP JUMPDEST PUSH2 0x1329 SWAP2 SWAP1 PUSH2 0x2DC2 JUMP JUMPDEST SWAP1 POP PUSH0 DUP2 DUP4 PUSH1 0x1 ADD SLOAD PUSH2 0x133C SWAP2 SWAP1 PUSH2 0x2D98 JUMP JUMPDEST DUP4 SLOAD PUSH1 0x10 SLOAD PUSH1 0x40 MLOAD PUSH4 0xA9059CBB PUSH1 0xE0 SHL DUP2 MSTORE PUSH1 0x1 PUSH1 0x1 PUSH1 0xA0 SHL SUB SWAP2 DUP3 AND PUSH1 0x4 DUP3 ADD MSTORE PUSH1 0x24 DUP2 ADD DUP7 SWAP1 MSTORE SWAP3 SWAP4 POP AND SWAP1 PUSH4 0xA9059CBB SWAP1 PUSH1 0x44 ADD PUSH1 0x20 PUSH1 0x40 MLOAD DUP1 DUP4 SUB DUP2 PUSH0 DUP8 GAS CALL ISZERO DUP1 ISZERO PUSH2 0x138F JUMPI RETURNDATASIZE PUSH0 PUSH0 RETURNDATACOPY RETURNDATASIZE PUSH0 REVERT JUMPDEST POP POP POP POP PUSH1 0x40 MLOAD RETURNDATASIZE PUSH1 0x1F NOT PUSH1 0x1F DUP3 ADD AND DUP3 ADD DUP1 PUSH1 0x40 MSTORE POP DUP2 ADD SWAP1 PUSH2 0x13B3 SWAP2 SWAP1 PUSH2 0x2D3F JUMP JUMPDEST POP DUP3 SLOAD PUSH1 0x40 MLOAD PUSH4 0xA9059CBB PUSH1 0xE0 SHL DUP2 MSTORE CALLER PUSH1 0x4 DUP3 ADD MSTORE PUSH1 0x24 DUP2 ADD DUP4 SWAP1 MSTORE PUSH1 0x1 PUSH1 0x1 PUSH1 0xA0 SHL SUB SWAP1 SWAP2 AND SWAP1 PUSH4 0xA9059CBB SWAP1 PUSH1 0x44 ADD PUSH1 0x20 PUSH1 0x40 MLOAD DUP1 DUP4 SUB DUP2 PUSH0 DUP8 GAS CALL ISZERO DUP1 ISZERO PUSH2 0x1401 JUMPI RETURNDATASIZE PUSH0 PUSH0 RETURNDATACOPY RETURNDATASIZE PUSH0 REVERT JUMPDEST POP POP POP POP PUSH1 0x40 MLOAD RETURNDATASIZE PUSH1 0x1F NOT PUSH1 0x1F DUP3 ADD AND DUP3 ADD DUP1 PUSH1 0x40 MSTORE POP DUP2 ADD SWAP1 PUSH2 0x1425 SWAP2 SWAP1 PUSH2 0x2D3F JUMP JUMPDEST POP PUSH1 0x40 DUP1 MLOAD DUP6 DUP2 MSTORE PUSH1 0x20 DUP2 ADD DUP5 SWAP1 MSTORE CALLER SWAP2 PUSH32 0x73F0644CD8AFA7AD22314A5CEAD22C249F333E40FA1FE21A6B282AE3F5FD5DF4 SWAP2 ADD PUSH1 0x40 MLOAD DUP1 SWAP2 SUB SWAP1 LOG2 POP POP POP PUSH2 0x10FD PUSH1 0x1 PUSH1 0x8 SSTORE JUMP JUMPDEST PUSH1 0xF PUSH1 0x20 MSTORE DUP2 PUSH0 MSTORE PUSH1 0x40 PUSH0 KECCAK256 DUP2 DUP2 SLOAD DUP2 LT PUSH2 0x1487 JUMPI PUSH0 DUP1 REVERT JUMPDEST PUSH0 SWAP2 DUP3 MSTORE PUSH1 0x20 SWAP1 SWAP2 KECCAK256 PUSH1 0x8 SWAP1 SWAP2 MUL ADD DUP1 SLOAD PUSH1 0x1 DUP3 ADD SLOAD PUSH1 0x2 DUP4 ADD SLOAD PUSH1 0x3 DUP5 ADD SLOAD PUSH1 0x4 DUP6 ADD SLOAD PUSH1 0x5 DUP7 ADD SLOAD PUSH1 0x6 DUP8 ADD SLOAD PUSH1 0x7 SWAP1 SWAP8 ADD SLOAD PUSH1 0x1 PUSH1 0x1 PUSH1 0xA0 SHL SUB SWAP1 SWAP7 AND SWAP9 POP SWAP4 SWAP7 POP SWAP2 SWAP5 SWAP1 SWAP4 PUSH1 0xFF SWAP3 DUP4 AND SWAP4 SWAP3 SWAP1 SWAP2 AND SWAP1 DUP9 JUMP JUMPDEST PUSH2 0x14E9 DUP5 DUP5 DUP5 PUSH2 0x8CE JUMP JUMPDEST PUSH2 0x956 CALLER DUP6 DUP6 DUP6 DUP6 PUSH2 0x212D JUMP JUMPDEST PUSH2 0x14FE PUSH2 0x1F58 JUMP JUMPDEST PUSH1 0x1 PUSH1 0x1 PUSH1 0xA0 SHL SUB DUP2 AND PUSH2 0x1524 JUMPI PUSH1 0x40 MLOAD PUSH3 0x461BCD PUSH1 0xE5 SHL DUP2 MSTORE PUSH1 0x4 ADD PUSH2 0x8F3 SWAP1 PUSH2 0x2D16 JUMP JUMPDEST PUSH1 0x12 DUP1 SLOAD PUSH1 0x1 PUSH1 0x1 PUSH1 0xA0 SHL SUB NOT AND PUSH1 0x1 PUSH1 0x1 PUSH1 0xA0 SHL SUB SWAP3 SWAP1 SWAP3 AND SWAP2 SWAP1 SWAP2 OR SWAP1 SSTORE JUMP JUMPDEST PUSH1 0x60 PUSH2 0x1551 DUP3 PUSH2 0x1E21 JUMP JUMPDEST POP PUSH0 DUP3 DUP2 MSTORE PUSH1 0x6 PUSH1 0x20 MSTORE PUSH1 0x40 DUP2 KECCAK256 DUP1 SLOAD PUSH2 0x156A SWAP1 PUSH2 0x2BDF JUMP JUMPDEST DUP1 PUSH1 0x1F ADD PUSH1 0x20 DUP1 SWAP2 DIV MUL PUSH1 0x20 ADD PUSH1 0x40 MLOAD SWAP1 DUP2 ADD PUSH1 0x40 MSTORE DUP1 SWAP3 SWAP2 SWAP1 DUP2 DUP2 MSTORE PUSH1 0x20 ADD DUP3 DUP1 SLOAD PUSH2 0x1596 SWAP1 PUSH2 0x2BDF JUMP JUMPDEST DUP1 ISZERO PUSH2 0x15E1 JUMPI DUP1 PUSH1 0x1F LT PUSH2 0x15B8 JUMPI PUSH2 0x100 DUP1 DUP4 SLOAD DIV MUL DUP4 MSTORE SWAP2 PUSH1 0x20 ADD SWAP2 PUSH2 0x15E1 JUMP JUMPDEST DUP3 ADD SWAP2 SWAP1 PUSH0 MSTORE PUSH1 0x20 PUSH0 KECCAK256 SWAP1 JUMPDEST DUP2 SLOAD DUP2 MSTORE SWAP1 PUSH1 0x1 ADD SWAP1 PUSH1 0x20 ADD DUP1 DUP4 GT PUSH2 0x15C4 JUMPI DUP3 SWAP1 SUB PUSH1 0x1F AND DUP3 ADD SWAP2 JUMPDEST POP POP POP POP POP SWAP1 POP PUSH0 PUSH2 0x15FD PUSH1 0x40 DUP1 MLOAD PUSH1 0x20 DUP2 ADD SWAP1 SWAP2 MSTORE PUSH0 DUP2 MSTORE SWAP1 JUMP JUMPDEST SWAP1 POP DUP1 MLOAD PUSH0 SUB PUSH2 0x160E JUMPI POP SWAP3 SWAP2 POP POP JUMP JUMPDEST DUP2 MLOAD ISZERO PUSH2 0x1640 JUMPI DUP1 DUP3 PUSH1 0x40 MLOAD PUSH1 0x20 ADD PUSH2 0x1628 SWAP3 SWAP2 SWAP1 PUSH2 0x2DF8 JUMP JUMPDEST PUSH1 0x40 MLOAD PUSH1 0x20 DUP2 DUP4 SUB SUB DUP2 MSTORE SWAP1 PUSH1 0x40 MSTORE SWAP3 POP POP POP SWAP2 SWAP1 POP JUMP JUMPDEST PUSH2 0x1649 DUP5 PUSH2 0x2255 JUMP JUMPDEST SWAP5 SWAP4 POP POP POP POP JUMP JUMPDEST PUSH2 0x1659 PUSH2 0x1F58 JUMP JUMPDEST PUSH1 0x1 PUSH1 0x1 PUSH1 0xA0 SHL SUB DUP2 AND PUSH2 0x167F JUMPI PUSH1 0x40 MLOAD PUSH3 0x461BCD PUSH1 0xE5 SHL DUP2 MSTORE PUSH1 0x4 ADD PUSH2 0x8F3 SWAP1 PUSH2 0x2D16 JUMP JUMPDEST PUSH1 0x10 DUP1 SLOAD PUSH1 0x1 PUSH1 0x1 PUSH1 0xA0 SHL SUB NOT AND PUSH1 0x1 PUSH1 0x1 PUSH1 0xA0 SHL SUB SWAP3 SWAP1 SWAP3 AND SWAP2 SWAP1 SWAP2 OR SWAP1 SSTORE JUMP JUMPDEST PUSH2 0x16A9 PUSH2 0x2028 JUMP JUMPDEST PUSH2 0x16B1 PUSH2 0x1D46 JUMP JUMPDEST PUSH0 DUP4 GT PUSH2 0x1700 JUMPI PUSH1 0x40 MLOAD PUSH3 0x461BCD PUSH1 0xE5 SHL DUP2 MSTORE PUSH1 0x20 PUSH1 0x4 DUP3 ADD MSTORE PUSH1 0x1D PUSH1 0x24 DUP3 ADD MSTORE PUSH32 0x416D6F756E74206D7573742062652067726561746572207468616E2030000000 PUSH1 0x44 DUP3 ADD MSTORE PUSH1 0x64 ADD PUSH2 0x8F3 JUMP JUMPDEST PUSH3 0x93A80 DUP3 LT ISZERO PUSH2 0x1753 JUMPI PUSH1 0x40 MLOAD PUSH3 0x461BCD PUSH1 0xE5 SHL DUP2 MSTORE PUSH1 0x20 PUSH1 0x4 DUP3 ADD MSTORE PUSH1 0x1D PUSH1 0x24 DUP3 ADD MSTORE PUSH32 0x4D696E696D756D206C6F636B20706572696F6420697320372064617973000000 PUSH1 0x44 DUP3 ADD MSTORE PUSH1 0x64 ADD PUSH2 0x8F3 JUMP JUMPDEST PUSH4 0x1E13380 DUP3 GT ISZERO PUSH2 0x17A7 JUMPI PUSH1 0x40 MLOAD PUSH3 0x461BCD PUSH1 0xE5 SHL DUP2 MSTORE PUSH1 0x20 PUSH1 0x4 DUP3 ADD MSTORE PUSH1 0x1F PUSH1 0x24 DUP3 ADD MSTORE PUSH32 0x4D6178696D756D206C6F636B20706572696F6420697320333635206461797300 PUSH1 0x44 DUP3 ADD MSTORE PUSH1 0x64 ADD PUSH2 0x8F3 JUMP JUMPDEST PUSH1 0x40 MLOAD PUSH4 0x23B872DD PUSH1 0xE0 SHL DUP2 MSTORE CALLER PUSH1 0x4 DUP3 ADD MSTORE ADDRESS PUSH1 0x24 DUP3 ADD MSTORE PUSH1 0x44 DUP2 ADD DUP5 SWAP1 MSTORE PUSH1 0x1 PUSH1 0x1 PUSH1 0xA0 SHL SUB DUP6 AND SWAP1 PUSH4 0x23B872DD SWAP1 PUSH1 0x64 ADD PUSH1 0x20 PUSH1 0x40 MLOAD DUP1 DUP4 SUB DUP2 PUSH0 DUP8 GAS CALL ISZERO DUP1 ISZERO PUSH2 0x17F7 JUMPI RETURNDATASIZE PUSH0 PUSH0 RETURNDATACOPY RETURNDATASIZE PUSH0 REVERT JUMPDEST POP POP POP POP PUSH1 0x40 MLOAD RETURNDATASIZE PUSH1 0x1F NOT PUSH1 0x1F DUP3 ADD AND DUP3 ADD DUP1 PUSH1 0x40 MSTORE POP DUP2 ADD SWAP1 PUSH2 0x181B SWAP2 SWAP1 PUSH2 0x2D3F JUMP JUMPDEST POP DUP1 ISZERO PUSH2 0x1905 JUMPI PUSH1 0x13 SLOAD PUSH1 0x40 MLOAD PUSH4 0x95EA7B3 PUSH1 0xE0 SHL DUP2 MSTORE PUSH1 0x1 PUSH1 0x1 PUSH1 0xA0 SHL SUB SWAP2 DUP3 AND PUSH1 0x4 DUP3 ADD MSTORE PUSH1 0x24 DUP2 ADD DUP6 SWAP1 MSTORE SWAP1 DUP6 AND SWAP1 PUSH4 0x95EA7B3 SWAP1 PUSH1 0x44 ADD PUSH1 0x20 PUSH1 0x40 MLOAD DUP1 DUP4 SUB DUP2 PUSH0 DUP8 GAS CALL ISZERO DUP1 ISZERO PUSH2 0x1872 JUMPI RETURNDATASIZE PUSH0 PUSH0 RETURNDATACOPY RETURNDATASIZE PUSH0 REVERT JUMPDEST POP POP POP POP PUSH1 0x40 MLOAD RETURNDATASIZE PUSH1 0x1F NOT PUSH1 0x1F DUP3 ADD AND DUP3 ADD DUP1 PUSH1 0x40 MSTORE POP DUP2 ADD SWAP1 PUSH2 0x1896 SWAP2 SWAP1 PUSH2 0x2D3F JUMP JUMPDEST POP PUSH1 0x13 SLOAD PUSH1 0x40 MLOAD PUSH4 0x617BA037 PUSH1 0xE0 SHL DUP2 MSTORE PUSH1 0x1 PUSH1 0x1 PUSH1 0xA0 SHL SUB DUP7 DUP2 AND PUSH1 0x4 DUP4 ADD MSTORE PUSH1 0x24 DUP3 ADD DUP7 SWAP1 MSTORE ADDRESS PUSH1 0x44 DUP4 ADD MSTORE PUSH0 PUSH1 0x64 DUP4 ADD MSTORE SWAP1 SWAP2 AND SWAP1 PUSH4 0x617BA037 SWAP1 PUSH1 0x84 ADD PUSH0 PUSH1 0x40 MLOAD DUP1 DUP4 SUB DUP2 PUSH0 DUP8 DUP1 EXTCODESIZE ISZERO DUP1 ISZERO PUSH2 0x18EE JUMPI PUSH0 PUSH0 REVERT JUMPDEST POP GAS CALL ISZERO DUP1 ISZERO PUSH2 0x1900 JUMPI RETURNDATASIZE PUSH0 PUSH0 RETURNDATACOPY RETURNDATASIZE PUSH0 REVERT JUMPDEST POP POP POP POP JUMPDEST PUSH1 0xF PUSH0 CALLER PUSH1 0x1 PUSH1 0x1 PUSH1 0xA0 SHL SUB AND PUSH1 0x1 PUSH1 0x1 PUSH1 0xA0 SHL SUB AND DUP2 MSTORE PUSH1 0x20 ADD SWAP1 DUP2 MSTORE PUSH1 0x20 ADD PUSH0 KECCAK256 PUSH1 0x40 MLOAD DUP1 PUSH2 0x100 ADD PUSH1 0x40 MSTORE DUP1 DUP7 PUSH1 0x1 PUSH1 0x1 PUSH1 0xA0 SHL SUB AND DUP2 MSTORE PUSH1 0x20 ADD DUP6 DUP2 MSTORE PUSH1 0x20 ADD TIMESTAMP DUP2 MSTORE PUSH1 0x20 ADD DUP5 DUP2 MSTORE PUSH1 0x20 ADD PUSH0 ISZERO ISZERO DUP2 MSTORE PUSH1 0x20 ADD PUSH0 DUP2 MSTORE PUSH1 0x20 ADD DUP4 ISZERO ISZERO DUP2 MSTORE PUSH1 0x20 ADD PUSH0 DUP2 MSTORE POP SWAP1 DUP1 PUSH1 0x1 DUP2 SLOAD ADD DUP1 DUP3 SSTORE DUP1 SWAP2 POP POP PUSH1 0x1 SWAP1 SUB SWAP1 PUSH0 MSTORE PUSH1 0x20 PUSH0 KECCAK256 SWAP1 PUSH1 0x8 MUL ADD PUSH0 SWAP1 SWAP2 SWAP1 SWAP2 SWAP1 SWAP2 POP PUSH0 DUP3 ADD MLOAD DUP2 PUSH0 ADD PUSH0 PUSH2 0x100 EXP DUP2 SLOAD DUP2 PUSH1 0x1 PUSH1 0x1 PUSH1 0xA0 SHL SUB MUL NOT AND SWAP1 DUP4 PUSH1 0x1 PUSH1 0x1 PUSH1 0xA0 SHL SUB AND MUL OR SWAP1 SSTORE POP PUSH1 0x20 DUP3 ADD MLOAD DUP2 PUSH1 0x1 ADD SSTORE PUSH1 0x40 DUP3 ADD MLOAD DUP2 PUSH1 0x2 ADD SSTORE PUSH1 0x60 DUP3 ADD MLOAD DUP2 PUSH1 0x3 ADD SSTORE PUSH1 0x80 DUP3 ADD MLOAD DUP2 PUSH1 0x4 ADD PUSH0 PUSH2 0x100 EXP DUP2 SLOAD DUP2 PUSH1 0xFF MUL NOT AND SWAP1 DUP4 ISZERO ISZERO MUL OR SWAP1 SSTORE POP PUSH1 0xA0 DUP3 ADD MLOAD DUP2 PUSH1 0x5 ADD SSTORE PUSH1 0xC0 DUP3 ADD MLOAD DUP2 PUSH1 0x6 ADD PUSH0 PUSH2 0x100 EXP DUP2 SLOAD DUP2 PUSH1 0xFF MUL NOT AND SWAP1 DUP4 ISZERO ISZERO MUL OR SWAP1 SSTORE POP PUSH1 0xE0 DUP3 ADD MLOAD DUP2 PUSH1 0x7 ADD SSTORE POP POP DUP4 PUSH1 0x1 PUSH1 0x1 PUSH1 0xA0 SHL SUB AND CALLER PUSH1 0x1 PUSH1 0x1 PUSH1 0xA0 SHL SUB AND PUSH32 0xC392E99D431032AC14A872985E1784CD90533E27608253C002A198D8E6358ED9 DUP6 DUP6 PUSH1 0x1 PUSH1 0xF PUSH0 CALLER PUSH1 0x1 PUSH1 0x1 PUSH1 0xA0 SHL SUB AND PUSH1 0x1 PUSH1 0x1 PUSH1 0xA0 SHL SUB AND DUP2 MSTORE PUSH1 0x20 ADD SWAP1 DUP2 MSTORE PUSH1 0x20 ADD PUSH0 KECCAK256 DUP1 SLOAD SWAP1 POP PUSH2 0x1A9B SWAP2 SWAP1 PUSH2 0x2D98 JUMP JUMPDEST PUSH1 0x40 DUP1 MLOAD SWAP4 DUP5 MSTORE PUSH1 0x20 DUP5 ADD SWAP3 SWAP1 SWAP3 MSTORE SWAP1 DUP3 ADD MSTORE PUSH1 0x60 ADD PUSH1 0x40 MLOAD DUP1 SWAP2 SUB SWAP1 LOG3 PUSH2 0x956 PUSH1 0x1 PUSH1 0x8 SSTORE JUMP JUMPDEST PUSH0 PUSH0 PUSH2 0x1ACE DUP4 PUSH2 0x1B71 JUMP JUMPDEST SWAP1 POP PUSH5 0x496CEBB800 DUP4 PUSH2 0x1AE1 DUP4 DUP8 PUSH2 0x2DAB JUMP JUMPDEST PUSH2 0x1AEB SWAP2 SWAP1 PUSH2 0x2DAB JUMP JUMPDEST PUSH2 0x1649 SWAP2 SWAP1 PUSH2 0x2DC2 JUMP JUMPDEST PUSH1 0x1 PUSH1 0x1 PUSH1 0xA0 SHL SUB SWAP2 DUP3 AND PUSH0 SWAP1 DUP2 MSTORE PUSH1 0x5 PUSH1 0x20 SWAP1 DUP2 MSTORE PUSH1 0x40 DUP1 DUP4 KECCAK256 SWAP4 SWAP1 SWAP5 AND DUP3 MSTORE SWAP2 SWAP1 SWAP2 MSTORE KECCAK256 SLOAD PUSH1 0xFF AND SWAP1 JUMP JUMPDEST PUSH2 0x1B2A PUSH2 0x1F58 JUMP JUMPDEST PUSH2 0x2710 DUP2 GT ISZERO PUSH2 0x1B6C JUMPI PUSH1 0x40 MLOAD PUSH3 0x461BCD PUSH1 0xE5 SHL DUP2 MSTORE PUSH1 0x20 PUSH1 0x4 DUP3 ADD MSTORE PUSH1 0xD PUSH1 0x24 DUP3 ADD MSTORE PUSH13 0xA4C2E8CA40E8DEDE40D0D2CED PUSH1 0x9B SHL PUSH1 0x44 DUP3 ADD MSTORE PUSH1 0x64 ADD PUSH2 0x8F3 JUMP JUMPDEST PUSH1 0x11 SSTORE JUMP JUMPDEST PUSH0 PUSH4 0x1E13380 DUP3 LT PUSH2 0x1B86 JUMPI POP PUSH2 0x7D0 SWAP2 SWAP1 POP JUMP JUMPDEST PUSH3 0xED4E00 DUP3 LT PUSH2 0x1B99 JUMPI POP PUSH2 0x5DC SWAP2 SWAP1 POP JUMP JUMPDEST PUSH3 0x76A700 DUP3 LT PUSH2 0x1BAC JUMPI POP PUSH2 0x4B0 SWAP2 SWAP1 POP JUMP JUMPDEST PUSH3 0x278D00 DUP3 LT PUSH2 0x1BBF JUMPI POP PUSH2 0x320 SWAP2 SWAP1 POP JUMP JUMPDEST POP PUSH2 0x1F4 SWAP2 SWAP1 POP JUMP JUMPDEST PUSH2 0x1BD0 PUSH2 0x1F58 JUMP JUMPDEST PUSH1 0x1 PUSH1 0x1 PUSH1 0xA0 SHL SUB DUP2 AND PUSH2 0x1BF9 JUMPI PUSH1 0x40 MLOAD PUSH4 0x1E4FBDF7 PUSH1 0xE0 SHL DUP2 MSTORE PUSH0 PUSH1 0x4 DUP3 ADD MSTORE PUSH1 0x24 ADD PUSH2 0x8F3 JUMP JUMPDEST PUSH2 0x10FD DUP2 PUSH2 0x1FD7 JUMP JUMPDEST PUSH1 0xD PUSH1 0x20 MSTORE PUSH0 SWAP1 DUP2 MSTORE PUSH1 0x40 SWAP1 KECCAK256 DUP1 SLOAD PUSH1 0x1 DUP3 ADD DUP1 SLOAD SWAP2 SWAP3 SWAP2 PUSH2 0x1C23 SWAP1 PUSH2 0x2BDF JUMP JUMPDEST DUP1 PUSH1 0x1F ADD PUSH1 0x20 DUP1 SWAP2 DIV MUL PUSH1 0x20 ADD PUSH1 0x40 MLOAD SWAP1 DUP2 ADD PUSH1 0x40 MSTORE DUP1 SWAP3 SWAP2 SWAP1 DUP2 DUP2 MSTORE PUSH1 0x20 ADD DUP3 DUP1 SLOAD PUSH2 0x1C4F SWAP1 PUSH2 0x2BDF JUMP JUMPDEST DUP1 ISZERO PUSH2 0x1C9A JUMPI DUP1 PUSH1 0x1F LT PUSH2 0x1C71 JUMPI PUSH2 0x100 DUP1 DUP4 SLOAD DIV MUL DUP4 MSTORE SWAP2 PUSH1 0x20 ADD SWAP2 PUSH2 0x1C9A JUMP JUMPDEST DUP3 ADD SWAP2 SWAP1 PUSH0 MSTORE PUSH1 0x20 PUSH0 KECCAK256 SWAP1 JUMPDEST DUP2 SLOAD DUP2 MSTORE SWAP1 PUSH1 0x1 ADD SWAP1 PUSH1 0x20 ADD DUP1 DUP4 GT PUSH2 0x1C7D JUMPI DUP3 SWAP1 SUB PUSH1 0x1F AND DUP3 ADD SWAP2 JUMPDEST POP POP POP POP POP SWAP1 DUP1 PUSH1 0x2 ADD DUP1 SLOAD PUSH2 0x1CAF SWAP1 PUSH2 0x2BDF JUMP JUMPDEST DUP1 PUSH1 0x1F ADD PUSH1 0x20 DUP1 SWAP2 DIV MUL PUSH1 0x20 ADD PUSH1 0x40 MLOAD SWAP1 DUP2 ADD PUSH1 0x40 MSTORE DUP1 SWAP3 SWAP2 SWAP1 DUP2 DUP2 MSTORE PUSH1 0x20 ADD DUP3 DUP1 SLOAD PUSH2 0x1CDB SWAP1 PUSH2 0x2BDF JUMP JUMPDEST DUP1 ISZERO PUSH2 0x1D26 JUMPI DUP1 PUSH1 0x1F LT PUSH2 0x1CFD JUMPI PUSH2 0x100 DUP1 DUP4 SLOAD DIV MUL DUP4 MSTORE SWAP2 PUSH1 0x20 ADD SWAP2 PUSH2 0x1D26 JUMP JUMPDEST DUP3 ADD SWAP2 SWAP1 PUSH0 MSTORE PUSH1 0x20 PUSH0 KECCAK256 SWAP1 JUMPDEST DUP2 SLOAD DUP2 MSTORE SWAP1 PUSH1 0x1 ADD SWAP1 PUSH1 0x20 ADD DUP1 DUP4 GT PUSH2 0x1D09 JUMPI DUP3 SWAP1 SUB PUSH1 0x1F AND DUP3 ADD SWAP2 JUMPDEST POP POP POP POP PUSH1 0x3 DUP4 ADD SLOAD PUSH1 0x4 SWAP1 SWAP4 ADD SLOAD SWAP2 SWAP3 PUSH1 0x1 PUSH1 0x1 PUSH1 0xA0 SHL SUB AND SWAP2 SWAP1 POP DUP6 JUMP JUMPDEST PUSH1 0x9 SLOAD PUSH1 0xFF AND ISZERO PUSH2 0x9BC JUMPI PUSH1 0x40 MLOAD PUSH4 0xD93C0665 PUSH1 0xE0 SHL DUP2 MSTORE PUSH1 0x4 ADD PUSH1 0x40 MLOAD DUP1 SWAP2 SUB SWAP1 REVERT JUMPDEST PUSH2 0x7BC DUP3 DUP3 PUSH1 0x40 MLOAD DUP1 PUSH1 0x20 ADD PUSH1 0x40 MSTORE DUP1 PUSH0 DUP2 MSTORE POP PUSH2 0x22C6 JUMP JUMPDEST PUSH0 DUP3 DUP2 MSTORE PUSH1 0x6 PUSH1 0x20 MSTORE PUSH1 0x40 SWAP1 KECCAK256 PUSH2 0x1D9A DUP3 DUP3 PUSH2 0x2C5B JUMP JUMPDEST POP PUSH1 0x40 MLOAD DUP3 DUP2 MSTORE PUSH32 0xF8E1A15ABA9398E019F0B49DF1A4FDE98EE17AE345CB5F6B5E2C27F5033E8CE7 SWAP1 PUSH1 0x20 ADD PUSH1 0x40 MLOAD DUP1 SWAP2 SUB SWAP1 LOG1 POP POP JUMP JUMPDEST PUSH0 PUSH1 0x1 PUSH1 0x1 PUSH1 0xE0 SHL SUB NOT DUP3 AND PUSH4 0x80AC58CD PUSH1 0xE0 SHL EQ DUP1 PUSH2 0x1E02 JUMPI POP PUSH1 0x1 PUSH1 0x1 PUSH1 0xE0 SHL SUB NOT DUP3 AND PUSH4 0x5B5E139F PUSH1 0xE0 SHL EQ JUMPDEST DUP1 PUSH2 0x6F5 JUMPI POP PUSH4 0x1FFC9A7 PUSH1 0xE0 SHL PUSH1 0x1 PUSH1 0x1 PUSH1 0xE0 SHL SUB NOT DUP4 AND EQ PUSH2 0x6F5 JUMP JUMPDEST PUSH0 DUP2 DUP2 MSTORE PUSH1 0x2 PUSH1 0x20 MSTORE PUSH1 0x40 DUP2 KECCAK256 SLOAD PUSH1 0x1 PUSH1 0x1 PUSH1 0xA0 SHL SUB AND DUP1 PUSH2 0x6F5 JUMPI PUSH1 0x40 MLOAD PUSH4 0x7E273289 PUSH1 0xE0 SHL DUP2 MSTORE PUSH1 0x4 DUP2 ADD DUP5 SWAP1 MSTORE PUSH1 0x24 ADD PUSH2 0x8F3 JUMP JUMPDEST PUSH2 0x9D8 DUP4 DUP4 DUP4 PUSH1 0x1 PUSH2 0x22DD JUMP JUMPDEST PUSH0 DUP3 DUP2 MSTORE PUSH1 0x2 PUSH1 0x20 MSTORE PUSH1 0x40 DUP2 KECCAK256 SLOAD PUSH1 0x1 PUSH1 0x1 PUSH1 0xA0 SHL SUB SWAP1 DUP2 AND SWAP1 DUP4 AND ISZERO PUSH2 0x1E92 JUMPI PUSH2 0x1E92 DUP2 DUP5 DUP7 PUSH2 0x23E1 JUMP JUMPDEST PUSH1 0x1 PUSH1 0x1 PUSH1 0xA0 SHL SUB DUP2 AND ISZERO PUSH2 0x1ECC JUMPI PUSH2 0x1EAD PUSH0 DUP6 PUSH0 PUSH0 PUSH2 0x22DD JUMP JUMPDEST PUSH1 0x1 PUSH1 0x1 PUSH1 0xA0 SHL SUB DUP2 AND PUSH0 SWAP1 DUP2 MSTORE PUSH1 0x3 PUSH1 0x20 MSTORE PUSH1 0x40 SWAP1 KECCAK256 DUP1 SLOAD PUSH0 NOT ADD SWAP1 SSTORE JUMPDEST PUSH1 0x1 PUSH1 0x1 PUSH1 0xA0 SHL SUB DUP6 AND ISZERO PUSH2 0x1EFA JUMPI PUSH1 0x1 PUSH1 0x1 PUSH1 0xA0 SHL SUB DUP6 AND PUSH0 SWAP1 DUP2 MSTORE PUSH1 0x3 PUSH1 0x20 MSTORE PUSH1 0x40 SWAP1 KECCAK256 DUP1 SLOAD PUSH1 0x1 ADD SWAP1 SSTORE JUMPDEST PUSH0 DUP5 DUP2 MSTORE PUSH1 0x2 PUSH1 0x20 MSTORE PUSH1 0x40 DUP1 DUP3 KECCAK256 DUP1 SLOAD PUSH1 0x1 PUSH1 0x1 PUSH1 0xA0 SHL SUB NOT AND PUSH1 0x1 PUSH1 0x1 PUSH1 0xA0 SHL SUB DUP10 DUP2 AND SWAP2 DUP3 OR SWAP1 SWAP3 SSTORE SWAP2 MLOAD DUP8 SWAP4 SWAP2 DUP6 AND SWAP2 PUSH32 0xDDF252AD1BE2C89B69C2B068FC378DAA952BA7F163C4A11628F55A4DF523B3EF SWAP2 LOG4 SWAP5 SWAP4 POP POP POP POP JUMP JUMPDEST PUSH1 0x7 SLOAD PUSH1 0x1 PUSH1 0x1 PUSH1 0xA0 SHL SUB AND CALLER EQ PUSH2 0x9BC JUMPI PUSH1 0x40 MLOAD PUSH4 0x118CDAA7 PUSH1 0xE0 SHL DUP2 MSTORE CALLER PUSH1 0x4 DUP3 ADD MSTORE PUSH1 0x24 ADD PUSH2 0x8F3 JUMP JUMPDEST PUSH2 0x1F8D PUSH2 0x2445 JUMP JUMPDEST PUSH1 0x9 DUP1 SLOAD PUSH1 0xFF NOT AND SWAP1 SSTORE PUSH32 0x5DB9EE0A495BF2E6FF9C91A7834C1BA4FDD244A5E8AA4E537BD38AEAE4B073AA CALLER JUMPDEST PUSH1 0x40 MLOAD PUSH1 0x1 PUSH1 0x1 PUSH1 0xA0 SHL SUB SWAP1 SWAP2 AND DUP2 MSTORE PUSH1 0x20 ADD PUSH1 0x40 MLOAD DUP1 SWAP2 SUB SWAP1 LOG1 JUMP JUMPDEST PUSH1 0x7 DUP1 SLOAD PUSH1 0x1 PUSH1 0x1 PUSH1 0xA0 SHL SUB DUP4 DUP2 AND PUSH1 0x1 PUSH1 0x1 PUSH1 0xA0 SHL SUB NOT DUP4 AND DUP2 OR SWAP1 SWAP4 SSTORE PUSH1 0x40 MLOAD SWAP2 AND SWAP2 SWAP1 DUP3 SWAP1 PUSH32 0x8BE0079C531659141344CD1FD0A4F28419497F9722A3DAAFE3B4186F6B6457E0 SWAP1 PUSH0 SWAP1 LOG3 POP POP JUMP JUMPDEST PUSH1 0x2 PUSH1 0x8 SLOAD SUB PUSH2 0x204B JUMPI PUSH1 0x40 MLOAD PUSH4 0x3EE5AEB5 PUSH1 0xE0 SHL DUP2 MSTORE PUSH1 0x4 ADD PUSH1 0x40 MLOAD DUP1 SWAP2 SUB SWAP1 REVERT JUMPDEST PUSH1 0x2 PUSH1 0x8 SSTORE JUMP JUMPDEST PUSH2 0x205A PUSH2 0x1D46 JUMP JUMPDEST PUSH1 0x9 DUP1 SLOAD PUSH1 0xFF NOT AND PUSH1 0x1 OR SWAP1 SSTORE PUSH32 0x62E78CEA01BEE320CD4E420270B5EA74000D11B0C9F74754EBDBFC544B05A258 PUSH2 0x1FBA CALLER SWAP1 JUMP JUMPDEST PUSH1 0x1 PUSH1 0x1 PUSH1 0xA0 SHL SUB DUP3 AND PUSH2 0x20C1 JUMPI PUSH1 0x40 MLOAD PUSH4 0xB611743 PUSH1 0xE3 SHL DUP2 MSTORE PUSH1 0x1 PUSH1 0x1 PUSH1 0xA0 SHL SUB DUP4 AND PUSH1 0x4 DUP3 ADD MSTORE PUSH1 0x24 ADD PUSH2 0x8F3 JUMP JUMPDEST PUSH1 0x1 PUSH1 0x1 PUSH1 0xA0 SHL SUB DUP4 DUP2 AND PUSH0 DUP2 DUP2 MSTORE PUSH1 0x5 PUSH1 0x20 SWAP1 DUP2 MSTORE PUSH1 0x40 DUP1 DUP4 KECCAK256 SWAP5 DUP8 AND DUP1 DUP5 MSTORE SWAP5 DUP3 MSTORE SWAP2 DUP3 SWAP1 KECCAK256 DUP1 SLOAD PUSH1 0xFF NOT AND DUP7 ISZERO ISZERO SWAP1 DUP2 OR SWAP1 SWAP2 SSTORE SWAP2 MLOAD SWAP2 DUP3 MSTORE PUSH32 0x17307EAB39AB6107E8899845AD3D59BD9653F200F220920489CA2B5937696C31 SWAP2 ADD PUSH1 0x40 MLOAD DUP1 SWAP2 SUB SWAP1 LOG3 POP POP POP JUMP JUMPDEST PUSH1 0x1 PUSH1 0x1 PUSH1 0xA0 SHL SUB DUP4 AND EXTCODESIZE ISZERO PUSH2 0x224E JUMPI PUSH1 0x40 MLOAD PUSH4 0xA85BD01 PUSH1 0xE1 SHL DUP2 MSTORE PUSH1 0x1 PUSH1 0x1 PUSH1 0xA0 SHL SUB DUP5 AND SWAP1 PUSH4 0x150B7A02 SWAP1 PUSH2 0x216F SWAP1 DUP9 SWAP1 DUP9 SWAP1 DUP8 SWAP1 DUP8 SWAP1 PUSH1 0x4 ADD PUSH2 0x2E0C JUMP JUMPDEST PUSH1 0x20 PUSH1 0x40 MLOAD DUP1 DUP4 SUB DUP2 PUSH0 DUP8 GAS CALL SWAP3 POP POP POP DUP1 ISZERO PUSH2 0x21A9 JUMPI POP PUSH1 0x40 DUP1 MLOAD PUSH1 0x1F RETURNDATASIZE SWAP1 DUP2 ADD PUSH1 0x1F NOT AND DUP3 ADD SWAP1 SWAP3 MSTORE PUSH2 0x21A6 SWAP2 DUP2 ADD SWAP1 PUSH2 0x2E48 JUMP JUMPDEST PUSH1 0x1 JUMPDEST PUSH2 0x2210 JUMPI RETURNDATASIZE DUP1 DUP1 ISZERO PUSH2 0x21D6 JUMPI PUSH1 0x40 MLOAD SWAP2 POP PUSH1 0x1F NOT PUSH1 0x3F RETURNDATASIZE ADD AND DUP3 ADD PUSH1 0x40 MSTORE RETURNDATASIZE DUP3 MSTORE RETURNDATASIZE PUSH0 PUSH1 0x20 DUP5 ADD RETURNDATACOPY PUSH2 0x21DB JUMP JUMPDEST PUSH1 0x60 SWAP2 POP JUMPDEST POP DUP1 MLOAD PUSH0 SUB PUSH2 0x2208 JUMPI PUSH1 0x40 MLOAD PUSH4 0x32505749 PUSH1 0xE1 SHL DUP2 MSTORE PUSH1 0x1 PUSH1 0x1 PUSH1 0xA0 SHL SUB DUP6 AND PUSH1 0x4 DUP3 ADD MSTORE PUSH1 0x24 ADD PUSH2 0x8F3 JUMP JUMPDEST DUP1 MLOAD PUSH1 0x20 DUP3 ADD REVERT JUMPDEST PUSH1 0x1 PUSH1 0x1 PUSH1 0xE0 SHL SUB NOT DUP2 AND PUSH4 0xA85BD01 PUSH1 0xE1 SHL EQ PUSH2 0x224C JUMPI PUSH1 0x40 MLOAD PUSH4 0x32505749 PUSH1 0xE1 SHL DUP2 MSTORE PUSH1 0x1 PUSH1 0x1 PUSH1 0xA0 SHL SUB DUP6 AND PUSH1 0x4 DUP3 ADD MSTORE PUSH1 0x24 ADD PUSH2 0x8F3 JUMP JUMPDEST POP JUMPDEST POP POP POP POP POP JUMP JUMPDEST PUSH1 0x60 PUSH2 0x2260 DUP3 PUSH2 0x1E21 JUMP JUMPDEST POP PUSH0 PUSH2 0x2276 PUSH1 0x40 DUP1 MLOAD PUSH1 0x20 DUP2 ADD SWAP1 SWAP2 MSTORE PUSH0 DUP2 MSTORE SWAP1 JUMP JUMPDEST SWAP1 POP PUSH0 DUP2 MLOAD GT PUSH2 0x2294 JUMPI PUSH1 0x40 MLOAD DUP1 PUSH1 0x20 ADD PUSH1 0x40 MSTORE DUP1 PUSH0 DUP2 MSTORE POP PUSH2 0x22BF JUMP JUMPDEST DUP1 PUSH2 0x229E DUP5 PUSH2 0x2468 JUMP JUMPDEST PUSH1 0x40 MLOAD PUSH1 0x20 ADD PUSH2 0x22AF SWAP3 SWAP2 SWAP1 PUSH2 0x2DF8 JUMP JUMPDEST PUSH1 0x40 MLOAD PUSH1 0x20 DUP2 DUP4 SUB SUB DUP2 MSTORE SWAP1 PUSH1 0x40 MSTORE JUMPDEST SWAP4 SWAP3 POP POP POP JUMP JUMPDEST PUSH2 0x22D0 DUP4 DUP4 PUSH2 0x24F8 JUMP JUMPDEST PUSH2 0x9D8 CALLER PUSH0 DUP6 DUP6 DUP6 PUSH2 0x212D JUMP JUMPDEST DUP1 DUP1 PUSH2 0x22F1 JUMPI POP PUSH1 0x1 PUSH1 0x1 PUSH1 0xA0 SHL SUB DUP3 AND ISZERO ISZERO JUMPDEST ISZERO PUSH2 0x23B2 JUMPI PUSH0 PUSH2 0x2300 DUP5 PUSH2 0x1E21 JUMP JUMPDEST SWAP1 POP PUSH1 0x1 PUSH1 0x1 PUSH1 0xA0 SHL SUB DUP4 AND ISZERO DUP1 ISZERO SWAP1 PUSH2 0x232C JUMPI POP DUP3 PUSH1 0x1 PUSH1 0x1 PUSH1 0xA0 SHL SUB AND DUP2 PUSH1 0x1 PUSH1 0x1 PUSH1 0xA0 SHL SUB AND EQ ISZERO JUMPDEST DUP1 ISZERO PUSH2 0x233F JUMPI POP PUSH2 0x233D DUP2 DUP5 PUSH2 0x1AF5 JUMP JUMPDEST ISZERO JUMPDEST ISZERO PUSH2 0x2368 JUMPI PUSH1 0x40 MLOAD PUSH4 0xA9FBF51F PUSH1 0xE0 SHL DUP2 MSTORE PUSH1 0x1 PUSH1 0x1 PUSH1 0xA0 SHL SUB DUP5 AND PUSH1 0x4 DUP3 ADD MSTORE PUSH1 0x24 ADD PUSH2 0x8F3 JUMP JUMPDEST DUP2 ISZERO PUSH2 0x23B0 JUMPI DUP4 DUP6 PUSH1 0x1 PUSH1 0x1 PUSH1 0xA0 SHL SUB AND DUP3 PUSH1 0x1 PUSH1 0x1 PUSH1 0xA0 SHL SUB AND PUSH32 0x8C5BE1E5EBEC7D5BD14F71427D1E84F3DD0314C0F7B2291E5B200AC8C7C3B925 PUSH1 0x40 MLOAD PUSH1 0x40 MLOAD DUP1 SWAP2 SUB SWAP1 LOG4 JUMPDEST POP JUMPDEST POP POP PUSH0 SWAP1 DUP2 MSTORE PUSH1 0x4 PUSH1 0x20 MSTORE PUSH1 0x40 SWAP1 KECCAK256 DUP1 SLOAD PUSH1 0x1 PUSH1 0x1 PUSH1 0xA0 SHL SUB NOT AND PUSH1 0x1 PUSH1 0x1 PUSH1 0xA0 SHL SUB SWAP3 SWAP1 SWAP3 AND SWAP2 SWAP1 SWAP2 OR SWAP1 SSTORE JUMP JUMPDEST PUSH2 0x23EC DUP4 DUP4 DUP4 PUSH2 0x2559 JUMP JUMPDEST PUSH2 0x9D8 JUMPI PUSH1 0x1 PUSH1 0x1 PUSH1 0xA0 SHL SUB DUP4 AND PUSH2 0x241A JUMPI PUSH1 0x40 MLOAD PUSH4 0x7E273289 PUSH1 0xE0 SHL DUP2 MSTORE PUSH1 0x4 DUP2 ADD DUP3 SWAP1 MSTORE PUSH1 0x24 ADD PUSH2 0x8F3 JUMP JUMPDEST PUSH1 0x40 MLOAD PUSH4 0x177E802F PUSH1 0xE0 SHL DUP2 MSTORE PUSH1 0x1 PUSH1 0x1 PUSH1 0xA0 SHL SUB DUP4 AND PUSH1 0x4 DUP3 ADD MSTORE PUSH1 0x24 DUP2 ADD DUP3 SWAP1 MSTORE PUSH1 0x44 ADD PUSH2 0x8F3 JUMP JUMPDEST PUSH1 0x9 SLOAD PUSH1 0xFF AND PUSH2 0x9BC JUMPI PUSH1 0x40 MLOAD PUSH4 0x8DFC202B PUSH1 0xE0 SHL DUP2 MSTORE PUSH1 0x4 ADD PUSH1 0x40 MLOAD DUP1 SWAP2 SUB SWAP1 REVERT JUMPDEST PUSH1 0x60 PUSH0 PUSH2 0x2474 DUP4 PUSH2 0x25BA JUMP JUMPDEST PUSH1 0x1 ADD SWAP1 POP PUSH0 DUP2 PUSH8 0xFFFFFFFFFFFFFFFF DUP2 GT ISZERO PUSH2 0x2493 JUMPI PUSH2 0x2493 PUSH2 0x2691 JUMP JUMPDEST PUSH1 0x40 MLOAD SWAP1 DUP1 DUP3 MSTORE DUP1 PUSH1 0x1F ADD PUSH1 0x1F NOT AND PUSH1 0x20 ADD DUP3 ADD PUSH1 0x40 MSTORE DUP1 ISZERO PUSH2 0x24BD JUMPI PUSH1 0x20 DUP3 ADD DUP2 DUP1 CALLDATASIZE DUP4 CALLDATACOPY ADD SWAP1 POP JUMPDEST POP SWAP1 POP DUP2 DUP2 ADD PUSH1 0x20 ADD JUMPDEST PUSH0 NOT ADD PUSH16 0x181899199A1A9B1B9C1CB0B131B232B3 PUSH1 0x81 SHL PUSH1 0xA DUP7 MOD BYTE DUP2 MSTORE8 PUSH1 0xA DUP6 DIV SWAP5 POP DUP5 PUSH2 0x24C7 JUMPI POP SWAP4 SWAP3 POP POP POP JUMP JUMPDEST PUSH1 0x1 PUSH1 0x1 PUSH1 0xA0 SHL SUB DUP3 AND PUSH2 0x2521 JUMPI PUSH1 0x40 MLOAD PUSH4 0x32505749 PUSH1 0xE1 SHL DUP2 MSTORE PUSH0 PUSH1 0x4 DUP3 ADD MSTORE PUSH1 0x24 ADD PUSH2 0x8F3 JUMP JUMPDEST PUSH0 PUSH2 0x252D DUP4 DUP4 PUSH0 PUSH2 0x1E66 JUMP JUMPDEST SWAP1 POP PUSH1 0x1 PUSH1 0x1 PUSH1 0xA0 SHL SUB DUP2 AND ISZERO PUSH2 0x9D8 JUMPI PUSH1 0x40 MLOAD PUSH4 0x39E35637 PUSH1 0xE1 SHL DUP2 MSTORE PUSH0 PUSH1 0x4 DUP3 ADD MSTORE PUSH1 0x24 ADD PUSH2 0x8F3 JUMP JUMPDEST PUSH0 PUSH1 0x1 PUSH1 0x1 PUSH1 0xA0 SHL SUB DUP4 AND ISZERO DUP1 ISZERO SWAP1 PUSH2 0x1649 JUMPI POP DUP3 PUSH1 0x1 PUSH1 0x1 PUSH1 0xA0 SHL SUB AND DUP5 PUSH1 0x1 PUSH1 0x1 PUSH1 0xA0 SHL SUB AND EQ DUP1 PUSH2 0x2592 JUMPI POP PUSH2 0x2592 DUP5 DUP5 PUSH2 0x1AF5 JUMP JUMPDEST DUP1 PUSH2 0x1649 JUMPI POP POP PUSH0 SWAP1 DUP2 MSTORE PUSH1 0x4 PUSH1 0x20 MSTORE PUSH1 0x40 SWAP1 KECCAK256 SLOAD PUSH1 0x1 PUSH1 0x1 PUSH1 0xA0 SHL SUB SWAP1 DUP2 AND SWAP2 AND EQ SWAP2 SWAP1 POP JUMP JUMPDEST PUSH0 DUP1 PUSH19 0x184F03E93FF9F4DAA797ED6E38ED64BF6A1F01 PUSH1 0x40 SHL DUP4 LT PUSH2 0x25F8 JUMPI PUSH19 0x184F03E93FF9F4DAA797ED6E38ED64BF6A1F01 PUSH1 0x40 SHL DUP4 DIV SWAP3 POP PUSH1 0x40 ADD JUMPDEST PUSH14 0x4EE2D6D415B85ACEF8100000000 DUP4 LT PUSH2 0x2624 JUMPI PUSH14 0x4EE2D6D415B85ACEF8100000000 DUP4 DIV SWAP3 POP PUSH1 0x20 ADD JUMPDEST PUSH7 0x2386F26FC10000 DUP4 LT PUSH2 0x2642 JUMPI PUSH7 0x2386F26FC10000 DUP4 DIV SWAP3 POP PUSH1 0x10 ADD JUMPDEST PUSH4 0x5F5E100 DUP4 LT PUSH2 0x265A JUMPI PUSH4 0x5F5E100 DUP4 DIV SWAP3 POP PUSH1 0x8 ADD JUMPDEST PUSH2 0x2710 DUP4 LT PUSH2 0x266E JUMPI PUSH2 0x2710 DUP4 DIV SWAP3 POP PUSH1 0x4 ADD JUMPDEST PUSH1 0x64 DUP4 LT PUSH2 0x2680 JUMPI PUSH1 0x64 DUP4 DIV SWAP3 POP PUSH1 0x2 ADD JUMPDEST PUSH1 0xA DUP4 LT PUSH2 0x6F5 JUMPI PUSH1 0x1 ADD SWAP3 SWAP2 POP POP JUMP JUMPDEST PUSH4 0x4E487B71 PUSH1 0xE0 SHL PUSH0 MSTORE PUSH1 0x41 PUSH1 0x4 MSTORE PUSH1 0x24 PUSH0 REVERT JUMPDEST PUSH0 PUSH0 PUSH8 0xFFFFFFFFFFFFFFFF DUP5 GT ISZERO PUSH2 0x26BF JUMPI PUSH2 0x26BF PUSH2 0x2691 JUMP JUMPDEST POP PUSH1 0x40 MLOAD PUSH1 0x1F NOT PUSH1 0x1F DUP6 ADD DUP2 AND PUSH1 0x3F ADD AND DUP2 ADD DUP2 DUP2 LT PUSH8 0xFFFFFFFFFFFFFFFF DUP3 GT OR ISZERO PUSH2 0x26EE JUMPI PUSH2 0x26EE PUSH2 0x2691 JUMP JUMPDEST PUSH1 0x40 MSTORE DUP4 DUP2 MSTORE SWAP1 POP DUP1 DUP3 DUP5 ADD DUP6 LT ISZERO PUSH2 0x2705 JUMPI PUSH0 PUSH0 REVERT JUMPDEST DUP4 DUP4 PUSH1 0x20 DUP4 ADD CALLDATACOPY PUSH0 PUSH1 0x20 DUP6 DUP4 ADD ADD MSTORE POP SWAP4 SWAP3 POP POP POP JUMP JUMPDEST PUSH0 DUP3 PUSH1 0x1F DUP4 ADD SLT PUSH2 0x272B JUMPI PUSH0 PUSH0 REVERT JUMPDEST PUSH2 0x22BF DUP4 DUP4 CALLDATALOAD PUSH1 0x20 DUP6 ADD PUSH2 0x26A5 JUMP JUMPDEST PUSH0 PUSH0 PUSH0 PUSH0 PUSH0 PUSH0 PUSH1 0xC0 DUP8 DUP10 SUB SLT ISZERO PUSH2 0x274F JUMPI PUSH0 PUSH0 REVERT JUMPDEST DUP7 CALLDATALOAD PUSH8 0xFFFFFFFFFFFFFFFF DUP2 GT ISZERO PUSH2 0x2765 JUMPI PUSH0 PUSH0 REVERT JUMPDEST PUSH2 0x2771 DUP10 DUP3 DUP11 ADD PUSH2 0x271C JUMP JUMPDEST SWAP7 POP POP PUSH1 0x20 DUP8 ADD CALLDATALOAD PUSH8 0xFFFFFFFFFFFFFFFF DUP2 GT ISZERO PUSH2 0x278D JUMPI PUSH0 PUSH0 REVERT JUMPDEST PUSH2 0x2799 DUP10 DUP3 DUP11 ADD PUSH2 0x271C JUMP JUMPDEST SWAP6 POP POP PUSH1 0x40 DUP8 ADD CALLDATALOAD PUSH8 0xFFFFFFFFFFFFFFFF DUP2 GT ISZERO PUSH2 0x27B5 JUMPI PUSH0 PUSH0 REVERT JUMPDEST PUSH2 0x27C1 DUP10 DUP3 DUP11 ADD PUSH2 0x271C JUMP JUMPDEST SWAP5 POP POP PUSH1 0x60 DUP8 ADD CALLDATALOAD PUSH8 0xFFFFFFFFFFFFFFFF DUP2 GT ISZERO PUSH2 0x27DD JUMPI PUSH0 PUSH0 REVERT JUMPDEST PUSH2 0x27E9 DUP10 DUP3 DUP11 ADD PUSH2 0x271C JUMP JUMPDEST SWAP4 POP POP PUSH1 0x80 DUP8 ADD CALLDATALOAD SWAP2 POP PUSH1 0xA0 DUP8 ADD CALLDATALOAD PUSH8 0xFFFFFFFFFFFFFFFF DUP2 GT ISZERO PUSH2 0x280C JUMPI PUSH0 PUSH0 REVERT JUMPDEST PUSH2 0x2818 DUP10 DUP3 DUP11 ADD PUSH2 0x271C JUMP JUMPDEST SWAP2 POP POP SWAP3 SWAP6 POP SWAP3 SWAP6 POP SWAP3 SWAP6 JUMP JUMPDEST PUSH1 0x1 PUSH1 0x1 PUSH1 0xE0 SHL SUB NOT DUP2 AND DUP2 EQ PUSH2 0x10FD JUMPI PUSH0 PUSH0 REVERT JUMPDEST PUSH0 PUSH1 0x20 DUP3 DUP5 SUB SLT ISZERO PUSH2 0x284A JUMPI PUSH0 PUSH0 REVERT JUMPDEST DUP2 CALLDATALOAD PUSH2 0x22BF DUP2 PUSH2 0x2825 JUMP JUMPDEST PUSH0 DUP2 MLOAD DUP1 DUP5 MSTORE DUP1 PUSH1 0x20 DUP5 ADD PUSH1 0x20 DUP7 ADD MCOPY PUSH0 PUSH1 0x20 DUP3 DUP7 ADD ADD MSTORE PUSH1 0x20 PUSH1 0x1F NOT PUSH1 0x1F DUP4 ADD AND DUP6 ADD ADD SWAP2 POP POP SWAP3 SWAP2 POP POP JUMP JUMPDEST PUSH1 0x20 DUP2 MSTORE PUSH0 PUSH2 0x22BF PUSH1 0x20 DUP4 ADD DUP5 PUSH2 0x2855 JUMP JUMPDEST PUSH0 PUSH1 0x20 DUP3 DUP5 SUB SLT ISZERO PUSH2 0x28A5 JUMPI PUSH0 PUSH0 REVERT JUMPDEST POP CALLDATALOAD SWAP2 SWAP1 POP JUMP JUMPDEST DUP1 CALLDATALOAD PUSH1 0x1 PUSH1 0x1 PUSH1 0xA0 SHL SUB DUP2 AND DUP2 EQ PUSH2 0x28C2 JUMPI PUSH0 PUSH0 REVERT JUMPDEST SWAP2 SWAP1 POP JUMP JUMPDEST PUSH0 PUSH0 PUSH1 0x40 DUP4 DUP6 SUB SLT ISZERO PUSH2 0x28D8 JUMPI PUSH0 PUSH0 REVERT JUMPDEST PUSH2 0x28E1 DUP4 PUSH2 0x28AC JUMP JUMPDEST SWAP5 PUSH1 0x20 SWAP4 SWAP1 SWAP4 ADD CALLDATALOAD SWAP4 POP POP POP JUMP JUMPDEST PUSH0 PUSH0 PUSH1 0x40 DUP4 DUP6 SUB SLT ISZERO PUSH2 0x2900 JUMPI PUSH0 PUSH0 REVERT JUMPDEST DUP3 CALLDATALOAD PUSH8 0xFFFFFFFFFFFFFFFF DUP2 GT ISZERO PUSH2 0x2916 JUMPI PUSH0 PUSH0 REVERT JUMPDEST PUSH2 0x2922 DUP6 DUP3 DUP7 ADD PUSH2 0x271C JUMP JUMPDEST SWAP3 POP POP PUSH1 0x20 DUP4 ADD CALLDATALOAD PUSH8 0xFFFFFFFFFFFFFFFF DUP2 GT ISZERO PUSH2 0x293E JUMPI PUSH0 PUSH0 REVERT JUMPDEST PUSH2 0x294A DUP6 DUP3 DUP7 ADD PUSH2 0x271C JUMP JUMPDEST SWAP2 POP POP SWAP3 POP SWAP3 SWAP1 POP JUMP JUMPDEST PUSH0 PUSH0 PUSH0 PUSH1 0x60 DUP5 DUP7 SUB SLT ISZERO PUSH2 0x2966 JUMPI PUSH0 PUSH0 REVERT JUMPDEST PUSH2 0x296F DUP5 PUSH2 0x28AC JUMP JUMPDEST SWAP3 POP PUSH2 0x297D PUSH1 0x20 DUP6 ADD PUSH2 0x28AC JUMP JUMPDEST SWAP3 SWAP6 SWAP3 SWAP5 POP POP POP PUSH1 0x40 SWAP2 SWAP1 SWAP2 ADD CALLDATALOAD SWAP1 JUMP JUMPDEST PUSH0 PUSH1 0x20 DUP3 DUP5 SUB SLT ISZERO PUSH2 0x299E JUMPI PUSH0 PUSH0 REVERT JUMPDEST PUSH2 0x22BF DUP3 PUSH2 0x28AC JUMP JUMPDEST PUSH1 0xE0 DUP2 MSTORE PUSH0 PUSH2 0x29B9 PUSH1 0xE0 DUP4 ADD DUP11 PUSH2 0x2855 JUMP JUMPDEST DUP3 DUP2 SUB PUSH1 0x20 DUP5 ADD MSTORE PUSH2 0x29CB DUP2 DUP11 PUSH2 0x2855 JUMP JUMPDEST SWAP1 POP DUP3 DUP2 SUB PUSH1 0x40 DUP5 ADD MSTORE PUSH2 0x29DF DUP2 DUP10 PUSH2 0x2855 JUMP JUMPDEST SWAP1 POP DUP3 DUP2 SUB PUSH1 0x60 DUP5 ADD MSTORE PUSH2 0x29F3 DUP2 DUP9 PUSH2 0x2855 JUMP JUMPDEST PUSH1 0x80 DUP5 ADD SWAP7 SWAP1 SWAP7 MSTORE POP POP PUSH1 0x1 PUSH1 0x1 PUSH1 0xA0 SHL SUB SWAP3 SWAP1 SWAP3 AND PUSH1 0xA0 DUP4 ADD MSTORE PUSH1 0xC0 SWAP1 SWAP2 ADD MSTORE SWAP5 SWAP4 POP POP POP POP JUMP JUMPDEST DUP1 ISZERO ISZERO DUP2 EQ PUSH2 0x10FD JUMPI PUSH0 PUSH0 REVERT JUMPDEST PUSH0 PUSH0 PUSH1 0x40 DUP4 DUP6 SUB SLT ISZERO PUSH2 0x2A3A JUMPI PUSH0 PUSH0 REVERT JUMPDEST PUSH2 0x2A43 DUP4 PUSH2 0x28AC JUMP JUMPDEST SWAP2 POP PUSH1 0x20 DUP4 ADD CALLDATALOAD PUSH2 0x2A53 DUP2 PUSH2 0x2A1C JUMP JUMPDEST DUP1 SWAP2 POP POP SWAP3 POP SWAP3 SWAP1 POP JUMP JUMPDEST PUSH0 PUSH0 PUSH0 PUSH0 PUSH1 0x80 DUP6 DUP8 SUB SLT ISZERO PUSH2 0x2A71 JUMPI PUSH0 PUSH0 REVERT JUMPDEST PUSH2 0x2A7A DUP6 PUSH2 0x28AC JUMP JUMPDEST SWAP4 POP PUSH2 0x2A88 PUSH1 0x20 DUP7 ADD PUSH2 0x28AC JUMP JUMPDEST SWAP3 POP PUSH1 0x40 DUP6 ADD CALLDATALOAD SWAP2 POP PUSH1 0x60 DUP6 ADD CALLDATALOAD PUSH8 0xFFFFFFFFFFFFFFFF DUP2 GT ISZERO PUSH2 0x2AAA JUMPI PUSH0 PUSH0 REVERT JUMPDEST DUP6 ADD PUSH1 0x1F DUP2 ADD DUP8 SGT PUSH2 0x2ABA JUMPI PUSH0 PUSH0 REVERT JUMPDEST PUSH2 0x2AC9 DUP8 DUP3 CALLDATALOAD PUSH1 0x20 DUP5 ADD PUSH2 0x26A5 JUMP JUMPDEST SWAP2 POP POP SWAP3 SWAP6 SWAP2 SWAP5 POP SWAP3 POP JUMP JUMPDEST PUSH0 PUSH0 PUSH0 PUSH0 PUSH1 0x80 DUP6 DUP8 SUB SLT ISZERO PUSH2 0x2AE8 JUMPI PUSH0 PUSH0 REVERT JUMPDEST PUSH2 0x2AF1 DUP6 PUSH2 0x28AC JUMP JUMPDEST SWAP4 POP PUSH1 0x20 DUP6 ADD CALLDATALOAD SWAP3 POP PUSH1 0x40 DUP6 ADD CALLDATALOAD SWAP2 POP PUSH1 0x60 DUP6 ADD CALLDATALOAD PUSH2 0x2B0F DUP2 PUSH2 0x2A1C JUMP JUMPDEST SWAP4 SWAP7 SWAP3 SWAP6 POP SWAP1 SWAP4 POP POP JUMP JUMPDEST PUSH0 PUSH0 PUSH1 0x40 DUP4 DUP6 SUB SLT ISZERO PUSH2 0x2B2B JUMPI PUSH0 PUSH0 REVERT JUMPDEST POP POP DUP1 CALLDATALOAD SWAP3 PUSH1 0x20 SWAP1 SWAP2 ADD CALLDATALOAD SWAP2 POP JUMP JUMPDEST PUSH0 PUSH0 PUSH1 0x40 DUP4 DUP6 SUB SLT ISZERO PUSH2 0x2B4B JUMPI PUSH0 PUSH0 REVERT JUMPDEST PUSH2 0x2B54 DUP4 PUSH2 0x28AC JUMP JUMPDEST SWAP2 POP PUSH2 0x2B62 PUSH1 0x20 DUP5 ADD PUSH2 0x28AC JUMP JUMPDEST SWAP1 POP SWAP3 POP SWAP3 SWAP1 POP JUMP JUMPDEST DUP6 DUP2 MSTORE PUSH1 0xA0 PUSH1 0x20 DUP3 ADD MSTORE PUSH0 PUSH2 0x2B83 PUSH1 0xA0 DUP4 ADD DUP8 PUSH2 0x2855 JUMP JUMPDEST DUP3 DUP2 SUB PUSH1 0x40 DUP5 ADD MSTORE PUSH2 0x2B95 DUP2 DUP8 PUSH2 0x2855 JUMP JUMPDEST PUSH1 0x1 PUSH1 0x1 PUSH1 0xA0 SHL SUB SWAP6 SWAP1 SWAP6 AND PUSH1 0x60 DUP5 ADD MSTORE POP POP PUSH1 0x80 ADD MSTORE SWAP4 SWAP3 POP POP POP JUMP JUMPDEST PUSH4 0x4E487B71 PUSH1 0xE0 SHL PUSH0 MSTORE PUSH1 0x11 PUSH1 0x4 MSTORE PUSH1 0x24 PUSH0 REVERT JUMPDEST PUSH0 PUSH1 0x1 DUP3 ADD PUSH2 0x2BD8 JUMPI PUSH2 0x2BD8 PUSH2 0x2BB3 JUMP JUMPDEST POP PUSH1 0x1 ADD SWAP1 JUMP JUMPDEST PUSH1 0x1 DUP2 DUP2 SHR SWAP1 DUP3 AND DUP1 PUSH2 0x2BF3 JUMPI PUSH1 0x7F DUP3 AND SWAP2 POP JUMPDEST PUSH1 0x20 DUP3 LT DUP2 SUB PUSH2 0x2C11 JUMPI PUSH4 0x4E487B71 PUSH1 0xE0 SHL PUSH0 MSTORE PUSH1 0x22 PUSH1 0x4 MSTORE PUSH1 0x24 PUSH0 REVERT JUMPDEST POP SWAP2 SWAP1 POP JUMP JUMPDEST PUSH1 0x1F DUP3 GT ISZERO PUSH2 0x9D8 JUMPI DUP1 PUSH0 MSTORE PUSH1 0x20 PUSH0 KECCAK256 PUSH1 0x1F DUP5 ADD PUSH1 0x5 SHR DUP2 ADD PUSH1 0x20 DUP6 LT ISZERO PUSH2 0x2C3C JUMPI POP DUP1 JUMPDEST PUSH1 0x1F DUP5 ADD PUSH1 0x5 SHR DUP3 ADD SWAP2 POP JUMPDEST DUP2 DUP2 LT ISZERO PUSH2 0x224E JUMPI PUSH0 DUP2 SSTORE PUSH1 0x1 ADD PUSH2 0x2C48 JUMP JUMPDEST DUP2 MLOAD PUSH8 0xFFFFFFFFFFFFFFFF DUP2 GT ISZERO PUSH2 0x2C75 JUMPI PUSH2 0x2C75 PUSH2 0x2691 JUMP JUMPDEST PUSH2 0x2C89 DUP2 PUSH2 0x2C83 DUP5 SLOAD PUSH2 0x2BDF JUMP JUMPDEST DUP5 PUSH2 0x2C17 JUMP JUMPDEST PUSH1 0x20 PUSH1 0x1F DUP3 GT PUSH1 0x1 DUP2 EQ PUSH2 0x2CBB JUMPI PUSH0 DUP4 ISZERO PUSH2 0x2CA4 JUMPI POP DUP5 DUP3 ADD MLOAD JUMPDEST PUSH0 NOT PUSH1 0x3 DUP6 SWAP1 SHL SHR NOT AND PUSH1 0x1 DUP5 SWAP1 SHL OR DUP5 SSTORE PUSH2 0x224E JUMP JUMPDEST PUSH0 DUP5 DUP2 MSTORE PUSH1 0x20 DUP2 KECCAK256 PUSH1 0x1F NOT DUP6 AND SWAP2 JUMPDEST DUP3 DUP2 LT ISZERO PUSH2 0x2CEA JUMPI DUP8 DUP6 ADD MLOAD DUP3 SSTORE PUSH1 0x20 SWAP5 DUP6 ADD SWAP5 PUSH1 0x1 SWAP1 SWAP3 ADD SWAP2 ADD PUSH2 0x2CCA JUMP JUMPDEST POP DUP5 DUP3 LT ISZERO PUSH2 0x2D07 JUMPI DUP7 DUP5 ADD MLOAD PUSH0 NOT PUSH1 0x3 DUP8 SWAP1 SHL PUSH1 0xF8 AND SHR NOT AND DUP2 SSTORE JUMPDEST POP POP POP POP PUSH1 0x1 SWAP1 DUP2 SHL ADD SWAP1 SSTORE POP JUMP JUMPDEST PUSH1 0x20 DUP1 DUP3 MSTORE PUSH1 0xF SWAP1 DUP3 ADD MSTORE PUSH15 0x496E76616C69642061646472657373 PUSH1 0x88 SHL PUSH1 0x40 DUP3 ADD MSTORE PUSH1 0x60 ADD SWAP1 JUMP JUMPDEST PUSH0 PUSH1 0x20 DUP3 DUP5 SUB SLT ISZERO PUSH2 0x2D4F JUMPI PUSH0 PUSH0 REVERT JUMPDEST DUP2 MLOAD PUSH2 0x22BF DUP2 PUSH2 0x2A1C JUMP JUMPDEST PUSH4 0x4E487B71 PUSH1 0xE0 SHL PUSH0 MSTORE PUSH1 0x32 PUSH1 0x4 MSTORE PUSH1 0x24 PUSH0 REVERT JUMPDEST DUP1 DUP3 ADD DUP1 DUP3 GT ISZERO PUSH2 0x6F5 JUMPI PUSH2 0x6F5 PUSH2 0x2BB3 JUMP JUMPDEST PUSH0 PUSH1 0x20 DUP3 DUP5 SUB SLT ISZERO PUSH2 0x2D91 JUMPI PUSH0 PUSH0 REVERT JUMPDEST POP MLOAD SWAP2 SWAP1 POP JUMP JUMPDEST DUP2 DUP2 SUB DUP2 DUP2 GT ISZERO PUSH2 0x6F5 JUMPI PUSH2 0x6F5 PUSH2 0x2BB3 JUMP JUMPDEST DUP1 DUP3 MUL DUP2 ISZERO DUP3 DUP3 DIV DUP5 EQ OR PUSH2 0x6F5 JUMPI PUSH2 0x6F5 PUSH2 0x2BB3 JUMP JUMPDEST PUSH0 DUP3 PUSH2 0x2DDC JUMPI PUSH4 0x4E487B71 PUSH1 0xE0 SHL PUSH0 MSTORE PUSH1 0x12 PUSH1 0x4 MSTORE PUSH1 0x24 PUSH0 REVERT JUMPDEST POP DIV SWAP1 JUMP JUMPDEST PUSH0 DUP2 MLOAD DUP1 PUSH1 0x20 DUP5 ADD DUP6 MCOPY PUSH0 SWAP4 ADD SWAP3 DUP4 MSTORE POP SWAP1 SWAP2 SWAP1 POP JUMP JUMPDEST PUSH0 PUSH2 0x1649 PUSH2 0x2E06 DUP4 DUP7 PUSH2 0x2DE1 JUMP JUMPDEST DUP5 PUSH2 0x2DE1 JUMP JUMPDEST PUSH1 0x1 PUSH1 0x1 PUSH1 0xA0 SHL SUB DUP6 DUP2 AND DUP3 MSTORE DUP5 AND PUSH1 0x20 DUP3 ADD MSTORE PUSH1 0x40 DUP2 ADD DUP4 SWAP1 MSTORE PUSH1 0x80 PUSH1 0x60 DUP3 ADD DUP2 SWAP1 MSTORE PUSH0 SWAP1 PUSH2 0x2E3E SWAP1 DUP4 ADD DUP5 PUSH2 0x2855 JUMP JUMPDEST SWAP7 SWAP6 POP POP POP POP POP POP JUMP JUMPDEST PUSH0 PUSH1 0x20 DUP3 DUP5 SUB SLT ISZERO PUSH2 0x2E58 JUMPI PUSH0 PUSH0 REVERT JUMPDEST DUP2 MLOAD PUSH2 0x22BF DUP2 PUSH2 0x2825 JUMP INVALID LOG2 PUSH5 0x6970667358 0x22 SLT KECCAK256 0xF9 SSTORE JUMP 0xE3 PUSH17 0xD67C48BC99E59A02F9D7F19BF18EA9D26F 0x24 EXTCODESIZE 0xFB SHL DUP16 TSTORE 0xFC 0x4D DUP4 0xE1 PUSH5 0x736F6C6343 STOP ADDMOD SHR STOP CALLER "},"methodIdentifiers":{"aavePool()":"a03e4bc3","approve(address,uint256)":"095ea7b3","balanceOf(address)":"70a08231","calculateProfit(uint256,uint256)":"e972261d","collections(uint256)":"fdbda0ec","createCollection(string,string)":"176b9b75","emergencyUnlock(uint256)":"b0793313","getAPY(uint256)":"eeee849b","getApproved(uint256)":"081812fc","isApprovedForAll(address,address)":"e985e9c5","lockTokens(address,uint256,uint256,bool)":"e6a478b3","locks(address,uint256)":"b425f802","mintNFT(string,string,string,string,uint256,string)":"00121213","name()":"06fdde03","nftMetadata(uint256)":"49541015","owner()":"8da5cb5b","ownerOf(uint256)":"6352211e","pause()":"8456cb59","paused()":"5c975abb","profitRate()":"6388749c","profitWallet()":"2301d775","renounceOwnership()":"715018a6","safeTransferFrom(address,address,uint256)":"42842e0e","safeTransferFrom(address,address,uint256,bytes)":"b88d4fde","setAavePool(address)":"349f937c","setApprovalForAll(address,bool)":"a22cb465","setProfitRate(uint256)":"eda42604","setProfitWallet(address)":"da2ca9b5","setUniswapRouter(address)":"bea9849e","supportsInterface(bytes4)":"01ffc9a7","symbol()":"95d89b41","tokenURI(uint256)":"c87b56dd","transferFrom(address,address,uint256)":"23b872dd","transferOwnership(address)":"f2fde38b","uniswapRouter()":"735de9f7","unlockTokens(uint256)":"7c405325","unpause()":"3f4ba83a","userCollections(address,uint256)":"428a6171","withdrawEmergency(address,uint256)":"6c3d7e1d"}}}}}