{"project/contracts/CryptoLockerEnhanced.sol":{"CryptoLockerDeFi":{"abi":[{"inputs":[{"internalType":"address","name":"_profitWallet","type":"address"},{"internalType":"uint256","name":"_profitRate","type":"uint256"},{"internalType":"address","name":"_uniswapRouter","type":"address"},{"internalType":"address","name":"_aavePool","type":"address"}],"stateMutability":"nonpayable","type":"constructor"},{"inputs":[],"name":"ERC721EnumerableForbiddenBatchMint","type":"error"},{"inputs":[{"internalType":"address","name":"sender","type":"address"},{"internalType":"uint256","name":"tokenId","type":"uint256"},{"internalType":"address","name":"owner","type":"address"}],"name":"ERC721IncorrectOwner","type":"error"},{"inputs":[{"internalType":"address","name":"operator","type":"address"},{"internalType":"uint256","name":"tokenId","type":"uint256"}],"name":"ERC721InsufficientApproval","type":"error"},{"inputs":[{"internalType":"address","name":"approver","type":"address"}],"name":"ERC721InvalidApprover","type":"error"},{"inputs":[{"internalType":"address","name":"operator","type":"address"}],"name":"ERC721InvalidOperator","type":"error"},{"inputs":[{"internalType":"address","name":"owner","type":"address"}],"name":"ERC721InvalidOwner","type":"error"},{"inputs":[{"internalType":"address","name":"receiver","type":"address"}],"name":"ERC721InvalidReceiver","type":"error"},{"inputs":[{"internalType":"address","name":"sender","type":"address"}],"name":"ERC721InvalidSender","type":"error"},{"inputs":[{"internalType":"uint256","name":"tokenId","type":"uint256"}],"name":"ERC721NonexistentToken","type":"error"},{"inputs":[{"internalType":"address","name":"owner","type":"address"},{"internalType":"uint256","name":"index","type":"uint256"}],"name":"ERC721OutOfBoundsIndex","type":"error"},{"inputs":[],"name":"EnforcedPause","type":"error"},{"inputs":[],"name":"ExpectedPause","type":"error"},{"inputs":[{"internalType":"address","name":"owner","type":"address"}],"name":"OwnableInvalidOwner","type":"error"},{"inputs":[{"internalType":"address","name":"account","type":"address"}],"name":"OwnableUnauthorizedAccount","type":"error"},{"inputs":[],"name":"ReentrancyGuardReentrantCall","type":"error"},{"anonymous":false,"inputs":[{"indexed":true,"internalType":"address","name":"owner","type":"address"},{"indexed":true,"internalType":"address","name":"approved","type":"address"},{"indexed":true,"internalType":"uint256","name":"tokenId","type":"uint256"}],"name":"Approval","type":"event"},{"anonymous":false,"inputs":[{"indexed":true,"internalType":"address","name":"owner","type":"address"},{"indexed":true,"internalType":"address","name":"operator","type":"address"},{"indexed":false,"internalType":"bool","name":"approved","type":"bool"}],"name":"ApprovalForAll","type":"event"},{"anonymous":false,"inputs":[{"indexed":false,"internalType":"uint256","name":"_fromTokenId","type":"uint256"},{"indexed":false,"internalType":"uint256","name":"_toTokenId","type":"uint256"}],"name":"BatchMetadataUpdate","type":"event"},{"anonymous":false,"inputs":[{"indexed":true,"internalType":"uint256","name":"chainId","type":"uint256"}],"name":"ChainAdded","type":"event"},{"anonymous":false,"inputs":[{"indexed":true,"internalType":"uint256","name":"chainId","type":"uint256"}],"name":"ChainRemoved","type":"event"},{"anonymous":false,"inputs":[{"indexed":true,"internalType":"uint256","name":"collectionId","type":"uint256"},{"indexed":false,"internalType":"string","name":"name","type":"string"},{"indexed":true,"internalType":"address","name":"creator","type":"address"},{"indexed":false,"internalType":"uint256","name":"chainId","type":"uint256"}],"name":"CollectionCreated","type":"event"},{"anonymous":false,"inputs":[{"indexed":true,"internalType":"address","name":"user","type":"address"},{"indexed":false,"internalType":"uint256","name":"lockId","type":"uint256"},{"indexed":false,"internalType":"uint256","name":"penalty","type":"uint256"}],"name":"EmergencyUnlocked","type":"event"},{"anonymous":false,"inputs":[{"indexed":true,"internalType":"address","name":"user","type":"address"},{"indexed":true,"internalType":"address","name":"token","type":"address"},{"indexed":false,"internalType":"uint256","name":"amount","type":"uint256"},{"indexed":false,"internalType":"uint256","name":"duration","type":"uint256"},{"indexed":false,"internalType":"uint256","name":"lockId","type":"uint256"}],"name":"Locked","type":"event"},{"anonymous":false,"inputs":[{"indexed":false,"internalType":"uint256","name":"_tokenId","type":"uint256"}],"name":"MetadataUpdate","type":"event"},{"anonymous":false,"inputs":[{"indexed":true,"internalType":"uint256","name":"collectionId","type":"uint256"},{"indexed":true,"internalType":"uint256","name":"tokenId","type":"uint256"}],"name":"NFTAddedToCollection","type":"event"},{"anonymous":false,"inputs":[{"indexed":true,"internalType":"uint256","name":"tokenId","type":"uint256"},{"indexed":false,"internalType":"uint256","name":"price","type":"uint256"}],"name":"NFTListed","type":"event"},{"anonymous":false,"inputs":[{"indexed":true,"internalType":"uint256","name":"tokenId","type":"uint256"},{"indexed":true,"internalType":"address","name":"creator","type":"address"},{"indexed":true,"internalType":"uint256","name":"collectionId","type":"uint256"},{"indexed":false,"internalType":"enum CryptoLockerDeFi.ContentType","name":"contentType","type":"uint8"},{"indexed":false,"internalType":"string","name":"metadataURI","type":"string"}],"name":"NFTMinted","type":"event"},{"anonymous":false,"inputs":[{"indexed":true,"internalType":"uint256","name":"collectionId","type":"uint256"},{"indexed":true,"internalType":"uint256","name":"tokenId","type":"uint256"}],"name":"NFTRemovedFromCollection","type":"event"},{"anonymous":false,"inputs":[{"indexed":true,"internalType":"uint256","name":"tokenId","type":"uint256"},{"indexed":true,"internalType":"address","name":"from","type":"address"},{"indexed":true,"internalType":"address","name":"to","type":"address"},{"indexed":false,"internalType":"uint256","name":"price","type":"uint256"}],"name":"NFTSold","type":"event"},{"anonymous":false,"inputs":[{"indexed":true,"internalType":"address","name":"previousOwner","type":"address"},{"indexed":true,"internalType":"address","name":"newOwner","type":"address"}],"name":"OwnershipTransferred","type":"event"},{"anonymous":false,"inputs":[{"indexed":false,"internalType":"address","name":"account","type":"address"}],"name":"Paused","type":"event"},{"anonymous":false,"inputs":[{"indexed":true,"internalType":"address","name":"from","type":"address"},{"indexed":true,"internalType":"address","name":"to","type":"address"},{"indexed":true,"internalType":"uint256","name":"tokenId","type":"uint256"}],"name":"Transfer","type":"event"},{"anonymous":false,"inputs":[{"indexed":true,"internalType":"address","name":"user","type":"address"},{"indexed":true,"internalType":"address","name":"token","type":"address"},{"indexed":false,"internalType":"uint256","name":"amount","type":"uint256"},{"indexed":false,"internalType":"uint256","name":"profit","type":"uint256"},{"indexed":false,"internalType":"uint256","name":"lockId","type":"uint256"}],"name":"Unlocked","type":"event"},{"anonymous":false,"inputs":[{"indexed":false,"internalType":"address","name":"account","type":"address"}],"name":"Unpaused","type":"event"},{"inputs":[],"name":"aavePool","outputs":[{"internalType":"contract IAavePool","name":"","type":"address"}],"stateMutability":"view","type":"function"},{"inputs":[{"internalType":"uint256","name":"_collectionId","type":"uint256"},{"internalType":"uint256","name":"_tokenId","type":"uint256"}],"name":"addNFTToCollection","outputs":[],"stateMutability":"nonpayable","type":"function"},{"inputs":[{"internalType":"uint256","name":"_chainId","type":"uint256"}],"name":"addSupportedChain","outputs":[],"stateMutability":"nonpayable","type":"function"},{"inputs":[{"internalType":"address","name":"to","type":"address"},{"internalType":"uint256","name":"tokenId","type":"uint256"}],"name":"approve","outputs":[],"stateMutability":"nonpayable","type":"function"},{"inputs":[{"internalType":"address","name":"owner","type":"address"}],"name":"balanceOf","outputs":[{"internalType":"uint256","name":"","type":"uint256"}],"stateMutability":"view","type":"function"},{"inputs":[{"internalType":"uint256","name":"_tokenId","type":"uint256"}],"name":"buyNFT","outputs":[],"stateMutability":"payable","type":"function"},{"inputs":[{"internalType":"uint256","name":"_amount","type":"uint256"},{"internalType":"uint256","name":"_duration","type":"uint256"}],"name":"calculateProfit","outputs":[{"internalType":"uint256","name":"","type":"uint256"}],"stateMutability":"pure","type":"function"},{"inputs":[{"internalType":"uint256","name":"_tokenId","type":"uint256"}],"name":"cancelListing","outputs":[],"stateMutability":"nonpayable","type":"function"},{"inputs":[{"internalType":"uint256","name":"","type":"uint256"}],"name":"collections","outputs":[{"internalType":"uint256","name":"id","type":"uint256"},{"internalType":"string","name":"name","type":"string"},{"internalType":"string","name":"description","type":"string"},{"internalType":"string","name":"coverImage","type":"string"},{"internalType":"address","name":"creator","type":"address"},{"internalType":"uint256","name":"createdAt","type":"uint256"},{"internalType":"bool","name":"isPublic","type":"bool"},{"internalType":"uint256","name":"chainId","type":"uint256"}],"stateMutability":"view","type":"function"},{"inputs":[{"internalType":"string","name":"_name","type":"string"},{"internalType":"string","name":"_description","type":"string"},{"internalType":"string","name":"_coverImage","type":"string"},{"internalType":"bool","name":"_isPublic","type":"bool"}],"name":"createCollection","outputs":[{"internalType":"uint256","name":"","type":"uint256"}],"stateMutability":"nonpayable","type":"function"},{"inputs":[{"internalType":"uint256","name":"_lockId","type":"uint256"}],"name":"emergencyUnlock","outputs":[],"stateMutability":"nonpayable","type":"function"},{"inputs":[{"internalType":"uint256","name":"_duration","type":"uint256"}],"name":"getAPY","outputs":[{"internalType":"uint256","name":"","type":"uint256"}],"stateMutability":"pure","type":"function"},{"inputs":[{"internalType":"uint256","name":"tokenId","type":"uint256"}],"name":"getApproved","outputs":[{"internalType":"address","name":"","type":"address"}],"stateMutability":"view","type":"function"},{"inputs":[{"internalType":"uint256","name":"_collectionId","type":"uint256"}],"name":"getCollectionNFTs","outputs":[{"internalType":"uint256[]","name":"","type":"uint256[]"}],"stateMutability":"view","type":"function"},{"inputs":[{"internalType":"address","name":"_user","type":"address"}],"name":"getUserCollections","outputs":[{"internalType":"uint256[]","name":"","type":"uint256[]"}],"stateMutability":"view","type":"function"},{"inputs":[{"internalType":"address","name":"_user","type":"address"}],"name":"getUserNFTs","outputs":[{"internalType":"uint256[]","name":"","type":"uint256[]"}],"stateMutability":"view","type":"function"},{"inputs":[{"internalType":"address","name":"owner","type":"address"},{"internalType":"address","name":"operator","type":"address"}],"name":"isApprovedForAll","outputs":[{"internalType":"bool","name":"","type":"bool"}],"stateMutability":"view","type":"function"},{"inputs":[{"internalType":"uint256","name":"_tokenId","type":"uint256"},{"internalType":"uint256","name":"_price","type":"uint256"}],"name":"listNFT","outputs":[],"stateMutability":"nonpayable","type":"function"},{"inputs":[{"internalType":"uint256","name":"","type":"uint256"}],"name":"listings","outputs":[{"internalType":"uint256","name":"tokenId","type":"uint256"},{"internalType":"address","name":"seller","type":"address"},{"internalType":"uint256","name":"price","type":"uint256"},{"internalType":"bool","name":"isActive","type":"bool"}],"stateMutability":"view","type":"function"},{"inputs":[{"internalType":"address","name":"_token","type":"address"},{"internalType":"uint256","name":"_amount","type":"uint256"},{"internalType":"uint256","name":"_duration","type":"uint256"},{"internalType":"bool","name":"_useYield","type":"bool"}],"name":"lockTokens","outputs":[],"stateMutability":"nonpayable","type":"function"},{"inputs":[{"internalType":"address","name":"","type":"address"},{"internalType":"uint256","name":"","type":"uint256"}],"name":"locks","outputs":[{"internalType":"address","name":"token","type":"address"},{"internalType":"uint256","name":"amount","type":"uint256"},{"internalType":"uint256","name":"start","type":"uint256"},{"internalType":"uint256","name":"duration","type":"uint256"},{"internalType":"bool","name":"claimed","type":"bool"},{"internalType":"uint256","name":"profit","type":"uint256"},{"internalType":"bool","name":"usingYield","type":"bool"},{"internalType":"uint256","name":"yieldEarned","type":"uint256"}],"stateMutability":"view","type":"function"},{"inputs":[{"internalType":"string","name":"_name","type":"string"},{"internalType":"string","name":"_description","type":"string"},{"internalType":"enum CryptoLockerDeFi.ContentType","name":"_contentType","type":"uint8"},{"internalType":"string","name":"_ipfsHash","type":"string"},{"internalType":"string[]","name":"_additionalFiles","type":"string[]"},{"internalType":"string[]","name":"_tags","type":"string[]"},{"internalType":"uint256","name":"_collectionId","type":"uint256"},{"internalType":"string","name":"_tokenURI","type":"string"}],"name":"mintAdvancedNFT","outputs":[{"internalType":"uint256","name":"","type":"uint256"}],"stateMutability":"nonpayable","type":"function"},{"inputs":[],"name":"name","outputs":[{"internalType":"string","name":"","type":"string"}],"stateMutability":"view","type":"function"},{"inputs":[{"internalType":"uint256","name":"","type":"uint256"},{"internalType":"uint256","name":"","type":"uint256"}],"name":"nftInCollection","outputs":[{"internalType":"bool","name":"","type":"bool"}],"stateMutability":"view","type":"function"},{"inputs":[{"internalType":"uint256","name":"","type":"uint256"}],"name":"nftMetadata","outputs":[{"internalType":"string","name":"name","type":"string"},{"internalType":"string","name":"description","type":"string"},{"internalType":"enum CryptoLockerDeFi.ContentType","name":"contentType","type":"uint8"},{"internalType":"string","name":"ipfsHash","type":"string"},{"internalType":"uint256","name":"collectionId","type":"uint256"},{"internalType":"address","name":"creator","type":"address"},{"internalType":"address","name":"originalOwner","type":"address"},{"internalType":"uint256","name":"mintedAt","type":"uint256"},{"internalType":"uint256","name":"chainId","type":"uint256"},{"internalType":"bool","name":"isListed","type":"bool"},{"internalType":"uint256","name":"price","type":"uint256"}],"stateMutability":"view","type":"function"},{"inputs":[],"name":"owner","outputs":[{"internalType":"address","name":"","type":"address"}],"stateMutability":"view","type":"function"},{"inputs":[{"internalType":"uint256","name":"tokenId","type":"uint256"}],"name":"ownerOf","outputs":[{"internalType":"address","name":"","type":"address"}],"stateMutability":"view","type":"function"},{"inputs":[],"name":"pause","outputs":[],"stateMutability":"nonpayable","type":"function"},{"inputs":[],"name":"paused","outputs":[{"internalType":"bool","name":"","type":"bool"}],"stateMutability":"view","type":"function"},{"inputs":[],"name":"platformFee","outputs":[{"internalType":"uint256","name":"","type":"uint256"}],"stateMutability":"view","type":"function"},{"inputs":[],"name":"platformWallet","outputs":[{"internalType":"address","name":"","type":"address"}],"stateMutability":"view","type":"function"},{"inputs":[],"name":"profitRate","outputs":[{"internalType":"uint256","name":"","type":"uint256"}],"stateMutability":"view","type":"function"},{"inputs":[],"name":"profitWallet","outputs":[{"internalType":"address","name":"","type":"address"}],"stateMutability":"view","type":"function"},{"inputs":[{"internalType":"string","name":"_name","type":"string"},{"internalType":"string","name":"_description","type":"string"},{"internalType":"enum CryptoLockerDeFi.ContentType","name":"_contentType","type":"uint8"},{"internalType":"string","name":"_ipfsHash","type":"string"},{"internalType":"string","name":"_tokenURI","type":"string"}],"name":"quickMintNFT","outputs":[{"internalType":"uint256","name":"","type":"uint256"}],"stateMutability":"nonpayable","type":"function"},{"inputs":[{"internalType":"uint256","name":"_collectionId","type":"uint256"},{"internalType":"uint256","name":"_tokenId","type":"uint256"}],"name":"removeNFTFromCollection","outputs":[],"stateMutability":"nonpayable","type":"function"},{"inputs":[{"internalType":"uint256","name":"_chainId","type":"uint256"}],"name":"removeSupportedChain","outputs":[],"stateMutability":"nonpayable","type":"function"},{"inputs":[],"name":"renounceOwnership","outputs":[],"stateMutability":"nonpayable","type":"function"},{"inputs":[{"internalType":"address","name":"from","type":"address"},{"internalType":"address","name":"to","type":"address"},{"internalType":"uint256","name":"tokenId","type":"uint256"}],"name":"safeTransferFrom","outputs":[],"stateMutability":"nonpayable","type":"function"},{"inputs":[{"internalType":"address","name":"from","type":"address"},{"internalType":"address","name":"to","type":"address"},{"internalType":"uint256","name":"tokenId","type":"uint256"},{"internalType":"bytes","name":"data","type":"bytes"}],"name":"safeTransferFrom","outputs":[],"stateMutability":"nonpayable","type":"function"},{"inputs":[{"internalType":"address","name":"_pool","type":"address"}],"name":"setAavePool","outputs":[],"stateMutability":"nonpayable","type":"function"},{"inputs":[{"internalType":"address","name":"operator","type":"address"},{"internalType":"bool","name":"approved","type":"bool"}],"name":"setApprovalForAll","outputs":[],"stateMutability":"nonpayable","type":"function"},{"inputs":[{"internalType":"uint256","name":"_fee","type":"uint256"}],"name":"setPlatformFee","outputs":[],"stateMutability":"nonpayable","type":"function"},{"inputs":[{"internalType":"address","name":"_wallet","type":"address"}],"name":"setPlatformWallet","outputs":[],"stateMutability":"nonpayable","type":"function"},{"inputs":[{"internalType":"uint256","name":"_profitRate","type":"uint256"}],"name":"setProfitRate","outputs":[],"stateMutability":"nonpayable","type":"function"},{"inputs":[{"internalType":"address","name":"_profitWallet","type":"address"}],"name":"setProfitWallet","outputs":[],"stateMutability":"nonpayable","type":"function"},{"inputs":[{"internalType":"address","name":"_router","type":"address"}],"name":"setUniswapRouter","outputs":[],"stateMutability":"nonpayable","type":"function"},{"inputs":[{"internalType":"uint256","name":"","type":"uint256"}],"name":"supportedChains","outputs":[{"internalType":"bool","name":"","type":"bool"}],"stateMutability":"view","type":"function"},{"inputs":[{"internalType":"bytes4","name":"interfaceId","type":"bytes4"}],"name":"supportsInterface","outputs":[{"internalType":"bool","name":"","type":"bool"}],"stateMutability":"view","type":"function"},{"inputs":[],"name":"symbol","outputs":[{"internalType":"string","name":"","type":"string"}],"stateMutability":"view","type":"function"},{"inputs":[{"internalType":"uint256","name":"index","type":"uint256"}],"name":"tokenByIndex","outputs":[{"internalType":"uint256","name":"","type":"uint256"}],"stateMutability":"view","type":"function"},{"inputs":[{"internalType":"address","name":"owner","type":"address"},{"internalType":"uint256","name":"index","type":"uint256"}],"name":"tokenOfOwnerByIndex","outputs":[{"internalType":"uint256","name":"","type":"uint256"}],"stateMutability":"view","type":"function"},{"inputs":[{"internalType":"uint256","name":"tokenId","type":"uint256"}],"name":"tokenURI","outputs":[{"internalType":"string","name":"","type":"string"}],"stateMutability":"view","type":"function"},{"inputs":[],"name":"totalSupply","outputs":[{"internalType":"uint256","name":"","type":"uint256"}],"stateMutability":"view","type":"function"},{"inputs":[{"internalType":"address","name":"from","type":"address"},{"internalType":"address","name":"to","type":"address"},{"internalType":"uint256","name":"tokenId","type":"uint256"}],"name":"transferFrom","outputs":[],"stateMutability":"nonpayable","type":"function"},{"inputs":[{"internalType":"address","name":"newOwner","type":"address"}],"name":"transferOwnership","outputs":[],"stateMutability":"nonpayable","type":"function"},{"inputs":[],"name":"uniswapRouter","outputs":[{"internalType":"contract IUniswapV2Router02","name":"","type":"address"}],"stateMutability":"view","type":"function"},{"inputs":[{"internalType":"uint256","name":"_lockId","type":"uint256"}],"name":"unlockTokens","outputs":[],"stateMutability":"nonpayable","type":"function"},{"inputs":[],"name":"unpause","outputs":[],"stateMutability":"nonpayable","type":"function"},{"inputs":[{"internalType":"address","name":"","type":"address"},{"internalType":"uint256","name":"","type":"uint256"}],"name":"userCollections","outputs":[{"internalType":"uint256","name":"","type":"uint256"}],"stateMutability":"view","type":"function"},{"inputs":[{"internalType":"address","name":"","type":"address"},{"internalType":"uint256","name":"","type":"uint256"}],"name":"userNFTs","outputs":[{"internalType":"uint256","name":"","type":"uint256"}],"stateMutability":"view","type":"function"},{"inputs":[{"internalType":"address","name":"_token","type":"address"},{"internalType":"uint256","name":"_amount","type":"uint256"}],"name":"withdrawEmergency","outputs":[],"stateMutability":"nonpayable","type":"function"}],"evm":{"bytecode":{"linkReferences":{},"object":"608060405260fa601655348015610014575f5ffd5b50604051614ec8380380614ec8833981016040819052610033916101db565b336040518060400160405280601081526020016f10dc9e5c1d1bd31bd8dad95c8813919560821b8152506040518060400160405280600581526020016410d313919560da1b815250815f908161008991906102bd565b50600161009682826102bd565b5050506001600160a01b0381166100c657604051631e4fbdf760e01b81525f600482015260240160405180910390fd5b6100cf8161016f565b506001600c819055601a80546001600160a01b038088166001600160a01b031992831617909255601b869055601c8054868416908316179055601d8054928516928216929092179091556017805490911633179055465f81815260156020526040808220805460ff1916909417909355915190917fbba9d55e9fd1a441b1617724e2fdb76777d15ec77ab2b72ac15952cbe97085db91a250505050610377565b600b80546001600160a01b038381166001600160a01b0319831681179093556040519116919082907f8be0079c531659141344cd1fd0a4f28419497f9722a3daafe3b4186f6b6457e0905f90a35050565b80516001600160a01b03811681146101d6575f5ffd5b919050565b5f5f5f5f608085870312156101ee575f5ffd5b6101f7856101c0565b93506020850151925061020c604086016101c0565b915061021a606086016101c0565b905092959194509250565b634e487b7160e01b5f52604160045260245ffd5b600181811c9082168061024d57607f821691505b60208210810361026b57634e487b7160e01b5f52602260045260245ffd5b50919050565b601f8211156102b857805f5260205f20601f840160051c810160208510156102965750805b601f840160051c820191505b818110156102b5575f81556001016102a2565b50505b505050565b81516001600160401b038111156102d6576102d6610225565b6102ea816102e48454610239565b84610271565b6020601f82116001811461031c575f83156103055750848201515b5f19600385901b1c1916600184901b1784556102b5565b5f84815260208120601f198516915b8281101561034b578785015182556020948501946001909201910161032b565b508482101561036857868401515f19600387901b60f8161c191681555b50505050600190811b01905550565b614b44806103845f395ff3fe608060405260043610610392575f3560e01c806370a08231116101de578063b079331311610108578063e6a478b31161009d578063eeee849b1161006d578063eeee849b14610b49578063f2fde38b14610b68578063fa2af9da14610b87578063fdbda0ec14610ba6575f5ffd5b8063e6a478b314610acd578063e972261d14610aec578063e985e9c514610b0b578063eda4260414610b2a575f5ffd5b8063bea9849e116100d8578063bea9849e146109f9578063c87b56dd14610a18578063da2ca9b514610a37578063de74e57b14610a56575f5ffd5b8063b079331314610934578063b425f80214610953578063b83abbe4146109bb578063b88d4fde146109da575f5ffd5b80638da5cb5b1161017e5780639aa5ad8c1161014e5780639aa5ad8c146108b85780639e889b4c146108d7578063a03e4bc3146108f6578063a22cb46514610915575f5ffd5b80638da5cb5b146108495780638e657b581461086657806394383f141461088557806395d89b41146108a4575f5ffd5b80637c405325116101b95780637c405325146107d85780638456cb59146107f757806387188a001461080b5780638831e9cf1461082a575f5ffd5b806370a0823114610786578063715018a6146107a5578063735de9f7146107b9575f5ffd5b8063349f937c116102bf57806351ed82881161025f5780636352211e1161022f5780636352211e146107145780636388749c146107335780636c3d7e1d146107485780636dd408b414610767575f5ffd5b806351ed82881461069057806352de4ee5146106a3578063548d496f146106cf5780635c975abb146106fd575f5ffd5b8063428a61711161029a578063428a6171146105fd578063495410151461061c5780634b129bee146106525780634f6ccce714610671575f5ffd5b8063349f937c146105ab5780633f4ba83a146105ca57806342842e0e146105de575f5ffd5b8063153dbab81161033557806326232a2e1161030557806326232a2e14610539578063291c73c31461054e5780632f745c591461056d578063305a67a81461058c575f5ffd5b8063153dbab8146104ba57806318160ddd146104e75780632301d775146104fb57806323b872dd1461051a575f5ffd5b8063095ea7b311610370578063095ea7b3146104225780630c4844aa1461044357806312e8e2c3146104625780631423253414610481575f5ffd5b806301ffc9a71461039657806306fdde03146103ca578063081812fc146103eb575b5f5ffd5b3480156103a1575f5ffd5b506103b56103b0366004614017565b610bd9565b60405190151581526020015b60405180910390f35b3480156103d5575f5ffd5b506103de610be9565b6040516103c19190614060565b3480156103f6575f5ffd5b5061040a610405366004614072565b610c78565b6040516001600160a01b0390911681526020016103c1565b34801561042d575f5ffd5b5061044161043c3660046140a4565b610c9f565b005b34801561044e575f5ffd5b5061044161045d366004614072565b610cae565b34801561046d575f5ffd5b5061044161047c366004614072565b610cf5565b34801561048c575f5ffd5b506103b561049b3660046140cc565b601460209081525f928352604080842090915290825290205460ff1681565b3480156104c5575f5ffd5b506104d96104d43660046141b4565b610d48565b6040519081526020016103c1565b3480156104f2575f5ffd5b506009546104d9565b348015610506575f5ffd5b50601a5461040a906001600160a01b031681565b348015610525575f5ffd5b50610441610534366004614279565b610f86565b348015610544575f5ffd5b506104d960165481565b348015610559575f5ffd5b506104d96105683660046140a4565b610ffb565b348015610578575f5ffd5b506104d96105873660046140a4565b611026565b348015610597575f5ffd5b506104416105a6366004614072565b611089565b3480156105b6575f5ffd5b506104416105c53660046142b3565b611115565b3480156105d5575f5ffd5b50610441611165565b3480156105e9575f5ffd5b506104416105f8366004614279565b611177565b348015610608575f5ffd5b506104d96106173660046140a4565b611196565b348015610627575f5ffd5b5061063b610636366004614072565b6111af565b6040516103c19b9a99989796959493929190614300565b34801561065d575f5ffd5b5061044161066c3660046140cc565b6113ad565b34801561067c575f5ffd5b506104d961068b366004614072565b61149c565b61044161069e366004614072565b6114f1565b3480156106ae575f5ffd5b506106c26106bd3660046142b3565b61176e565b6040516103c1919061438d565b3480156106da575f5ffd5b506103b56106e9366004614072565b60156020525f908152604090205460ff1681565b348015610708575f5ffd5b50600d5460ff166103b5565b34801561071f575f5ffd5b5061040a61072e366004614072565b6117d7565b34801561073e575f5ffd5b506104d9601b5481565b348015610753575f5ffd5b506104416107623660046140a4565b6117e1565b348015610772575f5ffd5b506104d9610781366004614471565b611857565b348015610791575f5ffd5b506104d96107a03660046142b3565b611b57565b3480156107b0575f5ffd5b50610441611b9c565b3480156107c4575f5ffd5b50601c5461040a906001600160a01b031681565b3480156107e3575f5ffd5b506104416107f2366004614072565b611bad565b348015610802575f5ffd5b50610441611f68565b348015610816575f5ffd5b50610441610825366004614072565b611f78565b348015610835575f5ffd5b506104416108443660046142b3565b611fc2565b348015610854575f5ffd5b50600b546001600160a01b031661040a565b348015610871575f5ffd5b506104d961088036600461459f565b612012565b348015610890575f5ffd5b5061044161089f3660046140cc565b612196565b3480156108af575f5ffd5b506103de6122fc565b3480156108c3575f5ffd5b506106c26108d23660046142b3565b61230b565b3480156108e2575f5ffd5b506106c26108f1366004614072565b612372565b348015610901575f5ffd5b50601d5461040a906001600160a01b031681565b348015610920575f5ffd5b5061044161092f36600461463d565b612424565b34801561093f575f5ffd5b5061044161094e366004614072565b61242f565b34801561095e575f5ffd5b5061097261096d3660046140a4565b612753565b604080516001600160a01b03909916895260208901979097529587019490945260608601929092521515608085015260a0840152151560c083015260e0820152610100016103c1565b3480156109c6575f5ffd5b506104416109d53660046140cc565b6127c3565b3480156109e5575f5ffd5b506104416109f4366004614672565b61297c565b348015610a04575f5ffd5b50610441610a133660046142b3565b612994565b348015610a23575f5ffd5b506103de610a32366004614072565b6129e4565b348015610a42575f5ffd5b50610441610a513660046142b3565b6129ef565b348015610a61575f5ffd5b50610aa3610a70366004614072565b60186020525f9081526040902080546001820154600283015460039093015491926001600160a01b039091169160ff1684565b604080519485526001600160a01b03909316602085015291830152151560608201526080016103c1565b348015610ad8575f5ffd5b50610441610ae73660046146e8565b612a3f565b348015610af7575f5ffd5b506104d9610b063660046140cc565b612e61565b348015610b16575f5ffd5b506103b5610b25366004614722565b612e9b565b348015610b35575f5ffd5b50610441610b44366004614072565b612ec8565b348015610b54575f5ffd5b506104d9610b63366004614072565b612f17565b348015610b73575f5ffd5b50610441610b823660046142b3565b612f6e565b348015610b92575f5ffd5b5060175461040a906001600160a01b031681565b348015610bb1575f5ffd5b50610bc5610bc0366004614072565b612fa8565b6040516103c1989796959493929190614753565b5f610be38261318b565b92915050565b60605f8054610bf7906147c4565b80601f0160208091040260200160405190810160405280929190818152602001828054610c23906147c4565b8015610c6e5780601f10610c4557610100808354040283529160200191610c6e565b820191905f5260205f20905b815481529060010190602001808311610c5157829003601f168201915b5050505050905090565b5f610c82826131af565b505f828152600460205260409020546001600160a01b0316610be3565b610caa8282336131e7565b5050565b610cb66131f4565b5f81815260156020526040808220805460ff191690555182917f11a9d1a77f76361ed131c19b1dc5758504c51dbde2e49fc973a0ef9577ad13d591a250565b610cfd6131f4565b6103e8811115610d435760405162461bcd60e51b815260206004820152600c60248201526b08ccaca40e8dede40d0d2ced60a31b60448201526064015b60405180910390fd5b601655565b5f610d51613221565b600e8054905f610d6083614810565b9091555050600e54610d723382613245565b610d7c818461325e565b6060604051806101a00160405280898152602001888152602001876005811115610da857610da86142cc565b8152602080820188905260408083018590525f60608401819052336080850181905260a08501524260c08501524660e085015261010084018190526101208401819052610140909301859052858352600f909152902081518190610e0c908261486c565b5060208201516001820190610e21908261486c565b50604082015160028201805460ff19166001836005811115610e4557610e456142cc565b021790555060608201516003820190610e5e908261486c565b5060808201518051610e7a916004840191602090910190613f02565b5060a0820151600582015560c08201516006820180546001600160a01b039283166001600160a01b03199182161790915560e084015160078401805491909316911617905561010082015160088201556101208201516009820155610140820151600a8201805491151560ff19909216919091179055610160820151600b8201556101808201518051610f1791600c840191602090910190613f02565b5050335f81815260106020908152604080832080546001810182559084529183209091018690555190925084907f923c083491ba0811ea2bbd6df83ac2cce86105b93cc92eb63a0678d246006e0b90610f73908b908a90614926565b60405180910390a4509695505050505050565b6001600160a01b038216610faf57604051633250574960e11b81525f6004820152602401610d3a565b5f610fbb8383336132ad565b9050836001600160a01b0316816001600160a01b031614610ff5578382826040516364283d7b60e01b8152600401610d3a93929190614945565b50505050565b6010602052815f5260405f208181548110611014575f80fd5b905f5260205f20015f91509150505481565b5f61103083611b57565b82106110615760405163295f44f760e21b81526001600160a01b038416600482015260248101839052604401610d3a565b506001600160a01b03919091165f908152600760209081526040808320938352929052205490565b5f818152601860205260409020600101546001600160a01b031633146110de5760405162461bcd60e51b815260206004820152600a6024820152692737ba1039b2b63632b960b11b6044820152606401610d3a565b5f908152601860209081526040808320600301805460ff19908116909155600f9092528220600a81018054909216909155600b0155565b61111d6131f4565b6001600160a01b0381166111435760405162461bcd60e51b8152600401610d3a90614968565b601d80546001600160a01b0319166001600160a01b0392909216919091179055565b61116d6131f4565b6111756132b9565b565b61119183838360405180602001604052805f81525061297c565b505050565b6013602052815f5260405f208181548110611014575f80fd5b600f6020525f90815260409020805481906111c9906147c4565b80601f01602080910402602001604051908101604052809291908181526020018280546111f5906147c4565b80156112405780601f1061121757610100808354040283529160200191611240565b820191905f5260205f20905b81548152906001019060200180831161122357829003601f168201915b505050505090806001018054611255906147c4565b80601f0160208091040260200160405190810160405280929190818152602001828054611281906147c4565b80156112cc5780601f106112a3576101008083540402835291602001916112cc565b820191905f5260205f20905b8154815290600101906020018083116112af57829003601f168201915b5050506002840154600385018054949560ff9092169491935091506112f0906147c4565b80601f016020809104026020016040519081016040528092919081815260200182805461131c906147c4565b80156113675780601f1061133e57610100808354040283529160200191611367565b820191905f5260205f20905b81548152906001019060200180831161134a57829003601f168201915b50505060058401546006850154600786015460088701546009880154600a890154600b90990154979894976001600160a01b0394851697509290931694509260ff16908b565b5f828152601260205260409020600401546001600160a01b031633146113e55760405162461bcd60e51b8152600401610d3a90614991565b5f82815260146020908152604080832084845290915290205460ff166114415760405162461bcd60e51b81526020600482015260116024820152702737ba1034b71031b7b63632b1ba34b7b760791b6044820152606401610d3a565b5f8281526014602090815260408083208484528252808320805460ff19169055600f90915280822060050182905551829184917f9814ce1d05daf3923a26965a049abca8c28003ef982218ddb1cbd11ac62c79fe9190a35050565b5f6114a660095490565b82106114ce5760405163295f44f760e21b81525f600482015260248101839052604401610d3a565b600982815481106114e1576114e16149bf565b905f5260205f2001549050919050565b6114f961330b565b5f8181526018602090815260409182902082516080810184528154815260018201546001600160a01b03169281019290925260028101549282019290925260039091015460ff161515606082018190526115865760405162461bcd60e51b815260206004820152600e60248201526d139195081b9bdd081b1a5cdd195960921b6044820152606401610d3a565b80604001513410156115d15760405162461bcd60e51b8152602060048201526014602482015273125b9cdd59999a58da595b9d081c185e5b595b9d60621b6044820152606401610d3a565b5f61271060165483604001516115e791906149d3565b6115f191906149ea565b90505f8183604001516116049190614a09565b905061161583602001513386613335565b5f848152600f60209081526040808320600a8101805460ff19908116909155600b9091018490556018909252808320600301805490921690915560175490516001600160a01b039091169184156108fc02918591818181858888f19350505050158015611684573d5f5f3e3d5ffd5b5082602001516001600160a01b03166108fc8290811502906040515f60405180830381858888f193505050501580156116bf573d5f5f3e3d5ffd5b50826040015134111561170857604083015133906108fc906116e19034614a09565b6040518115909202915f818181858888f19350505050158015611706573d5f5f3e3d5ffd5b505b336001600160a01b031683602001516001600160a01b0316857f8562eb94748e30bb0071e932744ce902b460c683474fcb3bfd567ffa16b1afb2866040015160405161175691815260200190565b60405180910390a450505061176b6001600c55565b50565b6001600160a01b0381165f908152601060209081526040918290208054835181840281018401909452808452606093928301828280156117cb57602002820191905f5260205f20905b8154815260200190600101908083116117b7575b50505050509050919050565b5f610be3826131af565b6117e96131f4565b60405163a9059cbb60e01b8152336004820152602481018290526001600160a01b0383169063a9059cbb906044016020604051808303815f875af1158015611833573d5f5f3e3d5ffd5b505050506040513d601f19601f820116820180604052508101906111919190614a1c565b5f611860613221565b600e8054905f61186f83614810565b9091555050600e546118813382613245565b61188b818461325e565b604051806101a001604052808b81526020018a81526020018960058111156118b5576118b56142cc565b815260208082018a905260408083018a905260608301889052336080840181905260a08401524260c08401524660e08401525f61010084018190526101208401819052610140909301899052848352600f909152902081518190611919908261486c565b506020820151600182019061192e908261486c565b50604082015160028201805460ff19166001836005811115611952576119526142cc565b02179055506060820151600382019061196b908261486c565b5060808201518051611987916004840191602090910190613f02565b5060a0820151600582015560c08201516006820180546001600160a01b039283166001600160a01b03199182161790915560e084015160078401805491909316911617905561010082015160088201556101208201516009820155610140820151600a8201805491151560ff19909216919091179055610160820151600b8201556101808201518051611a2491600c840191602090910190613f02565b5050335f90815260106020908152604082208054600181018255908352912001829055508315801590611a5957506011548411155b15611b05575f848152601260205260409020600401546001600160a01b03163314611a965760405162461bcd60e51b8152600401610d3a90614991565b5f8481526012602090815260408083206006018054600181810183559185528385200185905587845260148352818420858552909252808320805460ff191690921790915551829186917f3b3f4a0879adb468f95af56c9da744059b4df6c7189edae9d2ddb821161c4d1c9190a35b83336001600160a01b0316827f923c083491ba0811ea2bbd6df83ac2cce86105b93cc92eb63a0678d246006e0b8b87604051611b42929190614926565b60405180910390a49998505050505050505050565b5f6001600160a01b038216611b81576040516322718ad960e21b81525f6004820152602401610d3a565b506001600160a01b03165f9081526003602052604090205490565b611ba46131f4565b6111755f6133ce565b611bb561330b565b335f908152601960205260409020548110611c045760405162461bcd60e51b815260206004820152600f60248201526e125b9d985b1a59081b1bd8dac81251608a1b6044820152606401610d3a565b335f908152601960205260408120805483908110611c2457611c246149bf565b5f9182526020909120600890910201600481015490915060ff1615611c7d5760405162461bcd60e51b815260206004820152600f60248201526e105b1c9958591e4818db185a5b5959608a1b6044820152606401610d3a565b80600301548160020154611c919190614a37565b421015611ce05760405162461bcd60e51b815260206004820152601860248201527f4c6f636b20706572696f64206e6f742066696e697368656400000000000000006044820152606401610d3a565b5f611cf382600101548360030154612e61565b6005830181905560048301805460ff19166001179055600683015490915060ff1615611dc057601d5482546001840154604051631a4ca37b60e21b81525f936001600160a01b03908116936369328dec93611d579392909116913090600401614945565b6020604051808303815f875af1158015611d73573d5f5f3e3d5ffd5b505050506040513d601f19601f82011682018060405250810190611d979190614a4a565b905082600101548111611daa575f611db9565b6001830154611db99082614a09565b6007840155505b5f8260070154828460010154611dd69190614a37565b611de09190614a37565b90505f612710601b5484611df491906149d3565b611dfe91906149ea565b90508015611e7d578354601a5460405163a9059cbb60e01b81526001600160a01b0391821660048201526024810184905291169063a9059cbb906044016020604051808303815f875af1158015611e57573d5f5f3e3d5ffd5b505050506040513d601f19601f82011682018060405250810190611e7b9190614a1c565b505b83546001600160a01b031663a9059cbb33611e988486614a09565b6040516001600160e01b031960e085901b1681526001600160a01b03909216600483015260248201526044016020604051808303815f875af1158015611ee0573d5f5f3e3d5ffd5b505050506040513d601f19601f82011682018060405250810190611f049190614a1c565b5083546001850154604080519182526020820186905281018790526001600160a01b039091169033907f469ba0ddfe932cfd8febe378bcf0ba91f65c0b6f9d60e893047555dd453752169060600160405180910390a35050505061176b6001600c55565b611f706131f4565b61117561341f565b611f806131f4565b5f81815260156020526040808220805460ff191660011790555182917fbba9d55e9fd1a441b1617724e2fdb76777d15ec77ab2b72ac15952cbe97085db91a250565b611fca6131f4565b6001600160a01b038116611ff05760405162461bcd60e51b8152600401610d3a90614968565b601780546001600160a01b0319166001600160a01b0392909216919091179055565b601180545f918261202283614810565b90915550506011546040805161012081018252828152602080820189815282840189905260608381018990523360808501524260a085015260c0840181905287151560e0850152466101008501525f8681526012909352939091208251815590516001820190612092908261486c565b50604082015160028201906120a7908261486c565b50606082015160038201906120bc908261486c565b5060808201516004820180546001600160a01b0319166001600160a01b0390921691909117905560a0820151600582015560c08201518051612108916006840191602090910190613f56565b5060e082015160078201805460ff191691151591909117905561010090910151600890910155335f818152601360209081526040808320805460018101825590845291909220018490555183907fcbc5b9322598689b615122c4e8865dcf948b43e47a66c57f567c94bfb464142590612184908b904690614a61565b60405180910390a35095945050505050565b336121a0836117d7565b6001600160a01b0316146121e65760405162461bcd60e51b815260206004820152600d60248201526c2737ba1027232a1037bbb732b960991b6044820152606401610d3a565b5f81116122355760405162461bcd60e51b815260206004820152601c60248201527f5072696365206d7573742062652067726561746572207468616e2030000000006044820152606401610d3a565b604080516080810182528381523360208083019182528284018581526001606085018181525f8981526018855287812096518755945186830180546001600160a01b039092166001600160a01b03199092169190911790559151600286015590516003909401805494151560ff19958616179055600f825291849020600a81018054909416909217909255600b01839055905182815283917fa6cd73580a273eec6c1026108f6b63479fbaef5356dde4ff43e4b38dd187485f910160405180910390a25050565b606060018054610bf7906147c4565b6001600160a01b0381165f908152601360209081526040918290208054835181840281018401909452808452606093928301828280156117cb57602002820191905f5260205f20908154815260200190600101908083116117b75750505050509050919050565b60605f8211801561238557506011548211155b6123c65760405162461bcd60e51b815260206004820152601260248201527124b73b30b634b21031b7b63632b1ba34b7b760711b6044820152606401610d3a565b5f82815260126020908152604091829020600601805483518184028101840190945280845290918301828280156117cb57602002820191905f5260205f20908154815260200190600101908083116117b75750505050509050919050565b610caa33838361345c565b61243761330b565b335f9081526019602052604090205481106124865760405162461bcd60e51b815260206004820152600f60248201526e125b9d985b1a59081b1bd8dac81251608a1b6044820152606401610d3a565b335f9081526019602052604081208054839081106124a6576124a66149bf565b5f9182526020909120600890910201600481015490915060ff16156124ff5760405162461bcd60e51b815260206004820152600f60248201526e105b1c9958591e4818db185a5b5959608a1b6044820152606401610d3a565b806003015481600201546125139190614a37565b42106125585760405162461bcd60e51b8152602060048201526014602482015273131bd8dac81c195c9a5bd908199a5b9a5cda195960621b6044820152606401610d3a565b60048101805460ff19166001179055600681015460ff16156125f057601d5481546001830154604051631a4ca37b60e21b81526001600160a01b03938416936369328dec936125ae939116913090600401614945565b6020604051808303815f875af11580156125ca573d5f5f3e3d5ffd5b505050506040513d601f19601f820116820180604052508101906125ee9190614a4a565b505b5f60648260010154600a61260491906149d3565b61260e91906149ea565b90505f8183600101546126219190614a09565b8354601a5460405163a9059cbb60e01b81526001600160a01b03918216600482015260248101869052929350169063a9059cbb906044016020604051808303815f875af1158015612674573d5f5f3e3d5ffd5b505050506040513d601f19601f820116820180604052508101906126989190614a1c565b50825460405163a9059cbb60e01b8152336004820152602481018390526001600160a01b039091169063a9059cbb906044016020604051808303815f875af11580156126e6573d5f5f3e3d5ffd5b505050506040513d601f19601f8201168201806040525081019061270a9190614a1c565b50604080518581526020810184905233917f73f0644cd8afa7ad22314a5cead22c249f333e40fa1fe21a6b282ae3f5fd5df4910160405180910390a250505061176b6001600c55565b6019602052815f5260405f20818154811061276c575f80fd5b5f918252602090912060089091020180546001820154600283015460038401546004850154600586015460068701546007909701546001600160a01b0390961698509396509194909360ff92831693929091169088565b5f821180156127d457506011548211155b6128155760405162461bcd60e51b815260206004820152601260248201527124b73b30b634b21031b7b63632b1ba34b7b760711b6044820152606401610d3a565b3361281f826117d7565b6001600160a01b0316146128655760405162461bcd60e51b815260206004820152600d60248201526c2737ba1027232a1037bbb732b960991b6044820152606401610d3a565b5f828152601260205260409020600401546001600160a01b0316331461289d5760405162461bcd60e51b8152600401610d3a90614991565b5f82815260146020908152604080832084845290915290205460ff16156128fe5760405162461bcd60e51b815260206004820152601560248201527420b63932b0b23c9034b71031b7b63632b1ba34b7b760591b6044820152606401610d3a565b5f82815260126020908152604080832060060180546001818101835591855283852001859055858452601483528184208585528352818420805460ff19169091179055600f90915280822060050184905551829184917f3b3f4a0879adb468f95af56c9da744059b4df6c7189edae9d2ddb821161c4d1c9190a35050565b612987848484610f86565b610ff533858585856134fa565b61299c6131f4565b6001600160a01b0381166129c25760405162461bcd60e51b8152600401610d3a90614968565b601c80546001600160a01b0319166001600160a01b0392909216919091179055565b6060610be382613622565b6129f76131f4565b6001600160a01b038116612a1d5760405162461bcd60e51b8152600401610d3a90614968565b601a80546001600160a01b0319166001600160a01b0392909216919091179055565b612a4761330b565b612a4f613221565b5f8311612a9e5760405162461bcd60e51b815260206004820152601d60248201527f416d6f756e74206d7573742062652067726561746572207468616e20300000006044820152606401610d3a565b62093a80821015612af15760405162461bcd60e51b815260206004820152601d60248201527f4d696e696d756d206c6f636b20706572696f64206973203720646179730000006044820152606401610d3a565b6301e13380821115612b455760405162461bcd60e51b815260206004820152601f60248201527f4d6178696d756d206c6f636b20706572696f64206973203336352064617973006044820152606401610d3a565b6040516323b872dd60e01b8152336004820152306024820152604481018490526001600160a01b038516906323b872dd906064016020604051808303815f875af1158015612b95573d5f5f3e3d5ffd5b505050506040513d601f19601f82011682018060405250810190612bb99190614a1c565b508015612ca357601d5460405163095ea7b360e01b81526001600160a01b039182166004820152602481018590529085169063095ea7b3906044016020604051808303815f875af1158015612c10573d5f5f3e3d5ffd5b505050506040513d601f19601f82011682018060405250810190612c349190614a1c565b50601d5460405163617ba03760e01b81526001600160a01b038681166004830152602482018690523060448301525f60648301529091169063617ba037906084015f604051808303815f87803b158015612c8c575f5ffd5b505af1158015612c9e573d5f5f3e3d5ffd5b505050505b60195f336001600160a01b03166001600160a01b031681526020019081526020015f20604051806101000160405280866001600160a01b031681526020018581526020014281526020018481526020015f151581526020015f815260200183151581526020015f815250908060018154018082558091505060019003905f5260205f2090600802015f909190919091505f820151815f015f6101000a8154816001600160a01b0302191690836001600160a01b031602179055506020820151816001015560408201518160020155606082015181600301556080820151816004015f6101000a81548160ff02191690831515021790555060a0820151816005015560c0820151816006015f6101000a81548160ff02191690831515021790555060e082015181600701555050836001600160a01b0316336001600160a01b03167fc392e99d431032ac14a872985e1784cd90533e27608253c002a198d8e6358ed98585600160195f336001600160a01b03166001600160a01b031681526020019081526020015f2080549050612e399190614a09565b6040805193845260208401929092529082015260600160405180910390a3610ff56001600c55565b5f5f612e6c83612f17565b905064496cebb80083612e7f83876149d3565b612e8991906149d3565b612e9391906149ea565b949350505050565b6001600160a01b039182165f90815260056020908152604080832093909416825291909152205460ff1690565b612ed06131f4565b612710811115612f125760405162461bcd60e51b815260206004820152600d60248201526c0a4c2e8ca40e8dede40d0d2ced609b1b6044820152606401610d3a565b601b55565b5f6301e133808210612f2c57506107d0919050565b62ed4e008210612f3f57506105dc919050565b6276a7008210612f5257506104b0919050565b62278d008210612f655750610320919050565b506101f4919050565b612f766131f4565b6001600160a01b038116612f9f57604051631e4fbdf760e01b81525f6004820152602401610d3a565b61176b816133ce565b60126020525f908152604090208054600182018054919291612fc9906147c4565b80601f0160208091040260200160405190810160405280929190818152602001828054612ff5906147c4565b80156130405780601f1061301757610100808354040283529160200191613040565b820191905f5260205f20905b81548152906001019060200180831161302357829003601f168201915b505050505090806002018054613055906147c4565b80601f0160208091040260200160405190810160405280929190818152602001828054613081906147c4565b80156130cc5780601f106130a3576101008083540402835291602001916130cc565b820191905f5260205f20905b8154815290600101906020018083116130af57829003601f168201915b5050505050908060030180546130e1906147c4565b80601f016020809104026020016040519081016040528092919081815260200182805461310d906147c4565b80156131585780601f1061312f57610100808354040283529160200191613158565b820191905f5260205f20905b81548152906001019060200180831161313b57829003601f168201915b50505060048401546005850154600786015460089096015494956001600160a01b039092169490935060ff909116915088565b5f6001600160e01b0319821663780e9d6360e01b1480610be35750610be382613725565b5f818152600260205260408120546001600160a01b031680610be357604051637e27328960e01b815260048101849052602401610d3a565b6111918383836001613749565b600b546001600160a01b031633146111755760405163118cdaa760e01b8152336004820152602401610d3a565b600d5460ff16156111755760405163d93c066560e01b815260040160405180910390fd5b610caa828260405180602001604052805f81525061384d565b5f828152600660205260409020613275828261486c565b506040518281527ff8e1a15aba9398e019f0b49df1a4fde98ee17ae345cb5f6b5e2c27f5033e8ce79060200160405180910390a15050565b5f612e93848484613864565b6132c161392f565b600d805460ff191690557f5db9ee0a495bf2e6ff9c91a7834c1ba4fdd244a5e8aa4e537bd38aeae4b073aa335b6040516001600160a01b03909116815260200160405180910390a1565b6002600c540361332e57604051633ee5aeb560e01b815260040160405180910390fd5b6002600c55565b6001600160a01b03821661335e57604051633250574960e11b81525f6004820152602401610d3a565b5f61336a83835f6132ad565b90506001600160a01b03811661339657604051637e27328960e01b815260048101839052602401610d3a565b836001600160a01b0316816001600160a01b031614610ff5578382826040516364283d7b60e01b8152600401610d3a93929190614945565b600b80546001600160a01b038381166001600160a01b0319831681179093556040519116919082907f8be0079c531659141344cd1fd0a4f28419497f9722a3daafe3b4186f6b6457e0905f90a35050565b613427613221565b600d805460ff191660011790557f62e78cea01bee320cd4e420270b5ea74000d11b0c9f74754ebdbfc544b05a2586132ee3390565b6001600160a01b03821661348e57604051630b61174360e31b81526001600160a01b0383166004820152602401610d3a565b6001600160a01b038381165f81815260056020908152604080832094871680845294825291829020805460ff191686151590811790915591519182527f17307eab39ab6107e8899845ad3d59bd9653f200f220920489ca2b5937696c31910160405180910390a3505050565b6001600160a01b0383163b1561361b57604051630a85bd0160e11b81526001600160a01b0384169063150b7a029061353c908890889087908790600401614a82565b6020604051808303815f875af1925050508015613576575060408051601f3d908101601f1916820190925261357391810190614ab4565b60015b6135dd573d8080156135a3576040519150601f19603f3d011682016040523d82523d5f602084013e6135a8565b606091505b5080515f036135d557604051633250574960e11b81526001600160a01b0385166004820152602401610d3a565b805160208201fd5b6001600160e01b03198116630a85bd0160e11b1461361957604051633250574960e11b81526001600160a01b0385166004820152602401610d3a565b505b5050505050565b606061362d826131af565b505f8281526006602052604081208054613646906147c4565b80601f0160208091040260200160405190810160405280929190818152602001828054613672906147c4565b80156136bd5780601f10613694576101008083540402835291602001916136bd565b820191905f5260205f20905b8154815290600101906020018083116136a057829003601f168201915b505050505090505f6136d960408051602081019091525f815290565b905080515f036136ea575092915050565b81511561371c578082604051602001613704929190614ae6565b60405160208183030381529060405292505050919050565b612e9384613952565b5f6001600160e01b03198216632483248360e11b1480610be35750610be3826139c3565b808061375d57506001600160a01b03821615155b1561381e575f61376c846131af565b90506001600160a01b038316158015906137985750826001600160a01b0316816001600160a01b031614155b80156137ab57506137a98184612e9b565b155b156137d45760405163a9fbf51f60e01b81526001600160a01b0384166004820152602401610d3a565b811561381c5783856001600160a01b0316826001600160a01b03167f8c5be1e5ebec7d5bd14f71427d1e84f3dd0314c0f7b2291e5b200ac8c7c3b92560405160405180910390a45b505b50505f90815260046020526040902080546001600160a01b0319166001600160a01b0392909216919091179055565b6138578383613a12565b611191335f8585856134fa565b5f5f613871858585613a73565b90506001600160a01b0381166138cd576138c884600980545f838152600a60205260408120829055600182018355919091527f6e1540171b6c0c960b71a7020d9f60077f6af931a8bbf590da0223dacf75c7af0155565b6138f0565b846001600160a01b0316816001600160a01b0316146138f0576138f08185613b65565b6001600160a01b03851661390c5761390784613be2565b612e93565b846001600160a01b0316816001600160a01b031614612e9357612e938585613c89565b600d5460ff1661117557604051638dfc202b60e01b815260040160405180910390fd5b606061395d826131af565b505f61397360408051602081019091525f815290565b90505f8151116139915760405180602001604052805f8152506139bc565b8061399b84613cd7565b6040516020016139ac929190614ae6565b6040516020818303038152906040525b9392505050565b5f6001600160e01b031982166380ac58cd60e01b14806139f357506001600160e01b03198216635b5e139f60e01b145b80610be357506301ffc9a760e01b6001600160e01b0319831614610be3565b6001600160a01b038216613a3b57604051633250574960e11b81525f6004820152602401610d3a565b5f613a4783835f6132ad565b90506001600160a01b03811615611191576040516339e3563760e11b81525f6004820152602401610d3a565b5f828152600260205260408120546001600160a01b0390811690831615613a9f57613a9f818486613d66565b6001600160a01b03811615613ad957613aba5f855f5f613749565b6001600160a01b0381165f90815260036020526040902080545f190190555b6001600160a01b03851615613b07576001600160a01b0385165f908152600360205260409020805460010190555b5f8481526002602052604080822080546001600160a01b0319166001600160a01b0389811691821790925591518793918516917fddf252ad1be2c89b69c2b068fc378daa952ba7f163c4a11628f55a4df523b3ef91a4949350505050565b5f613b6f83611b57565b5f838152600860209081526040808320546001600160a01b0388168452600790925290912091925090818314613bc4575f83815260208281526040808320548584528184208190558352600890915290208290555b5f938452600860209081526040808620869055938552525081205550565b6009545f90613bf390600190614a09565b5f838152600a602052604081205460098054939450909284908110613c1a57613c1a6149bf565b905f5260205f20015490508060098381548110613c3957613c396149bf565b5f918252602080832090910192909255828152600a90915260408082208490558582528120556009805480613c7057613c70614afa565b600190038181905f5260205f20015f9055905550505050565b5f6001613c9584611b57565b613c9f9190614a09565b6001600160a01b039093165f908152600760209081526040808320868452825280832085905593825260089052919091209190915550565b60605f613ce383613dca565b60010190505f816001600160401b03811115613d0157613d016140ec565b6040519080825280601f01601f191660200182016040528015613d2b576020820181803683370190505b5090508181016020015b5f19016f181899199a1a9b1b9c1cb0b131b232b360811b600a86061a8153600a8504945084613d3557509392505050565b613d71838383613ea1565b611191576001600160a01b038316613d9f57604051637e27328960e01b815260048101829052602401610d3a565b60405163177e802f60e01b81526001600160a01b038316600482015260248101829052604401610d3a565b5f8072184f03e93ff9f4daa797ed6e38ed64bf6a1f0160401b8310613e085772184f03e93ff9f4daa797ed6e38ed64bf6a1f0160401b830492506040015b6d04ee2d6d415b85acef81000000008310613e34576d04ee2d6d415b85acef8100000000830492506020015b662386f26fc100008310613e5257662386f26fc10000830492506010015b6305f5e1008310613e6a576305f5e100830492506008015b6127108310613e7e57612710830492506004015b60648310613e90576064830492506002015b600a8310610be35760010192915050565b5f6001600160a01b03831615801590612e935750826001600160a01b0316846001600160a01b03161480613eda5750613eda8484612e9b565b80612e935750505f908152600460205260409020546001600160a01b03908116911614919050565b828054828255905f5260205f20908101928215613f46579160200282015b82811115613f465782518290613f36908261486c565b5091602001919060010190613f20565b50613f52929150613f9b565b5090565b828054828255905f5260205f20908101928215613f8f579160200282015b82811115613f8f578251825591602001919060010190613f74565b50613f52929150613fb7565b80821115613f52575f613fae8282613fcb565b50600101613f9b565b5b80821115613f52575f8155600101613fb8565b508054613fd7906147c4565b5f825580601f10613fe6575050565b601f0160209004905f5260205f209081019061176b9190613fb7565b6001600160e01b03198116811461176b575f5ffd5b5f60208284031215614027575f5ffd5b81356139bc81614002565b5f81518084528060208401602086015e5f602082860101526020601f19601f83011685010191505092915050565b602081525f6139bc6020830184614032565b5f60208284031215614082575f5ffd5b5035919050565b80356001600160a01b038116811461409f575f5ffd5b919050565b5f5f604083850312156140b5575f5ffd5b6140be83614089565b946020939093013593505050565b5f5f604083850312156140dd575f5ffd5b50508035926020909101359150565b634e487b7160e01b5f52604160045260245ffd5b604051601f8201601f191681016001600160401b0381118282101715614128576141286140ec565b604052919050565b5f5f6001600160401b03841115614149576141496140ec565b50601f8301601f191660200161415e81614100565b915050828152838383011115614172575f5ffd5b828260208301375f602084830101529392505050565b5f82601f830112614197575f5ffd5b6139bc83833560208501614130565b80356006811061409f575f5ffd5b5f5f5f5f5f60a086880312156141c8575f5ffd5b85356001600160401b038111156141dd575f5ffd5b6141e988828901614188565b95505060208601356001600160401b03811115614204575f5ffd5b61421088828901614188565b94505061421f604087016141a6565b925060608601356001600160401b03811115614239575f5ffd5b61424588828901614188565b92505060808601356001600160401b03811115614260575f5ffd5b61426c88828901614188565b9150509295509295909350565b5f5f5f6060848603121561428b575f5ffd5b61429484614089565b92506142a260208501614089565b929592945050506040919091013590565b5f602082840312156142c3575f5ffd5b6139bc82614089565b634e487b7160e01b5f52602160045260245ffd5b600681106142fc57634e487b7160e01b5f52602160045260245ffd5b9052565b61016081525f61431461016083018e614032565b8281036020840152614326818e614032565b9050614335604084018d6142e0565b8281036060840152614347818c614032565b608084019a909a5250506001600160a01b0396871660a08201529490951660c085015260e084019290925261010083015215156101208201526101400152949350505050565b602080825282518282018190525f918401906040840190835b818110156143c45783518352602093840193909201916001016143a6565b509095945050505050565b5f82601f8301126143de575f5ffd5b81356001600160401b038111156143f7576143f76140ec565b8060051b61440760208201614100565b91825260208185018101929081019086841115614422575f5ffd5b6020860192505b838310156144675782356001600160401b03811115614446575f5ffd5b614455886020838a0101614188565b83525060209283019290910190614429565b9695505050505050565b5f5f5f5f5f5f5f5f610100898b031215614489575f5ffd5b88356001600160401b0381111561449e575f5ffd5b6144aa8b828c01614188565b98505060208901356001600160401b038111156144c5575f5ffd5b6144d18b828c01614188565b9750506144e060408a016141a6565b955060608901356001600160401b038111156144fa575f5ffd5b6145068b828c01614188565b95505060808901356001600160401b03811115614521575f5ffd5b61452d8b828c016143cf565b94505060a08901356001600160401b03811115614548575f5ffd5b6145548b828c016143cf565b93505060c0890135915060e08901356001600160401b03811115614576575f5ffd5b6145828b828c01614188565b9150509295985092959890939650565b801515811461176b575f5ffd5b5f5f5f5f608085870312156145b2575f5ffd5b84356001600160401b038111156145c7575f5ffd5b6145d387828801614188565b94505060208501356001600160401b038111156145ee575f5ffd5b6145fa87828801614188565b93505060408501356001600160401b03811115614615575f5ffd5b61462187828801614188565b925050606085013561463281614592565b939692955090935050565b5f5f6040838503121561464e575f5ffd5b61465783614089565b9150602083013561466781614592565b809150509250929050565b5f5f5f5f60808587031215614685575f5ffd5b61468e85614089565b935061469c60208601614089565b92506040850135915060608501356001600160401b038111156146bd575f5ffd5b8501601f810187136146cd575f5ffd5b6146dc87823560208401614130565b91505092959194509250565b5f5f5f5f608085870312156146fb575f5ffd5b61470485614089565b93506020850135925060408501359150606085013561463281614592565b5f5f60408385031215614733575f5ffd5b61473c83614089565b915061474a60208401614089565b90509250929050565b88815261010060208201525f61476d61010083018a614032565b828103604084015261477f818a614032565b905082810360608401526147938189614032565b6001600160a01b03979097166080840152505060a081019390935290151560c083015260e090910152949350505050565b600181811c908216806147d857607f821691505b6020821081036147f657634e487b7160e01b5f52602260045260245ffd5b50919050565b634e487b7160e01b5f52601160045260245ffd5b5f60018201614821576148216147fc565b5060010190565b601f82111561119157805f5260205f20601f840160051c8101602085101561484d5750805b601f840160051c820191505b8181101561361b575f8155600101614859565b81516001600160401b03811115614885576148856140ec565b6148998161489384546147c4565b84614828565b6020601f8211600181146148cb575f83156148b45750848201515b5f19600385901b1c1916600184901b17845561361b565b5f84815260208120601f198516915b828110156148fa57878501518255602094850194600190920191016148da565b508482101561491757868401515f19600387901b60f8161c191681555b50505050600190811b01905550565b61493081846142e0565b604060208201525f612e936040830184614032565b6001600160a01b0393841681526020810192909252909116604082015260600190565b6020808252600f908201526e496e76616c6964206164647265737360881b604082015260600190565b6020808252601490820152732737ba1031b7b63632b1ba34b7b71037bbb732b960611b604082015260600190565b634e487b7160e01b5f52603260045260245ffd5b8082028115828204841417610be357610be36147fc565b5f82614a0457634e487b7160e01b5f52601260045260245ffd5b500490565b81810381811115610be357610be36147fc565b5f60208284031215614a2c575f5ffd5b81516139bc81614592565b80820180821115610be357610be36147fc565b5f60208284031215614a5a575f5ffd5b5051919050565b604081525f614a736040830185614032565b90508260208301529392505050565b6001600160a01b03858116825284166020820152604081018390526080606082018190525f9061446790830184614032565b5f60208284031215614ac4575f5ffd5b81516139bc81614002565b5f81518060208401855e5f93019283525090919050565b5f612e93614af48386614acf565b84614acf565b634e487b7160e01b5f52603160045260245ffdfea2646970667358221220f8c61b3e3bd0d14a871fc514cb53ae37eb8d62953956b2cbadb4cdd2e4ffa52664736f6c634300081c0033","opcodes":"PUSH1 0x80 PUSH1 0x40 MSTORE PUSH1 0xFA PUSH1 0x16 SSTORE CALLVALUE DUP1 ISZERO PUSH2 0x14 JUMPI PUSH0 PUSH0 REVERT JUMPDEST POP PUSH1 0x40 MLOAD PUSH2 0x4EC8 CODESIZE SUB DUP1 PUSH2 0x4EC8 DUP4 CODECOPY DUP2 ADD PUSH1 0x40 DUP2 SWAP1 MSTORE PUSH2 0x33 SWAP2 PUSH2 0x1DB JUMP JUMPDEST CALLER PUSH1 0x40 MLOAD DUP1 PUSH1 0x40 ADD PUSH1 0x40 MSTORE DUP1 PUSH1 0x10 DUP2 MSTORE PUSH1 0x20 ADD PUSH16 0x10DC9E5C1D1BD31BD8DAD95C88139195 PUSH1 0x82 SHL DUP2 MSTORE POP PUSH1 0x40 MLOAD DUP1 PUSH1 0x40 ADD PUSH1 0x40 MSTORE DUP1 PUSH1 0x5 DUP2 MSTORE PUSH1 0x20 ADD PUSH5 0x10D3139195 PUSH1 0xDA SHL DUP2 MSTORE POP DUP2 PUSH0 SWAP1 DUP2 PUSH2 0x89 SWAP2 SWAP1 PUSH2 0x2BD JUMP JUMPDEST POP PUSH1 0x1 PUSH2 0x96 DUP3 DUP3 PUSH2 0x2BD JUMP JUMPDEST POP POP POP PUSH1 0x1 PUSH1 0x1 PUSH1 0xA0 SHL SUB DUP2 AND PUSH2 0xC6 JUMPI PUSH1 0x40 MLOAD PUSH4 0x1E4FBDF7 PUSH1 0xE0 SHL DUP2 MSTORE PUSH0 PUSH1 0x4 DUP3 ADD MSTORE PUSH1 0x24 ADD PUSH1 0x40 MLOAD DUP1 SWAP2 SUB SWAP1 REVERT JUMPDEST PUSH2 0xCF DUP2 PUSH2 0x16F JUMP JUMPDEST POP PUSH1 0x1 PUSH1 0xC DUP2 SWAP1 SSTORE PUSH1 0x1A DUP1 SLOAD PUSH1 0x1 PUSH1 0x1 PUSH1 0xA0 SHL SUB DUP1 DUP9 AND PUSH1 0x1 PUSH1 0x1 PUSH1 0xA0 SHL SUB NOT SWAP3 DUP4 AND OR SWAP1 SWAP3 SSTORE PUSH1 0x1B DUP7 SWAP1 SSTORE PUSH1 0x1C DUP1 SLOAD DUP7 DUP5 AND SWAP1 DUP4 AND OR SWAP1 SSTORE PUSH1 0x1D DUP1 SLOAD SWAP3 DUP6 AND SWAP3 DUP3 AND SWAP3 SWAP1 SWAP3 OR SWAP1 SWAP2 SSTORE PUSH1 0x17 DUP1 SLOAD SWAP1 SWAP2 AND CALLER OR SWAP1 SSTORE CHAINID PUSH0 DUP2 DUP2 MSTORE PUSH1 0x15 PUSH1 0x20 MSTORE PUSH1 0x40 DUP1 DUP3 KECCAK256 DUP1 SLOAD PUSH1 0xFF NOT AND SWAP1 SWAP5 OR SWAP1 SWAP4 SSTORE SWAP2 MLOAD SWAP1 SWAP2 PUSH32 0xBBA9D55E9FD1A441B1617724E2FDB76777D15EC77AB2B72AC15952CBE97085DB SWAP2 LOG2 POP POP POP POP PUSH2 0x377 JUMP JUMPDEST PUSH1 0xB DUP1 SLOAD PUSH1 0x1 PUSH1 0x1 PUSH1 0xA0 SHL SUB DUP4 DUP2 AND PUSH1 0x1 PUSH1 0x1 PUSH1 0xA0 SHL SUB NOT DUP4 AND DUP2 OR SWAP1 SWAP4 SSTORE PUSH1 0x40 MLOAD SWAP2 AND SWAP2 SWAP1 DUP3 SWAP1 PUSH32 0x8BE0079C531659141344CD1FD0A4F28419497F9722A3DAAFE3B4186F6B6457E0 SWAP1 PUSH0 SWAP1 LOG3 POP POP JUMP JUMPDEST DUP1 MLOAD PUSH1 0x1 PUSH1 0x1 PUSH1 0xA0 SHL SUB DUP2 AND DUP2 EQ PUSH2 0x1D6 JUMPI PUSH0 PUSH0 REVERT JUMPDEST SWAP2 SWAP1 POP JUMP JUMPDEST PUSH0 PUSH0 PUSH0 PUSH0 PUSH1 0x80 DUP6 DUP8 SUB SLT ISZERO PUSH2 0x1EE JUMPI PUSH0 PUSH0 REVERT JUMPDEST PUSH2 0x1F7 DUP6 PUSH2 0x1C0 JUMP JUMPDEST SWAP4 POP PUSH1 0x20 DUP6 ADD MLOAD SWAP3 POP PUSH2 0x20C PUSH1 0x40 DUP7 ADD PUSH2 0x1C0 JUMP JUMPDEST SWAP2 POP PUSH2 0x21A PUSH1 0x60 DUP7 ADD PUSH2 0x1C0 JUMP JUMPDEST SWAP1 POP SWAP3 SWAP6 SWAP2 SWAP5 POP SWAP3 POP JUMP JUMPDEST PUSH4 0x4E487B71 PUSH1 0xE0 SHL PUSH0 MSTORE PUSH1 0x41 PUSH1 0x4 MSTORE PUSH1 0x24 PUSH0 REVERT JUMPDEST PUSH1 0x1 DUP2 DUP2 SHR SWAP1 DUP3 AND DUP1 PUSH2 0x24D JUMPI PUSH1 0x7F DUP3 AND SWAP2 POP JUMPDEST PUSH1 0x20 DUP3 LT DUP2 SUB PUSH2 0x26B JUMPI PUSH4 0x4E487B71 PUSH1 0xE0 SHL PUSH0 MSTORE PUSH1 0x22 PUSH1 0x4 MSTORE PUSH1 0x24 PUSH0 REVERT JUMPDEST POP SWAP2 SWAP1 POP JUMP JUMPDEST PUSH1 0x1F DUP3 GT ISZERO PUSH2 0x2B8 JUMPI DUP1 PUSH0 MSTORE PUSH1 0x20 PUSH0 KECCAK256 PUSH1 0x1F DUP5 ADD PUSH1 0x5 SHR DUP2 ADD PUSH1 0x20 DUP6 LT ISZERO PUSH2 0x296 JUMPI POP DUP1 JUMPDEST PUSH1 0x1F DUP5 ADD PUSH1 0x5 SHR DUP3 ADD SWAP2 POP JUMPDEST DUP2 DUP2 LT ISZERO PUSH2 0x2B5 JUMPI PUSH0 DUP2 SSTORE PUSH1 0x1 ADD PUSH2 0x2A2 JUMP JUMPDEST POP POP JUMPDEST POP POP POP JUMP JUMPDEST DUP2 MLOAD PUSH1 0x1 PUSH1 0x1 PUSH1 0x40 SHL SUB DUP2 GT ISZERO PUSH2 0x2D6 JUMPI PUSH2 0x2D6 PUSH2 0x225 JUMP JUMPDEST PUSH2 0x2EA DUP2 PUSH2 0x2E4 DUP5 SLOAD PUSH2 0x239 JUMP JUMPDEST DUP5 PUSH2 0x271 JUMP JUMPDEST PUSH1 0x20 PUSH1 0x1F DUP3 GT PUSH1 0x1 DUP2 EQ PUSH2 0x31C JUMPI PUSH0 DUP4 ISZERO PUSH2 0x305 JUMPI POP DUP5 DUP3 ADD MLOAD JUMPDEST PUSH0 NOT PUSH1 0x3 DUP6 SWAP1 SHL SHR NOT AND PUSH1 0x1 DUP5 SWAP1 SHL OR DUP5 SSTORE PUSH2 0x2B5 JUMP JUMPDEST PUSH0 DUP5 DUP2 MSTORE PUSH1 0x20 DUP2 KECCAK256 PUSH1 0x1F NOT DUP6 AND SWAP2 JUMPDEST DUP3 DUP2 LT ISZERO PUSH2 0x34B JUMPI DUP8 DUP6 ADD MLOAD DUP3 SSTORE PUSH1 0x20 SWAP5 DUP6 ADD SWAP5 PUSH1 0x1 SWAP1 SWAP3 ADD SWAP2 ADD PUSH2 0x32B JUMP JUMPDEST POP DUP5 DUP3 LT ISZERO PUSH2 0x368 JUMPI DUP7 DUP5 ADD MLOAD PUSH0 NOT PUSH1 0x3 DUP8 SWAP1 SHL PUSH1 0xF8 AND SHR NOT AND DUP2 SSTORE JUMPDEST POP POP POP POP PUSH1 0x1 SWAP1 DUP2 SHL ADD SWAP1 SSTORE POP JUMP JUMPDEST PUSH2 0x4B44 DUP1 PUSH2 0x384 PUSH0 CODECOPY PUSH0 RETURN INVALID PUSH1 0x80 PUSH1 0x40 MSTORE PUSH1 0x4 CALLDATASIZE LT PUSH2 0x392 JUMPI PUSH0 CALLDATALOAD PUSH1 0xE0 SHR DUP1 PUSH4 0x70A08231 GT PUSH2 0x1DE JUMPI DUP1 PUSH4 0xB0793313 GT PUSH2 0x108 JUMPI DUP1 PUSH4 0xE6A478B3 GT PUSH2 0x9D JUMPI DUP1 PUSH4 0xEEEE849B GT PUSH2 0x6D JUMPI DUP1 PUSH4 0xEEEE849B EQ PUSH2 0xB49 JUMPI DUP1 PUSH4 0xF2FDE38B EQ PUSH2 0xB68 JUMPI DUP1 PUSH4 0xFA2AF9DA EQ PUSH2 0xB87 JUMPI DUP1 PUSH4 0xFDBDA0EC EQ PUSH2 0xBA6 JUMPI PUSH0 PUSH0 REVERT JUMPDEST DUP1 PUSH4 0xE6A478B3 EQ PUSH2 0xACD JUMPI DUP1 PUSH4 0xE972261D EQ PUSH2 0xAEC JUMPI DUP1 PUSH4 0xE985E9C5 EQ PUSH2 0xB0B JUMPI DUP1 PUSH4 0xEDA42604 EQ PUSH2 0xB2A JUMPI PUSH0 PUSH0 REVERT JUMPDEST DUP1 PUSH4 0xBEA9849E GT PUSH2 0xD8 JUMPI DUP1 PUSH4 0xBEA9849E EQ PUSH2 0x9F9 JUMPI DUP1 PUSH4 0xC87B56DD EQ PUSH2 0xA18 JUMPI DUP1 PUSH4 0xDA2CA9B5 EQ PUSH2 0xA37 JUMPI DUP1 PUSH4 0xDE74E57B EQ PUSH2 0xA56 JUMPI PUSH0 PUSH0 REVERT JUMPDEST DUP1 PUSH4 0xB0793313 EQ PUSH2 0x934 JUMPI DUP1 PUSH4 0xB425F802 EQ PUSH2 0x953 JUMPI DUP1 PUSH4 0xB83ABBE4 EQ PUSH2 0x9BB JUMPI DUP1 PUSH4 0xB88D4FDE EQ PUSH2 0x9DA JUMPI PUSH0 PUSH0 REVERT JUMPDEST DUP1 PUSH4 0x8DA5CB5B GT PUSH2 0x17E JUMPI DUP1 PUSH4 0x9AA5AD8C GT PUSH2 0x14E JUMPI DUP1 PUSH4 0x9AA5AD8C EQ PUSH2 0x8B8 JUMPI DUP1 PUSH4 0x9E889B4C EQ PUSH2 0x8D7 JUMPI DUP1 PUSH4 0xA03E4BC3 EQ PUSH2 0x8F6 JUMPI DUP1 PUSH4 0xA22CB465 EQ PUSH2 0x915 JUMPI PUSH0 PUSH0 REVERT JUMPDEST DUP1 PUSH4 0x8DA5CB5B EQ PUSH2 0x849 JUMPI DUP1 PUSH4 0x8E657B58 EQ PUSH2 0x866 JUMPI DUP1 PUSH4 0x94383F14 EQ PUSH2 0x885 JUMPI DUP1 PUSH4 0x95D89B41 EQ PUSH2 0x8A4 JUMPI PUSH0 PUSH0 REVERT JUMPDEST DUP1 PUSH4 0x7C405325 GT PUSH2 0x1B9 JUMPI DUP1 PUSH4 0x7C405325 EQ PUSH2 0x7D8 JUMPI DUP1 PUSH4 0x8456CB59 EQ PUSH2 0x7F7 JUMPI DUP1 PUSH4 0x87188A00 EQ PUSH2 0x80B JUMPI DUP1 PUSH4 0x8831E9CF EQ PUSH2 0x82A JUMPI PUSH0 PUSH0 REVERT JUMPDEST DUP1 PUSH4 0x70A08231 EQ PUSH2 0x786 JUMPI DUP1 PUSH4 0x715018A6 EQ PUSH2 0x7A5 JUMPI DUP1 PUSH4 0x735DE9F7 EQ PUSH2 0x7B9 JUMPI PUSH0 PUSH0 REVERT JUMPDEST DUP1 PUSH4 0x349F937C GT PUSH2 0x2BF JUMPI DUP1 PUSH4 0x51ED8288 GT PUSH2 0x25F JUMPI DUP1 PUSH4 0x6352211E GT PUSH2 0x22F JUMPI DUP1 PUSH4 0x6352211E EQ PUSH2 0x714 JUMPI DUP1 PUSH4 0x6388749C EQ PUSH2 0x733 JUMPI DUP1 PUSH4 0x6C3D7E1D EQ PUSH2 0x748 JUMPI DUP1 PUSH4 0x6DD408B4 EQ PUSH2 0x767 JUMPI PUSH0 PUSH0 REVERT JUMPDEST DUP1 PUSH4 0x51ED8288 EQ PUSH2 0x690 JUMPI DUP1 PUSH4 0x52DE4EE5 EQ PUSH2 0x6A3 JUMPI DUP1 PUSH4 0x548D496F EQ PUSH2 0x6CF JUMPI DUP1 PUSH4 0x5C975ABB EQ PUSH2 0x6FD JUMPI PUSH0 PUSH0 REVERT JUMPDEST DUP1 PUSH4 0x428A6171 GT PUSH2 0x29A JUMPI DUP1 PUSH4 0x428A6171 EQ PUSH2 0x5FD JUMPI DUP1 PUSH4 0x49541015 EQ PUSH2 0x61C JUMPI DUP1 PUSH4 0x4B129BEE EQ PUSH2 0x652 JUMPI DUP1 PUSH4 0x4F6CCCE7 EQ PUSH2 0x671 JUMPI PUSH0 PUSH0 REVERT JUMPDEST DUP1 PUSH4 0x349F937C EQ PUSH2 0x5AB JUMPI DUP1 PUSH4 0x3F4BA83A EQ PUSH2 0x5CA JUMPI DUP1 PUSH4 0x42842E0E EQ PUSH2 0x5DE JUMPI PUSH0 PUSH0 REVERT JUMPDEST DUP1 PUSH4 0x153DBAB8 GT PUSH2 0x335 JUMPI DUP1 PUSH4 0x26232A2E GT PUSH2 0x305 JUMPI DUP1 PUSH4 0x26232A2E EQ PUSH2 0x539 JUMPI DUP1 PUSH4 0x291C73C3 EQ PUSH2 0x54E JUMPI DUP1 PUSH4 0x2F745C59 EQ PUSH2 0x56D JUMPI DUP1 PUSH4 0x305A67A8 EQ PUSH2 0x58C JUMPI PUSH0 PUSH0 REVERT JUMPDEST DUP1 PUSH4 0x153DBAB8 EQ PUSH2 0x4BA JUMPI DUP1 PUSH4 0x18160DDD EQ PUSH2 0x4E7 JUMPI DUP1 PUSH4 0x2301D775 EQ PUSH2 0x4FB JUMPI DUP1 PUSH4 0x23B872DD EQ PUSH2 0x51A JUMPI PUSH0 PUSH0 REVERT JUMPDEST DUP1 PUSH4 0x95EA7B3 GT PUSH2 0x370 JUMPI DUP1 PUSH4 0x95EA7B3 EQ PUSH2 0x422 JUMPI DUP1 PUSH4 0xC4844AA EQ PUSH2 0x443 JUMPI DUP1 PUSH4 0x12E8E2C3 EQ PUSH2 0x462 JUMPI DUP1 PUSH4 0x14232534 EQ PUSH2 0x481 JUMPI PUSH0 PUSH0 REVERT JUMPDEST DUP1 PUSH4 0x1FFC9A7 EQ PUSH2 0x396 JUMPI DUP1 PUSH4 0x6FDDE03 EQ PUSH2 0x3CA JUMPI DUP1 PUSH4 0x81812FC EQ PUSH2 0x3EB JUMPI JUMPDEST PUSH0 PUSH0 REVERT JUMPDEST CALLVALUE DUP1 ISZERO PUSH2 0x3A1 JUMPI PUSH0 PUSH0 REVERT JUMPDEST POP PUSH2 0x3B5 PUSH2 0x3B0 CALLDATASIZE PUSH1 0x4 PUSH2 0x4017 JUMP JUMPDEST PUSH2 0xBD9 JUMP JUMPDEST PUSH1 0x40 MLOAD SWAP1 ISZERO ISZERO DUP2 MSTORE PUSH1 0x20 ADD JUMPDEST PUSH1 0x40 MLOAD DUP1 SWAP2 SUB SWAP1 RETURN JUMPDEST CALLVALUE DUP1 ISZERO PUSH2 0x3D5 JUMPI PUSH0 PUSH0 REVERT JUMPDEST POP PUSH2 0x3DE PUSH2 0xBE9 JUMP JUMPDEST PUSH1 0x40 MLOAD PUSH2 0x3C1 SWAP2 SWAP1 PUSH2 0x4060 JUMP JUMPDEST CALLVALUE DUP1 ISZERO PUSH2 0x3F6 JUMPI PUSH0 PUSH0 REVERT JUMPDEST POP PUSH2 0x40A PUSH2 0x405 CALLDATASIZE PUSH1 0x4 PUSH2 0x4072 JUMP JUMPDEST PUSH2 0xC78 JUMP JUMPDEST PUSH1 0x40 MLOAD PUSH1 0x1 PUSH1 0x1 PUSH1 0xA0 SHL SUB SWAP1 SWAP2 AND DUP2 MSTORE PUSH1 0x20 ADD PUSH2 0x3C1 JUMP JUMPDEST CALLVALUE DUP1 ISZERO PUSH2 0x42D JUMPI PUSH0 PUSH0 REVERT JUMPDEST POP PUSH2 0x441 PUSH2 0x43C CALLDATASIZE PUSH1 0x4 PUSH2 0x40A4 JUMP JUMPDEST PUSH2 0xC9F JUMP JUMPDEST STOP JUMPDEST CALLVALUE DUP1 ISZERO PUSH2 0x44E JUMPI PUSH0 PUSH0 REVERT JUMPDEST POP PUSH2 0x441 PUSH2 0x45D CALLDATASIZE PUSH1 0x4 PUSH2 0x4072 JUMP JUMPDEST PUSH2 0xCAE JUMP JUMPDEST CALLVALUE DUP1 ISZERO PUSH2 0x46D JUMPI PUSH0 PUSH0 REVERT JUMPDEST POP PUSH2 0x441 PUSH2 0x47C CALLDATASIZE PUSH1 0x4 PUSH2 0x4072 JUMP JUMPDEST PUSH2 0xCF5 JUMP JUMPDEST CALLVALUE DUP1 ISZERO PUSH2 0x48C JUMPI PUSH0 PUSH0 REVERT JUMPDEST POP PUSH2 0x3B5 PUSH2 0x49B CALLDATASIZE PUSH1 0x4 PUSH2 0x40CC JUMP JUMPDEST PUSH1 0x14 PUSH1 0x20 SWAP1 DUP2 MSTORE PUSH0 SWAP3 DUP4 MSTORE PUSH1 0x40 DUP1 DUP5 KECCAK256 SWAP1 SWAP2 MSTORE SWAP1 DUP3 MSTORE SWAP1 KECCAK256 SLOAD PUSH1 0xFF AND DUP2 JUMP JUMPDEST CALLVALUE DUP1 ISZERO PUSH2 0x4C5 JUMPI PUSH0 PUSH0 REVERT JUMPDEST POP PUSH2 0x4D9 PUSH2 0x4D4 CALLDATASIZE PUSH1 0x4 PUSH2 0x41B4 JUMP JUMPDEST PUSH2 0xD48 JUMP JUMPDEST PUSH1 0x40 MLOAD SWAP1 DUP2 MSTORE PUSH1 0x20 ADD PUSH2 0x3C1 JUMP JUMPDEST CALLVALUE DUP1 ISZERO PUSH2 0x4F2 JUMPI PUSH0 PUSH0 REVERT JUMPDEST POP PUSH1 0x9 SLOAD PUSH2 0x4D9 JUMP JUMPDEST CALLVALUE DUP1 ISZERO PUSH2 0x506 JUMPI PUSH0 PUSH0 REVERT JUMPDEST POP PUSH1 0x1A SLOAD PUSH2 0x40A SWAP1 PUSH1 0x1 PUSH1 0x1 PUSH1 0xA0 SHL SUB AND DUP2 JUMP JUMPDEST CALLVALUE DUP1 ISZERO PUSH2 0x525 JUMPI PUSH0 PUSH0 REVERT JUMPDEST POP PUSH2 0x441 PUSH2 0x534 CALLDATASIZE PUSH1 0x4 PUSH2 0x4279 JUMP JUMPDEST PUSH2 0xF86 JUMP JUMPDEST CALLVALUE DUP1 ISZERO PUSH2 0x544 JUMPI PUSH0 PUSH0 REVERT JUMPDEST POP PUSH2 0x4D9 PUSH1 0x16 SLOAD DUP2 JUMP JUMPDEST CALLVALUE DUP1 ISZERO PUSH2 0x559 JUMPI PUSH0 PUSH0 REVERT JUMPDEST POP PUSH2 0x4D9 PUSH2 0x568 CALLDATASIZE PUSH1 0x4 PUSH2 0x40A4 JUMP JUMPDEST PUSH2 0xFFB JUMP JUMPDEST CALLVALUE DUP1 ISZERO PUSH2 0x578 JUMPI PUSH0 PUSH0 REVERT JUMPDEST POP PUSH2 0x4D9 PUSH2 0x587 CALLDATASIZE PUSH1 0x4 PUSH2 0x40A4 JUMP JUMPDEST PUSH2 0x1026 JUMP JUMPDEST CALLVALUE DUP1 ISZERO PUSH2 0x597 JUMPI PUSH0 PUSH0 REVERT JUMPDEST POP PUSH2 0x441 PUSH2 0x5A6 CALLDATASIZE PUSH1 0x4 PUSH2 0x4072 JUMP JUMPDEST PUSH2 0x1089 JUMP JUMPDEST CALLVALUE DUP1 ISZERO PUSH2 0x5B6 JUMPI PUSH0 PUSH0 REVERT JUMPDEST POP PUSH2 0x441 PUSH2 0x5C5 CALLDATASIZE PUSH1 0x4 PUSH2 0x42B3 JUMP JUMPDEST PUSH2 0x1115 JUMP JUMPDEST CALLVALUE DUP1 ISZERO PUSH2 0x5D5 JUMPI PUSH0 PUSH0 REVERT JUMPDEST POP PUSH2 0x441 PUSH2 0x1165 JUMP JUMPDEST CALLVALUE DUP1 ISZERO PUSH2 0x5E9 JUMPI PUSH0 PUSH0 REVERT JUMPDEST POP PUSH2 0x441 PUSH2 0x5F8 CALLDATASIZE PUSH1 0x4 PUSH2 0x4279 JUMP JUMPDEST PUSH2 0x1177 JUMP JUMPDEST CALLVALUE DUP1 ISZERO PUSH2 0x608 JUMPI PUSH0 PUSH0 REVERT JUMPDEST POP PUSH2 0x4D9 PUSH2 0x617 CALLDATASIZE PUSH1 0x4 PUSH2 0x40A4 JUMP JUMPDEST PUSH2 0x1196 JUMP JUMPDEST CALLVALUE DUP1 ISZERO PUSH2 0x627 JUMPI PUSH0 PUSH0 REVERT JUMPDEST POP PUSH2 0x63B PUSH2 0x636 CALLDATASIZE PUSH1 0x4 PUSH2 0x4072 JUMP JUMPDEST PUSH2 0x11AF JUMP JUMPDEST PUSH1 0x40 MLOAD PUSH2 0x3C1 SWAP12 SWAP11 SWAP10 SWAP9 SWAP8 SWAP7 SWAP6 SWAP5 SWAP4 SWAP3 SWAP2 SWAP1 PUSH2 0x4300 JUMP JUMPDEST CALLVALUE DUP1 ISZERO PUSH2 0x65D JUMPI PUSH0 PUSH0 REVERT JUMPDEST POP PUSH2 0x441 PUSH2 0x66C CALLDATASIZE PUSH1 0x4 PUSH2 0x40CC JUMP JUMPDEST PUSH2 0x13AD JUMP JUMPDEST CALLVALUE DUP1 ISZERO PUSH2 0x67C JUMPI PUSH0 PUSH0 REVERT JUMPDEST POP PUSH2 0x4D9 PUSH2 0x68B CALLDATASIZE PUSH1 0x4 PUSH2 0x4072 JUMP JUMPDEST PUSH2 0x149C JUMP JUMPDEST PUSH2 0x441 PUSH2 0x69E CALLDATASIZE PUSH1 0x4 PUSH2 0x4072 JUMP JUMPDEST PUSH2 0x14F1 JUMP JUMPDEST CALLVALUE DUP1 ISZERO PUSH2 0x6AE JUMPI PUSH0 PUSH0 REVERT JUMPDEST POP PUSH2 0x6C2 PUSH2 0x6BD CALLDATASIZE PUSH1 0x4 PUSH2 0x42B3 JUMP JUMPDEST PUSH2 0x176E JUMP JUMPDEST PUSH1 0x40 MLOAD PUSH2 0x3C1 SWAP2 SWAP1 PUSH2 0x438D JUMP JUMPDEST CALLVALUE DUP1 ISZERO PUSH2 0x6DA JUMPI PUSH0 PUSH0 REVERT JUMPDEST POP PUSH2 0x3B5 PUSH2 0x6E9 CALLDATASIZE PUSH1 0x4 PUSH2 0x4072 JUMP JUMPDEST PUSH1 0x15 PUSH1 0x20 MSTORE PUSH0 SWAP1 DUP2 MSTORE PUSH1 0x40 SWAP1 KECCAK256 SLOAD PUSH1 0xFF AND DUP2 JUMP JUMPDEST CALLVALUE DUP1 ISZERO PUSH2 0x708 JUMPI PUSH0 PUSH0 REVERT JUMPDEST POP PUSH1 0xD SLOAD PUSH1 0xFF AND PUSH2 0x3B5 JUMP JUMPDEST CALLVALUE DUP1 ISZERO PUSH2 0x71F JUMPI PUSH0 PUSH0 REVERT JUMPDEST POP PUSH2 0x40A PUSH2 0x72E CALLDATASIZE PUSH1 0x4 PUSH2 0x4072 JUMP JUMPDEST PUSH2 0x17D7 JUMP JUMPDEST CALLVALUE DUP1 ISZERO PUSH2 0x73E JUMPI PUSH0 PUSH0 REVERT JUMPDEST POP PUSH2 0x4D9 PUSH1 0x1B SLOAD DUP2 JUMP JUMPDEST CALLVALUE DUP1 ISZERO PUSH2 0x753 JUMPI PUSH0 PUSH0 REVERT JUMPDEST POP PUSH2 0x441 PUSH2 0x762 CALLDATASIZE PUSH1 0x4 PUSH2 0x40A4 JUMP JUMPDEST PUSH2 0x17E1 JUMP JUMPDEST CALLVALUE DUP1 ISZERO PUSH2 0x772 JUMPI PUSH0 PUSH0 REVERT JUMPDEST POP PUSH2 0x4D9 PUSH2 0x781 CALLDATASIZE PUSH1 0x4 PUSH2 0x4471 JUMP JUMPDEST PUSH2 0x1857 JUMP JUMPDEST CALLVALUE DUP1 ISZERO PUSH2 0x791 JUMPI PUSH0 PUSH0 REVERT JUMPDEST POP PUSH2 0x4D9 PUSH2 0x7A0 CALLDATASIZE PUSH1 0x4 PUSH2 0x42B3 JUMP JUMPDEST PUSH2 0x1B57 JUMP JUMPDEST CALLVALUE DUP1 ISZERO PUSH2 0x7B0 JUMPI PUSH0 PUSH0 REVERT JUMPDEST POP PUSH2 0x441 PUSH2 0x1B9C JUMP JUMPDEST CALLVALUE DUP1 ISZERO PUSH2 0x7C4 JUMPI PUSH0 PUSH0 REVERT JUMPDEST POP PUSH1 0x1C SLOAD PUSH2 0x40A SWAP1 PUSH1 0x1 PUSH1 0x1 PUSH1 0xA0 SHL SUB AND DUP2 JUMP JUMPDEST CALLVALUE DUP1 ISZERO PUSH2 0x7E3 JUMPI PUSH0 PUSH0 REVERT JUMPDEST POP PUSH2 0x441 PUSH2 0x7F2 CALLDATASIZE PUSH1 0x4 PUSH2 0x4072 JUMP JUMPDEST PUSH2 0x1BAD JUMP JUMPDEST CALLVALUE DUP1 ISZERO PUSH2 0x802 JUMPI PUSH0 PUSH0 REVERT JUMPDEST POP PUSH2 0x441 PUSH2 0x1F68 JUMP JUMPDEST CALLVALUE DUP1 ISZERO PUSH2 0x816 JUMPI PUSH0 PUSH0 REVERT JUMPDEST POP PUSH2 0x441 PUSH2 0x825 CALLDATASIZE PUSH1 0x4 PUSH2 0x4072 JUMP JUMPDEST PUSH2 0x1F78 JUMP JUMPDEST CALLVALUE DUP1 ISZERO PUSH2 0x835 JUMPI PUSH0 PUSH0 REVERT JUMPDEST POP PUSH2 0x441 PUSH2 0x844 CALLDATASIZE PUSH1 0x4 PUSH2 0x42B3 JUMP JUMPDEST PUSH2 0x1FC2 JUMP JUMPDEST CALLVALUE DUP1 ISZERO PUSH2 0x854 JUMPI PUSH0 PUSH0 REVERT JUMPDEST POP PUSH1 0xB SLOAD PUSH1 0x1 PUSH1 0x1 PUSH1 0xA0 SHL SUB AND PUSH2 0x40A JUMP JUMPDEST CALLVALUE DUP1 ISZERO PUSH2 0x871 JUMPI PUSH0 PUSH0 REVERT JUMPDEST POP PUSH2 0x4D9 PUSH2 0x880 CALLDATASIZE PUSH1 0x4 PUSH2 0x459F JUMP JUMPDEST PUSH2 0x2012 JUMP JUMPDEST CALLVALUE DUP1 ISZERO PUSH2 0x890 JUMPI PUSH0 PUSH0 REVERT JUMPDEST POP PUSH2 0x441 PUSH2 0x89F CALLDATASIZE PUSH1 0x4 PUSH2 0x40CC JUMP JUMPDEST PUSH2 0x2196 JUMP JUMPDEST CALLVALUE DUP1 ISZERO PUSH2 0x8AF JUMPI PUSH0 PUSH0 REVERT JUMPDEST POP PUSH2 0x3DE PUSH2 0x22FC JUMP JUMPDEST CALLVALUE DUP1 ISZERO PUSH2 0x8C3 JUMPI PUSH0 PUSH0 REVERT JUMPDEST POP PUSH2 0x6C2 PUSH2 0x8D2 CALLDATASIZE PUSH1 0x4 PUSH2 0x42B3 JUMP JUMPDEST PUSH2 0x230B JUMP JUMPDEST CALLVALUE DUP1 ISZERO PUSH2 0x8E2 JUMPI PUSH0 PUSH0 REVERT JUMPDEST POP PUSH2 0x6C2 PUSH2 0x8F1 CALLDATASIZE PUSH1 0x4 PUSH2 0x4072 JUMP JUMPDEST PUSH2 0x2372 JUMP JUMPDEST CALLVALUE DUP1 ISZERO PUSH2 0x901 JUMPI PUSH0 PUSH0 REVERT JUMPDEST POP PUSH1 0x1D SLOAD PUSH2 0x40A SWAP1 PUSH1 0x1 PUSH1 0x1 PUSH1 0xA0 SHL SUB AND DUP2 JUMP JUMPDEST CALLVALUE DUP1 ISZERO PUSH2 0x920 JUMPI PUSH0 PUSH0 REVERT JUMPDEST POP PUSH2 0x441 PUSH2 0x92F CALLDATASIZE PUSH1 0x4 PUSH2 0x463D JUMP JUMPDEST PUSH2 0x2424 JUMP JUMPDEST CALLVALUE DUP1 ISZERO PUSH2 0x93F JUMPI PUSH0 PUSH0 REVERT JUMPDEST POP PUSH2 0x441 PUSH2 0x94E CALLDATASIZE PUSH1 0x4 PUSH2 0x4072 JUMP JUMPDEST PUSH2 0x242F JUMP JUMPDEST CALLVALUE DUP1 ISZERO PUSH2 0x95E JUMPI PUSH0 PUSH0 REVERT JUMPDEST POP PUSH2 0x972 PUSH2 0x96D CALLDATASIZE PUSH1 0x4 PUSH2 0x40A4 JUMP JUMPDEST PUSH2 0x2753 JUMP JUMPDEST PUSH1 0x40 DUP1 MLOAD PUSH1 0x1 PUSH1 0x1 PUSH1 0xA0 SHL SUB SWAP1 SWAP10 AND DUP10 MSTORE PUSH1 0x20 DUP10 ADD SWAP8 SWAP1 SWAP8 MSTORE SWAP6 DUP8 ADD SWAP5 SWAP1 SWAP5 MSTORE PUSH1 0x60 DUP7 ADD SWAP3 SWAP1 SWAP3 MSTORE ISZERO ISZERO PUSH1 0x80 DUP6 ADD MSTORE PUSH1 0xA0 DUP5 ADD MSTORE ISZERO ISZERO PUSH1 0xC0 DUP4 ADD MSTORE PUSH1 0xE0 DUP3 ADD MSTORE PUSH2 0x100 ADD PUSH2 0x3C1 JUMP JUMPDEST CALLVALUE DUP1 ISZERO PUSH2 0x9C6 JUMPI PUSH0 PUSH0 REVERT JUMPDEST POP PUSH2 0x441 PUSH2 0x9D5 CALLDATASIZE PUSH1 0x4 PUSH2 0x40CC JUMP JUMPDEST PUSH2 0x27C3 JUMP JUMPDEST CALLVALUE DUP1 ISZERO PUSH2 0x9E5 JUMPI PUSH0 PUSH0 REVERT JUMPDEST POP PUSH2 0x441 PUSH2 0x9F4 CALLDATASIZE PUSH1 0x4 PUSH2 0x4672 JUMP JUMPDEST PUSH2 0x297C JUMP JUMPDEST CALLVALUE DUP1 ISZERO PUSH2 0xA04 JUMPI PUSH0 PUSH0 REVERT JUMPDEST POP PUSH2 0x441 PUSH2 0xA13 CALLDATASIZE PUSH1 0x4 PUSH2 0x42B3 JUMP JUMPDEST PUSH2 0x2994 JUMP JUMPDEST CALLVALUE DUP1 ISZERO PUSH2 0xA23 JUMPI PUSH0 PUSH0 REVERT JUMPDEST POP PUSH2 0x3DE PUSH2 0xA32 CALLDATASIZE PUSH1 0x4 PUSH2 0x4072 JUMP JUMPDEST PUSH2 0x29E4 JUMP JUMPDEST CALLVALUE DUP1 ISZERO PUSH2 0xA42 JUMPI PUSH0 PUSH0 REVERT JUMPDEST POP PUSH2 0x441 PUSH2 0xA51 CALLDATASIZE PUSH1 0x4 PUSH2 0x42B3 JUMP JUMPDEST PUSH2 0x29EF JUMP JUMPDEST CALLVALUE DUP1 ISZERO PUSH2 0xA61 JUMPI PUSH0 PUSH0 REVERT JUMPDEST POP PUSH2 0xAA3 PUSH2 0xA70 CALLDATASIZE PUSH1 0x4 PUSH2 0x4072 JUMP JUMPDEST PUSH1 0x18 PUSH1 0x20 MSTORE PUSH0 SWAP1 DUP2 MSTORE PUSH1 0x40 SWAP1 KECCAK256 DUP1 SLOAD PUSH1 0x1 DUP3 ADD SLOAD PUSH1 0x2 DUP4 ADD SLOAD PUSH1 0x3 SWAP1 SWAP4 ADD SLOAD SWAP2 SWAP3 PUSH1 0x1 PUSH1 0x1 PUSH1 0xA0 SHL SUB SWAP1 SWAP2 AND SWAP2 PUSH1 0xFF AND DUP5 JUMP JUMPDEST PUSH1 0x40 DUP1 MLOAD SWAP5 DUP6 MSTORE PUSH1 0x1 PUSH1 0x1 PUSH1 0xA0 SHL SUB SWAP1 SWAP4 AND PUSH1 0x20 DUP6 ADD MSTORE SWAP2 DUP4 ADD MSTORE ISZERO ISZERO PUSH1 0x60 DUP3 ADD MSTORE PUSH1 0x80 ADD PUSH2 0x3C1 JUMP JUMPDEST CALLVALUE DUP1 ISZERO PUSH2 0xAD8 JUMPI PUSH0 PUSH0 REVERT JUMPDEST POP PUSH2 0x441 PUSH2 0xAE7 CALLDATASIZE PUSH1 0x4 PUSH2 0x46E8 JUMP JUMPDEST PUSH2 0x2A3F JUMP JUMPDEST CALLVALUE DUP1 ISZERO PUSH2 0xAF7 JUMPI PUSH0 PUSH0 REVERT JUMPDEST POP PUSH2 0x4D9 PUSH2 0xB06 CALLDATASIZE PUSH1 0x4 PUSH2 0x40CC JUMP JUMPDEST PUSH2 0x2E61 JUMP JUMPDEST CALLVALUE DUP1 ISZERO PUSH2 0xB16 JUMPI PUSH0 PUSH0 REVERT JUMPDEST POP PUSH2 0x3B5 PUSH2 0xB25 CALLDATASIZE PUSH1 0x4 PUSH2 0x4722 JUMP JUMPDEST PUSH2 0x2E9B JUMP JUMPDEST CALLVALUE DUP1 ISZERO PUSH2 0xB35 JUMPI PUSH0 PUSH0 REVERT JUMPDEST POP PUSH2 0x441 PUSH2 0xB44 CALLDATASIZE PUSH1 0x4 PUSH2 0x4072 JUMP JUMPDEST PUSH2 0x2EC8 JUMP JUMPDEST CALLVALUE DUP1 ISZERO PUSH2 0xB54 JUMPI PUSH0 PUSH0 REVERT JUMPDEST POP PUSH2 0x4D9 PUSH2 0xB63 CALLDATASIZE PUSH1 0x4 PUSH2 0x4072 JUMP JUMPDEST PUSH2 0x2F17 JUMP JUMPDEST CALLVALUE DUP1 ISZERO PUSH2 0xB73 JUMPI PUSH0 PUSH0 REVERT JUMPDEST POP PUSH2 0x441 PUSH2 0xB82 CALLDATASIZE PUSH1 0x4 PUSH2 0x42B3 JUMP JUMPDEST PUSH2 0x2F6E JUMP JUMPDEST CALLVALUE DUP1 ISZERO PUSH2 0xB92 JUMPI PUSH0 PUSH0 REVERT JUMPDEST POP PUSH1 0x17 SLOAD PUSH2 0x40A SWAP1 PUSH1 0x1 PUSH1 0x1 PUSH1 0xA0 SHL SUB AND DUP2 JUMP JUMPDEST CALLVALUE DUP1 ISZERO PUSH2 0xBB1 JUMPI PUSH0 PUSH0 REVERT JUMPDEST POP PUSH2 0xBC5 PUSH2 0xBC0 CALLDATASIZE PUSH1 0x4 PUSH2 0x4072 JUMP JUMPDEST PUSH2 0x2FA8 JUMP JUMPDEST PUSH1 0x40 MLOAD PUSH2 0x3C1 SWAP9 SWAP8 SWAP7 SWAP6 SWAP5 SWAP4 SWAP3 SWAP2 SWAP1 PUSH2 0x4753 JUMP JUMPDEST PUSH0 PUSH2 0xBE3 DUP3 PUSH2 0x318B JUMP JUMPDEST SWAP3 SWAP2 POP POP JUMP JUMPDEST PUSH1 0x60 PUSH0 DUP1 SLOAD PUSH2 0xBF7 SWAP1 PUSH2 0x47C4 JUMP JUMPDEST DUP1 PUSH1 0x1F ADD PUSH1 0x20 DUP1 SWAP2 DIV MUL PUSH1 0x20 ADD PUSH1 0x40 MLOAD SWAP1 DUP2 ADD PUSH1 0x40 MSTORE DUP1 SWAP3 SWAP2 SWAP1 DUP2 DUP2 MSTORE PUSH1 0x20 ADD DUP3 DUP1 SLOAD PUSH2 0xC23 SWAP1 PUSH2 0x47C4 JUMP JUMPDEST DUP1 ISZERO PUSH2 0xC6E JUMPI DUP1 PUSH1 0x1F LT PUSH2 0xC45 JUMPI PUSH2 0x100 DUP1 DUP4 SLOAD DIV MUL DUP4 MSTORE SWAP2 PUSH1 0x20 ADD SWAP2 PUSH2 0xC6E JUMP JUMPDEST DUP3 ADD SWAP2 SWAP1 PUSH0 MSTORE PUSH1 0x20 PUSH0 KECCAK256 SWAP1 JUMPDEST DUP2 SLOAD DUP2 MSTORE SWAP1 PUSH1 0x1 ADD SWAP1 PUSH1 0x20 ADD DUP1 DUP4 GT PUSH2 0xC51 JUMPI DUP3 SWAP1 SUB PUSH1 0x1F AND DUP3 ADD SWAP2 JUMPDEST POP POP POP POP POP SWAP1 POP SWAP1 JUMP JUMPDEST PUSH0 PUSH2 0xC82 DUP3 PUSH2 0x31AF JUMP JUMPDEST POP PUSH0 DUP3 DUP2 MSTORE PUSH1 0x4 PUSH1 0x20 MSTORE PUSH1 0x40 SWAP1 KECCAK256 SLOAD PUSH1 0x1 PUSH1 0x1 PUSH1 0xA0 SHL SUB AND PUSH2 0xBE3 JUMP JUMPDEST PUSH2 0xCAA DUP3 DUP3 CALLER PUSH2 0x31E7 JUMP JUMPDEST POP POP JUMP JUMPDEST PUSH2 0xCB6 PUSH2 0x31F4 JUMP JUMPDEST PUSH0 DUP2 DUP2 MSTORE PUSH1 0x15 PUSH1 0x20 MSTORE PUSH1 0x40 DUP1 DUP3 KECCAK256 DUP1 SLOAD PUSH1 0xFF NOT AND SWAP1 SSTORE MLOAD DUP3 SWAP2 PUSH32 0x11A9D1A77F76361ED131C19B1DC5758504C51DBDE2E49FC973A0EF9577AD13D5 SWAP2 LOG2 POP JUMP JUMPDEST PUSH2 0xCFD PUSH2 0x31F4 JUMP JUMPDEST PUSH2 0x3E8 DUP2 GT ISZERO PUSH2 0xD43 JUMPI PUSH1 0x40 MLOAD PUSH3 0x461BCD PUSH1 0xE5 SHL DUP2 MSTORE PUSH1 0x20 PUSH1 0x4 DUP3 ADD MSTORE PUSH1 0xC PUSH1 0x24 DUP3 ADD MSTORE PUSH12 0x8CCACA40E8DEDE40D0D2CED PUSH1 0xA3 SHL PUSH1 0x44 DUP3 ADD MSTORE PUSH1 0x64 ADD JUMPDEST PUSH1 0x40 MLOAD DUP1 SWAP2 SUB SWAP1 REVERT JUMPDEST PUSH1 0x16 SSTORE JUMP JUMPDEST PUSH0 PUSH2 0xD51 PUSH2 0x3221 JUMP JUMPDEST PUSH1 0xE DUP1 SLOAD SWAP1 PUSH0 PUSH2 0xD60 DUP4 PUSH2 0x4810 JUMP JUMPDEST SWAP1 SWAP2 SSTORE POP POP PUSH1 0xE SLOAD PUSH2 0xD72 CALLER DUP3 PUSH2 0x3245 JUMP JUMPDEST PUSH2 0xD7C DUP2 DUP5 PUSH2 0x325E JUMP JUMPDEST PUSH1 0x60 PUSH1 0x40 MLOAD DUP1 PUSH2 0x1A0 ADD PUSH1 0x40 MSTORE DUP1 DUP10 DUP2 MSTORE PUSH1 0x20 ADD DUP9 DUP2 MSTORE PUSH1 0x20 ADD DUP8 PUSH1 0x5 DUP2 GT ISZERO PUSH2 0xDA8 JUMPI PUSH2 0xDA8 PUSH2 0x42CC JUMP JUMPDEST DUP2 MSTORE PUSH1 0x20 DUP1 DUP3 ADD DUP9 SWAP1 MSTORE PUSH1 0x40 DUP1 DUP4 ADD DUP6 SWAP1 MSTORE PUSH0 PUSH1 0x60 DUP5 ADD DUP2 SWAP1 MSTORE CALLER PUSH1 0x80 DUP6 ADD DUP2 SWAP1 MSTORE PUSH1 0xA0 DUP6 ADD MSTORE TIMESTAMP PUSH1 0xC0 DUP6 ADD MSTORE CHAINID PUSH1 0xE0 DUP6 ADD MSTORE PUSH2 0x100 DUP5 ADD DUP2 SWAP1 MSTORE PUSH2 0x120 DUP5 ADD DUP2 SWAP1 MSTORE PUSH2 0x140 SWAP1 SWAP4 ADD DUP6 SWAP1 MSTORE DUP6 DUP4 MSTORE PUSH1 0xF SWAP1 SWAP2 MSTORE SWAP1 KECCAK256 DUP2 MLOAD DUP2 SWAP1 PUSH2 0xE0C SWAP1 DUP3 PUSH2 0x486C JUMP JUMPDEST POP PUSH1 0x20 DUP3 ADD MLOAD PUSH1 0x1 DUP3 ADD SWAP1 PUSH2 0xE21 SWAP1 DUP3 PUSH2 0x486C JUMP JUMPDEST POP PUSH1 0x40 DUP3 ADD MLOAD PUSH1 0x2 DUP3 ADD DUP1 SLOAD PUSH1 0xFF NOT AND PUSH1 0x1 DUP4 PUSH1 0x5 DUP2 GT ISZERO PUSH2 0xE45 JUMPI PUSH2 0xE45 PUSH2 0x42CC JUMP JUMPDEST MUL OR SWAP1 SSTORE POP PUSH1 0x60 DUP3 ADD MLOAD PUSH1 0x3 DUP3 ADD SWAP1 PUSH2 0xE5E SWAP1 DUP3 PUSH2 0x486C JUMP JUMPDEST POP PUSH1 0x80 DUP3 ADD MLOAD DUP1 MLOAD PUSH2 0xE7A SWAP2 PUSH1 0x4 DUP5 ADD SWAP2 PUSH1 0x20 SWAP1 SWAP2 ADD SWAP1 PUSH2 0x3F02 JUMP JUMPDEST POP PUSH1 0xA0 DUP3 ADD MLOAD PUSH1 0x5 DUP3 ADD SSTORE PUSH1 0xC0 DUP3 ADD MLOAD PUSH1 0x6 DUP3 ADD DUP1 SLOAD PUSH1 0x1 PUSH1 0x1 PUSH1 0xA0 SHL SUB SWAP3 DUP4 AND PUSH1 0x1 PUSH1 0x1 PUSH1 0xA0 SHL SUB NOT SWAP2 DUP3 AND OR SWAP1 SWAP2 SSTORE PUSH1 0xE0 DUP5 ADD MLOAD PUSH1 0x7 DUP5 ADD DUP1 SLOAD SWAP2 SWAP1 SWAP4 AND SWAP2 AND OR SWAP1 SSTORE PUSH2 0x100 DUP3 ADD MLOAD PUSH1 0x8 DUP3 ADD SSTORE PUSH2 0x120 DUP3 ADD MLOAD PUSH1 0x9 DUP3 ADD SSTORE PUSH2 0x140 DUP3 ADD MLOAD PUSH1 0xA DUP3 ADD DUP1 SLOAD SWAP2 ISZERO ISZERO PUSH1 0xFF NOT SWAP1 SWAP3 AND SWAP2 SWAP1 SWAP2 OR SWAP1 SSTORE PUSH2 0x160 DUP3 ADD MLOAD PUSH1 0xB DUP3 ADD SSTORE PUSH2 0x180 DUP3 ADD MLOAD DUP1 MLOAD PUSH2 0xF17 SWAP2 PUSH1 0xC DUP5 ADD SWAP2 PUSH1 0x20 SWAP1 SWAP2 ADD SWAP1 PUSH2 0x3F02 JUMP JUMPDEST POP POP CALLER PUSH0 DUP2 DUP2 MSTORE PUSH1 0x10 PUSH1 0x20 SWAP1 DUP2 MSTORE PUSH1 0x40 DUP1 DUP4 KECCAK256 DUP1 SLOAD PUSH1 0x1 DUP2 ADD DUP3 SSTORE SWAP1 DUP5 MSTORE SWAP2 DUP4 KECCAK256 SWAP1 SWAP2 ADD DUP7 SWAP1 SSTORE MLOAD SWAP1 SWAP3 POP DUP5 SWAP1 PUSH32 0x923C083491BA0811EA2BBD6DF83AC2CCE86105B93CC92EB63A0678D246006E0B SWAP1 PUSH2 0xF73 SWAP1 DUP12 SWAP1 DUP11 SWAP1 PUSH2 0x4926 JUMP JUMPDEST PUSH1 0x40 MLOAD DUP1 SWAP2 SUB SWAP1 LOG4 POP SWAP7 SWAP6 POP POP POP POP POP POP JUMP JUMPDEST PUSH1 0x1 PUSH1 0x1 PUSH1 0xA0 SHL SUB DUP3 AND PUSH2 0xFAF JUMPI PUSH1 0x40 MLOAD PUSH4 0x32505749 PUSH1 0xE1 SHL DUP2 MSTORE PUSH0 PUSH1 0x4 DUP3 ADD MSTORE PUSH1 0x24 ADD PUSH2 0xD3A JUMP JUMPDEST PUSH0 PUSH2 0xFBB DUP4 DUP4 CALLER PUSH2 0x32AD JUMP JUMPDEST SWAP1 POP DUP4 PUSH1 0x1 PUSH1 0x1 PUSH1 0xA0 SHL SUB AND DUP2 PUSH1 0x1 PUSH1 0x1 PUSH1 0xA0 SHL SUB AND EQ PUSH2 0xFF5 JUMPI DUP4 DUP3 DUP3 PUSH1 0x40 MLOAD PUSH4 0x64283D7B PUSH1 0xE0 SHL DUP2 MSTORE PUSH1 0x4 ADD PUSH2 0xD3A SWAP4 SWAP3 SWAP2 SWAP1 PUSH2 0x4945 JUMP JUMPDEST POP POP POP POP JUMP JUMPDEST PUSH1 0x10 PUSH1 0x20 MSTORE DUP2 PUSH0 MSTORE PUSH1 0x40 PUSH0 KECCAK256 DUP2 DUP2 SLOAD DUP2 LT PUSH2 0x1014 JUMPI PUSH0 DUP1 REVERT JUMPDEST SWAP1 PUSH0 MSTORE PUSH1 0x20 PUSH0 KECCAK256 ADD PUSH0 SWAP2 POP SWAP2 POP POP SLOAD DUP2 JUMP JUMPDEST PUSH0 PUSH2 0x1030 DUP4 PUSH2 0x1B57 JUMP JUMPDEST DUP3 LT PUSH2 0x1061 JUMPI PUSH1 0x40 MLOAD PUSH4 0x295F44F7 PUSH1 0xE2 SHL DUP2 MSTORE PUSH1 0x1 PUSH1 0x1 PUSH1 0xA0 SHL SUB DUP5 AND PUSH1 0x4 DUP3 ADD MSTORE PUSH1 0x24 DUP2 ADD DUP4 SWAP1 MSTORE PUSH1 0x44 ADD PUSH2 0xD3A JUMP JUMPDEST POP PUSH1 0x1 PUSH1 0x1 PUSH1 0xA0 SHL SUB SWAP2 SWAP1 SWAP2 AND PUSH0 SWAP1 DUP2 MSTORE PUSH1 0x7 PUSH1 0x20 SWAP1 DUP2 MSTORE PUSH1 0x40 DUP1 DUP4 KECCAK256 SWAP4 DUP4 MSTORE SWAP3 SWAP1 MSTORE KECCAK256 SLOAD SWAP1 JUMP JUMPDEST PUSH0 DUP2 DUP2 MSTORE PUSH1 0x18 PUSH1 0x20 MSTORE PUSH1 0x40 SWAP1 KECCAK256 PUSH1 0x1 ADD SLOAD PUSH1 0x1 PUSH1 0x1 PUSH1 0xA0 SHL SUB AND CALLER EQ PUSH2 0x10DE JUMPI PUSH1 0x40 MLOAD PUSH3 0x461BCD PUSH1 0xE5 SHL DUP2 MSTORE PUSH1 0x20 PUSH1 0x4 DUP3 ADD MSTORE PUSH1 0xA PUSH1 0x24 DUP3 ADD MSTORE PUSH10 0x2737BA1039B2B63632B9 PUSH1 0xB1 SHL PUSH1 0x44 DUP3 ADD MSTORE PUSH1 0x64 ADD PUSH2 0xD3A JUMP JUMPDEST PUSH0 SWAP1 DUP2 MSTORE PUSH1 0x18 PUSH1 0x20 SWAP1 DUP2 MSTORE PUSH1 0x40 DUP1 DUP4 KECCAK256 PUSH1 0x3 ADD DUP1 SLOAD PUSH1 0xFF NOT SWAP1 DUP2 AND SWAP1 SWAP2 SSTORE PUSH1 0xF SWAP1 SWAP3 MSTORE DUP3 KECCAK256 PUSH1 0xA DUP2 ADD DUP1 SLOAD SWAP1 SWAP3 AND SWAP1 SWAP2 SSTORE PUSH1 0xB ADD SSTORE JUMP JUMPDEST PUSH2 0x111D PUSH2 0x31F4 JUMP JUMPDEST PUSH1 0x1 PUSH1 0x1 PUSH1 0xA0 SHL SUB DUP2 AND PUSH2 0x1143 JUMPI PUSH1 0x40 MLOAD PUSH3 0x461BCD PUSH1 0xE5 SHL DUP2 MSTORE PUSH1 0x4 ADD PUSH2 0xD3A SWAP1 PUSH2 0x4968 JUMP JUMPDEST PUSH1 0x1D DUP1 SLOAD PUSH1 0x1 PUSH1 0x1 PUSH1 0xA0 SHL SUB NOT AND PUSH1 0x1 PUSH1 0x1 PUSH1 0xA0 SHL SUB SWAP3 SWAP1 SWAP3 AND SWAP2 SWAP1 SWAP2 OR SWAP1 SSTORE JUMP JUMPDEST PUSH2 0x116D PUSH2 0x31F4 JUMP JUMPDEST PUSH2 0x1175 PUSH2 0x32B9 JUMP JUMPDEST JUMP JUMPDEST PUSH2 0x1191 DUP4 DUP4 DUP4 PUSH1 0x40 MLOAD DUP1 PUSH1 0x20 ADD PUSH1 0x40 MSTORE DUP1 PUSH0 DUP2 MSTORE POP PUSH2 0x297C JUMP JUMPDEST POP POP POP JUMP JUMPDEST PUSH1 0x13 PUSH1 0x20 MSTORE DUP2 PUSH0 MSTORE PUSH1 0x40 PUSH0 KECCAK256 DUP2 DUP2 SLOAD DUP2 LT PUSH2 0x1014 JUMPI PUSH0 DUP1 REVERT JUMPDEST PUSH1 0xF PUSH1 0x20 MSTORE PUSH0 SWAP1 DUP2 MSTORE PUSH1 0x40 SWAP1 KECCAK256 DUP1 SLOAD DUP2 SWAP1 PUSH2 0x11C9 SWAP1 PUSH2 0x47C4 JUMP JUMPDEST DUP1 PUSH1 0x1F ADD PUSH1 0x20 DUP1 SWAP2 DIV MUL PUSH1 0x20 ADD PUSH1 0x40 MLOAD SWAP1 DUP2 ADD PUSH1 0x40 MSTORE DUP1 SWAP3 SWAP2 SWAP1 DUP2 DUP2 MSTORE PUSH1 0x20 ADD DUP3 DUP1 SLOAD PUSH2 0x11F5 SWAP1 PUSH2 0x47C4 JUMP JUMPDEST DUP1 ISZERO PUSH2 0x1240 JUMPI DUP1 PUSH1 0x1F LT PUSH2 0x1217 JUMPI PUSH2 0x100 DUP1 DUP4 SLOAD DIV MUL DUP4 MSTORE SWAP2 PUSH1 0x20 ADD SWAP2 PUSH2 0x1240 JUMP JUMPDEST DUP3 ADD SWAP2 SWAP1 PUSH0 MSTORE PUSH1 0x20 PUSH0 KECCAK256 SWAP1 JUMPDEST DUP2 SLOAD DUP2 MSTORE SWAP1 PUSH1 0x1 ADD SWAP1 PUSH1 0x20 ADD DUP1 DUP4 GT PUSH2 0x1223 JUMPI DUP3 SWAP1 SUB PUSH1 0x1F AND DUP3 ADD SWAP2 JUMPDEST POP POP POP POP POP SWAP1 DUP1 PUSH1 0x1 ADD DUP1 SLOAD PUSH2 0x1255 SWAP1 PUSH2 0x47C4 JUMP JUMPDEST DUP1 PUSH1 0x1F ADD PUSH1 0x20 DUP1 SWAP2 DIV MUL PUSH1 0x20 ADD PUSH1 0x40 MLOAD SWAP1 DUP2 ADD PUSH1 0x40 MSTORE DUP1 SWAP3 SWAP2 SWAP1 DUP2 DUP2 MSTORE PUSH1 0x20 ADD DUP3 DUP1 SLOAD PUSH2 0x1281 SWAP1 PUSH2 0x47C4 JUMP JUMPDEST DUP1 ISZERO PUSH2 0x12CC JUMPI DUP1 PUSH1 0x1F LT PUSH2 0x12A3 JUMPI PUSH2 0x100 DUP1 DUP4 SLOAD DIV MUL DUP4 MSTORE SWAP2 PUSH1 0x20 ADD SWAP2 PUSH2 0x12CC JUMP JUMPDEST DUP3 ADD SWAP2 SWAP1 PUSH0 MSTORE PUSH1 0x20 PUSH0 KECCAK256 SWAP1 JUMPDEST DUP2 SLOAD DUP2 MSTORE SWAP1 PUSH1 0x1 ADD SWAP1 PUSH1 0x20 ADD DUP1 DUP4 GT PUSH2 0x12AF JUMPI DUP3 SWAP1 SUB PUSH1 0x1F AND DUP3 ADD SWAP2 JUMPDEST POP POP POP PUSH1 0x2 DUP5 ADD SLOAD PUSH1 0x3 DUP6 ADD DUP1 SLOAD SWAP5 SWAP6 PUSH1 0xFF SWAP1 SWAP3 AND SWAP5 SWAP2 SWAP4 POP SWAP2 POP PUSH2 0x12F0 SWAP1 PUSH2 0x47C4 JUMP JUMPDEST DUP1 PUSH1 0x1F ADD PUSH1 0x20 DUP1 SWAP2 DIV MUL PUSH1 0x20 ADD PUSH1 0x40 MLOAD SWAP1 DUP2 ADD PUSH1 0x40 MSTORE DUP1 SWAP3 SWAP2 SWAP1 DUP2 DUP2 MSTORE PUSH1 0x20 ADD DUP3 DUP1 SLOAD PUSH2 0x131C SWAP1 PUSH2 0x47C4 JUMP JUMPDEST DUP1 ISZERO PUSH2 0x1367 JUMPI DUP1 PUSH1 0x1F LT PUSH2 0x133E JUMPI PUSH2 0x100 DUP1 DUP4 SLOAD DIV MUL DUP4 MSTORE SWAP2 PUSH1 0x20 ADD SWAP2 PUSH2 0x1367 JUMP JUMPDEST DUP3 ADD SWAP2 SWAP1 PUSH0 MSTORE PUSH1 0x20 PUSH0 KECCAK256 SWAP1 JUMPDEST DUP2 SLOAD DUP2 MSTORE SWAP1 PUSH1 0x1 ADD SWAP1 PUSH1 0x20 ADD DUP1 DUP4 GT PUSH2 0x134A JUMPI DUP3 SWAP1 SUB PUSH1 0x1F AND DUP3 ADD SWAP2 JUMPDEST POP POP POP PUSH1 0x5 DUP5 ADD SLOAD PUSH1 0x6 DUP6 ADD SLOAD PUSH1 0x7 DUP7 ADD SLOAD PUSH1 0x8 DUP8 ADD SLOAD PUSH1 0x9 DUP9 ADD SLOAD PUSH1 0xA DUP10 ADD SLOAD PUSH1 0xB SWAP1 SWAP10 ADD SLOAD SWAP8 SWAP9 SWAP5 SWAP8 PUSH1 0x1 PUSH1 0x1 PUSH1 0xA0 SHL SUB SWAP5 DUP6 AND SWAP8 POP SWAP3 SWAP1 SWAP4 AND SWAP5 POP SWAP3 PUSH1 0xFF AND SWAP1 DUP12 JUMP JUMPDEST PUSH0 DUP3 DUP2 MSTORE PUSH1 0x12 PUSH1 0x20 MSTORE PUSH1 0x40 SWAP1 KECCAK256 PUSH1 0x4 ADD SLOAD PUSH1 0x1 PUSH1 0x1 PUSH1 0xA0 SHL SUB AND CALLER EQ PUSH2 0x13E5 JUMPI PUSH1 0x40 MLOAD PUSH3 0x461BCD PUSH1 0xE5 SHL DUP2 MSTORE PUSH1 0x4 ADD PUSH2 0xD3A SWAP1 PUSH2 0x4991 JUMP JUMPDEST PUSH0 DUP3 DUP2 MSTORE PUSH1 0x14 PUSH1 0x20 SWAP1 DUP2 MSTORE PUSH1 0x40 DUP1 DUP4 KECCAK256 DUP5 DUP5 MSTORE SWAP1 SWAP2 MSTORE SWAP1 KECCAK256 SLOAD PUSH1 0xFF AND PUSH2 0x1441 JUMPI PUSH1 0x40 MLOAD PUSH3 0x461BCD PUSH1 0xE5 SHL DUP2 MSTORE PUSH1 0x20 PUSH1 0x4 DUP3 ADD MSTORE PUSH1 0x11 PUSH1 0x24 DUP3 ADD MSTORE PUSH17 0x2737BA1034B71031B7B63632B1BA34B7B7 PUSH1 0x79 SHL PUSH1 0x44 DUP3 ADD MSTORE PUSH1 0x64 ADD PUSH2 0xD3A JUMP JUMPDEST PUSH0 DUP3 DUP2 MSTORE PUSH1 0x14 PUSH1 0x20 SWAP1 DUP2 MSTORE PUSH1 0x40 DUP1 DUP4 KECCAK256 DUP5 DUP5 MSTORE DUP3 MSTORE DUP1 DUP4 KECCAK256 DUP1 SLOAD PUSH1 0xFF NOT AND SWAP1 SSTORE PUSH1 0xF SWAP1 SWAP2 MSTORE DUP1 DUP3 KECCAK256 PUSH1 0x5 ADD DUP3 SWAP1 SSTORE MLOAD DUP3 SWAP2 DUP5 SWAP2 PUSH32 0x9814CE1D05DAF3923A26965A049ABCA8C28003EF982218DDB1CBD11AC62C79FE SWAP2 SWAP1 LOG3 POP POP JUMP JUMPDEST PUSH0 PUSH2 0x14A6 PUSH1 0x9 SLOAD SWAP1 JUMP JUMPDEST DUP3 LT PUSH2 0x14CE JUMPI PUSH1 0x40 MLOAD PUSH4 0x295F44F7 PUSH1 0xE2 SHL DUP2 MSTORE PUSH0 PUSH1 0x4 DUP3 ADD MSTORE PUSH1 0x24 DUP2 ADD DUP4 SWAP1 MSTORE PUSH1 0x44 ADD PUSH2 0xD3A JUMP JUMPDEST PUSH1 0x9 DUP3 DUP2 SLOAD DUP2 LT PUSH2 0x14E1 JUMPI PUSH2 0x14E1 PUSH2 0x49BF JUMP JUMPDEST SWAP1 PUSH0 MSTORE PUSH1 0x20 PUSH0 KECCAK256 ADD SLOAD SWAP1 POP SWAP2 SWAP1 POP JUMP JUMPDEST PUSH2 0x14F9 PUSH2 0x330B JUMP JUMPDEST PUSH0 DUP2 DUP2 MSTORE PUSH1 0x18 PUSH1 0x20 SWAP1 DUP2 MSTORE PUSH1 0x40 SWAP2 DUP3 SWAP1 KECCAK256 DUP3 MLOAD PUSH1 0x80 DUP2 ADD DUP5 MSTORE DUP2 SLOAD DUP2 MSTORE PUSH1 0x1 DUP3 ADD SLOAD PUSH1 0x1 PUSH1 0x1 PUSH1 0xA0 SHL SUB AND SWAP3 DUP2 ADD SWAP3 SWAP1 SWAP3 MSTORE PUSH1 0x2 DUP2 ADD SLOAD SWAP3 DUP3 ADD SWAP3 SWAP1 SWAP3 MSTORE PUSH1 0x3 SWAP1 SWAP2 ADD SLOAD PUSH1 0xFF AND ISZERO ISZERO PUSH1 0x60 DUP3 ADD DUP2 SWAP1 MSTORE PUSH2 0x1586 JUMPI PUSH1 0x40 MLOAD PUSH3 0x461BCD PUSH1 0xE5 SHL DUP2 MSTORE PUSH1 0x20 PUSH1 0x4 DUP3 ADD MSTORE PUSH1 0xE PUSH1 0x24 DUP3 ADD MSTORE PUSH14 0x139195081B9BDD081B1A5CDD1959 PUSH1 0x92 SHL PUSH1 0x44 DUP3 ADD MSTORE PUSH1 0x64 ADD PUSH2 0xD3A JUMP JUMPDEST DUP1 PUSH1 0x40 ADD MLOAD CALLVALUE LT ISZERO PUSH2 0x15D1 JUMPI PUSH1 0x40 MLOAD PUSH3 0x461BCD PUSH1 0xE5 SHL DUP2 MSTORE PUSH1 0x20 PUSH1 0x4 DUP3 ADD MSTORE PUSH1 0x14 PUSH1 0x24 DUP3 ADD MSTORE PUSH20 0x125B9CDD59999A58DA595B9D081C185E5B595B9D PUSH1 0x62 SHL PUSH1 0x44 DUP3 ADD MSTORE PUSH1 0x64 ADD PUSH2 0xD3A JUMP JUMPDEST PUSH0 PUSH2 0x2710 PUSH1 0x16 SLOAD DUP4 PUSH1 0x40 ADD MLOAD PUSH2 0x15E7 SWAP2 SWAP1 PUSH2 0x49D3 JUMP JUMPDEST PUSH2 0x15F1 SWAP2 SWAP1 PUSH2 0x49EA JUMP JUMPDEST SWAP1 POP PUSH0 DUP2 DUP4 PUSH1 0x40 ADD MLOAD PUSH2 0x1604 SWAP2 SWAP1 PUSH2 0x4A09 JUMP JUMPDEST SWAP1 POP PUSH2 0x1615 DUP4 PUSH1 0x20 ADD MLOAD CALLER DUP7 PUSH2 0x3335 JUMP JUMPDEST PUSH0 DUP5 DUP2 MSTORE PUSH1 0xF PUSH1 0x20 SWAP1 DUP2 MSTORE PUSH1 0x40 DUP1 DUP4 KECCAK256 PUSH1 0xA DUP2 ADD DUP1 SLOAD PUSH1 0xFF NOT SWAP1 DUP2 AND SWAP1 SWAP2 SSTORE PUSH1 0xB SWAP1 SWAP2 ADD DUP5 SWAP1 SSTORE PUSH1 0x18 SWAP1 SWAP3 MSTORE DUP1 DUP4 KECCAK256 PUSH1 0x3 ADD DUP1 SLOAD SWAP1 SWAP3 AND SWAP1 SWAP2 SSTORE PUSH1 0x17 SLOAD SWAP1 MLOAD PUSH1 0x1 PUSH1 0x1 PUSH1 0xA0 SHL SUB SWAP1 SWAP2 AND SWAP2 DUP5 ISZERO PUSH2 0x8FC MUL SWAP2 DUP6 SWAP2 DUP2 DUP2 DUP2 DUP6 DUP9 DUP9 CALL SWAP4 POP POP POP POP ISZERO DUP1 ISZERO PUSH2 0x1684 JUMPI RETURNDATASIZE PUSH0 PUSH0 RETURNDATACOPY RETURNDATASIZE PUSH0 REVERT JUMPDEST POP DUP3 PUSH1 0x20 ADD MLOAD PUSH1 0x1 PUSH1 0x1 PUSH1 0xA0 SHL SUB AND PUSH2 0x8FC DUP3 SWAP1 DUP2 ISZERO MUL SWAP1 PUSH1 0x40 MLOAD PUSH0 PUSH1 0x40 MLOAD DUP1 DUP4 SUB DUP2 DUP6 DUP9 DUP9 CALL SWAP4 POP POP POP POP ISZERO DUP1 ISZERO PUSH2 0x16BF JUMPI RETURNDATASIZE PUSH0 PUSH0 RETURNDATACOPY RETURNDATASIZE PUSH0 REVERT JUMPDEST POP DUP3 PUSH1 0x40 ADD MLOAD CALLVALUE GT ISZERO PUSH2 0x1708 JUMPI PUSH1 0x40 DUP4 ADD MLOAD CALLER SWAP1 PUSH2 0x8FC SWAP1 PUSH2 0x16E1 SWAP1 CALLVALUE PUSH2 0x4A09 JUMP JUMPDEST PUSH1 0x40 MLOAD DUP2 ISZERO SWAP1 SWAP3 MUL SWAP2 PUSH0 DUP2 DUP2 DUP2 DUP6 DUP9 DUP9 CALL SWAP4 POP POP POP POP ISZERO DUP1 ISZERO PUSH2 0x1706 JUMPI RETURNDATASIZE PUSH0 PUSH0 RETURNDATACOPY RETURNDATASIZE PUSH0 REVERT JUMPDEST POP JUMPDEST CALLER PUSH1 0x1 PUSH1 0x1 PUSH1 0xA0 SHL SUB AND DUP4 PUSH1 0x20 ADD MLOAD PUSH1 0x1 PUSH1 0x1 PUSH1 0xA0 SHL SUB AND DUP6 PUSH32 0x8562EB94748E30BB0071E932744CE902B460C683474FCB3BFD567FFA16B1AFB2 DUP7 PUSH1 0x40 ADD MLOAD PUSH1 0x40 MLOAD PUSH2 0x1756 SWAP2 DUP2 MSTORE PUSH1 0x20 ADD SWAP1 JUMP JUMPDEST PUSH1 0x40 MLOAD DUP1 SWAP2 SUB SWAP1 LOG4 POP POP POP PUSH2 0x176B PUSH1 0x1 PUSH1 0xC SSTORE JUMP JUMPDEST POP JUMP JUMPDEST PUSH1 0x1 PUSH1 0x1 PUSH1 0xA0 SHL SUB DUP2 AND PUSH0 SWAP1 DUP2 MSTORE PUSH1 0x10 PUSH1 0x20 SWAP1 DUP2 MSTORE PUSH1 0x40 SWAP2 DUP3 SWAP1 KECCAK256 DUP1 SLOAD DUP4 MLOAD DUP2 DUP5 MUL DUP2 ADD DUP5 ADD SWAP1 SWAP5 MSTORE DUP1 DUP5 MSTORE PUSH1 0x60 SWAP4 SWAP3 DUP4 ADD DUP3 DUP3 DUP1 ISZERO PUSH2 0x17CB JUMPI PUSH1 0x20 MUL DUP3 ADD SWAP2 SWAP1 PUSH0 MSTORE PUSH1 0x20 PUSH0 KECCAK256 SWAP1 JUMPDEST DUP2 SLOAD DUP2 MSTORE PUSH1 0x20 ADD SWAP1 PUSH1 0x1 ADD SWAP1 DUP1 DUP4 GT PUSH2 0x17B7 JUMPI JUMPDEST POP POP POP POP POP SWAP1 POP SWAP2 SWAP1 POP JUMP JUMPDEST PUSH0 PUSH2 0xBE3 DUP3 PUSH2 0x31AF JUMP JUMPDEST PUSH2 0x17E9 PUSH2 0x31F4 JUMP JUMPDEST PUSH1 0x40 MLOAD PUSH4 0xA9059CBB PUSH1 0xE0 SHL DUP2 MSTORE CALLER PUSH1 0x4 DUP3 ADD MSTORE PUSH1 0x24 DUP2 ADD DUP3 SWAP1 MSTORE PUSH1 0x1 PUSH1 0x1 PUSH1 0xA0 SHL SUB DUP4 AND SWAP1 PUSH4 0xA9059CBB SWAP1 PUSH1 0x44 ADD PUSH1 0x20 PUSH1 0x40 MLOAD DUP1 DUP4 SUB DUP2 PUSH0 DUP8 GAS CALL ISZERO DUP1 ISZERO PUSH2 0x1833 JUMPI RETURNDATASIZE PUSH0 PUSH0 RETURNDATACOPY RETURNDATASIZE PUSH0 REVERT JUMPDEST POP POP POP POP PUSH1 0x40 MLOAD RETURNDATASIZE PUSH1 0x1F NOT PUSH1 0x1F DUP3 ADD AND DUP3 ADD DUP1 PUSH1 0x40 MSTORE POP DUP2 ADD SWAP1 PUSH2 0x1191 SWAP2 SWAP1 PUSH2 0x4A1C JUMP JUMPDEST PUSH0 PUSH2 0x1860 PUSH2 0x3221 JUMP JUMPDEST PUSH1 0xE DUP1 SLOAD SWAP1 PUSH0 PUSH2 0x186F DUP4 PUSH2 0x4810 JUMP JUMPDEST SWAP1 SWAP2 SSTORE POP POP PUSH1 0xE SLOAD PUSH2 0x1881 CALLER DUP3 PUSH2 0x3245 JUMP JUMPDEST PUSH2 0x188B DUP2 DUP5 PUSH2 0x325E JUMP JUMPDEST PUSH1 0x40 MLOAD DUP1 PUSH2 0x1A0 ADD PUSH1 0x40 MSTORE DUP1 DUP12 DUP2 MSTORE PUSH1 0x20 ADD DUP11 DUP2 MSTORE PUSH1 0x20 ADD DUP10 PUSH1 0x5 DUP2 GT ISZERO PUSH2 0x18B5 JUMPI PUSH2 0x18B5 PUSH2 0x42CC JUMP JUMPDEST DUP2 MSTORE PUSH1 0x20 DUP1 DUP3 ADD DUP11 SWAP1 MSTORE PUSH1 0x40 DUP1 DUP4 ADD DUP11 SWAP1 MSTORE PUSH1 0x60 DUP4 ADD DUP9 SWAP1 MSTORE CALLER PUSH1 0x80 DUP5 ADD DUP2 SWAP1 MSTORE PUSH1 0xA0 DUP5 ADD MSTORE TIMESTAMP PUSH1 0xC0 DUP5 ADD MSTORE CHAINID PUSH1 0xE0 DUP5 ADD MSTORE PUSH0 PUSH2 0x100 DUP5 ADD DUP2 SWAP1 MSTORE PUSH2 0x120 DUP5 ADD DUP2 SWAP1 MSTORE PUSH2 0x140 SWAP1 SWAP4 ADD DUP10 SWAP1 MSTORE DUP5 DUP4 MSTORE PUSH1 0xF SWAP1 SWAP2 MSTORE SWAP1 KECCAK256 DUP2 MLOAD DUP2 SWAP1 PUSH2 0x1919 SWAP1 DUP3 PUSH2 0x486C JUMP JUMPDEST POP PUSH1 0x20 DUP3 ADD MLOAD PUSH1 0x1 DUP3 ADD SWAP1 PUSH2 0x192E SWAP1 DUP3 PUSH2 0x486C JUMP JUMPDEST POP PUSH1 0x40 DUP3 ADD MLOAD PUSH1 0x2 DUP3 ADD DUP1 SLOAD PUSH1 0xFF NOT AND PUSH1 0x1 DUP4 PUSH1 0x5 DUP2 GT ISZERO PUSH2 0x1952 JUMPI PUSH2 0x1952 PUSH2 0x42CC JUMP JUMPDEST MUL OR SWAP1 SSTORE POP PUSH1 0x60 DUP3 ADD MLOAD PUSH1 0x3 DUP3 ADD SWAP1 PUSH2 0x196B SWAP1 DUP3 PUSH2 0x486C JUMP JUMPDEST POP PUSH1 0x80 DUP3 ADD MLOAD DUP1 MLOAD PUSH2 0x1987 SWAP2 PUSH1 0x4 DUP5 ADD SWAP2 PUSH1 0x20 SWAP1 SWAP2 ADD SWAP1 PUSH2 0x3F02 JUMP JUMPDEST POP PUSH1 0xA0 DUP3 ADD MLOAD PUSH1 0x5 DUP3 ADD SSTORE PUSH1 0xC0 DUP3 ADD MLOAD PUSH1 0x6 DUP3 ADD DUP1 SLOAD PUSH1 0x1 PUSH1 0x1 PUSH1 0xA0 SHL SUB SWAP3 DUP4 AND PUSH1 0x1 PUSH1 0x1 PUSH1 0xA0 SHL SUB NOT SWAP2 DUP3 AND OR SWAP1 SWAP2 SSTORE PUSH1 0xE0 DUP5 ADD MLOAD PUSH1 0x7 DUP5 ADD DUP1 SLOAD SWAP2 SWAP1 SWAP4 AND SWAP2 AND OR SWAP1 SSTORE PUSH2 0x100 DUP3 ADD MLOAD PUSH1 0x8 DUP3 ADD SSTORE PUSH2 0x120 DUP3 ADD MLOAD PUSH1 0x9 DUP3 ADD SSTORE PUSH2 0x140 DUP3 ADD MLOAD PUSH1 0xA DUP3 ADD DUP1 SLOAD SWAP2 ISZERO ISZERO PUSH1 0xFF NOT SWAP1 SWAP3 AND SWAP2 SWAP1 SWAP2 OR SWAP1 SSTORE PUSH2 0x160 DUP3 ADD MLOAD PUSH1 0xB DUP3 ADD SSTORE PUSH2 0x180 DUP3 ADD MLOAD DUP1 MLOAD PUSH2 0x1A24 SWAP2 PUSH1 0xC DUP5 ADD SWAP2 PUSH1 0x20 SWAP1 SWAP2 ADD SWAP1 PUSH2 0x3F02 JUMP JUMPDEST POP POP CALLER PUSH0 SWAP1 DUP2 MSTORE PUSH1 0x10 PUSH1 0x20 SWAP1 DUP2 MSTORE PUSH1 0x40 DUP3 KECCAK256 DUP1 SLOAD PUSH1 0x1 DUP2 ADD DUP3 SSTORE SWAP1 DUP4 MSTORE SWAP2 KECCAK256 ADD DUP3 SWAP1 SSTORE POP DUP4 ISZERO DUP1 ISZERO SWAP1 PUSH2 0x1A59 JUMPI POP PUSH1 0x11 SLOAD DUP5 GT ISZERO JUMPDEST ISZERO PUSH2 0x1B05 JUMPI PUSH0 DUP5 DUP2 MSTORE PUSH1 0x12 PUSH1 0x20 MSTORE PUSH1 0x40 SWAP1 KECCAK256 PUSH1 0x4 ADD SLOAD PUSH1 0x1 PUSH1 0x1 PUSH1 0xA0 SHL SUB AND CALLER EQ PUSH2 0x1A96 JUMPI PUSH1 0x40 MLOAD PUSH3 0x461BCD PUSH1 0xE5 SHL DUP2 MSTORE PUSH1 0x4 ADD PUSH2 0xD3A SWAP1 PUSH2 0x4991 JUMP JUMPDEST PUSH0 DUP5 DUP2 MSTORE PUSH1 0x12 PUSH1 0x20 SWAP1 DUP2 MSTORE PUSH1 0x40 DUP1 DUP4 KECCAK256 PUSH1 0x6 ADD DUP1 SLOAD PUSH1 0x1 DUP2 DUP2 ADD DUP4 SSTORE SWAP2 DUP6 MSTORE DUP4 DUP6 KECCAK256 ADD DUP6 SWAP1 SSTORE DUP8 DUP5 MSTORE PUSH1 0x14 DUP4 MSTORE DUP2 DUP5 KECCAK256 DUP6 DUP6 MSTORE SWAP1 SWAP3 MSTORE DUP1 DUP4 KECCAK256 DUP1 SLOAD PUSH1 0xFF NOT AND SWAP1 SWAP3 OR SWAP1 SWAP2 SSTORE MLOAD DUP3 SWAP2 DUP7 SWAP2 PUSH32 0x3B3F4A0879ADB468F95AF56C9DA744059B4DF6C7189EDAE9D2DDB821161C4D1C SWAP2 SWAP1 LOG3 JUMPDEST DUP4 CALLER PUSH1 0x1 PUSH1 0x1 PUSH1 0xA0 SHL SUB AND DUP3 PUSH32 0x923C083491BA0811EA2BBD6DF83AC2CCE86105B93CC92EB63A0678D246006E0B DUP12 DUP8 PUSH1 0x40 MLOAD PUSH2 0x1B42 SWAP3 SWAP2 SWAP1 PUSH2 0x4926 JUMP JUMPDEST PUSH1 0x40 MLOAD DUP1 SWAP2 SUB SWAP1 LOG4 SWAP10 SWAP9 POP POP POP POP POP POP POP POP POP JUMP JUMPDEST PUSH0 PUSH1 0x1 PUSH1 0x1 PUSH1 0xA0 SHL SUB DUP3 AND PUSH2 0x1B81 JUMPI PUSH1 0x40 MLOAD PUSH4 0x22718AD9 PUSH1 0xE2 SHL DUP2 MSTORE PUSH0 PUSH1 0x4 DUP3 ADD MSTORE PUSH1 0x24 ADD PUSH2 0xD3A JUMP JUMPDEST POP PUSH1 0x1 PUSH1 0x1 PUSH1 0xA0 SHL SUB AND PUSH0 SWAP1 DUP2 MSTORE PUSH1 0x3 PUSH1 0x20 MSTORE PUSH1 0x40 SWAP1 KECCAK256 SLOAD SWAP1 JUMP JUMPDEST PUSH2 0x1BA4 PUSH2 0x31F4 JUMP JUMPDEST PUSH2 0x1175 PUSH0 PUSH2 0x33CE JUMP JUMPDEST PUSH2 0x1BB5 PUSH2 0x330B JUMP JUMPDEST CALLER PUSH0 SWAP1 DUP2 MSTORE PUSH1 0x19 PUSH1 0x20 MSTORE PUSH1 0x40 SWAP1 KECCAK256 SLOAD DUP2 LT PUSH2 0x1C04 JUMPI PUSH1 0x40 MLOAD PUSH3 0x461BCD PUSH1 0xE5 SHL DUP2 MSTORE PUSH1 0x20 PUSH1 0x4 DUP3 ADD MSTORE PUSH1 0xF PUSH1 0x24 DUP3 ADD MSTORE PUSH15 0x125B9D985B1A59081B1BD8DAC81251 PUSH1 0x8A SHL PUSH1 0x44 DUP3 ADD MSTORE PUSH1 0x64 ADD PUSH2 0xD3A JUMP JUMPDEST CALLER PUSH0 SWAP1 DUP2 MSTORE PUSH1 0x19 PUSH1 0x20 MSTORE PUSH1 0x40 DUP2 KECCAK256 DUP1 SLOAD DUP4 SWAP1 DUP2 LT PUSH2 0x1C24 JUMPI PUSH2 0x1C24 PUSH2 0x49BF JUMP JUMPDEST PUSH0 SWAP2 DUP3 MSTORE PUSH1 0x20 SWAP1 SWAP2 KECCAK256 PUSH1 0x8 SWAP1 SWAP2 MUL ADD PUSH1 0x4 DUP2 ADD SLOAD SWAP1 SWAP2 POP PUSH1 0xFF AND ISZERO PUSH2 0x1C7D JUMPI PUSH1 0x40 MLOAD PUSH3 0x461BCD PUSH1 0xE5 SHL DUP2 MSTORE PUSH1 0x20 PUSH1 0x4 DUP3 ADD MSTORE PUSH1 0xF PUSH1 0x24 DUP3 ADD MSTORE PUSH15 0x105B1C9958591E4818DB185A5B5959 PUSH1 0x8A SHL PUSH1 0x44 DUP3 ADD MSTORE PUSH1 0x64 ADD PUSH2 0xD3A JUMP JUMPDEST DUP1 PUSH1 0x3 ADD SLOAD DUP2 PUSH1 0x2 ADD SLOAD PUSH2 0x1C91 SWAP2 SWAP1 PUSH2 0x4A37 JUMP JUMPDEST TIMESTAMP LT ISZERO PUSH2 0x1CE0 JUMPI PUSH1 0x40 MLOAD PUSH3 0x461BCD PUSH1 0xE5 SHL DUP2 MSTORE PUSH1 0x20 PUSH1 0x4 DUP3 ADD MSTORE PUSH1 0x18 PUSH1 0x24 DUP3 ADD MSTORE PUSH32 0x4C6F636B20706572696F64206E6F742066696E69736865640000000000000000 PUSH1 0x44 DUP3 ADD MSTORE PUSH1 0x64 ADD PUSH2 0xD3A JUMP JUMPDEST PUSH0 PUSH2 0x1CF3 DUP3 PUSH1 0x1 ADD SLOAD DUP4 PUSH1 0x3 ADD SLOAD PUSH2 0x2E61 JUMP JUMPDEST PUSH1 0x5 DUP4 ADD DUP2 SWAP1 SSTORE PUSH1 0x4 DUP4 ADD DUP1 SLOAD PUSH1 0xFF NOT AND PUSH1 0x1 OR SWAP1 SSTORE PUSH1 0x6 DUP4 ADD SLOAD SWAP1 SWAP2 POP PUSH1 0xFF AND ISZERO PUSH2 0x1DC0 JUMPI PUSH1 0x1D SLOAD DUP3 SLOAD PUSH1 0x1 DUP5 ADD SLOAD PUSH1 0x40 MLOAD PUSH4 0x1A4CA37B PUSH1 0xE2 SHL DUP2 MSTORE PUSH0 SWAP4 PUSH1 0x1 PUSH1 0x1 PUSH1 0xA0 SHL SUB SWAP1 DUP2 AND SWAP4 PUSH4 0x69328DEC SWAP4 PUSH2 0x1D57 SWAP4 SWAP3 SWAP1 SWAP2 AND SWAP2 ADDRESS SWAP1 PUSH1 0x4 ADD PUSH2 0x4945 JUMP JUMPDEST PUSH1 0x20 PUSH1 0x40 MLOAD DUP1 DUP4 SUB DUP2 PUSH0 DUP8 GAS CALL ISZERO DUP1 ISZERO PUSH2 0x1D73 JUMPI RETURNDATASIZE PUSH0 PUSH0 RETURNDATACOPY RETURNDATASIZE PUSH0 REVERT JUMPDEST POP POP POP POP PUSH1 0x40 MLOAD RETURNDATASIZE PUSH1 0x1F NOT PUSH1 0x1F DUP3 ADD AND DUP3 ADD DUP1 PUSH1 0x40 MSTORE POP DUP2 ADD SWAP1 PUSH2 0x1D97 SWAP2 SWAP1 PUSH2 0x4A4A JUMP JUMPDEST SWAP1 POP DUP3 PUSH1 0x1 ADD SLOAD DUP2 GT PUSH2 0x1DAA JUMPI PUSH0 PUSH2 0x1DB9 JUMP JUMPDEST PUSH1 0x1 DUP4 ADD SLOAD PUSH2 0x1DB9 SWAP1 DUP3 PUSH2 0x4A09 JUMP JUMPDEST PUSH1 0x7 DUP5 ADD SSTORE POP JUMPDEST PUSH0 DUP3 PUSH1 0x7 ADD SLOAD DUP3 DUP5 PUSH1 0x1 ADD SLOAD PUSH2 0x1DD6 SWAP2 SWAP1 PUSH2 0x4A37 JUMP JUMPDEST PUSH2 0x1DE0 SWAP2 SWAP1 PUSH2 0x4A37 JUMP JUMPDEST SWAP1 POP PUSH0 PUSH2 0x2710 PUSH1 0x1B SLOAD DUP5 PUSH2 0x1DF4 SWAP2 SWAP1 PUSH2 0x49D3 JUMP JUMPDEST PUSH2 0x1DFE SWAP2 SWAP1 PUSH2 0x49EA JUMP JUMPDEST SWAP1 POP DUP1 ISZERO PUSH2 0x1E7D JUMPI DUP4 SLOAD PUSH1 0x1A SLOAD PUSH1 0x40 MLOAD PUSH4 0xA9059CBB PUSH1 0xE0 SHL DUP2 MSTORE PUSH1 0x1 PUSH1 0x1 PUSH1 0xA0 SHL SUB SWAP2 DUP3 AND PUSH1 0x4 DUP3 ADD MSTORE PUSH1 0x24 DUP2 ADD DUP5 SWAP1 MSTORE SWAP2 AND SWAP1 PUSH4 0xA9059CBB SWAP1 PUSH1 0x44 ADD PUSH1 0x20 PUSH1 0x40 MLOAD DUP1 DUP4 SUB DUP2 PUSH0 DUP8 GAS CALL ISZERO DUP1 ISZERO PUSH2 0x1E57 JUMPI RETURNDATASIZE PUSH0 PUSH0 RETURNDATACOPY RETURNDATASIZE PUSH0 REVERT JUMPDEST POP POP POP POP PUSH1 0x40 MLOAD RETURNDATASIZE PUSH1 0x1F NOT PUSH1 0x1F DUP3 ADD AND DUP3 ADD DUP1 PUSH1 0x40 MSTORE POP DUP2 ADD SWAP1 PUSH2 0x1E7B SWAP2 SWAP1 PUSH2 0x4A1C JUMP JUMPDEST POP JUMPDEST DUP4 SLOAD PUSH1 0x1 PUSH1 0x1 PUSH1 0xA0 SHL SUB AND PUSH4 0xA9059CBB CALLER PUSH2 0x1E98 DUP5 DUP7 PUSH2 0x4A09 JUMP JUMPDEST PUSH1 0x40 MLOAD PUSH1 0x1 PUSH1 0x1 PUSH1 0xE0 SHL SUB NOT PUSH1 0xE0 DUP6 SWAP1 SHL AND DUP2 MSTORE PUSH1 0x1 PUSH1 0x1 PUSH1 0xA0 SHL SUB SWAP1 SWAP3 AND PUSH1 0x4 DUP4 ADD MSTORE PUSH1 0x24 DUP3 ADD MSTORE PUSH1 0x44 ADD PUSH1 0x20 PUSH1 0x40 MLOAD DUP1 DUP4 SUB DUP2 PUSH0 DUP8 GAS CALL ISZERO DUP1 ISZERO PUSH2 0x1EE0 JUMPI RETURNDATASIZE PUSH0 PUSH0 RETURNDATACOPY RETURNDATASIZE PUSH0 REVERT JUMPDEST POP POP POP POP PUSH1 0x40 MLOAD RETURNDATASIZE PUSH1 0x1F NOT PUSH1 0x1F DUP3 ADD AND DUP3 ADD DUP1 PUSH1 0x40 MSTORE POP DUP2 ADD SWAP1 PUSH2 0x1F04 SWAP2 SWAP1 PUSH2 0x4A1C JUMP JUMPDEST POP DUP4 SLOAD PUSH1 0x1 DUP6 ADD SLOAD PUSH1 0x40 DUP1 MLOAD SWAP2 DUP3 MSTORE PUSH1 0x20 DUP3 ADD DUP7 SWAP1 MSTORE DUP2 ADD DUP8 SWAP1 MSTORE PUSH1 0x1 PUSH1 0x1 PUSH1 0xA0 SHL SUB SWAP1 SWAP2 AND SWAP1 CALLER SWAP1 PUSH32 0x469BA0DDFE932CFD8FEBE378BCF0BA91F65C0B6F9D60E893047555DD45375216 SWAP1 PUSH1 0x60 ADD PUSH1 0x40 MLOAD DUP1 SWAP2 SUB SWAP1 LOG3 POP POP POP POP PUSH2 0x176B PUSH1 0x1 PUSH1 0xC SSTORE JUMP JUMPDEST PUSH2 0x1F70 PUSH2 0x31F4 JUMP JUMPDEST PUSH2 0x1175 PUSH2 0x341F JUMP JUMPDEST PUSH2 0x1F80 PUSH2 0x31F4 JUMP JUMPDEST PUSH0 DUP2 DUP2 MSTORE PUSH1 0x15 PUSH1 0x20 MSTORE PUSH1 0x40 DUP1 DUP3 KECCAK256 DUP1 SLOAD PUSH1 0xFF NOT AND PUSH1 0x1 OR SWAP1 SSTORE MLOAD DUP3 SWAP2 PUSH32 0xBBA9D55E9FD1A441B1617724E2FDB76777D15EC77AB2B72AC15952CBE97085DB SWAP2 LOG2 POP JUMP JUMPDEST PUSH2 0x1FCA PUSH2 0x31F4 JUMP JUMPDEST PUSH1 0x1 PUSH1 0x1 PUSH1 0xA0 SHL SUB DUP2 AND PUSH2 0x1FF0 JUMPI PUSH1 0x40 MLOAD PUSH3 0x461BCD PUSH1 0xE5 SHL DUP2 MSTORE PUSH1 0x4 ADD PUSH2 0xD3A SWAP1 PUSH2 0x4968 JUMP JUMPDEST PUSH1 0x17 DUP1 SLOAD PUSH1 0x1 PUSH1 0x1 PUSH1 0xA0 SHL SUB NOT AND PUSH1 0x1 PUSH1 0x1 PUSH1 0xA0 SHL SUB SWAP3 SWAP1 SWAP3 AND SWAP2 SWAP1 SWAP2 OR SWAP1 SSTORE JUMP JUMPDEST PUSH1 0x11 DUP1 SLOAD PUSH0 SWAP2 DUP3 PUSH2 0x2022 DUP4 PUSH2 0x4810 JUMP JUMPDEST SWAP1 SWAP2 SSTORE POP POP PUSH1 0x11 SLOAD PUSH1 0x40 DUP1 MLOAD PUSH2 0x120 DUP2 ADD DUP3 MSTORE DUP3 DUP2 MSTORE PUSH1 0x20 DUP1 DUP3 ADD DUP10 DUP2 MSTORE DUP3 DUP5 ADD DUP10 SWAP1 MSTORE PUSH1 0x60 DUP4 DUP2 ADD DUP10 SWAP1 MSTORE CALLER PUSH1 0x80 DUP6 ADD MSTORE TIMESTAMP PUSH1 0xA0 DUP6 ADD MSTORE PUSH1 0xC0 DUP5 ADD DUP2 SWAP1 MSTORE DUP8 ISZERO ISZERO PUSH1 0xE0 DUP6 ADD MSTORE CHAINID PUSH2 0x100 DUP6 ADD MSTORE PUSH0 DUP7 DUP2 MSTORE PUSH1 0x12 SWAP1 SWAP4 MSTORE SWAP4 SWAP1 SWAP2 KECCAK256 DUP3 MLOAD DUP2 SSTORE SWAP1 MLOAD PUSH1 0x1 DUP3 ADD SWAP1 PUSH2 0x2092 SWAP1 DUP3 PUSH2 0x486C JUMP JUMPDEST POP PUSH1 0x40 DUP3 ADD MLOAD PUSH1 0x2 DUP3 ADD SWAP1 PUSH2 0x20A7 SWAP1 DUP3 PUSH2 0x486C JUMP JUMPDEST POP PUSH1 0x60 DUP3 ADD MLOAD PUSH1 0x3 DUP3 ADD SWAP1 PUSH2 0x20BC SWAP1 DUP3 PUSH2 0x486C JUMP JUMPDEST POP PUSH1 0x80 DUP3 ADD MLOAD PUSH1 0x4 DUP3 ADD DUP1 SLOAD PUSH1 0x1 PUSH1 0x1 PUSH1 0xA0 SHL SUB NOT AND PUSH1 0x1 PUSH1 0x1 PUSH1 0xA0 SHL SUB SWAP1 SWAP3 AND SWAP2 SWAP1 SWAP2 OR SWAP1 SSTORE PUSH1 0xA0 DUP3 ADD MLOAD PUSH1 0x5 DUP3 ADD SSTORE PUSH1 0xC0 DUP3 ADD MLOAD DUP1 MLOAD PUSH2 0x2108 SWAP2 PUSH1 0x6 DUP5 ADD SWAP2 PUSH1 0x20 SWAP1 SWAP2 ADD SWAP1 PUSH2 0x3F56 JUMP JUMPDEST POP PUSH1 0xE0 DUP3 ADD MLOAD PUSH1 0x7 DUP3 ADD DUP1 SLOAD PUSH1 0xFF NOT AND SWAP2 ISZERO ISZERO SWAP2 SWAP1 SWAP2 OR SWAP1 SSTORE PUSH2 0x100 SWAP1 SWAP2 ADD MLOAD PUSH1 0x8 SWAP1 SWAP2 ADD SSTORE CALLER PUSH0 DUP2 DUP2 MSTORE PUSH1 0x13 PUSH1 0x20 SWAP1 DUP2 MSTORE PUSH1 0x40 DUP1 DUP4 KECCAK256 DUP1 SLOAD PUSH1 0x1 DUP2 ADD DUP3 SSTORE SWAP1 DUP5 MSTORE SWAP2 SWAP1 SWAP3 KECCAK256 ADD DUP5 SWAP1 SSTORE MLOAD DUP4 SWAP1 PUSH32 0xCBC5B9322598689B615122C4E8865DCF948B43E47A66C57F567C94BFB4641425 SWAP1 PUSH2 0x2184 SWAP1 DUP12 SWAP1 CHAINID SWAP1 PUSH2 0x4A61 JUMP JUMPDEST PUSH1 0x40 MLOAD DUP1 SWAP2 SUB SWAP1 LOG3 POP SWAP6 SWAP5 POP POP POP POP POP JUMP JUMPDEST CALLER PUSH2 0x21A0 DUP4 PUSH2 0x17D7 JUMP JUMPDEST PUSH1 0x1 PUSH1 0x1 PUSH1 0xA0 SHL SUB AND EQ PUSH2 0x21E6 JUMPI PUSH1 0x40 MLOAD PUSH3 0x461BCD PUSH1 0xE5 SHL DUP2 MSTORE PUSH1 0x20 PUSH1 0x4 DUP3 ADD MSTORE PUSH1 0xD PUSH1 0x24 DUP3 ADD MSTORE PUSH13 0x2737BA1027232A1037BBB732B9 PUSH1 0x99 SHL PUSH1 0x44 DUP3 ADD MSTORE PUSH1 0x64 ADD PUSH2 0xD3A JUMP JUMPDEST PUSH0 DUP2 GT PUSH2 0x2235 JUMPI PUSH1 0x40 MLOAD PUSH3 0x461BCD PUSH1 0xE5 SHL DUP2 MSTORE PUSH1 0x20 PUSH1 0x4 DUP3 ADD MSTORE PUSH1 0x1C PUSH1 0x24 DUP3 ADD MSTORE PUSH32 0x5072696365206D7573742062652067726561746572207468616E203000000000 PUSH1 0x44 DUP3 ADD MSTORE PUSH1 0x64 ADD PUSH2 0xD3A JUMP JUMPDEST PUSH1 0x40 DUP1 MLOAD PUSH1 0x80 DUP2 ADD DUP3 MSTORE DUP4 DUP2 MSTORE CALLER PUSH1 0x20 DUP1 DUP4 ADD SWAP2 DUP3 MSTORE DUP3 DUP5 ADD DUP6 DUP2 MSTORE PUSH1 0x1 PUSH1 0x60 DUP6 ADD DUP2 DUP2 MSTORE PUSH0 DUP10 DUP2 MSTORE PUSH1 0x18 DUP6 MSTORE DUP8 DUP2 KECCAK256 SWAP7 MLOAD DUP8 SSTORE SWAP5 MLOAD DUP7 DUP4 ADD DUP1 SLOAD PUSH1 0x1 PUSH1 0x1 PUSH1 0xA0 SHL SUB SWAP1 SWAP3 AND PUSH1 0x1 PUSH1 0x1 PUSH1 0xA0 SHL SUB NOT SWAP1 SWAP3 AND SWAP2 SWAP1 SWAP2 OR SWAP1 SSTORE SWAP2 MLOAD PUSH1 0x2 DUP7 ADD SSTORE SWAP1 MLOAD PUSH1 0x3 SWAP1 SWAP5 ADD DUP1 SLOAD SWAP5 ISZERO ISZERO PUSH1 0xFF NOT SWAP6 DUP7 AND OR SWAP1 SSTORE PUSH1 0xF DUP3 MSTORE SWAP2 DUP5 SWAP1 KECCAK256 PUSH1 0xA DUP2 ADD DUP1 SLOAD SWAP1 SWAP5 AND SWAP1 SWAP3 OR SWAP1 SWAP3 SSTORE PUSH1 0xB ADD DUP4 SWAP1 SSTORE SWAP1 MLOAD DUP3 DUP2 MSTORE DUP4 SWAP2 PUSH32 0xA6CD73580A273EEC6C1026108F6B63479FBAEF5356DDE4FF43E4B38DD187485F SWAP2 ADD PUSH1 0x40 MLOAD DUP1 SWAP2 SUB SWAP1 LOG2 POP POP JUMP JUMPDEST PUSH1 0x60 PUSH1 0x1 DUP1 SLOAD PUSH2 0xBF7 SWAP1 PUSH2 0x47C4 JUMP JUMPDEST PUSH1 0x1 PUSH1 0x1 PUSH1 0xA0 SHL SUB DUP2 AND PUSH0 SWAP1 DUP2 MSTORE PUSH1 0x13 PUSH1 0x20 SWAP1 DUP2 MSTORE PUSH1 0x40 SWAP2 DUP3 SWAP1 KECCAK256 DUP1 SLOAD DUP4 MLOAD DUP2 DUP5 MUL DUP2 ADD DUP5 ADD SWAP1 SWAP5 MSTORE DUP1 DUP5 MSTORE PUSH1 0x60 SWAP4 SWAP3 DUP4 ADD DUP3 DUP3 DUP1 ISZERO PUSH2 0x17CB JUMPI PUSH1 0x20 MUL DUP3 ADD SWAP2 SWAP1 PUSH0 MSTORE PUSH1 0x20 PUSH0 KECCAK256 SWAP1 DUP2 SLOAD DUP2 MSTORE PUSH1 0x20 ADD SWAP1 PUSH1 0x1 ADD SWAP1 DUP1 DUP4 GT PUSH2 0x17B7 JUMPI POP POP POP POP POP SWAP1 POP SWAP2 SWAP1 POP JUMP JUMPDEST PUSH1 0x60 PUSH0 DUP3 GT DUP1 ISZERO PUSH2 0x2385 JUMPI POP PUSH1 0x11 SLOAD DUP3 GT ISZERO JUMPDEST PUSH2 0x23C6 JUMPI PUSH1 0x40 MLOAD PUSH3 0x461BCD PUSH1 0xE5 SHL DUP2 MSTORE PUSH1 0x20 PUSH1 0x4 DUP3 ADD MSTORE PUSH1 0x12 PUSH1 0x24 DUP3 ADD MSTORE PUSH18 0x24B73B30B634B21031B7B63632B1BA34B7B7 PUSH1 0x71 SHL PUSH1 0x44 DUP3 ADD MSTORE PUSH1 0x64 ADD PUSH2 0xD3A JUMP JUMPDEST PUSH0 DUP3 DUP2 MSTORE PUSH1 0x12 PUSH1 0x20 SWAP1 DUP2 MSTORE PUSH1 0x40 SWAP2 DUP3 SWAP1 KECCAK256 PUSH1 0x6 ADD DUP1 SLOAD DUP4 MLOAD DUP2 DUP5 MUL DUP2 ADD DUP5 ADD SWAP1 SWAP5 MSTORE DUP1 DUP5 MSTORE SWAP1 SWAP2 DUP4 ADD DUP3 DUP3 DUP1 ISZERO PUSH2 0x17CB JUMPI PUSH1 0x20 MUL DUP3 ADD SWAP2 SWAP1 PUSH0 MSTORE PUSH1 0x20 PUSH0 KECCAK256 SWAP1 DUP2 SLOAD DUP2 MSTORE PUSH1 0x20 ADD SWAP1 PUSH1 0x1 ADD SWAP1 DUP1 DUP4 GT PUSH2 0x17B7 JUMPI POP POP POP POP POP SWAP1 POP SWAP2 SWAP1 POP JUMP JUMPDEST PUSH2 0xCAA CALLER DUP4 DUP4 PUSH2 0x345C JUMP JUMPDEST PUSH2 0x2437 PUSH2 0x330B JUMP JUMPDEST CALLER PUSH0 SWAP1 DUP2 MSTORE PUSH1 0x19 PUSH1 0x20 MSTORE PUSH1 0x40 SWAP1 KECCAK256 SLOAD DUP2 LT PUSH2 0x2486 JUMPI PUSH1 0x40 MLOAD PUSH3 0x461BCD PUSH1 0xE5 SHL DUP2 MSTORE PUSH1 0x20 PUSH1 0x4 DUP3 ADD MSTORE PUSH1 0xF PUSH1 0x24 DUP3 ADD MSTORE PUSH15 0x125B9D985B1A59081B1BD8DAC81251 PUSH1 0x8A SHL PUSH1 0x44 DUP3 ADD MSTORE PUSH1 0x64 ADD PUSH2 0xD3A JUMP JUMPDEST CALLER PUSH0 SWAP1 DUP2 MSTORE PUSH1 0x19 PUSH1 0x20 MSTORE PUSH1 0x40 DUP2 KECCAK256 DUP1 SLOAD DUP4 SWAP1 DUP2 LT PUSH2 0x24A6 JUMPI PUSH2 0x24A6 PUSH2 0x49BF JUMP JUMPDEST PUSH0 SWAP2 DUP3 MSTORE PUSH1 0x20 SWAP1 SWAP2 KECCAK256 PUSH1 0x8 SWAP1 SWAP2 MUL ADD PUSH1 0x4 DUP2 ADD SLOAD SWAP1 SWAP2 POP PUSH1 0xFF AND ISZERO PUSH2 0x24FF JUMPI PUSH1 0x40 MLOAD PUSH3 0x461BCD PUSH1 0xE5 SHL DUP2 MSTORE PUSH1 0x20 PUSH1 0x4 DUP3 ADD MSTORE PUSH1 0xF PUSH1 0x24 DUP3 ADD MSTORE PUSH15 0x105B1C9958591E4818DB185A5B5959 PUSH1 0x8A SHL PUSH1 0x44 DUP3 ADD MSTORE PUSH1 0x64 ADD PUSH2 0xD3A JUMP JUMPDEST DUP1 PUSH1 0x3 ADD SLOAD DUP2 PUSH1 0x2 ADD SLOAD PUSH2 0x2513 SWAP2 SWAP1 PUSH2 0x4A37 JUMP JUMPDEST TIMESTAMP LT PUSH2 0x2558 JUMPI PUSH1 0x40 MLOAD PUSH3 0x461BCD PUSH1 0xE5 SHL DUP2 MSTORE PUSH1 0x20 PUSH1 0x4 DUP3 ADD MSTORE PUSH1 0x14 PUSH1 0x24 DUP3 ADD MSTORE PUSH20 0x131BD8DAC81C195C9A5BD908199A5B9A5CDA1959 PUSH1 0x62 SHL PUSH1 0x44 DUP3 ADD MSTORE PUSH1 0x64 ADD PUSH2 0xD3A JUMP JUMPDEST PUSH1 0x4 DUP2 ADD DUP1 SLOAD PUSH1 0xFF NOT AND PUSH1 0x1 OR SWAP1 SSTORE PUSH1 0x6 DUP2 ADD SLOAD PUSH1 0xFF AND ISZERO PUSH2 0x25F0 JUMPI PUSH1 0x1D SLOAD DUP2 SLOAD PUSH1 0x1 DUP4 ADD SLOAD PUSH1 0x40 MLOAD PUSH4 0x1A4CA37B PUSH1 0xE2 SHL DUP2 MSTORE PUSH1 0x1 PUSH1 0x1 PUSH1 0xA0 SHL SUB SWAP4 DUP5 AND SWAP4 PUSH4 0x69328DEC SWAP4 PUSH2 0x25AE SWAP4 SWAP2 AND SWAP2 ADDRESS SWAP1 PUSH1 0x4 ADD PUSH2 0x4945 JUMP JUMPDEST PUSH1 0x20 PUSH1 0x40 MLOAD DUP1 DUP4 SUB DUP2 PUSH0 DUP8 GAS CALL ISZERO DUP1 ISZERO PUSH2 0x25CA JUMPI RETURNDATASIZE PUSH0 PUSH0 RETURNDATACOPY RETURNDATASIZE PUSH0 REVERT JUMPDEST POP POP POP POP PUSH1 0x40 MLOAD RETURNDATASIZE PUSH1 0x1F NOT PUSH1 0x1F DUP3 ADD AND DUP3 ADD DUP1 PUSH1 0x40 MSTORE POP DUP2 ADD SWAP1 PUSH2 0x25EE SWAP2 SWAP1 PUSH2 0x4A4A JUMP JUMPDEST POP JUMPDEST PUSH0 PUSH1 0x64 DUP3 PUSH1 0x1 ADD SLOAD PUSH1 0xA PUSH2 0x2604 SWAP2 SWAP1 PUSH2 0x49D3 JUMP JUMPDEST PUSH2 0x260E SWAP2 SWAP1 PUSH2 0x49EA JUMP JUMPDEST SWAP1 POP PUSH0 DUP2 DUP4 PUSH1 0x1 ADD SLOAD PUSH2 0x2621 SWAP2 SWAP1 PUSH2 0x4A09 JUMP JUMPDEST DUP4 SLOAD PUSH1 0x1A SLOAD PUSH1 0x40 MLOAD PUSH4 0xA9059CBB PUSH1 0xE0 SHL DUP2 MSTORE PUSH1 0x1 PUSH1 0x1 PUSH1 0xA0 SHL SUB SWAP2 DUP3 AND PUSH1 0x4 DUP3 ADD MSTORE PUSH1 0x24 DUP2 ADD DUP7 SWAP1 MSTORE SWAP3 SWAP4 POP AND SWAP1 PUSH4 0xA9059CBB SWAP1 PUSH1 0x44 ADD PUSH1 0x20 PUSH1 0x40 MLOAD DUP1 DUP4 SUB DUP2 PUSH0 DUP8 GAS CALL ISZERO DUP1 ISZERO PUSH2 0x2674 JUMPI RETURNDATASIZE PUSH0 PUSH0 RETURNDATACOPY RETURNDATASIZE PUSH0 REVERT JUMPDEST POP POP POP POP PUSH1 0x40 MLOAD RETURNDATASIZE PUSH1 0x1F NOT PUSH1 0x1F DUP3 ADD AND DUP3 ADD DUP1 PUSH1 0x40 MSTORE POP DUP2 ADD SWAP1 PUSH2 0x2698 SWAP2 SWAP1 PUSH2 0x4A1C JUMP JUMPDEST POP DUP3 SLOAD PUSH1 0x40 MLOAD PUSH4 0xA9059CBB PUSH1 0xE0 SHL DUP2 MSTORE CALLER PUSH1 0x4 DUP3 ADD MSTORE PUSH1 0x24 DUP2 ADD DUP4 SWAP1 MSTORE PUSH1 0x1 PUSH1 0x1 PUSH1 0xA0 SHL SUB SWAP1 SWAP2 AND SWAP1 PUSH4 0xA9059CBB SWAP1 PUSH1 0x44 ADD PUSH1 0x20 PUSH1 0x40 MLOAD DUP1 DUP4 SUB DUP2 PUSH0 DUP8 GAS CALL ISZERO DUP1 ISZERO PUSH2 0x26E6 JUMPI RETURNDATASIZE PUSH0 PUSH0 RETURNDATACOPY RETURNDATASIZE PUSH0 REVERT JUMPDEST POP POP POP POP PUSH1 0x40 MLOAD RETURNDATASIZE PUSH1 0x1F NOT PUSH1 0x1F DUP3 ADD AND DUP3 ADD DUP1 PUSH1 0x40 MSTORE POP DUP2 ADD SWAP1 PUSH2 0x270A SWAP2 SWAP1 PUSH2 0x4A1C JUMP JUMPDEST POP PUSH1 0x40 DUP1 MLOAD DUP6 DUP2 MSTORE PUSH1 0x20 DUP2 ADD DUP5 SWAP1 MSTORE CALLER SWAP2 PUSH32 0x73F0644CD8AFA7AD22314A5CEAD22C249F333E40FA1FE21A6B282AE3F5FD5DF4 SWAP2 ADD PUSH1 0x40 MLOAD DUP1 SWAP2 SUB SWAP1 LOG2 POP POP POP PUSH2 0x176B PUSH1 0x1 PUSH1 0xC SSTORE JUMP JUMPDEST PUSH1 0x19 PUSH1 0x20 MSTORE DUP2 PUSH0 MSTORE PUSH1 0x40 PUSH0 KECCAK256 DUP2 DUP2 SLOAD DUP2 LT PUSH2 0x276C JUMPI PUSH0 DUP1 REVERT JUMPDEST PUSH0 SWAP2 DUP3 MSTORE PUSH1 0x20 SWAP1 SWAP2 KECCAK256 PUSH1 0x8 SWAP1 SWAP2 MUL ADD DUP1 SLOAD PUSH1 0x1 DUP3 ADD SLOAD PUSH1 0x2 DUP4 ADD SLOAD PUSH1 0x3 DUP5 ADD SLOAD PUSH1 0x4 DUP6 ADD SLOAD PUSH1 0x5 DUP7 ADD SLOAD PUSH1 0x6 DUP8 ADD SLOAD PUSH1 0x7 SWAP1 SWAP8 ADD SLOAD PUSH1 0x1 PUSH1 0x1 PUSH1 0xA0 SHL SUB SWAP1 SWAP7 AND SWAP9 POP SWAP4 SWAP7 POP SWAP2 SWAP5 SWAP1 SWAP4 PUSH1 0xFF SWAP3 DUP4 AND SWAP4 SWAP3 SWAP1 SWAP2 AND SWAP1 DUP9 JUMP JUMPDEST PUSH0 DUP3 GT DUP1 ISZERO PUSH2 0x27D4 JUMPI POP PUSH1 0x11 SLOAD DUP3 GT ISZERO JUMPDEST PUSH2 0x2815 JUMPI PUSH1 0x40 MLOAD PUSH3 0x461BCD PUSH1 0xE5 SHL DUP2 MSTORE PUSH1 0x20 PUSH1 0x4 DUP3 ADD MSTORE PUSH1 0x12 PUSH1 0x24 DUP3 ADD MSTORE PUSH18 0x24B73B30B634B21031B7B63632B1BA34B7B7 PUSH1 0x71 SHL PUSH1 0x44 DUP3 ADD MSTORE PUSH1 0x64 ADD PUSH2 0xD3A JUMP JUMPDEST CALLER PUSH2 0x281F DUP3 PUSH2 0x17D7 JUMP JUMPDEST PUSH1 0x1 PUSH1 0x1 PUSH1 0xA0 SHL SUB AND EQ PUSH2 0x2865 JUMPI PUSH1 0x40 MLOAD PUSH3 0x461BCD PUSH1 0xE5 SHL DUP2 MSTORE PUSH1 0x20 PUSH1 0x4 DUP3 ADD MSTORE PUSH1 0xD PUSH1 0x24 DUP3 ADD MSTORE PUSH13 0x2737BA1027232A1037BBB732B9 PUSH1 0x99 SHL PUSH1 0x44 DUP3 ADD MSTORE PUSH1 0x64 ADD PUSH2 0xD3A JUMP JUMPDEST PUSH0 DUP3 DUP2 MSTORE PUSH1 0x12 PUSH1 0x20 MSTORE PUSH1 0x40 SWAP1 KECCAK256 PUSH1 0x4 ADD SLOAD PUSH1 0x1 PUSH1 0x1 PUSH1 0xA0 SHL SUB AND CALLER EQ PUSH2 0x289D JUMPI PUSH1 0x40 MLOAD PUSH3 0x461BCD PUSH1 0xE5 SHL DUP2 MSTORE PUSH1 0x4 ADD PUSH2 0xD3A SWAP1 PUSH2 0x4991 JUMP JUMPDEST PUSH0 DUP3 DUP2 MSTORE PUSH1 0x14 PUSH1 0x20 SWAP1 DUP2 MSTORE PUSH1 0x40 DUP1 DUP4 KECCAK256 DUP5 DUP5 MSTORE SWAP1 SWAP2 MSTORE SWAP1 KECCAK256 SLOAD PUSH1 0xFF AND ISZERO PUSH2 0x28FE JUMPI PUSH1 0x40 MLOAD PUSH3 0x461BCD PUSH1 0xE5 SHL DUP2 MSTORE PUSH1 0x20 PUSH1 0x4 DUP3 ADD MSTORE PUSH1 0x15 PUSH1 0x24 DUP3 ADD MSTORE PUSH21 0x20B63932B0B23C9034B71031B7B63632B1BA34B7B7 PUSH1 0x59 SHL PUSH1 0x44 DUP3 ADD MSTORE PUSH1 0x64 ADD PUSH2 0xD3A JUMP JUMPDEST PUSH0 DUP3 DUP2 MSTORE PUSH1 0x12 PUSH1 0x20 SWAP1 DUP2 MSTORE PUSH1 0x40 DUP1 DUP4 KECCAK256 PUSH1 0x6 ADD DUP1 SLOAD PUSH1 0x1 DUP2 DUP2 ADD DUP4 SSTORE SWAP2 DUP6 MSTORE DUP4 DUP6 KECCAK256 ADD DUP6 SWAP1 SSTORE DUP6 DUP5 MSTORE PUSH1 0x14 DUP4 MSTORE DUP2 DUP5 KECCAK256 DUP6 DUP6 MSTORE DUP4 MSTORE DUP2 DUP5 KECCAK256 DUP1 SLOAD PUSH1 0xFF NOT AND SWAP1 SWAP2 OR SWAP1 SSTORE PUSH1 0xF SWAP1 SWAP2 MSTORE DUP1 DUP3 KECCAK256 PUSH1 0x5 ADD DUP5 SWAP1 SSTORE MLOAD DUP3 SWAP2 DUP5 SWAP2 PUSH32 0x3B3F4A0879ADB468F95AF56C9DA744059B4DF6C7189EDAE9D2DDB821161C4D1C SWAP2 SWAP1 LOG3 POP POP JUMP JUMPDEST PUSH2 0x2987 DUP5 DUP5 DUP5 PUSH2 0xF86 JUMP JUMPDEST PUSH2 0xFF5 CALLER DUP6 DUP6 DUP6 DUP6 PUSH2 0x34FA JUMP JUMPDEST PUSH2 0x299C PUSH2 0x31F4 JUMP JUMPDEST PUSH1 0x1 PUSH1 0x1 PUSH1 0xA0 SHL SUB DUP2 AND PUSH2 0x29C2 JUMPI PUSH1 0x40 MLOAD PUSH3 0x461BCD PUSH1 0xE5 SHL DUP2 MSTORE PUSH1 0x4 ADD PUSH2 0xD3A SWAP1 PUSH2 0x4968 JUMP JUMPDEST PUSH1 0x1C DUP1 SLOAD PUSH1 0x1 PUSH1 0x1 PUSH1 0xA0 SHL SUB NOT AND PUSH1 0x1 PUSH1 0x1 PUSH1 0xA0 SHL SUB SWAP3 SWAP1 SWAP3 AND SWAP2 SWAP1 SWAP2 OR SWAP1 SSTORE JUMP JUMPDEST PUSH1 0x60 PUSH2 0xBE3 DUP3 PUSH2 0x3622 JUMP JUMPDEST PUSH2 0x29F7 PUSH2 0x31F4 JUMP JUMPDEST PUSH1 0x1 PUSH1 0x1 PUSH1 0xA0 SHL SUB DUP2 AND PUSH2 0x2A1D JUMPI PUSH1 0x40 MLOAD PUSH3 0x461BCD PUSH1 0xE5 SHL DUP2 MSTORE PUSH1 0x4 ADD PUSH2 0xD3A SWAP1 PUSH2 0x4968 JUMP JUMPDEST PUSH1 0x1A DUP1 SLOAD PUSH1 0x1 PUSH1 0x1 PUSH1 0xA0 SHL SUB NOT AND PUSH1 0x1 PUSH1 0x1 PUSH1 0xA0 SHL SUB SWAP3 SWAP1 SWAP3 AND SWAP2 SWAP1 SWAP2 OR SWAP1 SSTORE JUMP JUMPDEST PUSH2 0x2A47 PUSH2 0x330B JUMP JUMPDEST PUSH2 0x2A4F PUSH2 0x3221 JUMP JUMPDEST PUSH0 DUP4 GT PUSH2 0x2A9E JUMPI PUSH1 0x40 MLOAD PUSH3 0x461BCD PUSH1 0xE5 SHL DUP2 MSTORE PUSH1 0x20 PUSH1 0x4 DUP3 ADD MSTORE PUSH1 0x1D PUSH1 0x24 DUP3 ADD MSTORE PUSH32 0x416D6F756E74206D7573742062652067726561746572207468616E2030000000 PUSH1 0x44 DUP3 ADD MSTORE PUSH1 0x64 ADD PUSH2 0xD3A JUMP JUMPDEST PUSH3 0x93A80 DUP3 LT ISZERO PUSH2 0x2AF1 JUMPI PUSH1 0x40 MLOAD PUSH3 0x461BCD PUSH1 0xE5 SHL DUP2 MSTORE PUSH1 0x20 PUSH1 0x4 DUP3 ADD MSTORE PUSH1 0x1D PUSH1 0x24 DUP3 ADD MSTORE PUSH32 0x4D696E696D756D206C6F636B20706572696F6420697320372064617973000000 PUSH1 0x44 DUP3 ADD MSTORE PUSH1 0x64 ADD PUSH2 0xD3A JUMP JUMPDEST PUSH4 0x1E13380 DUP3 GT ISZERO PUSH2 0x2B45 JUMPI PUSH1 0x40 MLOAD PUSH3 0x461BCD PUSH1 0xE5 SHL DUP2 MSTORE PUSH1 0x20 PUSH1 0x4 DUP3 ADD MSTORE PUSH1 0x1F PUSH1 0x24 DUP3 ADD MSTORE PUSH32 0x4D6178696D756D206C6F636B20706572696F6420697320333635206461797300 PUSH1 0x44 DUP3 ADD MSTORE PUSH1 0x64 ADD PUSH2 0xD3A JUMP JUMPDEST PUSH1 0x40 MLOAD PUSH4 0x23B872DD PUSH1 0xE0 SHL DUP2 MSTORE CALLER PUSH1 0x4 DUP3 ADD MSTORE ADDRESS PUSH1 0x24 DUP3 ADD MSTORE PUSH1 0x44 DUP2 ADD DUP5 SWAP1 MSTORE PUSH1 0x1 PUSH1 0x1 PUSH1 0xA0 SHL SUB DUP6 AND SWAP1 PUSH4 0x23B872DD SWAP1 PUSH1 0x64 ADD PUSH1 0x20 PUSH1 0x40 MLOAD DUP1 DUP4 SUB DUP2 PUSH0 DUP8 GAS CALL ISZERO DUP1 ISZERO PUSH2 0x2B95 JUMPI RETURNDATASIZE PUSH0 PUSH0 RETURNDATACOPY RETURNDATASIZE PUSH0 REVERT JUMPDEST POP POP POP POP PUSH1 0x40 MLOAD RETURNDATASIZE PUSH1 0x1F NOT PUSH1 0x1F DUP3 ADD AND DUP3 ADD DUP1 PUSH1 0x40 MSTORE POP DUP2 ADD SWAP1 PUSH2 0x2BB9 SWAP2 SWAP1 PUSH2 0x4A1C JUMP JUMPDEST POP DUP1 ISZERO PUSH2 0x2CA3 JUMPI PUSH1 0x1D SLOAD PUSH1 0x40 MLOAD PUSH4 0x95EA7B3 PUSH1 0xE0 SHL DUP2 MSTORE PUSH1 0x1 PUSH1 0x1 PUSH1 0xA0 SHL SUB SWAP2 DUP3 AND PUSH1 0x4 DUP3 ADD MSTORE PUSH1 0x24 DUP2 ADD DUP6 SWAP1 MSTORE SWAP1 DUP6 AND SWAP1 PUSH4 0x95EA7B3 SWAP1 PUSH1 0x44 ADD PUSH1 0x20 PUSH1 0x40 MLOAD DUP1 DUP4 SUB DUP2 PUSH0 DUP8 GAS CALL ISZERO DUP1 ISZERO PUSH2 0x2C10 JUMPI RETURNDATASIZE PUSH0 PUSH0 RETURNDATACOPY RETURNDATASIZE PUSH0 REVERT JUMPDEST POP POP POP POP PUSH1 0x40 MLOAD RETURNDATASIZE PUSH1 0x1F NOT PUSH1 0x1F DUP3 ADD AND DUP3 ADD DUP1 PUSH1 0x40 MSTORE POP DUP2 ADD SWAP1 PUSH2 0x2C34 SWAP2 SWAP1 PUSH2 0x4A1C JUMP JUMPDEST POP PUSH1 0x1D SLOAD PUSH1 0x40 MLOAD PUSH4 0x617BA037 PUSH1 0xE0 SHL DUP2 MSTORE PUSH1 0x1 PUSH1 0x1 PUSH1 0xA0 SHL SUB DUP7 DUP2 AND PUSH1 0x4 DUP4 ADD MSTORE PUSH1 0x24 DUP3 ADD DUP7 SWAP1 MSTORE ADDRESS PUSH1 0x44 DUP4 ADD MSTORE PUSH0 PUSH1 0x64 DUP4 ADD MSTORE SWAP1 SWAP2 AND SWAP1 PUSH4 0x617BA037 SWAP1 PUSH1 0x84 ADD PUSH0 PUSH1 0x40 MLOAD DUP1 DUP4 SUB DUP2 PUSH0 DUP8 DUP1 EXTCODESIZE ISZERO DUP1 ISZERO PUSH2 0x2C8C JUMPI PUSH0 PUSH0 REVERT JUMPDEST POP GAS CALL ISZERO DUP1 ISZERO PUSH2 0x2C9E JUMPI RETURNDATASIZE PUSH0 PUSH0 RETURNDATACOPY RETURNDATASIZE PUSH0 REVERT JUMPDEST POP POP POP POP JUMPDEST PUSH1 0x19 PUSH0 CALLER PUSH1 0x1 PUSH1 0x1 PUSH1 0xA0 SHL SUB AND PUSH1 0x1 PUSH1 0x1 PUSH1 0xA0 SHL SUB AND DUP2 MSTORE PUSH1 0x20 ADD SWAP1 DUP2 MSTORE PUSH1 0x20 ADD PUSH0 KECCAK256 PUSH1 0x40 MLOAD DUP1 PUSH2 0x100 ADD PUSH1 0x40 MSTORE DUP1 DUP7 PUSH1 0x1 PUSH1 0x1 PUSH1 0xA0 SHL SUB AND DUP2 MSTORE PUSH1 0x20 ADD DUP6 DUP2 MSTORE PUSH1 0x20 ADD TIMESTAMP DUP2 MSTORE PUSH1 0x20 ADD DUP5 DUP2 MSTORE PUSH1 0x20 ADD PUSH0 ISZERO ISZERO DUP2 MSTORE PUSH1 0x20 ADD PUSH0 DUP2 MSTORE PUSH1 0x20 ADD DUP4 ISZERO ISZERO DUP2 MSTORE PUSH1 0x20 ADD PUSH0 DUP2 MSTORE POP SWAP1 DUP1 PUSH1 0x1 DUP2 SLOAD ADD DUP1 DUP3 SSTORE DUP1 SWAP2 POP POP PUSH1 0x1 SWAP1 SUB SWAP1 PUSH0 MSTORE PUSH1 0x20 PUSH0 KECCAK256 SWAP1 PUSH1 0x8 MUL ADD PUSH0 SWAP1 SWAP2 SWAP1 SWAP2 SWAP1 SWAP2 POP PUSH0 DUP3 ADD MLOAD DUP2 PUSH0 ADD PUSH0 PUSH2 0x100 EXP DUP2 SLOAD DUP2 PUSH1 0x1 PUSH1 0x1 PUSH1 0xA0 SHL SUB MUL NOT AND SWAP1 DUP4 PUSH1 0x1 PUSH1 0x1 PUSH1 0xA0 SHL SUB AND MUL OR SWAP1 SSTORE POP PUSH1 0x20 DUP3 ADD MLOAD DUP2 PUSH1 0x1 ADD SSTORE PUSH1 0x40 DUP3 ADD MLOAD DUP2 PUSH1 0x2 ADD SSTORE PUSH1 0x60 DUP3 ADD MLOAD DUP2 PUSH1 0x3 ADD SSTORE PUSH1 0x80 DUP3 ADD MLOAD DUP2 PUSH1 0x4 ADD PUSH0 PUSH2 0x100 EXP DUP2 SLOAD DUP2 PUSH1 0xFF MUL NOT AND SWAP1 DUP4 ISZERO ISZERO MUL OR SWAP1 SSTORE POP PUSH1 0xA0 DUP3 ADD MLOAD DUP2 PUSH1 0x5 ADD SSTORE PUSH1 0xC0 DUP3 ADD MLOAD DUP2 PUSH1 0x6 ADD PUSH0 PUSH2 0x100 EXP DUP2 SLOAD DUP2 PUSH1 0xFF MUL NOT AND SWAP1 DUP4 ISZERO ISZERO MUL OR SWAP1 SSTORE POP PUSH1 0xE0 DUP3 ADD MLOAD DUP2 PUSH1 0x7 ADD SSTORE POP POP DUP4 PUSH1 0x1 PUSH1 0x1 PUSH1 0xA0 SHL SUB AND CALLER PUSH1 0x1 PUSH1 0x1 PUSH1 0xA0 SHL SUB AND PUSH32 0xC392E99D431032AC14A872985E1784CD90533E27608253C002A198D8E6358ED9 DUP6 DUP6 PUSH1 0x1 PUSH1 0x19 PUSH0 CALLER PUSH1 0x1 PUSH1 0x1 PUSH1 0xA0 SHL SUB AND PUSH1 0x1 PUSH1 0x1 PUSH1 0xA0 SHL SUB AND DUP2 MSTORE PUSH1 0x20 ADD SWAP1 DUP2 MSTORE PUSH1 0x20 ADD PUSH0 KECCAK256 DUP1 SLOAD SWAP1 POP PUSH2 0x2E39 SWAP2 SWAP1 PUSH2 0x4A09 JUMP JUMPDEST PUSH1 0x40 DUP1 MLOAD SWAP4 DUP5 MSTORE PUSH1 0x20 DUP5 ADD SWAP3 SWAP1 SWAP3 MSTORE SWAP1 DUP3 ADD MSTORE PUSH1 0x60 ADD PUSH1 0x40 MLOAD DUP1 SWAP2 SUB SWAP1 LOG3 PUSH2 0xFF5 PUSH1 0x1 PUSH1 0xC SSTORE JUMP JUMPDEST PUSH0 PUSH0 PUSH2 0x2E6C DUP4 PUSH2 0x2F17 JUMP JUMPDEST SWAP1 POP PUSH5 0x496CEBB800 DUP4 PUSH2 0x2E7F DUP4 DUP8 PUSH2 0x49D3 JUMP JUMPDEST PUSH2 0x2E89 SWAP2 SWAP1 PUSH2 0x49D3 JUMP JUMPDEST PUSH2 0x2E93 SWAP2 SWAP1 PUSH2 0x49EA JUMP JUMPDEST SWAP5 SWAP4 POP POP POP POP JUMP JUMPDEST PUSH1 0x1 PUSH1 0x1 PUSH1 0xA0 SHL SUB SWAP2 DUP3 AND PUSH0 SWAP1 DUP2 MSTORE PUSH1 0x5 PUSH1 0x20 SWAP1 DUP2 MSTORE PUSH1 0x40 DUP1 DUP4 KECCAK256 SWAP4 SWAP1 SWAP5 AND DUP3 MSTORE SWAP2 SWAP1 SWAP2 MSTORE KECCAK256 SLOAD PUSH1 0xFF AND SWAP1 JUMP JUMPDEST PUSH2 0x2ED0 PUSH2 0x31F4 JUMP JUMPDEST PUSH2 0x2710 DUP2 GT ISZERO PUSH2 0x2F12 JUMPI PUSH1 0x40 MLOAD PUSH3 0x461BCD PUSH1 0xE5 SHL DUP2 MSTORE PUSH1 0x20 PUSH1 0x4 DUP3 ADD MSTORE PUSH1 0xD PUSH1 0x24 DUP3 ADD MSTORE PUSH13 0xA4C2E8CA40E8DEDE40D0D2CED PUSH1 0x9B SHL PUSH1 0x44 DUP3 ADD MSTORE PUSH1 0x64 ADD PUSH2 0xD3A JUMP JUMPDEST PUSH1 0x1B SSTORE JUMP JUMPDEST PUSH0 PUSH4 0x1E13380 DUP3 LT PUSH2 0x2F2C JUMPI POP PUSH2 0x7D0 SWAP2 SWAP1 POP JUMP JUMPDEST PUSH3 0xED4E00 DUP3 LT PUSH2 0x2F3F JUMPI POP PUSH2 0x5DC SWAP2 SWAP1 POP JUMP JUMPDEST PUSH3 0x76A700 DUP3 LT PUSH2 0x2F52 JUMPI POP PUSH2 0x4B0 SWAP2 SWAP1 POP JUMP JUMPDEST PUSH3 0x278D00 DUP3 LT PUSH2 0x2F65 JUMPI POP PUSH2 0x320 SWAP2 SWAP1 POP JUMP JUMPDEST POP PUSH2 0x1F4 SWAP2 SWAP1 POP JUMP JUMPDEST PUSH2 0x2F76 PUSH2 0x31F4 JUMP JUMPDEST PUSH1 0x1 PUSH1 0x1 PUSH1 0xA0 SHL SUB DUP2 AND PUSH2 0x2F9F JUMPI PUSH1 0x40 MLOAD PUSH4 0x1E4FBDF7 PUSH1 0xE0 SHL DUP2 MSTORE PUSH0 PUSH1 0x4 DUP3 ADD MSTORE PUSH1 0x24 ADD PUSH2 0xD3A JUMP JUMPDEST PUSH2 0x176B DUP2 PUSH2 0x33CE JUMP JUMPDEST PUSH1 0x12 PUSH1 0x20 MSTORE PUSH0 SWAP1 DUP2 MSTORE PUSH1 0x40 SWAP1 KECCAK256 DUP1 SLOAD PUSH1 0x1 DUP3 ADD DUP1 SLOAD SWAP2 SWAP3 SWAP2 PUSH2 0x2FC9 SWAP1 PUSH2 0x47C4 JUMP JUMPDEST DUP1 PUSH1 0x1F ADD PUSH1 0x20 DUP1 SWAP2 DIV MUL PUSH1 0x20 ADD PUSH1 0x40 MLOAD SWAP1 DUP2 ADD PUSH1 0x40 MSTORE DUP1 SWAP3 SWAP2 SWAP1 DUP2 DUP2 MSTORE PUSH1 0x20 ADD DUP3 DUP1 SLOAD PUSH2 0x2FF5 SWAP1 PUSH2 0x47C4 JUMP JUMPDEST DUP1 ISZERO PUSH2 0x3040 JUMPI DUP1 PUSH1 0x1F LT PUSH2 0x3017 JUMPI PUSH2 0x100 DUP1 DUP4 SLOAD DIV MUL DUP4 MSTORE SWAP2 PUSH1 0x20 ADD SWAP2 PUSH2 0x3040 JUMP JUMPDEST DUP3 ADD SWAP2 SWAP1 PUSH0 MSTORE PUSH1 0x20 PUSH0 KECCAK256 SWAP1 JUMPDEST DUP2 SLOAD DUP2 MSTORE SWAP1 PUSH1 0x1 ADD SWAP1 PUSH1 0x20 ADD DUP1 DUP4 GT PUSH2 0x3023 JUMPI DUP3 SWAP1 SUB PUSH1 0x1F AND DUP3 ADD SWAP2 JUMPDEST POP POP POP POP POP SWAP1 DUP1 PUSH1 0x2 ADD DUP1 SLOAD PUSH2 0x3055 SWAP1 PUSH2 0x47C4 JUMP JUMPDEST DUP1 PUSH1 0x1F ADD PUSH1 0x20 DUP1 SWAP2 DIV MUL PUSH1 0x20 ADD PUSH1 0x40 MLOAD SWAP1 DUP2 ADD PUSH1 0x40 MSTORE DUP1 SWAP3 SWAP2 SWAP1 DUP2 DUP2 MSTORE PUSH1 0x20 ADD DUP3 DUP1 SLOAD PUSH2 0x3081 SWAP1 PUSH2 0x47C4 JUMP JUMPDEST DUP1 ISZERO PUSH2 0x30CC JUMPI DUP1 PUSH1 0x1F LT PUSH2 0x30A3 JUMPI PUSH2 0x100 DUP1 DUP4 SLOAD DIV MUL DUP4 MSTORE SWAP2 PUSH1 0x20 ADD SWAP2 PUSH2 0x30CC JUMP JUMPDEST DUP3 ADD SWAP2 SWAP1 PUSH0 MSTORE PUSH1 0x20 PUSH0 KECCAK256 SWAP1 JUMPDEST DUP2 SLOAD DUP2 MSTORE SWAP1 PUSH1 0x1 ADD SWAP1 PUSH1 0x20 ADD DUP1 DUP4 GT PUSH2 0x30AF JUMPI DUP3 SWAP1 SUB PUSH1 0x1F AND DUP3 ADD SWAP2 JUMPDEST POP POP POP POP POP SWAP1 DUP1 PUSH1 0x3 ADD DUP1 SLOAD PUSH2 0x30E1 SWAP1 PUSH2 0x47C4 JUMP JUMPDEST DUP1 PUSH1 0x1F ADD PUSH1 0x20 DUP1 SWAP2 DIV MUL PUSH1 0x20 ADD PUSH1 0x40 MLOAD SWAP1 DUP2 ADD PUSH1 0x40 MSTORE DUP1 SWAP3 SWAP2 SWAP1 DUP2 DUP2 MSTORE PUSH1 0x20 ADD DUP3 DUP1 SLOAD PUSH2 0x310D SWAP1 PUSH2 0x47C4 JUMP JUMPDEST DUP1 ISZERO PUSH2 0x3158 JUMPI DUP1 PUSH1 0x1F LT PUSH2 0x312F JUMPI PUSH2 0x100 DUP1 DUP4 SLOAD DIV MUL DUP4 MSTORE SWAP2 PUSH1 0x20 ADD SWAP2 PUSH2 0x3158 JUMP JUMPDEST DUP3 ADD SWAP2 SWAP1 PUSH0 MSTORE PUSH1 0x20 PUSH0 KECCAK256 SWAP1 JUMPDEST DUP2 SLOAD DUP2 MSTORE SWAP1 PUSH1 0x1 ADD SWAP1 PUSH1 0x20 ADD DUP1 DUP4 GT PUSH2 0x313B JUMPI DUP3 SWAP1 SUB PUSH1 0x1F AND DUP3 ADD SWAP2 JUMPDEST POP POP POP PUSH1 0x4 DUP5 ADD SLOAD PUSH1 0x5 DUP6 ADD SLOAD PUSH1 0x7 DUP7 ADD SLOAD PUSH1 0x8 SWAP1 SWAP7 ADD SLOAD SWAP5 SWAP6 PUSH1 0x1 PUSH1 0x1 PUSH1 0xA0 SHL SUB SWAP1 SWAP3 AND SWAP5 SWAP1 SWAP4 POP PUSH1 0xFF SWAP1 SWAP2 AND SWAP2 POP DUP9 JUMP JUMPDEST PUSH0 PUSH1 0x1 PUSH1 0x1 PUSH1 0xE0 SHL SUB NOT DUP3 AND PUSH4 0x780E9D63 PUSH1 0xE0 SHL EQ DUP1 PUSH2 0xBE3 JUMPI POP PUSH2 0xBE3 DUP3 PUSH2 0x3725 JUMP JUMPDEST PUSH0 DUP2 DUP2 MSTORE PUSH1 0x2 PUSH1 0x20 MSTORE PUSH1 0x40 DUP2 KECCAK256 SLOAD PUSH1 0x1 PUSH1 0x1 PUSH1 0xA0 SHL SUB AND DUP1 PUSH2 0xBE3 JUMPI PUSH1 0x40 MLOAD PUSH4 0x7E273289 PUSH1 0xE0 SHL DUP2 MSTORE PUSH1 0x4 DUP2 ADD DUP5 SWAP1 MSTORE PUSH1 0x24 ADD PUSH2 0xD3A JUMP JUMPDEST PUSH2 0x1191 DUP4 DUP4 DUP4 PUSH1 0x1 PUSH2 0x3749 JUMP JUMPDEST PUSH1 0xB SLOAD PUSH1 0x1 PUSH1 0x1 PUSH1 0xA0 SHL SUB AND CALLER EQ PUSH2 0x1175 JUMPI PUSH1 0x40 MLOAD PUSH4 0x118CDAA7 PUSH1 0xE0 SHL DUP2 MSTORE CALLER PUSH1 0x4 DUP3 ADD MSTORE PUSH1 0x24 ADD PUSH2 0xD3A JUMP JUMPDEST PUSH1 0xD SLOAD PUSH1 0xFF AND ISZERO PUSH2 0x1175 JUMPI PUSH1 0x40 MLOAD PUSH4 0xD93C0665 PUSH1 0xE0 SHL DUP2 MSTORE PUSH1 0x4 ADD PUSH1 0x40 MLOAD DUP1 SWAP2 SUB SWAP1 REVERT JUMPDEST PUSH2 0xCAA DUP3 DUP3 PUSH1 0x40 MLOAD DUP1 PUSH1 0x20 ADD PUSH1 0x40 MSTORE DUP1 PUSH0 DUP2 MSTORE POP PUSH2 0x384D JUMP JUMPDEST PUSH0 DUP3 DUP2 MSTORE PUSH1 0x6 PUSH1 0x20 MSTORE PUSH1 0x40 SWAP1 KECCAK256 PUSH2 0x3275 DUP3 DUP3 PUSH2 0x486C JUMP JUMPDEST POP PUSH1 0x40 MLOAD DUP3 DUP2 MSTORE PUSH32 0xF8E1A15ABA9398E019F0B49DF1A4FDE98EE17AE345CB5F6B5E2C27F5033E8CE7 SWAP1 PUSH1 0x20 ADD PUSH1 0x40 MLOAD DUP1 SWAP2 SUB SWAP1 LOG1 POP POP JUMP JUMPDEST PUSH0 PUSH2 0x2E93 DUP5 DUP5 DUP5 PUSH2 0x3864 JUMP JUMPDEST PUSH2 0x32C1 PUSH2 0x392F JUMP JUMPDEST PUSH1 0xD DUP1 SLOAD PUSH1 0xFF NOT AND SWAP1 SSTORE PUSH32 0x5DB9EE0A495BF2E6FF9C91A7834C1BA4FDD244A5E8AA4E537BD38AEAE4B073AA CALLER JUMPDEST PUSH1 0x40 MLOAD PUSH1 0x1 PUSH1 0x1 PUSH1 0xA0 SHL SUB SWAP1 SWAP2 AND DUP2 MSTORE PUSH1 0x20 ADD PUSH1 0x40 MLOAD DUP1 SWAP2 SUB SWAP1 LOG1 JUMP JUMPDEST PUSH1 0x2 PUSH1 0xC SLOAD SUB PUSH2 0x332E JUMPI PUSH1 0x40 MLOAD PUSH4 0x3EE5AEB5 PUSH1 0xE0 SHL DUP2 MSTORE PUSH1 0x4 ADD PUSH1 0x40 MLOAD DUP1 SWAP2 SUB SWAP1 REVERT JUMPDEST PUSH1 0x2 PUSH1 0xC SSTORE JUMP JUMPDEST PUSH1 0x1 PUSH1 0x1 PUSH1 0xA0 SHL SUB DUP3 AND PUSH2 0x335E JUMPI PUSH1 0x40 MLOAD PUSH4 0x32505749 PUSH1 0xE1 SHL DUP2 MSTORE PUSH0 PUSH1 0x4 DUP3 ADD MSTORE PUSH1 0x24 ADD PUSH2 0xD3A JUMP JUMPDEST PUSH0 PUSH2 0x336A DUP4 DUP4 PUSH0 PUSH2 0x32AD JUMP JUMPDEST SWAP1 POP PUSH1 0x1 PUSH1 0x1 PUSH1 0xA0 SHL SUB DUP2 AND PUSH2 0x3396 JUMPI PUSH1 0x40 MLOAD PUSH4 0x7E273289 PUSH1 0xE0 SHL DUP2 MSTORE PUSH1 0x4 DUP2 ADD DUP4 SWAP1 MSTORE PUSH1 0x24 ADD PUSH2 0xD3A JUMP JUMPDEST DUP4 PUSH1 0x1 PUSH1 0x1 PUSH1 0xA0 SHL SUB AND DUP2 PUSH1 0x1 PUSH1 0x1 PUSH1 0xA0 SHL SUB AND EQ PUSH2 0xFF5 JUMPI DUP4 DUP3 DUP3 PUSH1 0x40 MLOAD PUSH4 0x64283D7B PUSH1 0xE0 SHL DUP2 MSTORE PUSH1 0x4 ADD PUSH2 0xD3A SWAP4 SWAP3 SWAP2 SWAP1 PUSH2 0x4945 JUMP JUMPDEST PUSH1 0xB DUP1 SLOAD PUSH1 0x1 PUSH1 0x1 PUSH1 0xA0 SHL SUB DUP4 DUP2 AND PUSH1 0x1 PUSH1 0x1 PUSH1 0xA0 SHL SUB NOT DUP4 AND DUP2 OR SWAP1 SWAP4 SSTORE PUSH1 0x40 MLOAD SWAP2 AND SWAP2 SWAP1 DUP3 SWAP1 PUSH32 0x8BE0079C531659141344CD1FD0A4F28419497F9722A3DAAFE3B4186F6B6457E0 SWAP1 PUSH0 SWAP1 LOG3 POP POP JUMP JUMPDEST PUSH2 0x3427 PUSH2 0x3221 JUMP JUMPDEST PUSH1 0xD DUP1 SLOAD PUSH1 0xFF NOT AND PUSH1 0x1 OR SWAP1 SSTORE PUSH32 0x62E78CEA01BEE320CD4E420270B5EA74000D11B0C9F74754EBDBFC544B05A258 PUSH2 0x32EE CALLER SWAP1 JUMP JUMPDEST PUSH1 0x1 PUSH1 0x1 PUSH1 0xA0 SHL SUB DUP3 AND PUSH2 0x348E JUMPI PUSH1 0x40 MLOAD PUSH4 0xB611743 PUSH1 0xE3 SHL DUP2 MSTORE PUSH1 0x1 PUSH1 0x1 PUSH1 0xA0 SHL SUB DUP4 AND PUSH1 0x4 DUP3 ADD MSTORE PUSH1 0x24 ADD PUSH2 0xD3A JUMP JUMPDEST PUSH1 0x1 PUSH1 0x1 PUSH1 0xA0 SHL SUB DUP4 DUP2 AND PUSH0 DUP2 DUP2 MSTORE PUSH1 0x5 PUSH1 0x20 SWAP1 DUP2 MSTORE PUSH1 0x40 DUP1 DUP4 KECCAK256 SWAP5 DUP8 AND DUP1 DUP5 MSTORE SWAP5 DUP3 MSTORE SWAP2 DUP3 SWAP1 KECCAK256 DUP1 SLOAD PUSH1 0xFF NOT AND DUP7 ISZERO ISZERO SWAP1 DUP2 OR SWAP1 SWAP2 SSTORE SWAP2 MLOAD SWAP2 DUP3 MSTORE PUSH32 0x17307EAB39AB6107E8899845AD3D59BD9653F200F220920489CA2B5937696C31 SWAP2 ADD PUSH1 0x40 MLOAD DUP1 SWAP2 SUB SWAP1 LOG3 POP POP POP JUMP JUMPDEST PUSH1 0x1 PUSH1 0x1 PUSH1 0xA0 SHL SUB DUP4 AND EXTCODESIZE ISZERO PUSH2 0x361B JUMPI PUSH1 0x40 MLOAD PUSH4 0xA85BD01 PUSH1 0xE1 SHL DUP2 MSTORE PUSH1 0x1 PUSH1 0x1 PUSH1 0xA0 SHL SUB DUP5 AND SWAP1 PUSH4 0x150B7A02 SWAP1 PUSH2 0x353C SWAP1 DUP9 SWAP1 DUP9 SWAP1 DUP8 SWAP1 DUP8 SWAP1 PUSH1 0x4 ADD PUSH2 0x4A82 JUMP JUMPDEST PUSH1 0x20 PUSH1 0x40 MLOAD DUP1 DUP4 SUB DUP2 PUSH0 DUP8 GAS CALL SWAP3 POP POP POP DUP1 ISZERO PUSH2 0x3576 JUMPI POP PUSH1 0x40 DUP1 MLOAD PUSH1 0x1F RETURNDATASIZE SWAP1 DUP2 ADD PUSH1 0x1F NOT AND DUP3 ADD SWAP1 SWAP3 MSTORE PUSH2 0x3573 SWAP2 DUP2 ADD SWAP1 PUSH2 0x4AB4 JUMP JUMPDEST PUSH1 0x1 JUMPDEST PUSH2 0x35DD JUMPI RETURNDATASIZE DUP1 DUP1 ISZERO PUSH2 0x35A3 JUMPI PUSH1 0x40 MLOAD SWAP2 POP PUSH1 0x1F NOT PUSH1 0x3F RETURNDATASIZE ADD AND DUP3 ADD PUSH1 0x40 MSTORE RETURNDATASIZE DUP3 MSTORE RETURNDATASIZE PUSH0 PUSH1 0x20 DUP5 ADD RETURNDATACOPY PUSH2 0x35A8 JUMP JUMPDEST PUSH1 0x60 SWAP2 POP JUMPDEST POP DUP1 MLOAD PUSH0 SUB PUSH2 0x35D5 JUMPI PUSH1 0x40 MLOAD PUSH4 0x32505749 PUSH1 0xE1 SHL DUP2 MSTORE PUSH1 0x1 PUSH1 0x1 PUSH1 0xA0 SHL SUB DUP6 AND PUSH1 0x4 DUP3 ADD MSTORE PUSH1 0x24 ADD PUSH2 0xD3A JUMP JUMPDEST DUP1 MLOAD PUSH1 0x20 DUP3 ADD REVERT JUMPDEST PUSH1 0x1 PUSH1 0x1 PUSH1 0xE0 SHL SUB NOT DUP2 AND PUSH4 0xA85BD01 PUSH1 0xE1 SHL EQ PUSH2 0x3619 JUMPI PUSH1 0x40 MLOAD PUSH4 0x32505749 PUSH1 0xE1 SHL DUP2 MSTORE PUSH1 0x1 PUSH1 0x1 PUSH1 0xA0 SHL SUB DUP6 AND PUSH1 0x4 DUP3 ADD MSTORE PUSH1 0x24 ADD PUSH2 0xD3A JUMP JUMPDEST POP JUMPDEST POP POP POP POP POP JUMP JUMPDEST PUSH1 0x60 PUSH2 0x362D DUP3 PUSH2 0x31AF JUMP JUMPDEST POP PUSH0 DUP3 DUP2 MSTORE PUSH1 0x6 PUSH1 0x20 MSTORE PUSH1 0x40 DUP2 KECCAK256 DUP1 SLOAD PUSH2 0x3646 SWAP1 PUSH2 0x47C4 JUMP JUMPDEST DUP1 PUSH1 0x1F ADD PUSH1 0x20 DUP1 SWAP2 DIV MUL PUSH1 0x20 ADD PUSH1 0x40 MLOAD SWAP1 DUP2 ADD PUSH1 0x40 MSTORE DUP1 SWAP3 SWAP2 SWAP1 DUP2 DUP2 MSTORE PUSH1 0x20 ADD DUP3 DUP1 SLOAD PUSH2 0x3672 SWAP1 PUSH2 0x47C4 JUMP JUMPDEST DUP1 ISZERO PUSH2 0x36BD JUMPI DUP1 PUSH1 0x1F LT PUSH2 0x3694 JUMPI PUSH2 0x100 DUP1 DUP4 SLOAD DIV MUL DUP4 MSTORE SWAP2 PUSH1 0x20 ADD SWAP2 PUSH2 0x36BD JUMP JUMPDEST DUP3 ADD SWAP2 SWAP1 PUSH0 MSTORE PUSH1 0x20 PUSH0 KECCAK256 SWAP1 JUMPDEST DUP2 SLOAD DUP2 MSTORE SWAP1 PUSH1 0x1 ADD SWAP1 PUSH1 0x20 ADD DUP1 DUP4 GT PUSH2 0x36A0 JUMPI DUP3 SWAP1 SUB PUSH1 0x1F AND DUP3 ADD SWAP2 JUMPDEST POP POP POP POP POP SWAP1 POP PUSH0 PUSH2 0x36D9 PUSH1 0x40 DUP1 MLOAD PUSH1 0x20 DUP2 ADD SWAP1 SWAP2 MSTORE PUSH0 DUP2 MSTORE SWAP1 JUMP JUMPDEST SWAP1 POP DUP1 MLOAD PUSH0 SUB PUSH2 0x36EA JUMPI POP SWAP3 SWAP2 POP POP JUMP JUMPDEST DUP2 MLOAD ISZERO PUSH2 0x371C JUMPI DUP1 DUP3 PUSH1 0x40 MLOAD PUSH1 0x20 ADD PUSH2 0x3704 SWAP3 SWAP2 SWAP1 PUSH2 0x4AE6 JUMP JUMPDEST PUSH1 0x40 MLOAD PUSH1 0x20 DUP2 DUP4 SUB SUB DUP2 MSTORE SWAP1 PUSH1 0x40 MSTORE SWAP3 POP POP POP SWAP2 SWAP1 POP JUMP JUMPDEST PUSH2 0x2E93 DUP5 PUSH2 0x3952 JUMP JUMPDEST PUSH0 PUSH1 0x1 PUSH1 0x1 PUSH1 0xE0 SHL SUB NOT DUP3 AND PUSH4 0x24832483 PUSH1 0xE1 SHL EQ DUP1 PUSH2 0xBE3 JUMPI POP PUSH2 0xBE3 DUP3 PUSH2 0x39C3 JUMP JUMPDEST DUP1 DUP1 PUSH2 0x375D JUMPI POP PUSH1 0x1 PUSH1 0x1 PUSH1 0xA0 SHL SUB DUP3 AND ISZERO ISZERO JUMPDEST ISZERO PUSH2 0x381E JUMPI PUSH0 PUSH2 0x376C DUP5 PUSH2 0x31AF JUMP JUMPDEST SWAP1 POP PUSH1 0x1 PUSH1 0x1 PUSH1 0xA0 SHL SUB DUP4 AND ISZERO DUP1 ISZERO SWAP1 PUSH2 0x3798 JUMPI POP DUP3 PUSH1 0x1 PUSH1 0x1 PUSH1 0xA0 SHL SUB AND DUP2 PUSH1 0x1 PUSH1 0x1 PUSH1 0xA0 SHL SUB AND EQ ISZERO JUMPDEST DUP1 ISZERO PUSH2 0x37AB JUMPI POP PUSH2 0x37A9 DUP2 DUP5 PUSH2 0x2E9B JUMP JUMPDEST ISZERO JUMPDEST ISZERO PUSH2 0x37D4 JUMPI PUSH1 0x40 MLOAD PUSH4 0xA9FBF51F PUSH1 0xE0 SHL DUP2 MSTORE PUSH1 0x1 PUSH1 0x1 PUSH1 0xA0 SHL SUB DUP5 AND PUSH1 0x4 DUP3 ADD MSTORE PUSH1 0x24 ADD PUSH2 0xD3A JUMP JUMPDEST DUP2 ISZERO PUSH2 0x381C JUMPI DUP4 DUP6 PUSH1 0x1 PUSH1 0x1 PUSH1 0xA0 SHL SUB AND DUP3 PUSH1 0x1 PUSH1 0x1 PUSH1 0xA0 SHL SUB AND PUSH32 0x8C5BE1E5EBEC7D5BD14F71427D1E84F3DD0314C0F7B2291E5B200AC8C7C3B925 PUSH1 0x40 MLOAD PUSH1 0x40 MLOAD DUP1 SWAP2 SUB SWAP1 LOG4 JUMPDEST POP JUMPDEST POP POP PUSH0 SWAP1 DUP2 MSTORE PUSH1 0x4 PUSH1 0x20 MSTORE PUSH1 0x40 SWAP1 KECCAK256 DUP1 SLOAD PUSH1 0x1 PUSH1 0x1 PUSH1 0xA0 SHL SUB NOT AND PUSH1 0x1 PUSH1 0x1 PUSH1 0xA0 SHL SUB SWAP3 SWAP1 SWAP3 AND SWAP2 SWAP1 SWAP2 OR SWAP1 SSTORE JUMP JUMPDEST PUSH2 0x3857 DUP4 DUP4 PUSH2 0x3A12 JUMP JUMPDEST PUSH2 0x1191 CALLER PUSH0 DUP6 DUP6 DUP6 PUSH2 0x34FA JUMP JUMPDEST PUSH0 PUSH0 PUSH2 0x3871 DUP6 DUP6 DUP6 PUSH2 0x3A73 JUMP JUMPDEST SWAP1 POP PUSH1 0x1 PUSH1 0x1 PUSH1 0xA0 SHL SUB DUP2 AND PUSH2 0x38CD JUMPI PUSH2 0x38C8 DUP5 PUSH1 0x9 DUP1 SLOAD PUSH0 DUP4 DUP2 MSTORE PUSH1 0xA PUSH1 0x20 MSTORE PUSH1 0x40 DUP2 KECCAK256 DUP3 SWAP1 SSTORE PUSH1 0x1 DUP3 ADD DUP4 SSTORE SWAP2 SWAP1 SWAP2 MSTORE PUSH32 0x6E1540171B6C0C960B71A7020D9F60077F6AF931A8BBF590DA0223DACF75C7AF ADD SSTORE JUMP JUMPDEST PUSH2 0x38F0 JUMP JUMPDEST DUP5 PUSH1 0x1 PUSH1 0x1 PUSH1 0xA0 SHL SUB AND DUP2 PUSH1 0x1 PUSH1 0x1 PUSH1 0xA0 SHL SUB AND EQ PUSH2 0x38F0 JUMPI PUSH2 0x38F0 DUP2 DUP6 PUSH2 0x3B65 JUMP JUMPDEST PUSH1 0x1 PUSH1 0x1 PUSH1 0xA0 SHL SUB DUP6 AND PUSH2 0x390C JUMPI PUSH2 0x3907 DUP5 PUSH2 0x3BE2 JUMP JUMPDEST PUSH2 0x2E93 JUMP JUMPDEST DUP5 PUSH1 0x1 PUSH1 0x1 PUSH1 0xA0 SHL SUB AND DUP2 PUSH1 0x1 PUSH1 0x1 PUSH1 0xA0 SHL SUB AND EQ PUSH2 0x2E93 JUMPI PUSH2 0x2E93 DUP6 DUP6 PUSH2 0x3C89 JUMP JUMPDEST PUSH1 0xD SLOAD PUSH1 0xFF AND PUSH2 0x1175 JUMPI PUSH1 0x40 MLOAD PUSH4 0x8DFC202B PUSH1 0xE0 SHL DUP2 MSTORE PUSH1 0x4 ADD PUSH1 0x40 MLOAD DUP1 SWAP2 SUB SWAP1 REVERT JUMPDEST PUSH1 0x60 PUSH2 0x395D DUP3 PUSH2 0x31AF JUMP JUMPDEST POP PUSH0 PUSH2 0x3973 PUSH1 0x40 DUP1 MLOAD PUSH1 0x20 DUP2 ADD SWAP1 SWAP2 MSTORE PUSH0 DUP2 MSTORE SWAP1 JUMP JUMPDEST SWAP1 POP PUSH0 DUP2 MLOAD GT PUSH2 0x3991 JUMPI PUSH1 0x40 MLOAD DUP1 PUSH1 0x20 ADD PUSH1 0x40 MSTORE DUP1 PUSH0 DUP2 MSTORE POP PUSH2 0x39BC JUMP JUMPDEST DUP1 PUSH2 0x399B DUP5 PUSH2 0x3CD7 JUMP JUMPDEST PUSH1 0x40 MLOAD PUSH1 0x20 ADD PUSH2 0x39AC SWAP3 SWAP2 SWAP1 PUSH2 0x4AE6 JUMP JUMPDEST PUSH1 0x40 MLOAD PUSH1 0x20 DUP2 DUP4 SUB SUB DUP2 MSTORE SWAP1 PUSH1 0x40 MSTORE JUMPDEST SWAP4 SWAP3 POP POP POP JUMP JUMPDEST PUSH0 PUSH1 0x1 PUSH1 0x1 PUSH1 0xE0 SHL SUB NOT DUP3 AND PUSH4 0x80AC58CD PUSH1 0xE0 SHL EQ DUP1 PUSH2 0x39F3 JUMPI POP PUSH1 0x1 PUSH1 0x1 PUSH1 0xE0 SHL SUB NOT DUP3 AND PUSH4 0x5B5E139F PUSH1 0xE0 SHL EQ JUMPDEST DUP1 PUSH2 0xBE3 JUMPI POP PUSH4 0x1FFC9A7 PUSH1 0xE0 SHL PUSH1 0x1 PUSH1 0x1 PUSH1 0xE0 SHL SUB NOT DUP4 AND EQ PUSH2 0xBE3 JUMP JUMPDEST PUSH1 0x1 PUSH1 0x1 PUSH1 0xA0 SHL SUB DUP3 AND PUSH2 0x3A3B JUMPI PUSH1 0x40 MLOAD PUSH4 0x32505749 PUSH1 0xE1 SHL DUP2 MSTORE PUSH0 PUSH1 0x4 DUP3 ADD MSTORE PUSH1 0x24 ADD PUSH2 0xD3A JUMP JUMPDEST PUSH0 PUSH2 0x3A47 DUP4 DUP4 PUSH0 PUSH2 0x32AD JUMP JUMPDEST SWAP1 POP PUSH1 0x1 PUSH1 0x1 PUSH1 0xA0 SHL SUB DUP2 AND ISZERO PUSH2 0x1191 JUMPI PUSH1 0x40 MLOAD PUSH4 0x39E35637 PUSH1 0xE1 SHL DUP2 MSTORE PUSH0 PUSH1 0x4 DUP3 ADD MSTORE PUSH1 0x24 ADD PUSH2 0xD3A JUMP JUMPDEST PUSH0 DUP3 DUP2 MSTORE PUSH1 0x2 PUSH1 0x20 MSTORE PUSH1 0x40 DUP2 KECCAK256 SLOAD PUSH1 0x1 PUSH1 0x1 PUSH1 0xA0 SHL SUB SWAP1 DUP2 AND SWAP1 DUP4 AND ISZERO PUSH2 0x3A9F JUMPI PUSH2 0x3A9F DUP2 DUP5 DUP7 PUSH2 0x3D66 JUMP JUMPDEST PUSH1 0x1 PUSH1 0x1 PUSH1 0xA0 SHL SUB DUP2 AND ISZERO PUSH2 0x3AD9 JUMPI PUSH2 0x3ABA PUSH0 DUP6 PUSH0 PUSH0 PUSH2 0x3749 JUMP JUMPDEST PUSH1 0x1 PUSH1 0x1 PUSH1 0xA0 SHL SUB DUP2 AND PUSH0 SWAP1 DUP2 MSTORE PUSH1 0x3 PUSH1 0x20 MSTORE PUSH1 0x40 SWAP1 KECCAK256 DUP1 SLOAD PUSH0 NOT ADD SWAP1 SSTORE JUMPDEST PUSH1 0x1 PUSH1 0x1 PUSH1 0xA0 SHL SUB DUP6 AND ISZERO PUSH2 0x3B07 JUMPI PUSH1 0x1 PUSH1 0x1 PUSH1 0xA0 SHL SUB DUP6 AND PUSH0 SWAP1 DUP2 MSTORE PUSH1 0x3 PUSH1 0x20 MSTORE PUSH1 0x40 SWAP1 KECCAK256 DUP1 SLOAD PUSH1 0x1 ADD SWAP1 SSTORE JUMPDEST PUSH0 DUP5 DUP2 MSTORE PUSH1 0x2 PUSH1 0x20 MSTORE PUSH1 0x40 DUP1 DUP3 KECCAK256 DUP1 SLOAD PUSH1 0x1 PUSH1 0x1 PUSH1 0xA0 SHL SUB NOT AND PUSH1 0x1 PUSH1 0x1 PUSH1 0xA0 SHL SUB DUP10 DUP2 AND SWAP2 DUP3 OR SWAP1 SWAP3 SSTORE SWAP2 MLOAD DUP8 SWAP4 SWAP2 DUP6 AND SWAP2 PUSH32 0xDDF252AD1BE2C89B69C2B068FC378DAA952BA7F163C4A11628F55A4DF523B3EF SWAP2 LOG4 SWAP5 SWAP4 POP POP POP POP JUMP JUMPDEST PUSH0 PUSH2 0x3B6F DUP4 PUSH2 0x1B57 JUMP JUMPDEST PUSH0 DUP4 DUP2 MSTORE PUSH1 0x8 PUSH1 0x20 SWAP1 DUP2 MSTORE PUSH1 0x40 DUP1 DUP4 KECCAK256 SLOAD PUSH1 0x1 PUSH1 0x1 PUSH1 0xA0 SHL SUB DUP9 AND DUP5 MSTORE PUSH1 0x7 SWAP1 SWAP3 MSTORE SWAP1 SWAP2 KECCAK256 SWAP2 SWAP3 POP SWAP1 DUP2 DUP4 EQ PUSH2 0x3BC4 JUMPI PUSH0 DUP4 DUP2 MSTORE PUSH1 0x20 DUP3 DUP2 MSTORE PUSH1 0x40 DUP1 DUP4 KECCAK256 SLOAD DUP6 DUP5 MSTORE DUP2 DUP5 KECCAK256 DUP2 SWAP1 SSTORE DUP4 MSTORE PUSH1 0x8 SWAP1 SWAP2 MSTORE SWAP1 KECCAK256 DUP3 SWAP1 SSTORE JUMPDEST PUSH0 SWAP4 DUP5 MSTORE PUSH1 0x8 PUSH1 0x20 SWAP1 DUP2 MSTORE PUSH1 0x40 DUP1 DUP7 KECCAK256 DUP7 SWAP1 SSTORE SWAP4 DUP6 MSTORE MSTORE POP DUP2 KECCAK256 SSTORE POP JUMP JUMPDEST PUSH1 0x9 SLOAD PUSH0 SWAP1 PUSH2 0x3BF3 SWAP1 PUSH1 0x1 SWAP1 PUSH2 0x4A09 JUMP JUMPDEST PUSH0 DUP4 DUP2 MSTORE PUSH1 0xA PUSH1 0x20 MSTORE PUSH1 0x40 DUP2 KECCAK256 SLOAD PUSH1 0x9 DUP1 SLOAD SWAP4 SWAP5 POP SWAP1 SWAP3 DUP5 SWAP1 DUP2 LT PUSH2 0x3C1A JUMPI PUSH2 0x3C1A PUSH2 0x49BF JUMP JUMPDEST SWAP1 PUSH0 MSTORE PUSH1 0x20 PUSH0 KECCAK256 ADD SLOAD SWAP1 POP DUP1 PUSH1 0x9 DUP4 DUP2 SLOAD DUP2 LT PUSH2 0x3C39 JUMPI PUSH2 0x3C39 PUSH2 0x49BF JUMP JUMPDEST PUSH0 SWAP2 DUP3 MSTORE PUSH1 0x20 DUP1 DUP4 KECCAK256 SWAP1 SWAP2 ADD SWAP3 SWAP1 SWAP3 SSTORE DUP3 DUP2 MSTORE PUSH1 0xA SWAP1 SWAP2 MSTORE PUSH1 0x40 DUP1 DUP3 KECCAK256 DUP5 SWAP1 SSTORE DUP6 DUP3 MSTORE DUP2 KECCAK256 SSTORE PUSH1 0x9 DUP1 SLOAD DUP1 PUSH2 0x3C70 JUMPI PUSH2 0x3C70 PUSH2 0x4AFA JUMP JUMPDEST PUSH1 0x1 SWAP1 SUB DUP2 DUP2 SWAP1 PUSH0 MSTORE PUSH1 0x20 PUSH0 KECCAK256 ADD PUSH0 SWAP1 SSTORE SWAP1 SSTORE POP POP POP POP JUMP JUMPDEST PUSH0 PUSH1 0x1 PUSH2 0x3C95 DUP5 PUSH2 0x1B57 JUMP JUMPDEST PUSH2 0x3C9F SWAP2 SWAP1 PUSH2 0x4A09 JUMP JUMPDEST PUSH1 0x1 PUSH1 0x1 PUSH1 0xA0 SHL SUB SWAP1 SWAP4 AND PUSH0 SWAP1 DUP2 MSTORE PUSH1 0x7 PUSH1 0x20 SWAP1 DUP2 MSTORE PUSH1 0x40 DUP1 DUP4 KECCAK256 DUP7 DUP5 MSTORE DUP3 MSTORE DUP1 DUP4 KECCAK256 DUP6 SWAP1 SSTORE SWAP4 DUP3 MSTORE PUSH1 0x8 SWAP1 MSTORE SWAP2 SWAP1 SWAP2 KECCAK256 SWAP2 SWAP1 SWAP2 SSTORE POP JUMP JUMPDEST PUSH1 0x60 PUSH0 PUSH2 0x3CE3 DUP4 PUSH2 0x3DCA JUMP JUMPDEST PUSH1 0x1 ADD SWAP1 POP PUSH0 DUP2 PUSH1 0x1 PUSH1 0x1 PUSH1 0x40 SHL SUB DUP2 GT ISZERO PUSH2 0x3D01 JUMPI PUSH2 0x3D01 PUSH2 0x40EC JUMP JUMPDEST PUSH1 0x40 MLOAD SWAP1 DUP1 DUP3 MSTORE DUP1 PUSH1 0x1F ADD PUSH1 0x1F NOT AND PUSH1 0x20 ADD DUP3 ADD PUSH1 0x40 MSTORE DUP1 ISZERO PUSH2 0x3D2B JUMPI PUSH1 0x20 DUP3 ADD DUP2 DUP1 CALLDATASIZE DUP4 CALLDATACOPY ADD SWAP1 POP JUMPDEST POP SWAP1 POP DUP2 DUP2 ADD PUSH1 0x20 ADD JUMPDEST PUSH0 NOT ADD PUSH16 0x181899199A1A9B1B9C1CB0B131B232B3 PUSH1 0x81 SHL PUSH1 0xA DUP7 MOD BYTE DUP2 MSTORE8 PUSH1 0xA DUP6 DIV SWAP5 POP DUP5 PUSH2 0x3D35 JUMPI POP SWAP4 SWAP3 POP POP POP JUMP JUMPDEST PUSH2 0x3D71 DUP4 DUP4 DUP4 PUSH2 0x3EA1 JUMP JUMPDEST PUSH2 0x1191 JUMPI PUSH1 0x1 PUSH1 0x1 PUSH1 0xA0 SHL SUB DUP4 AND PUSH2 0x3D9F JUMPI PUSH1 0x40 MLOAD PUSH4 0x7E273289 PUSH1 0xE0 SHL DUP2 MSTORE PUSH1 0x4 DUP2 ADD DUP3 SWAP1 MSTORE PUSH1 0x24 ADD PUSH2 0xD3A JUMP JUMPDEST PUSH1 0x40 MLOAD PUSH4 0x177E802F PUSH1 0xE0 SHL DUP2 MSTORE PUSH1 0x1 PUSH1 0x1 PUSH1 0xA0 SHL SUB DUP4 AND PUSH1 0x4 DUP3 ADD MSTORE PUSH1 0x24 DUP2 ADD DUP3 SWAP1 MSTORE PUSH1 0x44 ADD PUSH2 0xD3A JUMP JUMPDEST PUSH0 DUP1 PUSH19 0x184F03E93FF9F4DAA797ED6E38ED64BF6A1F01 PUSH1 0x40 SHL DUP4 LT PUSH2 0x3E08 JUMPI PUSH19 0x184F03E93FF9F4DAA797ED6E38ED64BF6A1F01 PUSH1 0x40 SHL DUP4 DIV SWAP3 POP PUSH1 0x40 ADD JUMPDEST PUSH14 0x4EE2D6D415B85ACEF8100000000 DUP4 LT PUSH2 0x3E34 JUMPI PUSH14 0x4EE2D6D415B85ACEF8100000000 DUP4 DIV SWAP3 POP PUSH1 0x20 ADD JUMPDEST PUSH7 0x2386F26FC10000 DUP4 LT PUSH2 0x3E52 JUMPI PUSH7 0x2386F26FC10000 DUP4 DIV SWAP3 POP PUSH1 0x10 ADD JUMPDEST PUSH4 0x5F5E100 DUP4 LT PUSH2 0x3E6A JUMPI PUSH4 0x5F5E100 DUP4 DIV SWAP3 POP PUSH1 0x8 ADD JUMPDEST PUSH2 0x2710 DUP4 LT PUSH2 0x3E7E JUMPI PUSH2 0x2710 DUP4 DIV SWAP3 POP PUSH1 0x4 ADD JUMPDEST PUSH1 0x64 DUP4 LT PUSH2 0x3E90 JUMPI PUSH1 0x64 DUP4 DIV SWAP3 POP PUSH1 0x2 ADD JUMPDEST PUSH1 0xA DUP4 LT PUSH2 0xBE3 JUMPI PUSH1 0x1 ADD SWAP3 SWAP2 POP POP JUMP JUMPDEST PUSH0 PUSH1 0x1 PUSH1 0x1 PUSH1 0xA0 SHL SUB DUP4 AND ISZERO DUP1 ISZERO SWAP1 PUSH2 0x2E93 JUMPI POP DUP3 PUSH1 0x1 PUSH1 0x1 PUSH1 0xA0 SHL SUB AND DUP5 PUSH1 0x1 PUSH1 0x1 PUSH1 0xA0 SHL SUB AND EQ DUP1 PUSH2 0x3EDA JUMPI POP PUSH2 0x3EDA DUP5 DUP5 PUSH2 0x2E9B JUMP JUMPDEST DUP1 PUSH2 0x2E93 JUMPI POP POP PUSH0 SWAP1 DUP2 MSTORE PUSH1 0x4 PUSH1 0x20 MSTORE PUSH1 0x40 SWAP1 KECCAK256 SLOAD PUSH1 0x1 PUSH1 0x1 PUSH1 0xA0 SHL SUB SWAP1 DUP2 AND SWAP2 AND EQ SWAP2 SWAP1 POP JUMP JUMPDEST DUP3 DUP1 SLOAD DUP3 DUP3 SSTORE SWAP1 PUSH0 MSTORE PUSH1 0x20 PUSH0 KECCAK256 SWAP1 DUP2 ADD SWAP3 DUP3 ISZERO PUSH2 0x3F46 JUMPI SWAP2 PUSH1 0x20 MUL DUP3 ADD JUMPDEST DUP3 DUP2 GT ISZERO PUSH2 0x3F46 JUMPI DUP3 MLOAD DUP3 SWAP1 PUSH2 0x3F36 SWAP1 DUP3 PUSH2 0x486C JUMP JUMPDEST POP SWAP2 PUSH1 0x20 ADD SWAP2 SWAP1 PUSH1 0x1 ADD SWAP1 PUSH2 0x3F20 JUMP JUMPDEST POP PUSH2 0x3F52 SWAP3 SWAP2 POP PUSH2 0x3F9B JUMP JUMPDEST POP SWAP1 JUMP JUMPDEST DUP3 DUP1 SLOAD DUP3 DUP3 SSTORE SWAP1 PUSH0 MSTORE PUSH1 0x20 PUSH0 KECCAK256 SWAP1 DUP2 ADD SWAP3 DUP3 ISZERO PUSH2 0x3F8F JUMPI SWAP2 PUSH1 0x20 MUL DUP3 ADD JUMPDEST DUP3 DUP2 GT ISZERO PUSH2 0x3F8F JUMPI DUP3 MLOAD DUP3 SSTORE SWAP2 PUSH1 0x20 ADD SWAP2 SWAP1 PUSH1 0x1 ADD SWAP1 PUSH2 0x3F74 JUMP JUMPDEST POP PUSH2 0x3F52 SWAP3 SWAP2 POP PUSH2 0x3FB7 JUMP JUMPDEST DUP1 DUP3 GT ISZERO PUSH2 0x3F52 JUMPI PUSH0 PUSH2 0x3FAE DUP3 DUP3 PUSH2 0x3FCB JUMP JUMPDEST POP PUSH1 0x1 ADD PUSH2 0x3F9B JUMP JUMPDEST JUMPDEST DUP1 DUP3 GT ISZERO PUSH2 0x3F52 JUMPI PUSH0 DUP2 SSTORE PUSH1 0x1 ADD PUSH2 0x3FB8 JUMP JUMPDEST POP DUP1 SLOAD PUSH2 0x3FD7 SWAP1 PUSH2 0x47C4 JUMP JUMPDEST PUSH0 DUP3 SSTORE DUP1 PUSH1 0x1F LT PUSH2 0x3FE6 JUMPI POP POP JUMP JUMPDEST PUSH1 0x1F ADD PUSH1 0x20 SWAP1 DIV SWAP1 PUSH0 MSTORE PUSH1 0x20 PUSH0 KECCAK256 SWAP1 DUP2 ADD SWAP1 PUSH2 0x176B SWAP2 SWAP1 PUSH2 0x3FB7 JUMP JUMPDEST PUSH1 0x1 PUSH1 0x1 PUSH1 0xE0 SHL SUB NOT DUP2 AND DUP2 EQ PUSH2 0x176B JUMPI PUSH0 PUSH0 REVERT JUMPDEST PUSH0 PUSH1 0x20 DUP3 DUP5 SUB SLT ISZERO PUSH2 0x4027 JUMPI PUSH0 PUSH0 REVERT JUMPDEST DUP2 CALLDATALOAD PUSH2 0x39BC DUP2 PUSH2 0x4002 JUMP JUMPDEST PUSH0 DUP2 MLOAD DUP1 DUP5 MSTORE DUP1 PUSH1 0x20 DUP5 ADD PUSH1 0x20 DUP7 ADD MCOPY PUSH0 PUSH1 0x20 DUP3 DUP7 ADD ADD MSTORE PUSH1 0x20 PUSH1 0x1F NOT PUSH1 0x1F DUP4 ADD AND DUP6 ADD ADD SWAP2 POP POP SWAP3 SWAP2 POP POP JUMP JUMPDEST PUSH1 0x20 DUP2 MSTORE PUSH0 PUSH2 0x39BC PUSH1 0x20 DUP4 ADD DUP5 PUSH2 0x4032 JUMP JUMPDEST PUSH0 PUSH1 0x20 DUP3 DUP5 SUB SLT ISZERO PUSH2 0x4082 JUMPI PUSH0 PUSH0 REVERT JUMPDEST POP CALLDATALOAD SWAP2 SWAP1 POP JUMP JUMPDEST DUP1 CALLDATALOAD PUSH1 0x1 PUSH1 0x1 PUSH1 0xA0 SHL SUB DUP2 AND DUP2 EQ PUSH2 0x409F JUMPI PUSH0 PUSH0 REVERT JUMPDEST SWAP2 SWAP1 POP JUMP JUMPDEST PUSH0 PUSH0 PUSH1 0x40 DUP4 DUP6 SUB SLT ISZERO PUSH2 0x40B5 JUMPI PUSH0 PUSH0 REVERT JUMPDEST PUSH2 0x40BE DUP4 PUSH2 0x4089 JUMP JUMPDEST SWAP5 PUSH1 0x20 SWAP4 SWAP1 SWAP4 ADD CALLDATALOAD SWAP4 POP POP POP JUMP JUMPDEST PUSH0 PUSH0 PUSH1 0x40 DUP4 DUP6 SUB SLT ISZERO PUSH2 0x40DD JUMPI PUSH0 PUSH0 REVERT JUMPDEST POP POP DUP1 CALLDATALOAD SWAP3 PUSH1 0x20 SWAP1 SWAP2 ADD CALLDATALOAD SWAP2 POP JUMP JUMPDEST PUSH4 0x4E487B71 PUSH1 0xE0 SHL PUSH0 MSTORE PUSH1 0x41 PUSH1 0x4 MSTORE PUSH1 0x24 PUSH0 REVERT JUMPDEST PUSH1 0x40 MLOAD PUSH1 0x1F DUP3 ADD PUSH1 0x1F NOT AND DUP2 ADD PUSH1 0x1 PUSH1 0x1 PUSH1 0x40 SHL SUB DUP2 GT DUP3 DUP3 LT OR ISZERO PUSH2 0x4128 JUMPI PUSH2 0x4128 PUSH2 0x40EC JUMP JUMPDEST PUSH1 0x40 MSTORE SWAP2 SWAP1 POP JUMP JUMPDEST PUSH0 PUSH0 PUSH1 0x1 PUSH1 0x1 PUSH1 0x40 SHL SUB DUP5 GT ISZERO PUSH2 0x4149 JUMPI PUSH2 0x4149 PUSH2 0x40EC JUMP JUMPDEST POP PUSH1 0x1F DUP4 ADD PUSH1 0x1F NOT AND PUSH1 0x20 ADD PUSH2 0x415E DUP2 PUSH2 0x4100 JUMP JUMPDEST SWAP2 POP POP DUP3 DUP2 MSTORE DUP4 DUP4 DUP4 ADD GT ISZERO PUSH2 0x4172 JUMPI PUSH0 PUSH0 REVERT JUMPDEST DUP3 DUP3 PUSH1 0x20 DUP4 ADD CALLDATACOPY PUSH0 PUSH1 0x20 DUP5 DUP4 ADD ADD MSTORE SWAP4 SWAP3 POP POP POP JUMP JUMPDEST PUSH0 DUP3 PUSH1 0x1F DUP4 ADD SLT PUSH2 0x4197 JUMPI PUSH0 PUSH0 REVERT JUMPDEST PUSH2 0x39BC DUP4 DUP4 CALLDATALOAD PUSH1 0x20 DUP6 ADD PUSH2 0x4130 JUMP JUMPDEST DUP1 CALLDATALOAD PUSH1 0x6 DUP2 LT PUSH2 0x409F JUMPI PUSH0 PUSH0 REVERT JUMPDEST PUSH0 PUSH0 PUSH0 PUSH0 PUSH0 PUSH1 0xA0 DUP7 DUP9 SUB SLT ISZERO PUSH2 0x41C8 JUMPI PUSH0 PUSH0 REVERT JUMPDEST DUP6 CALLDATALOAD PUSH1 0x1 PUSH1 0x1 PUSH1 0x40 SHL SUB DUP2 GT ISZERO PUSH2 0x41DD JUMPI PUSH0 PUSH0 REVERT JUMPDEST PUSH2 0x41E9 DUP9 DUP3 DUP10 ADD PUSH2 0x4188 JUMP JUMPDEST SWAP6 POP POP PUSH1 0x20 DUP7 ADD CALLDATALOAD PUSH1 0x1 PUSH1 0x1 PUSH1 0x40 SHL SUB DUP2 GT ISZERO PUSH2 0x4204 JUMPI PUSH0 PUSH0 REVERT JUMPDEST PUSH2 0x4210 DUP9 DUP3 DUP10 ADD PUSH2 0x4188 JUMP JUMPDEST SWAP5 POP POP PUSH2 0x421F PUSH1 0x40 DUP8 ADD PUSH2 0x41A6 JUMP JUMPDEST SWAP3 POP PUSH1 0x60 DUP7 ADD CALLDATALOAD PUSH1 0x1 PUSH1 0x1 PUSH1 0x40 SHL SUB DUP2 GT ISZERO PUSH2 0x4239 JUMPI PUSH0 PUSH0 REVERT JUMPDEST PUSH2 0x4245 DUP9 DUP3 DUP10 ADD PUSH2 0x4188 JUMP JUMPDEST SWAP3 POP POP PUSH1 0x80 DUP7 ADD CALLDATALOAD PUSH1 0x1 PUSH1 0x1 PUSH1 0x40 SHL SUB DUP2 GT ISZERO PUSH2 0x4260 JUMPI PUSH0 PUSH0 REVERT JUMPDEST PUSH2 0x426C DUP9 DUP3 DUP10 ADD PUSH2 0x4188 JUMP JUMPDEST SWAP2 POP POP SWAP3 SWAP6 POP SWAP3 SWAP6 SWAP1 SWAP4 POP JUMP JUMPDEST PUSH0 PUSH0 PUSH0 PUSH1 0x60 DUP5 DUP7 SUB SLT ISZERO PUSH2 0x428B JUMPI PUSH0 PUSH0 REVERT JUMPDEST PUSH2 0x4294 DUP5 PUSH2 0x4089 JUMP JUMPDEST SWAP3 POP PUSH2 0x42A2 PUSH1 0x20 DUP6 ADD PUSH2 0x4089 JUMP JUMPDEST SWAP3 SWAP6 SWAP3 SWAP5 POP POP POP PUSH1 0x40 SWAP2 SWAP1 SWAP2 ADD CALLDATALOAD SWAP1 JUMP JUMPDEST PUSH0 PUSH1 0x20 DUP3 DUP5 SUB SLT ISZERO PUSH2 0x42C3 JUMPI PUSH0 PUSH0 REVERT JUMPDEST PUSH2 0x39BC DUP3 PUSH2 0x4089 JUMP JUMPDEST PUSH4 0x4E487B71 PUSH1 0xE0 SHL PUSH0 MSTORE PUSH1 0x21 PUSH1 0x4 MSTORE PUSH1 0x24 PUSH0 REVERT JUMPDEST PUSH1 0x6 DUP2 LT PUSH2 0x42FC JUMPI PUSH4 0x4E487B71 PUSH1 0xE0 SHL PUSH0 MSTORE PUSH1 0x21 PUSH1 0x4 MSTORE PUSH1 0x24 PUSH0 REVERT JUMPDEST SWAP1 MSTORE JUMP JUMPDEST PUSH2 0x160 DUP2 MSTORE PUSH0 PUSH2 0x4314 PUSH2 0x160 DUP4 ADD DUP15 PUSH2 0x4032 JUMP JUMPDEST DUP3 DUP2 SUB PUSH1 0x20 DUP5 ADD MSTORE PUSH2 0x4326 DUP2 DUP15 PUSH2 0x4032 JUMP JUMPDEST SWAP1 POP PUSH2 0x4335 PUSH1 0x40 DUP5 ADD DUP14 PUSH2 0x42E0 JUMP JUMPDEST DUP3 DUP2 SUB PUSH1 0x60 DUP5 ADD MSTORE PUSH2 0x4347 DUP2 DUP13 PUSH2 0x4032 JUMP JUMPDEST PUSH1 0x80 DUP5 ADD SWAP11 SWAP1 SWAP11 MSTORE POP POP PUSH1 0x1 PUSH1 0x1 PUSH1 0xA0 SHL SUB SWAP7 DUP8 AND PUSH1 0xA0 DUP3 ADD MSTORE SWAP5 SWAP1 SWAP6 AND PUSH1 0xC0 DUP6 ADD MSTORE PUSH1 0xE0 DUP5 ADD SWAP3 SWAP1 SWAP3 MSTORE PUSH2 0x100 DUP4 ADD MSTORE ISZERO ISZERO PUSH2 0x120 DUP3 ADD MSTORE PUSH2 0x140 ADD MSTORE SWAP5 SWAP4 POP POP POP POP JUMP JUMPDEST PUSH1 0x20 DUP1 DUP3 MSTORE DUP3 MLOAD DUP3 DUP3 ADD DUP2 SWAP1 MSTORE PUSH0 SWAP2 DUP5 ADD SWAP1 PUSH1 0x40 DUP5 ADD SWAP1 DUP4 JUMPDEST DUP2 DUP2 LT ISZERO PUSH2 0x43C4 JUMPI DUP4 MLOAD DUP4 MSTORE PUSH1 0x20 SWAP4 DUP5 ADD SWAP4 SWAP1 SWAP3 ADD SWAP2 PUSH1 0x1 ADD PUSH2 0x43A6 JUMP JUMPDEST POP SWAP1 SWAP6 SWAP5 POP POP POP POP POP JUMP JUMPDEST PUSH0 DUP3 PUSH1 0x1F DUP4 ADD SLT PUSH2 0x43DE JUMPI PUSH0 PUSH0 REVERT JUMPDEST DUP2 CALLDATALOAD PUSH1 0x1 PUSH1 0x1 PUSH1 0x40 SHL SUB DUP2 GT ISZERO PUSH2 0x43F7 JUMPI PUSH2 0x43F7 PUSH2 0x40EC JUMP JUMPDEST DUP1 PUSH1 0x5 SHL PUSH2 0x4407 PUSH1 0x20 DUP3 ADD PUSH2 0x4100 JUMP JUMPDEST SWAP2 DUP3 MSTORE PUSH1 0x20 DUP2 DUP6 ADD DUP2 ADD SWAP3 SWAP1 DUP2 ADD SWAP1 DUP7 DUP5 GT ISZERO PUSH2 0x4422 JUMPI PUSH0 PUSH0 REVERT JUMPDEST PUSH1 0x20 DUP7 ADD SWAP3 POP JUMPDEST DUP4 DUP4 LT ISZERO PUSH2 0x4467 JUMPI DUP3 CALLDATALOAD PUSH1 0x1 PUSH1 0x1 PUSH1 0x40 SHL SUB DUP2 GT ISZERO PUSH2 0x4446 JUMPI PUSH0 PUSH0 REVERT JUMPDEST PUSH2 0x4455 DUP9 PUSH1 0x20 DUP4 DUP11 ADD ADD PUSH2 0x4188 JUMP JUMPDEST DUP4 MSTORE POP PUSH1 0x20 SWAP3 DUP4 ADD SWAP3 SWAP1 SWAP2 ADD SWAP1 PUSH2 0x4429 JUMP JUMPDEST SWAP7 SWAP6 POP POP POP POP POP POP JUMP JUMPDEST PUSH0 PUSH0 PUSH0 PUSH0 PUSH0 PUSH0 PUSH0 PUSH0 PUSH2 0x100 DUP10 DUP12 SUB SLT ISZERO PUSH2 0x4489 JUMPI PUSH0 PUSH0 REVERT JUMPDEST DUP9 CALLDATALOAD PUSH1 0x1 PUSH1 0x1 PUSH1 0x40 SHL SUB DUP2 GT ISZERO PUSH2 0x449E JUMPI PUSH0 PUSH0 REVERT JUMPDEST PUSH2 0x44AA DUP12 DUP3 DUP13 ADD PUSH2 0x4188 JUMP JUMPDEST SWAP9 POP POP PUSH1 0x20 DUP10 ADD CALLDATALOAD PUSH1 0x1 PUSH1 0x1 PUSH1 0x40 SHL SUB DUP2 GT ISZERO PUSH2 0x44C5 JUMPI PUSH0 PUSH0 REVERT JUMPDEST PUSH2 0x44D1 DUP12 DUP3 DUP13 ADD PUSH2 0x4188 JUMP JUMPDEST SWAP8 POP POP PUSH2 0x44E0 PUSH1 0x40 DUP11 ADD PUSH2 0x41A6 JUMP JUMPDEST SWAP6 POP PUSH1 0x60 DUP10 ADD CALLDATALOAD PUSH1 0x1 PUSH1 0x1 PUSH1 0x40 SHL SUB DUP2 GT ISZERO PUSH2 0x44FA JUMPI PUSH0 PUSH0 REVERT JUMPDEST PUSH2 0x4506 DUP12 DUP3 DUP13 ADD PUSH2 0x4188 JUMP JUMPDEST SWAP6 POP POP PUSH1 0x80 DUP10 ADD CALLDATALOAD PUSH1 0x1 PUSH1 0x1 PUSH1 0x40 SHL SUB DUP2 GT ISZERO PUSH2 0x4521 JUMPI PUSH0 PUSH0 REVERT JUMPDEST PUSH2 0x452D DUP12 DUP3 DUP13 ADD PUSH2 0x43CF JUMP JUMPDEST SWAP5 POP POP PUSH1 0xA0 DUP10 ADD CALLDATALOAD PUSH1 0x1 PUSH1 0x1 PUSH1 0x40 SHL SUB DUP2 GT ISZERO PUSH2 0x4548 JUMPI PUSH0 PUSH0 REVERT JUMPDEST PUSH2 0x4554 DUP12 DUP3 DUP13 ADD PUSH2 0x43CF JUMP JUMPDEST SWAP4 POP POP PUSH1 0xC0 DUP10 ADD CALLDATALOAD SWAP2 POP PUSH1 0xE0 DUP10 ADD CALLDATALOAD PUSH1 0x1 PUSH1 0x1 PUSH1 0x40 SHL SUB DUP2 GT ISZERO PUSH2 0x4576 JUMPI PUSH0 PUSH0 REVERT JUMPDEST PUSH2 0x4582 DUP12 DUP3 DUP13 ADD PUSH2 0x4188 JUMP JUMPDEST SWAP2 POP POP SWAP3 SWAP6 SWAP9 POP SWAP3 SWAP6 SWAP9 SWAP1 SWAP4 SWAP7 POP JUMP JUMPDEST DUP1 ISZERO ISZERO DUP2 EQ PUSH2 0x176B JUMPI PUSH0 PUSH0 REVERT JUMPDEST PUSH0 PUSH0 PUSH0 PUSH0 PUSH1 0x80 DUP6 DUP8 SUB SLT ISZERO PUSH2 0x45B2 JUMPI PUSH0 PUSH0 REVERT JUMPDEST DUP5 CALLDATALOAD PUSH1 0x1 PUSH1 0x1 PUSH1 0x40 SHL SUB DUP2 GT ISZERO PUSH2 0x45C7 JUMPI PUSH0 PUSH0 REVERT JUMPDEST PUSH2 0x45D3 DUP8 DUP3 DUP9 ADD PUSH2 0x4188 JUMP JUMPDEST SWAP5 POP POP PUSH1 0x20 DUP6 ADD CALLDATALOAD PUSH1 0x1 PUSH1 0x1 PUSH1 0x40 SHL SUB DUP2 GT ISZERO PUSH2 0x45EE JUMPI PUSH0 PUSH0 REVERT JUMPDEST PUSH2 0x45FA DUP8 DUP3 DUP9 ADD PUSH2 0x4188 JUMP JUMPDEST SWAP4 POP POP PUSH1 0x40 DUP6 ADD CALLDATALOAD PUSH1 0x1 PUSH1 0x1 PUSH1 0x40 SHL SUB DUP2 GT ISZERO PUSH2 0x4615 JUMPI PUSH0 PUSH0 REVERT JUMPDEST PUSH2 0x4621 DUP8 DUP3 DUP9 ADD PUSH2 0x4188 JUMP JUMPDEST SWAP3 POP POP PUSH1 0x60 DUP6 ADD CALLDATALOAD PUSH2 0x4632 DUP2 PUSH2 0x4592 JUMP JUMPDEST SWAP4 SWAP7 SWAP3 SWAP6 POP SWAP1 SWAP4 POP POP JUMP JUMPDEST PUSH0 PUSH0 PUSH1 0x40 DUP4 DUP6 SUB SLT ISZERO PUSH2 0x464E JUMPI PUSH0 PUSH0 REVERT JUMPDEST PUSH2 0x4657 DUP4 PUSH2 0x4089 JUMP JUMPDEST SWAP2 POP PUSH1 0x20 DUP4 ADD CALLDATALOAD PUSH2 0x4667 DUP2 PUSH2 0x4592 JUMP JUMPDEST DUP1 SWAP2 POP POP SWAP3 POP SWAP3 SWAP1 POP JUMP JUMPDEST PUSH0 PUSH0 PUSH0 PUSH0 PUSH1 0x80 DUP6 DUP8 SUB SLT ISZERO PUSH2 0x4685 JUMPI PUSH0 PUSH0 REVERT JUMPDEST PUSH2 0x468E DUP6 PUSH2 0x4089 JUMP JUMPDEST SWAP4 POP PUSH2 0x469C PUSH1 0x20 DUP7 ADD PUSH2 0x4089 JUMP JUMPDEST SWAP3 POP PUSH1 0x40 DUP6 ADD CALLDATALOAD SWAP2 POP PUSH1 0x60 DUP6 ADD CALLDATALOAD PUSH1 0x1 PUSH1 0x1 PUSH1 0x40 SHL SUB DUP2 GT ISZERO PUSH2 0x46BD JUMPI PUSH0 PUSH0 REVERT JUMPDEST DUP6 ADD PUSH1 0x1F DUP2 ADD DUP8 SGT PUSH2 0x46CD JUMPI PUSH0 PUSH0 REVERT JUMPDEST PUSH2 0x46DC DUP8 DUP3 CALLDATALOAD PUSH1 0x20 DUP5 ADD PUSH2 0x4130 JUMP JUMPDEST SWAP2 POP POP SWAP3 SWAP6 SWAP2 SWAP5 POP SWAP3 POP JUMP JUMPDEST PUSH0 PUSH0 PUSH0 PUSH0 PUSH1 0x80 DUP6 DUP8 SUB SLT ISZERO PUSH2 0x46FB JUMPI PUSH0 PUSH0 REVERT JUMPDEST PUSH2 0x4704 DUP6 PUSH2 0x4089 JUMP JUMPDEST SWAP4 POP PUSH1 0x20 DUP6 ADD CALLDATALOAD SWAP3 POP PUSH1 0x40 DUP6 ADD CALLDATALOAD SWAP2 POP PUSH1 0x60 DUP6 ADD CALLDATALOAD PUSH2 0x4632 DUP2 PUSH2 0x4592 JUMP JUMPDEST PUSH0 PUSH0 PUSH1 0x40 DUP4 DUP6 SUB SLT ISZERO PUSH2 0x4733 JUMPI PUSH0 PUSH0 REVERT JUMPDEST PUSH2 0x473C DUP4 PUSH2 0x4089 JUMP JUMPDEST SWAP2 POP PUSH2 0x474A PUSH1 0x20 DUP5 ADD PUSH2 0x4089 JUMP JUMPDEST SWAP1 POP SWAP3 POP SWAP3 SWAP1 POP JUMP JUMPDEST DUP9 DUP2 MSTORE PUSH2 0x100 PUSH1 0x20 DUP3 ADD MSTORE PUSH0 PUSH2 0x476D PUSH2 0x100 DUP4 ADD DUP11 PUSH2 0x4032 JUMP JUMPDEST DUP3 DUP2 SUB PUSH1 0x40 DUP5 ADD MSTORE PUSH2 0x477F DUP2 DUP11 PUSH2 0x4032 JUMP JUMPDEST SWAP1 POP DUP3 DUP2 SUB PUSH1 0x60 DUP5 ADD MSTORE PUSH2 0x4793 DUP2 DUP10 PUSH2 0x4032 JUMP JUMPDEST PUSH1 0x1 PUSH1 0x1 PUSH1 0xA0 SHL SUB SWAP8 SWAP1 SWAP8 AND PUSH1 0x80 DUP5 ADD MSTORE POP POP PUSH1 0xA0 DUP2 ADD SWAP4 SWAP1 SWAP4 MSTORE SWAP1 ISZERO ISZERO PUSH1 0xC0 DUP4 ADD MSTORE PUSH1 0xE0 SWAP1 SWAP2 ADD MSTORE SWAP5 SWAP4 POP POP POP POP JUMP JUMPDEST PUSH1 0x1 DUP2 DUP2 SHR SWAP1 DUP3 AND DUP1 PUSH2 0x47D8 JUMPI PUSH1 0x7F DUP3 AND SWAP2 POP JUMPDEST PUSH1 0x20 DUP3 LT DUP2 SUB PUSH2 0x47F6 JUMPI PUSH4 0x4E487B71 PUSH1 0xE0 SHL PUSH0 MSTORE PUSH1 0x22 PUSH1 0x4 MSTORE PUSH1 0x24 PUSH0 REVERT JUMPDEST POP SWAP2 SWAP1 POP JUMP JUMPDEST PUSH4 0x4E487B71 PUSH1 0xE0 SHL PUSH0 MSTORE PUSH1 0x11 PUSH1 0x4 MSTORE PUSH1 0x24 PUSH0 REVERT JUMPDEST PUSH0 PUSH1 0x1 DUP3 ADD PUSH2 0x4821 JUMPI PUSH2 0x4821 PUSH2 0x47FC JUMP JUMPDEST POP PUSH1 0x1 ADD SWAP1 JUMP JUMPDEST PUSH1 0x1F DUP3 GT ISZERO PUSH2 0x1191 JUMPI DUP1 PUSH0 MSTORE PUSH1 0x20 PUSH0 KECCAK256 PUSH1 0x1F DUP5 ADD PUSH1 0x5 SHR DUP2 ADD PUSH1 0x20 DUP6 LT ISZERO PUSH2 0x484D JUMPI POP DUP1 JUMPDEST PUSH1 0x1F DUP5 ADD PUSH1 0x5 SHR DUP3 ADD SWAP2 POP JUMPDEST DUP2 DUP2 LT ISZERO PUSH2 0x361B JUMPI PUSH0 DUP2 SSTORE PUSH1 0x1 ADD PUSH2 0x4859 JUMP JUMPDEST DUP2 MLOAD PUSH1 0x1 PUSH1 0x1 PUSH1 0x40 SHL SUB DUP2 GT ISZERO PUSH2 0x4885 JUMPI PUSH2 0x4885 PUSH2 0x40EC JUMP JUMPDEST PUSH2 0x4899 DUP2 PUSH2 0x4893 DUP5 SLOAD PUSH2 0x47C4 JUMP JUMPDEST DUP5 PUSH2 0x4828 JUMP JUMPDEST PUSH1 0x20 PUSH1 0x1F DUP3 GT PUSH1 0x1 DUP2 EQ PUSH2 0x48CB JUMPI PUSH0 DUP4 ISZERO PUSH2 0x48B4 JUMPI POP DUP5 DUP3 ADD MLOAD JUMPDEST PUSH0 NOT PUSH1 0x3 DUP6 SWAP1 SHL SHR NOT AND PUSH1 0x1 DUP5 SWAP1 SHL OR DUP5 SSTORE PUSH2 0x361B JUMP JUMPDEST PUSH0 DUP5 DUP2 MSTORE PUSH1 0x20 DUP2 KECCAK256 PUSH1 0x1F NOT DUP6 AND SWAP2 JUMPDEST DUP3 DUP2 LT ISZERO PUSH2 0x48FA JUMPI DUP8 DUP6 ADD MLOAD DUP3 SSTORE PUSH1 0x20 SWAP5 DUP6 ADD SWAP5 PUSH1 0x1 SWAP1 SWAP3 ADD SWAP2 ADD PUSH2 0x48DA JUMP JUMPDEST POP DUP5 DUP3 LT ISZERO PUSH2 0x4917 JUMPI DUP7 DUP5 ADD MLOAD PUSH0 NOT PUSH1 0x3 DUP8 SWAP1 SHL PUSH1 0xF8 AND SHR NOT AND DUP2 SSTORE JUMPDEST POP POP POP POP PUSH1 0x1 SWAP1 DUP2 SHL ADD SWAP1 SSTORE POP JUMP JUMPDEST PUSH2 0x4930 DUP2 DUP5 PUSH2 0x42E0 JUMP JUMPDEST PUSH1 0x40 PUSH1 0x20 DUP3 ADD MSTORE PUSH0 PUSH2 0x2E93 PUSH1 0x40 DUP4 ADD DUP5 PUSH2 0x4032 JUMP JUMPDEST PUSH1 0x1 PUSH1 0x1 PUSH1 0xA0 SHL SUB SWAP4 DUP5 AND DUP2 MSTORE PUSH1 0x20 DUP2 ADD SWAP3 SWAP1 SWAP3 MSTORE SWAP1 SWAP2 AND PUSH1 0x40 DUP3 ADD MSTORE PUSH1 0x60 ADD SWAP1 JUMP JUMPDEST PUSH1 0x20 DUP1 DUP3 MSTORE PUSH1 0xF SWAP1 DUP3 ADD MSTORE PUSH15 0x496E76616C69642061646472657373 PUSH1 0x88 SHL PUSH1 0x40 DUP3 ADD MSTORE PUSH1 0x60 ADD SWAP1 JUMP JUMPDEST PUSH1 0x20 DUP1 DUP3 MSTORE PUSH1 0x14 SWAP1 DUP3 ADD MSTORE PUSH20 0x2737BA1031B7B63632B1BA34B7B71037BBB732B9 PUSH1 0x61 SHL PUSH1 0x40 DUP3 ADD MSTORE PUSH1 0x60 ADD SWAP1 JUMP JUMPDEST PUSH4 0x4E487B71 PUSH1 0xE0 SHL PUSH0 MSTORE PUSH1 0x32 PUSH1 0x4 MSTORE PUSH1 0x24 PUSH0 REVERT JUMPDEST DUP1 DUP3 MUL DUP2 ISZERO DUP3 DUP3 DIV DUP5 EQ OR PUSH2 0xBE3 JUMPI PUSH2 0xBE3 PUSH2 0x47FC JUMP JUMPDEST PUSH0 DUP3 PUSH2 0x4A04 JUMPI PUSH4 0x4E487B71 PUSH1 0xE0 SHL PUSH0 MSTORE PUSH1 0x12 PUSH1 0x4 MSTORE PUSH1 0x24 PUSH0 REVERT JUMPDEST POP DIV SWAP1 JUMP JUMPDEST DUP2 DUP2 SUB DUP2 DUP2 GT ISZERO PUSH2 0xBE3 JUMPI PUSH2 0xBE3 PUSH2 0x47FC JUMP JUMPDEST PUSH0 PUSH1 0x20 DUP3 DUP5 SUB SLT ISZERO PUSH2 0x4A2C JUMPI PUSH0 PUSH0 REVERT JUMPDEST DUP2 MLOAD PUSH2 0x39BC DUP2 PUSH2 0x4592 JUMP JUMPDEST DUP1 DUP3 ADD DUP1 DUP3 GT ISZERO PUSH2 0xBE3 JUMPI PUSH2 0xBE3 PUSH2 0x47FC JUMP JUMPDEST PUSH0 PUSH1 0x20 DUP3 DUP5 SUB SLT ISZERO PUSH2 0x4A5A JUMPI PUSH0 PUSH0 REVERT JUMPDEST POP MLOAD SWAP2 SWAP1 POP JUMP JUMPDEST PUSH1 0x40 DUP2 MSTORE PUSH0 PUSH2 0x4A73 PUSH1 0x40 DUP4 ADD DUP6 PUSH2 0x4032 JUMP JUMPDEST SWAP1 POP DUP3 PUSH1 0x20 DUP4 ADD MSTORE SWAP4 SWAP3 POP POP POP JUMP JUMPDEST PUSH1 0x1 PUSH1 0x1 PUSH1 0xA0 SHL SUB DUP6 DUP2 AND DUP3 MSTORE DUP5 AND PUSH1 0x20 DUP3 ADD MSTORE PUSH1 0x40 DUP2 ADD DUP4 SWAP1 MSTORE PUSH1 0x80 PUSH1 0x60 DUP3 ADD DUP2 SWAP1 MSTORE PUSH0 SWAP1 PUSH2 0x4467 SWAP1 DUP4 ADD DUP5 PUSH2 0x4032 JUMP JUMPDEST PUSH0 PUSH1 0x20 DUP3 DUP5 SUB SLT ISZERO PUSH2 0x4AC4 JUMPI PUSH0 PUSH0 REVERT JUMPDEST DUP2 MLOAD PUSH2 0x39BC DUP2 PUSH2 0x4002 JUMP JUMPDEST PUSH0 DUP2 MLOAD DUP1 PUSH1 0x20 DUP5 ADD DUP6 MCOPY PUSH0 SWAP4 ADD SWAP3 DUP4 MSTORE POP SWAP1 SWAP2 SWAP1 POP JUMP JUMPDEST PUSH0 PUSH2 0x2E93 PUSH2 0x4AF4 DUP4 DUP7 PUSH2 0x4ACF JUMP JUMPDEST DUP5 PUSH2 0x4ACF JUMP JUMPDEST PUSH4 0x4E487B71 PUSH1 0xE0 SHL PUSH0 MSTORE PUSH1 0x31 PUSH1 0x4 MSTORE PUSH1 0x24 PUSH0 REVERT INVALID LOG2 PUSH5 0x6970667358 0x22 SLT KECCAK256 0xF8 0xC6 SHL RETURNDATACOPY EXTCODESIZE 0xD0 0xD1 BLOBBASEFEE DUP8 0x1F 0xC5 EQ 0xCB MSTORE8 0xAE CALLDATACOPY 0xEB DUP14 PUSH3 0x953956 0xB2 0xCB 0xAD 0xB4 0xCD 0xD2 0xE4 SELFDESTRUCT 0xA5 0x26 PUSH5 0x736F6C6343 STOP ADDMOD SHR STOP CALLER "},"methodIdentifiers":{"aavePool()":"a03e4bc3","addNFTToCollection(uint256,uint256)":"b83abbe4","addSupportedChain(uint256)":"87188a00","approve(address,uint256)":"095ea7b3","balanceOf(address)":"70a08231","buyNFT(uint256)":"51ed8288","calculateProfit(uint256,uint256)":"e972261d","cancelListing(uint256)":"305a67a8","collections(uint256)":"fdbda0ec","createCollection(string,string,string,bool)":"8e657b58","emergencyUnlock(uint256)":"b0793313","getAPY(uint256)":"eeee849b","getApproved(uint256)":"081812fc","getCollectionNFTs(uint256)":"9e889b4c","getUserCollections(address)":"9aa5ad8c","getUserNFTs(address)":"52de4ee5","isApprovedForAll(address,address)":"e985e9c5","listNFT(uint256,uint256)":"94383f14","listings(uint256)":"de74e57b","lockTokens(address,uint256,uint256,bool)":"e6a478b3","locks(address,uint256)":"b425f802","mintAdvancedNFT(string,string,uint8,string,string[],string[],uint256,string)":"6dd408b4","name()":"06fdde03","nftInCollection(uint256,uint256)":"14232534","nftMetadata(uint256)":"49541015","owner()":"8da5cb5b","ownerOf(uint256)":"6352211e","pause()":"8456cb59","paused()":"5c975abb","platformFee()":"26232a2e","platformWallet()":"fa2af9da","profitRate()":"6388749c","profitWallet()":"2301d775","quickMintNFT(string,string,uint8,string,string)":"153dbab8","removeNFTFromCollection(uint256,uint256)":"4b129bee","removeSupportedChain(uint256)":"0c4844aa","renounceOwnership()":"715018a6","safeTransferFrom(address,address,uint256)":"42842e0e","safeTransferFrom(address,address,uint256,bytes)":"b88d4fde","setAavePool(address)":"349f937c","setApprovalForAll(address,bool)":"a22cb465","setPlatformFee(uint256)":"12e8e2c3","setPlatformWallet(address)":"8831e9cf","setProfitRate(uint256)":"eda42604","setProfitWallet(address)":"da2ca9b5","setUniswapRouter(address)":"bea9849e","supportedChains(uint256)":"548d496f","supportsInterface(bytes4)":"01ffc9a7","symbol()":"95d89b41","tokenByIndex(uint256)":"4f6ccce7","tokenOfOwnerByIndex(address,uint256)":"2f745c59","tokenURI(uint256)":"c87b56dd","totalSupply()":"18160ddd","transferFrom(address,address,uint256)":"23b872dd","transferOwnership(address)":"f2fde38b","uniswapRouter()":"735de9f7","unlockTokens(uint256)":"7c405325","unpause()":"3f4ba83a","userCollections(address,uint256)":"428a6171","userNFTs(address,uint256)":"291c73c3","withdrawEmergency(address,uint256)":"6c3d7e1d"}}}}}